{
  "address": "0xF682aD1CAc9De901c7f3dB1580Cb4620Fa1A8718",
  "abi": [
    {
      "inputs": [
        {
          "internalType": "contract IERC20",
          "name": "_rewardToken",
          "type": "address"
        },
        {
          "internalType": "contract IERC20",
          "name": "_stakingToken",
          "type": "address"
        },
        {
          "internalType": "uint256",
          "name": "_startBlock",
          "type": "uint256"
        },
        {
          "internalType": "uint256",
          "name": "_endBlock",
          "type": "uint256"
        },
        {
          "internalType": "uint256",
          "name": "_allocation",
          "type": "uint256"
        },
        {
          "internalType": "address",
          "name": "_feeRecipient",
          "type": "address"
        },
        {
          "internalType": "uint256[]",
          "name": "_feeStage",
          "type": "uint256[]"
        },
        {
          "internalType": "uint256[]",
          "name": "_blockDeltaFeeStage",
          "type": "uint256[]"
        }
      ],
      "stateMutability": "nonpayable",
      "type": "constructor"
    },
    {
      "anonymous": false,
      "inputs": [
        {
          "indexed": true,
          "internalType": "address",
          "name": "stakingToken",
          "type": "address"
        },
        {
          "indexed": true,
          "internalType": "address",
          "name": "rewardToken",
          "type": "address"
        },
        {
          "indexed": true,
          "internalType": "uint256",
          "name": "allocation",
          "type": "uint256"
        }
      ],
      "name": "CreatePool",
      "type": "event"
    },
    {
      "anonymous": false,
      "inputs": [
        {
          "indexed": true,
          "internalType": "address",
          "name": "user",
          "type": "address"
        },
        {
          "indexed": true,
          "internalType": "uint256",
          "name": "pid",
          "type": "uint256"
        },
        {
          "indexed": false,
          "internalType": "uint256",
          "name": "amount",
          "type": "uint256"
        }
      ],
      "name": "Deposit",
      "type": "event"
    },
    {
      "anonymous": false,
      "inputs": [
        {
          "indexed": true,
          "internalType": "address",
          "name": "user",
          "type": "address"
        },
        {
          "indexed": true,
          "internalType": "uint256",
          "name": "pid",
          "type": "uint256"
        },
        {
          "indexed": false,
          "internalType": "uint256",
          "name": "amount",
          "type": "uint256"
        }
      ],
      "name": "EmergencyWithdraw",
      "type": "event"
    },
    {
      "anonymous": false,
      "inputs": [
        {
          "indexed": true,
          "internalType": "address",
          "name": "previousOwner",
          "type": "address"
        },
        {
          "indexed": true,
          "internalType": "address",
          "name": "newOwner",
          "type": "address"
        }
      ],
      "name": "OwnershipTransferred",
      "type": "event"
    },
    {
      "anonymous": false,
      "inputs": [
        {
          "indexed": true,
          "internalType": "uint256",
          "name": "pid",
          "type": "uint256"
        },
        {
          "indexed": true,
          "internalType": "uint256",
          "name": "allocation",
          "type": "uint256"
        }
      ],
      "name": "UpdatePoolAllocation",
      "type": "event"
    },
    {
      "anonymous": false,
      "inputs": [
        {
          "indexed": true,
          "internalType": "address",
          "name": "user",
          "type": "address"
        },
        {
          "indexed": true,
          "internalType": "uint256",
          "name": "pid",
          "type": "uint256"
        },
        {
          "indexed": false,
          "internalType": "uint256",
          "name": "amount",
          "type": "uint256"
        }
      ],
      "name": "Withdraw",
      "type": "event"
    },
    {
      "inputs": [],
      "name": "FEE_BASE",
      "outputs": [
        {
          "internalType": "uint256",
          "name": "",
          "type": "uint256"
        }
      ],
      "stateMutability": "view",
      "type": "function"
    },
    {
      "inputs": [
        {
          "internalType": "uint256",
          "name": "_pid",
          "type": "uint256"
        },
        {
          "internalType": "uint256",
          "name": "_amount",
          "type": "uint256"
        }
      ],
      "name": "addAllocation",
      "outputs": [],
      "stateMutability": "nonpayable",
      "type": "function"
    },
    {
      "inputs": [
        {
          "internalType": "uint256",
          "name": "",
          "type": "uint256"
        }
      ],
      "name": "blockDeltaFeeStage",
      "outputs": [
        {
          "internalType": "uint256",
          "name": "",
          "type": "uint256"
        }
      ],
      "stateMutability": "view",
      "type": "function"
    },
    {
      "inputs": [],
      "name": "bonusMultiplier",
      "outputs": [
        {
          "internalType": "uint256",
          "name": "",
          "type": "uint256"
        }
      ],
      "stateMutability": "view",
      "type": "function"
    },
    {
      "inputs": [],
      "name": "claimLeftovers",
      "outputs": [],
      "stateMutability": "nonpayable",
      "type": "function"
    },
    {
      "inputs": [
        {
          "internalType": "uint256",
          "name": "_pid",
          "type": "uint256"
        },
        {
          "internalType": "uint256",
          "name": "_amount",
          "type": "uint256"
        }
      ],
      "name": "deposit",
      "outputs": [],
      "stateMutability": "nonpayable",
      "type": "function"
    },
    {
      "inputs": [
        {
          "internalType": "uint256",
          "name": "_pid",
          "type": "uint256"
        }
      ],
      "name": "emergencyWithdraw",
      "outputs": [],
      "stateMutability": "nonpayable",
      "type": "function"
    },
    {
      "inputs": [],
      "name": "endBlock",
      "outputs": [
        {
          "internalType": "uint256",
          "name": "",
          "type": "uint256"
        }
      ],
      "stateMutability": "view",
      "type": "function"
    },
    {
      "inputs": [],
      "name": "feeRecipient",
      "outputs": [
        {
          "internalType": "address",
          "name": "",
          "type": "address"
        }
      ],
      "stateMutability": "view",
      "type": "function"
    },
    {
      "inputs": [
        {
          "internalType": "uint256",
          "name": "",
          "type": "uint256"
        }
      ],
      "name": "feeStage",
      "outputs": [
        {
          "internalType": "uint256",
          "name": "",
          "type": "uint256"
        }
      ],
      "stateMutability": "view",
      "type": "function"
    },
    {
      "inputs": [
        {
          "internalType": "uint256",
          "name": "_from",
          "type": "uint256"
        },
        {
          "internalType": "uint256",
          "name": "_to",
          "type": "uint256"
        }
      ],
      "name": "getMultiplier",
      "outputs": [
        {
          "internalType": "uint256",
          "name": "",
          "type": "uint256"
        }
      ],
      "stateMutability": "view",
      "type": "function"
    },
    {
      "inputs": [
        {
          "internalType": "uint256",
          "name": "_pid",
          "type": "uint256"
        },
        {
          "internalType": "address",
          "name": "_user",
          "type": "address"
        }
      ],
      "name": "getPendingRewards",
      "outputs": [
        {
          "internalType": "uint256",
          "name": "",
          "type": "uint256"
        }
      ],
      "stateMutability": "view",
      "type": "function"
    },
    {
      "inputs": [],
      "name": "owner",
      "outputs": [
        {
          "internalType": "address",
          "name": "",
          "type": "address"
        }
      ],
      "stateMutability": "view",
      "type": "function"
    },
    {
      "inputs": [
        {
          "internalType": "uint256",
          "name": "",
          "type": "uint256"
        }
      ],
      "name": "poolInfo",
      "outputs": [
        {
          "internalType": "contract IERC20",
          "name": "token",
          "type": "address"
        },
        {
          "internalType": "uint256",
          "name": "supply",
          "type": "uint256"
        },
        {
          "internalType": "uint256",
          "name": "allocPoint",
          "type": "uint256"
        },
        {
          "internalType": "uint256",
          "name": "lastRewardBlock",
          "type": "uint256"
        },
        {
          "internalType": "uint256",
          "name": "accTokenPerShare",
          "type": "uint256"
        },
        {
          "internalType": "uint256",
          "name": "totalAllocation",
          "type": "uint256"
        },
        {
          "internalType": "uint256",
          "name": "totalReward",
          "type": "uint256"
        }
      ],
      "stateMutability": "view",
      "type": "function"
    },
    {
      "inputs": [],
      "name": "renounceOwnership",
      "outputs": [],
      "stateMutability": "nonpayable",
      "type": "function"
    },
    {
      "inputs": [],
      "name": "rewardToken",
      "outputs": [
        {
          "internalType": "contract IERC20",
          "name": "",
          "type": "address"
        }
      ],
      "stateMutability": "view",
      "type": "function"
    },
    {
      "inputs": [
        {
          "internalType": "uint256[]",
          "name": "_blockDeltas",
          "type": "uint256[]"
        }
      ],
      "name": "setBlockDeltaFeeStage",
      "outputs": [],
      "stateMutability": "nonpayable",
      "type": "function"
    },
    {
      "inputs": [
        {
          "internalType": "uint256",
          "name": "_block",
          "type": "uint256"
        }
      ],
      "name": "setEndBlock",
      "outputs": [],
      "stateMutability": "nonpayable",
      "type": "function"
    },
    {
      "inputs": [
        {
          "internalType": "address",
          "name": "_feeRecipient",
          "type": "address"
        }
      ],
      "name": "setFeeRecipient",
      "outputs": [],
      "stateMutability": "nonpayable",
      "type": "function"
    },
    {
      "inputs": [
        {
          "internalType": "uint256[]",
          "name": "_feeStage",
          "type": "uint256[]"
        }
      ],
      "name": "setFeeStage",
      "outputs": [],
      "stateMutability": "nonpayable",
      "type": "function"
    },
    {
      "inputs": [
        {
          "internalType": "uint256",
          "name": "_multiplier",
          "type": "uint256"
        }
      ],
      "name": "setMultiplier",
      "outputs": [],
      "stateMutability": "nonpayable",
      "type": "function"
    },
    {
      "inputs": [
        {
          "internalType": "uint256",
          "name": "_block",
          "type": "uint256"
        }
      ],
      "name": "setStartBlock",
      "outputs": [],
      "stateMutability": "nonpayable",
      "type": "function"
    },
    {
      "inputs": [
        {
          "internalType": "uint256",
          "name": "_amount",
          "type": "uint256"
        }
      ],
      "name": "setTokenPerBlock",
      "outputs": [],
      "stateMutability": "nonpayable",
      "type": "function"
    },
    {
      "inputs": [],
      "name": "startBlock",
      "outputs": [
        {
          "internalType": "uint256",
          "name": "",
          "type": "uint256"
        }
      ],
      "stateMutability": "view",
      "type": "function"
    },
    {
      "inputs": [],
      "name": "tokenPerBlock",
      "outputs": [
        {
          "internalType": "uint256",
          "name": "",
          "type": "uint256"
        }
      ],
      "stateMutability": "view",
      "type": "function"
    },
    {
      "inputs": [],
      "name": "totalAllocPoint",
      "outputs": [
        {
          "internalType": "uint256",
          "name": "",
          "type": "uint256"
        }
      ],
      "stateMutability": "view",
      "type": "function"
    },
    {
      "inputs": [
        {
          "internalType": "address",
          "name": "newOwner",
          "type": "address"
        }
      ],
      "name": "transferOwnership",
      "outputs": [],
      "stateMutability": "nonpayable",
      "type": "function"
    },
    {
      "inputs": [
        {
          "internalType": "uint256",
          "name": "_pid",
          "type": "uint256"
        }
      ],
      "name": "updatePool",
      "outputs": [],
      "stateMutability": "nonpayable",
      "type": "function"
    },
    {
      "inputs": [
        {
          "internalType": "uint256",
          "name": "",
          "type": "uint256"
        },
        {
          "internalType": "address",
          "name": "",
          "type": "address"
        }
      ],
      "name": "userInfo",
      "outputs": [
        {
          "internalType": "uint256",
          "name": "amount",
          "type": "uint256"
        },
        {
          "internalType": "uint256",
          "name": "rewardDebt",
          "type": "uint256"
        },
        {
          "internalType": "uint256",
          "name": "rewardDebtAtBlock",
          "type": "uint256"
        },
        {
          "internalType": "uint256",
          "name": "lastWithdrawBlock",
          "type": "uint256"
        },
        {
          "internalType": "uint256",
          "name": "firstDepositBlock",
          "type": "uint256"
        },
        {
          "internalType": "uint256",
          "name": "lastDepositBlock",
          "type": "uint256"
        }
      ],
      "stateMutability": "view",
      "type": "function"
    },
    {
      "inputs": [
        {
          "internalType": "uint256",
          "name": "_pid",
          "type": "uint256"
        },
        {
          "internalType": "uint256",
          "name": "_amount",
          "type": "uint256"
        }
      ],
      "name": "withdraw",
      "outputs": [],
      "stateMutability": "nonpayable",
      "type": "function"
    }
  ],
  "transactionHash": "0xdba13c99d93e971dced468daf24485f79201b05c789c39d79319d118a7346249",
  "args": [
    "0x6ee9b76a9cdd69190b5aad2b2f3b3fcb3471228e",
    "0x6ee9b76a9cdd69190b5aad2b2f3b3fcb3471228e",
    12298067,
    12312447,
    "1000000000000000000000",
    "0xE293014dC435f2263088cF726a32E537941F96Fa",
    [
      2500,
      1000,
      500,
      250,
      100
    ],
    [
      0,
      1200,
      2400,
      3600,
      4800
    ]
  ],
  "solcInputHash": "c21975e0f11e3a43a5a73b297dca75b9",
  "bytecode": "0x60a060405267016345785d8a0000600255600160035560006008553480156200002757600080fd5b506040516200295b3803806200295b83398181016040526101008110156200004e57600080fd5b815160208301516040808501516060860151608087015160a088015160c089018051955197999698949793969295919483019291846401000000008211156200009657600080fd5b908301906020820185811115620000ac57600080fd5b8251866020820283011164010000000082111715620000ca57600080fd5b82525081516020918201928201910280838360005b83811015620000f9578181015183820152602001620000df565b50505050905001604052602001805160405193929190846401000000008211156200012357600080fd5b9083019060208201858111156200013957600080fd5b82518660208202830111640100000000821117156200015757600080fd5b82525081516020918201928201910280838360005b83811015620001865781810151838201526020016200016c565b505050509050016040525050506000620001a56200040b60201b60201c565b600080546001600160a01b0319166001600160a01b0383169081178255604051929350917f8be0079c531659141344cd1fd0a4f28419497f9722a3daafe3b4186f6b6457e0908290a350606088901b6001600160601b031916608052600180546001600160a01b0319166001600160a01b0385161790556004869055600585905581516200023b9060099060208501906200040f565b5080516200025190600a9060208401906200040f565b506040805160e0810182526001600160a01b038981168083526000602084018181526001858701818152600454606088019081526080880185815260a089018e815260c08a018781526006805480880182559089529a517ff652222313e28459528d920b65115c16c04f3efc82aaedc97be59f3f377c0d3f6007909c029b8c0180546001600160a01b031916918c1691909117905595517ff652222313e28459528d920b65115c16c04f3efc82aaedc97be59f3f377c0d408b015592517ff652222313e28459528d920b65115c16c04f3efc82aaedc97be59f3f377c0d418a015590517ff652222313e28459528d920b65115c16c04f3efc82aaedc97be59f3f377c0d42890155517ff652222313e28459528d920b65115c16c04f3efc82aaedc97be59f3f377c0d43880155517ff652222313e28459528d920b65115c16c04f3efc82aaedc97be59f3f377c0d4487015590517ff652222313e28459528d920b65115c16c04f3efc82aaedc97be59f3f377c0d459095019490945560089390935592518793918c16927f0e66fff3899e1e2549b2e77654939827a893aadcf0ecb66e5d3b07c357a4162f91a4505050505050505062000476565b3390565b8280548282559060005260206000209081019282156200044d579160200282015b828111156200044d57825182559160200191906001019062000430565b506200045b9291506200045f565b5090565b5b808211156200045b576000815560010162000460565b60805160601c6124b3620004a8600039806111a552806118d05280611a175280611aba5280611b6352506124b36000f3fe608060405234801561001057600080fd5b50600436106101da5760003560e01c80638dbb1e3a11610104578063c960fdc1116100a2578063ecefc70511610071578063ecefc70514610604578063f2fde38b1461060c578063f35e4a6e14610632578063f7c618c11461064f576101da565b8063c960fdc1146104fb578063e2bbb15814610518578063e6014e021461053b578063e74b981b146105de576101da565b80639ac0d2c0116100de5780639ac0d2c0146104ab578063a408bb4c146104ce578063a8b973a1146104d6578063c713aa94146104de576101da565b80638dbb1e3a1461040c57806393f1a40b1461042f57806398c95c2c1461048e576101da565b8063469048401161017c578063641579a61161014b578063641579a6146103b3578063715018a6146103d057806385dc0aaf146103d85780638da5cb5b14610404576101da565b8063469048401461034d57806348cd4cb11461037157806351eb05a6146103795780635312ea8e14610396576101da565b806319221f47116101b857806319221f4714610260578063411330bd146103055780634198709a14610322578063441a3e701461032a576101da565b8063083c6323146101df5780631526fe27146101f957806317caf6f114610258575b600080fd5b6101e7610657565b60408051918252519081900360200190f35b6102166004803603602081101561020f57600080fd5b503561065d565b604080516001600160a01b0390981688526020880196909652868601949094526060860192909252608085015260a084015260c0830152519081900360e00190f35b6101e76106b3565b6103036004803603602081101561027657600080fd5b81019060208101813564010000000081111561029157600080fd5b8201836020820111156102a357600080fd5b803590602001918460208302840111640100000000831117156102c557600080fd5b9190808060200260200160405190810160405280939291908181526020018383602002808284376000920191909152509295506106b9945050505050565b005b6103036004803603602081101561031b57600080fd5b5035610773565b6101e7610868565b6103036004803603604081101561034057600080fd5b508035906020013561086e565b610355610a2f565b604080516001600160a01b039092168252519081900360200190f35b6101e7610a3e565b6103036004803603602081101561038f57600080fd5b5035610a44565b610303600480360360208110156103ac57600080fd5b5035610b7e565b610303600480360360208110156103c957600080fd5b5035610ca5565b610303610d61565b6101e7600480360360408110156103ee57600080fd5b50803590602001356001600160a01b0316610e0d565b610355610f69565b6101e76004803603604081101561042257600080fd5b5080359060200135610f78565b61045b6004803603604081101561044557600080fd5b50803590602001356001600160a01b0316610f93565b604080519687526020870195909552858501939093526060850191909152608084015260a0830152519081900360c00190f35b6101e7600480360360208110156104a457600080fd5b5035610fd3565b610303600480360360408110156104c157600080fd5b5080359060200135610ff1565b6103036110e1565b6101e761129a565b610303600480360360208110156104f457600080fd5b50356112a0565b6101e76004803603602081101561051157600080fd5b5035611387565b6103036004803603604081101561052e57600080fd5b5080359060200135611394565b6103036004803603602081101561055157600080fd5b81019060208101813564010000000081111561056c57600080fd5b82018360208201111561057e57600080fd5b803590602001918460208302840111640100000000831117156105a057600080fd5b91908080602002602001604051908101604052809392919081815260200183836020028082843760009201919091525092955061151f945050505050565b610303600480360360208110156105f457600080fd5b50356001600160a01b03166115d5565b6101e76116b4565b6103036004803603602081101561062257600080fd5b50356001600160a01b03166116ba565b6103036004803603602081101561064857600080fd5b50356117bc565b6103556118ce565b60055481565b6006818154811061066a57fe5b600091825260209091206007909102018054600182015460028301546003840154600485015460058601546006909601546001600160a01b039095169650929491939092919087565b60085481565b6106c16118f2565b6001600160a01b03166106d2610f69565b6001600160a01b03161461071b576040805162461bcd60e51b81526020600482018190526024820152600080516020612322833981519152604482015290519081900360640190fd5b600a5481511461075c5760405162461bcd60e51b815260040180806020018281038252602e8152602001806123fb602e913960400191505060405180910390fd5b805161076f90600a9060208401906121e6565b5050565b61077b6118f2565b6001600160a01b031661078c610f69565b6001600160a01b0316146107d5576040805162461bcd60e51b81526020600482018190526024820152600080516020612322833981519152604482015290519081900360640190fd5b6801a055690d9db8000081111561081d5760405162461bcd60e51b81526004018080602001828103825260248152602001806122936024913960400191505060405180910390fd5b662386f26fc100008110156108635760405162461bcd60e51b81526004018080602001828103825260228152602001806123776022913960400191505060405180910390fd5b600255565b60025481565b60006006838154811061087d57fe5b60009182526020808320868452600780835260408086203387529093529190932080549290910290920192508311156108e75760405162461bcd60e51b81526004018080602001828103825260308152602001806124296030913960400191505060405180910390fd5b6108f084610a44565b600061092a826001015461092464e8d4a5100061091e876004015487600001546118f690919063ffffffff16565b9061194f565b906119b6565b9050801561093c5761093c3382611a13565b83156109d157600061094e8633611c0a565b9050600061095c8287611dc3565b9050600061096a8388611ddf565b855490915061097990886119b6565b8555436003860155600186015461099090886119b6565b600187015585546109ab906001600160a01b03163384611df1565b80156109cd5760015486546109cd916001600160a01b03918216911683611df1565b5050505b600483015482546109ec9164e8d4a510009161091e916118f6565b6001830155604080518581529051869133917ff279e6a1f5e320cca91135676d9cb6e44ca8a08c0b88342bcdb1144f6511b5689181900360200190a35050505050565b6001546001600160a01b031681565b60045481565b600060068281548110610a5357fe5b90600052602060002090600702019050806003015443111580610a7c5750600554816003015410155b15610a875750610b7b565b6000816001015411610a9f5743600390910155610b7b565b60006005544311610ab05743610ab4565b6005545b90506000610ac6836003015483610f78565b90506000610af360085461091e8660020154610aed600254876118f690919063ffffffff16565b906118f6565b90508360050154610b11828660060154611e4390919063ffffffff16565b10610b2c5760068401546005850154610b29916119b6565b90505b6001840154610b5390610b489061091e8464e8d4a510006118f6565b600486015490611e43565b6004850155600384018390556006840154610b6e9082611e43565b8460060181905550505050505b50565b600060068281548110610b8d57fe5b6000918252602080832085845260078083526040808620338752909352919093208054929091029092016001810154909350610bc8916119b6565b82600101819055506000610bf86009600081548110610be357fe5b90600052602060002001548360000154611dc3565b90506000610c226009600081548110610c0d57fe5b90600052602060002001548460000154611ddf565b600080855560018501558454909150610c45906001600160a01b03163384611df1565b8015610c67576001548454610c67916001600160a01b03918216911683611df1565b604080518381529051869133917fbb757047c2b5f3974fe26b7c10f732e7bce710b0952a71082702781e62ae05959181900360200190a35050505050565b610cad6118f2565b6001600160a01b0316610cbe610f69565b6001600160a01b031614610d07576040805162461bcd60e51b81526020600482018190526024820152600080516020612322833981519152604482015290519081900360640190fd5b60008111610d5c576040805162461bcd60e51b815260206004820152601c60248201527f4475656c5374616b696e673a205a65726f206d756c7469706c69657200000000604482015290519081900360640190fd5b600355565b610d696118f2565b6001600160a01b0316610d7a610f69565b6001600160a01b031614610dc3576040805162461bcd60e51b81526020600482018190526024820152600080516020612322833981519152604482015290519081900360640190fd5b600080546040516001600160a01b03909116907f8be0079c531659141344cd1fd0a4f28419497f9722a3daafe3b4186f6b6457e0908390a3600080546001600160a01b0319169055565b60008060068481548110610e1d57fe5b60009182526020808320878452600780835260408086206001600160a01b038a16875290935291909320600454929091029092019250431015610e6557600092505050610f63565b6004820154600383015443118015610e805750600183015415155b15610f355760006005544311610e965743610e9a565b6005545b90506000610eac856003015483610f78565b90506000610ed360085461091e8860020154610aed600254876118f690919063ffffffff16565b90508560050154610ef1828860060154611e4390919063ffffffff16565b10610f0c5760068601546005870154610f09916119b6565b90505b6001860154610f2f90610f289061091e8464e8d4a510006118f6565b8590611e43565b93505050505b610f5d826001015461092464e8d4a5100061091e8587600001546118f690919063ffffffff16565b93505050505b92915050565b6000546001600160a01b031690565b600354600090610f8c90610aed84866119b6565b9392505050565b6007602090815260009283526040808420909152908252902080546001820154600283015460038401546004850154600590950154939492939192909186565b60098181548110610fe057fe5b600091825260209091200154905081565b610ff96118f2565b6001600160a01b031661100a610f69565b6001600160a01b031614611053576040805162461bcd60e51b81526020600482018190526024820152600080516020612322833981519152604482015290519081900360640190fd5b61105c82610a44565b61108d816006848154811061106d57fe5b906000526020600020906007020160050154611e4390919063ffffffff16565b6006838154811061109a57fe5b90600052602060002090600702016005018190555080827f9d62c4db36ca3dbbe725182d6fd89028014a7d014452b72741207cde80c7d11f60405160405180910390a35050565b6110e96118f2565b6001600160a01b03166110fa610f69565b6001600160a01b031614611143576040805162461bcd60e51b81526020600482018190526024820152600080516020612322833981519152604482015290519081900360640190fd5b600660008154811061115157fe5b9060005260206000209060070201600101546000146111a15760405162461bcd60e51b81526004018080602001828103825260268152602001806122476026913960400191505060405180910390fd5b60007f00000000000000000000000000000000000000000000000000000000000000006001600160a01b03166370a08231306040518263ffffffff1660e01b815260040180826001600160a01b0316815260200191505060206040518083038186803b15801561121057600080fd5b505afa158015611224573d6000803e3d6000fd5b505050506040513d602081101561123a57600080fd5b5051905080611290576040805162461bcd60e51b815260206004820152601960248201527f4475656c5374616b696e673a205a65726f2062616c616e636500000000000000604482015290519081900360640190fd5b610b7b3382611a13565b60035481565b6112a86118f2565b6001600160a01b03166112b9610f69565b6001600160a01b031614611302576040805162461bcd60e51b81526020600482018190526024820152600080516020612322833981519152604482015290519081900360640190fd5b43600554116113425760405162461bcd60e51b81526004018080602001828103825260268152602001806122b76026913960400191505060405180910390fd5b60045481116113825760405162461bcd60e51b81526004018080602001828103825260388152602001806123996038913960400191505060405180910390fd5b600555565b600a8181548110610fe057fe5b60055443106113ea576040805162461bcd60e51b815260206004820152601d60248201527f4475656c5374616b696e673a204465706f73697420646561646c696e65000000604482015290519081900360640190fd5b6000600683815481106113f957fe5b6000918252602080832086845260078083526040808620338752909352919093209102909101915061142a84610a44565b80541561147357600061145f826001015461092464e8d4a5100061091e876004015487600001546118f690919063ffffffff16565b90508015611471576114713382611a13565b505b805461147f9084611e43565b808255600483015461149c9164e8d4a510009161091e91906118f6565b600182015560048101546114b1574360048201555b43600582015560018201546114c69084611e43565b600183015581546114e2906001600160a01b0316333086611e9d565b604080518481529051859133917f90890809c654f11d6e72a28fa60149770a0d11ec6c92319d6ceb2bb0a4ea1a159181900360200190a350505050565b6115276118f2565b6001600160a01b0316611538610f69565b6001600160a01b031614611581576040805162461bcd60e51b81526020600482018190526024820152600080516020612322833981519152604482015290519081900360640190fd5b6009548151146115c25760405162461bcd60e51b81526004018080602001828103825260248152602001806122fe6024913960400191505060405180910390fd5b805161076f9060099060208401906121e6565b6115dd6118f2565b6001600160a01b03166115ee610f69565b6001600160a01b031614611637576040805162461bcd60e51b81526020600482018190526024820152600080516020612322833981519152604482015290519081900360640190fd5b6001600160a01b038116611692576040805162461bcd60e51b815260206004820152601f60248201527f4475656c5374616b696e673a205a65726f2066656520726563697069656e7400604482015290519081900360640190fd5b600180546001600160a01b0319166001600160a01b0392909216919091179055565b61271081565b6116c26118f2565b6001600160a01b03166116d3610f69565b6001600160a01b03161461171c576040805162461bcd60e51b81526020600482018190526024820152600080516020612322833981519152604482015290519081900360640190fd5b6001600160a01b0381166117615760405162461bcd60e51b815260040180806020018281038252602681526020018061226d6026913960400191505060405180910390fd5b600080546040516001600160a01b03808516939216917f8be0079c531659141344cd1fd0a4f28419497f9722a3daafe3b4186f6b6457e091a3600080546001600160a01b0319166001600160a01b0392909216919091179055565b6117c46118f2565b6001600160a01b03166117d5610f69565b6001600160a01b03161461181e576040805162461bcd60e51b81526020600482018190526024820152600080516020612322833981519152604482015290519081900360640190fd5b436004541161185e5760405162461bcd60e51b81526004018080602001828103825260258152602001806124596025913960400191505060405180910390fd5b600554811061189e5760405162461bcd60e51b81526004018080602001828103825260358152602001806123426035913960400191505060405180910390fd5b8060048190555060045460066000815481106118b657fe5b90600052602060002090600702016003018190555050565b7f000000000000000000000000000000000000000000000000000000000000000081565b3390565b60008261190557506000610f63565b8282028284828161191257fe5b0414610f8c5760405162461bcd60e51b81526004018080602001828103825260218152602001806122dd6021913960400191505060405180910390fd5b60008082116119a5576040805162461bcd60e51b815260206004820152601a60248201527f536166654d6174683a206469766973696f6e206279207a65726f000000000000604482015290519081900360640190fd5b8183816119ae57fe5b049392505050565b600082821115611a0d576040805162461bcd60e51b815260206004820152601e60248201527f536166654d6174683a207375627472616374696f6e206f766572666c6f770000604482015290519081900360640190fd5b50900390565b60007f00000000000000000000000000000000000000000000000000000000000000006001600160a01b03166370a08231306040518263ffffffff1660e01b815260040180826001600160a01b0316815260200191505060206040518083038186803b158015611a8257600080fd5b505afa158015611a96573d6000803e3d6000fd5b505050506040513d6020811015611aac57600080fd5b5051905080821115611b61577f00000000000000000000000000000000000000000000000000000000000000006001600160a01b031663a9059cbb84836040518363ffffffff1660e01b815260040180836001600160a01b0316815260200182815260200192505050602060405180830381600087803b158015611b2f57600080fd5b505af1158015611b43573d6000803e3d6000fd5b505050506040513d6020811015611b5957600080fd5b50611c059050565b7f00000000000000000000000000000000000000000000000000000000000000006001600160a01b031663a9059cbb84846040518363ffffffff1660e01b815260040180836001600160a01b0316815260200182815260200192505050602060405180830381600087803b158015611bd857600080fd5b505af1158015611bec573d6000803e3d6000fd5b505050506040513d6020811015611c0257600080fd5b50505b505050565b600080611c178484611efd565b90506000811580611c405750600a600081548110611c3157fe5b90600052602060002001548211155b15611c65576009600081548110611c5357fe5b90600052602060002001549050611dbb565b600a600081548110611c7357fe5b906000526020600020015482118015611ca45750600a600181548110611c9557fe5b90600052602060002001548211155b15611cb7576009600181548110611c5357fe5b600a600181548110611cc557fe5b906000526020600020015482118015611cf65750600a600281548110611ce757fe5b90600052602060002001548211155b15611d09576009600281548110611c5357fe5b600a600281548110611d1757fe5b906000526020600020015482118015611d485750600a600381548110611d3957fe5b90600052602060002001548211155b15611d5b576009600381548110611c5357fe5b600a600381548110611d6957fe5b906000526020600020015482118015611d9a5750600a600481548110611d8b57fe5b90600052602060002001548211155b15611dbb576009600481548110611dad57fe5b906000526020600020015490505b949350505050565b6000610f8c61271061091e611dd882876119b6565b85906118f6565b6000610f8c61271061091e84866118f6565b604080516001600160a01b038416602482015260448082018490528251808303909101815260649091019091526020810180516001600160e01b031663a9059cbb60e01b179052611c05908490611f65565b600082820183811015610f8c576040805162461bcd60e51b815260206004820152601b60248201527f536166654d6174683a206164646974696f6e206f766572666c6f770000000000604482015290519081900360640190fd5b604080516001600160a01b0380861660248301528416604482015260648082018490528251808303909101815260849091019091526020810180516001600160e01b03166323b872dd60e01b179052611ef7908590611f65565b50505050565b60008281526007602090815260408083206001600160a01b03851684529091528120600381015415611f4c576000611f428260030154436119b690919063ffffffff16565b9250610f63915050565b6000611f428260040154436119b690919063ffffffff16565b6060611fba826040518060400160405280602081526020017f5361666545524332303a206c6f772d6c6576656c2063616c6c206661696c6564815250856001600160a01b03166120169092919063ffffffff16565b805190915015611c0557808060200190516020811015611fd957600080fd5b5051611c055760405162461bcd60e51b815260040180806020018281038252602a8152602001806123d1602a913960400191505060405180910390fd5b6060611dbb84846000858561202a8561213c565b61207b576040805162461bcd60e51b815260206004820152601d60248201527f416464726573733a2063616c6c20746f206e6f6e2d636f6e7472616374000000604482015290519081900360640190fd5b60006060866001600160a01b031685876040518082805190602001908083835b602083106120ba5780518252601f19909201916020918201910161209b565b6001836020036101000a03801982511681845116808217855250505050505090500191505060006040518083038185875af1925050503d806000811461211c576040519150601f19603f3d011682016040523d82523d6000602084013e612121565b606091505b5091509150612131828286612142565b979650505050505050565b3b151590565b60608315612151575081610f8c565b8251156121615782518084602001fd5b8160405162461bcd60e51b81526004018080602001828103825283818151815260200191508051906020019080838360005b838110156121ab578181015183820152602001612193565b50505050905090810190601f1680156121d85780820380516001836020036101000a031916815260200191505b509250505060405180910390fd5b828054828255906000526020600020908101928215612221579160200282015b82811115612221578251825591602001919060010190612206565b5061222d929150612231565b5090565b5b8082111561222d576000815560010161223256fe4475656c5374616b696e673a204e6f7420616c6c2075736572732068617320636c61696d65644f776e61626c653a206e6577206f776e657220697320746865207a65726f20616464726573734475656c5374616b696e673a204d61782070657220626c6f636b20333020746f6b656e734475656c5374616b696e673a204661726d696e6720686173206265656e2066696e6973686564536166654d6174683a206d756c7469706c69636174696f6e206f766572666c6f774475656c5374616b696e673a204665655374616765206172726179206d69736d617463684f776e61626c653a2063616c6c6572206973206e6f7420746865206f776e65724475656c5374616b696e673a20537461727420626c6f636b2073686f756c64206265206c657373207468656e20656e64426c6f636b4475656c5374616b696e673a204d696e2070657220626c6f636b203120746f6b656e4475656c5374616b696e673a20456e6420626c6f636b2073686f756c642062652067726561746572207468656e207374617274426c6f636b5361666545524332303a204552433230206f7065726174696f6e20646964206e6f7420737563636565644475656c5374616b696e673a20426c6f636b44656c74614665655374616765206172726179206d69736d617463684475656c5374616b696e673a20576974686472617720616d6f756e742065786365656473207573657220616d6f756e744475656c5374616b696e673a204661726d696e6720686173206265656e2073746172746564a26469706673582212200d4221e0b1746af370b3df01b04771aba595864b09e92b911bd29cb7b3b7bc9f64736f6c634300060c0033",
  "devdoc": {
    "kind": "dev",
    "methods": {
      "addAllocation(uint256,uint256)": {
        "details": "Add pool reward allocation. Can only be called by the owner."
      },
      "claimLeftovers()": {
        "details": "Sends leftover tokens to the fee recipient, only owner."
      },
      "deposit(uint256,uint256)": {
        "details": "Deposit tokens to DuelStaking for reward token allocation."
      },
      "emergencyWithdraw(uint256)": {
        "details": "Withdraw without caring about rewards. EMERGENCY ONLY. This has 25% slashing fee as same block withdrawals to prevent abuse of this function."
      },
      "getMultiplier(uint256,uint256)": {
        "details": "Returns reward multiplier over the given _from to _to block."
      },
      "getPendingRewards(uint256,address)": {
        "details": "Returns pending rewards for user."
      },
      "owner()": {
        "details": "Returns the address of the current owner."
      },
      "renounceOwnership()": {
        "details": "Leaves the contract without owner. It will not be possible to call `onlyOwner` functions anymore. Can only be called by the current owner. NOTE: Renouncing ownership will leave the contract without an owner, thereby removing any functionality that is only available to the owner."
      },
      "setBlockDeltaFeeStage(uint256[])": {
        "details": "Updates block delta fee stage array, only owner. i.e. [0,1200,2400,3600,4800] for BSC 1200 block ~ 1 hour must be length of 5"
      },
      "setEndBlock(uint256)": {
        "details": "Updates end block, only owner."
      },
      "setFeeRecipient(address)": {
        "details": "Updates fee recipient, only owner."
      },
      "setFeeStage(uint256[])": {
        "details": "Updates fee stage, only owner. i.e. [2500,400,300,200,100] = [25%,4%,3%,2%,1%] must be length of 5"
      },
      "setMultiplier(uint256)": {
        "details": "Updates reward multiplier, only owner."
      },
      "setStartBlock(uint256)": {
        "details": "Updates start block, only owner."
      },
      "setTokenPerBlock(uint256)": {
        "details": "Updates reward per block, only owner."
      },
      "transferOwnership(address)": {
        "details": "Transfers ownership of the contract to a new account (`newOwner`). Can only be called by the current owner."
      },
      "updatePool(uint256)": {
        "details": "Updates reward vairables for the pool."
      },
      "withdraw(uint256,uint256)": {
        "details": "Withdraw LP tokens from DuelStaking."
      }
    },
    "version": 1
  },
  "userdoc": {
    "kind": "user",
    "methods": {},
    "version": 1
  },
  "storageLayout": {
    "storage": [
      {
        "astId": 290,
        "contract": "contracts/DuelStaking.sol:DuelStaking",
        "label": "_owner",
        "offset": 0,
        "slot": "0",
        "type": "t_address"
      },
      {
        "astId": 4279,
        "contract": "contracts/DuelStaking.sol:DuelStaking",
        "label": "feeRecipient",
        "offset": 0,
        "slot": "1",
        "type": "t_address"
      },
      {
        "astId": 4282,
        "contract": "contracts/DuelStaking.sol:DuelStaking",
        "label": "tokenPerBlock",
        "offset": 0,
        "slot": "2",
        "type": "t_uint256"
      },
      {
        "astId": 4285,
        "contract": "contracts/DuelStaking.sol:DuelStaking",
        "label": "bonusMultiplier",
        "offset": 0,
        "slot": "3",
        "type": "t_uint256"
      },
      {
        "astId": 4287,
        "contract": "contracts/DuelStaking.sol:DuelStaking",
        "label": "startBlock",
        "offset": 0,
        "slot": "4",
        "type": "t_uint256"
      },
      {
        "astId": 4289,
        "contract": "contracts/DuelStaking.sol:DuelStaking",
        "label": "endBlock",
        "offset": 0,
        "slot": "5",
        "type": "t_uint256"
      },
      {
        "astId": 4292,
        "contract": "contracts/DuelStaking.sol:DuelStaking",
        "label": "poolInfo",
        "offset": 0,
        "slot": "6",
        "type": "t_array(t_struct(PoolInfo)4272_storage)dyn_storage"
      },
      {
        "astId": 4298,
        "contract": "contracts/DuelStaking.sol:DuelStaking",
        "label": "userInfo",
        "offset": 0,
        "slot": "7",
        "type": "t_mapping(t_uint256,t_mapping(t_address,t_struct(UserInfo)4257_storage))"
      },
      {
        "astId": 4301,
        "contract": "contracts/DuelStaking.sol:DuelStaking",
        "label": "totalAllocPoint",
        "offset": 0,
        "slot": "8",
        "type": "t_uint256"
      },
      {
        "astId": 4304,
        "contract": "contracts/DuelStaking.sol:DuelStaking",
        "label": "feeStage",
        "offset": 0,
        "slot": "9",
        "type": "t_array(t_uint256)dyn_storage"
      },
      {
        "astId": 4307,
        "contract": "contracts/DuelStaking.sol:DuelStaking",
        "label": "blockDeltaFeeStage",
        "offset": 0,
        "slot": "10",
        "type": "t_array(t_uint256)dyn_storage"
      }
    ],
    "types": {
      "t_address": {
        "encoding": "inplace",
        "label": "address",
        "numberOfBytes": "20"
      },
      "t_array(t_struct(PoolInfo)4272_storage)dyn_storage": {
        "base": "t_struct(PoolInfo)4272_storage",
        "encoding": "dynamic_array",
        "label": "struct DuelStaking.PoolInfo[]",
        "numberOfBytes": "32"
      },
      "t_array(t_uint256)dyn_storage": {
        "base": "t_uint256",
        "encoding": "dynamic_array",
        "label": "uint256[]",
        "numberOfBytes": "32"
      },
      "t_contract(IERC20)1387": {
        "encoding": "inplace",
        "label": "contract IERC20",
        "numberOfBytes": "20"
      },
      "t_mapping(t_address,t_struct(UserInfo)4257_storage)": {
        "encoding": "mapping",
        "key": "t_address",
        "label": "mapping(address => struct DuelStaking.UserInfo)",
        "numberOfBytes": "32",
        "value": "t_struct(UserInfo)4257_storage"
      },
      "t_mapping(t_uint256,t_mapping(t_address,t_struct(UserInfo)4257_storage))": {
        "encoding": "mapping",
        "key": "t_uint256",
        "label": "mapping(uint256 => mapping(address => struct DuelStaking.UserInfo))",
        "numberOfBytes": "32",
        "value": "t_mapping(t_address,t_struct(UserInfo)4257_storage)"
      },
      "t_struct(PoolInfo)4272_storage": {
        "encoding": "inplace",
        "label": "struct DuelStaking.PoolInfo",
        "members": [
          {
            "astId": 4259,
            "contract": "contracts/DuelStaking.sol:DuelStaking",
            "label": "token",
            "offset": 0,
            "slot": "0",
            "type": "t_contract(IERC20)1387"
          },
          {
            "astId": 4261,
            "contract": "contracts/DuelStaking.sol:DuelStaking",
            "label": "supply",
            "offset": 0,
            "slot": "1",
            "type": "t_uint256"
          },
          {
            "astId": 4263,
            "contract": "contracts/DuelStaking.sol:DuelStaking",
            "label": "allocPoint",
            "offset": 0,
            "slot": "2",
            "type": "t_uint256"
          },
          {
            "astId": 4265,
            "contract": "contracts/DuelStaking.sol:DuelStaking",
            "label": "lastRewardBlock",
            "offset": 0,
            "slot": "3",
            "type": "t_uint256"
          },
          {
            "astId": 4267,
            "contract": "contracts/DuelStaking.sol:DuelStaking",
            "label": "accTokenPerShare",
            "offset": 0,
            "slot": "4",
            "type": "t_uint256"
          },
          {
            "astId": 4269,
            "contract": "contracts/DuelStaking.sol:DuelStaking",
            "label": "totalAllocation",
            "offset": 0,
            "slot": "5",
            "type": "t_uint256"
          },
          {
            "astId": 4271,
            "contract": "contracts/DuelStaking.sol:DuelStaking",
            "label": "totalReward",
            "offset": 0,
            "slot": "6",
            "type": "t_uint256"
          }
        ],
        "numberOfBytes": "224"
      },
      "t_struct(UserInfo)4257_storage": {
        "encoding": "inplace",
        "label": "struct DuelStaking.UserInfo",
        "members": [
          {
            "astId": 4246,
            "contract": "contracts/DuelStaking.sol:DuelStaking",
            "label": "amount",
            "offset": 0,
            "slot": "0",
            "type": "t_uint256"
          },
          {
            "astId": 4248,
            "contract": "contracts/DuelStaking.sol:DuelStaking",
            "label": "rewardDebt",
            "offset": 0,
            "slot": "1",
            "type": "t_uint256"
          },
          {
            "astId": 4250,
            "contract": "contracts/DuelStaking.sol:DuelStaking",
            "label": "rewardDebtAtBlock",
            "offset": 0,
            "slot": "2",
            "type": "t_uint256"
          },
          {
            "astId": 4252,
            "contract": "contracts/DuelStaking.sol:DuelStaking",
            "label": "lastWithdrawBlock",
            "offset": 0,
            "slot": "3",
            "type": "t_uint256"
          },
          {
            "astId": 4254,
            "contract": "contracts/DuelStaking.sol:DuelStaking",
            "label": "firstDepositBlock",
            "offset": 0,
            "slot": "4",
            "type": "t_uint256"
          },
          {
            "astId": 4256,
            "contract": "contracts/DuelStaking.sol:DuelStaking",
            "label": "lastDepositBlock",
            "offset": 0,
            "slot": "5",
            "type": "t_uint256"
          }
        ],
        "numberOfBytes": "192"
      },
      "t_uint256": {
        "encoding": "inplace",
        "label": "uint256",
        "numberOfBytes": "32"
      }
    }
  }
}