{
  "address": "0xC7Ca29d9ae3ddeD2eceCee12F17CCD144c84ef63",
  "abi": [
    {
      "inputs": [
        {
          "internalType": "contract DuelToken",
          "name": "_DUEL",
          "type": "address"
        },
        {
          "internalType": "address",
          "name": "_feeAddress",
          "type": "address"
        },
        {
          "internalType": "uint256",
          "name": "_startBlock",
          "type": "uint256"
        },
        {
          "internalType": "uint256",
          "name": "_endBlock",
          "type": "uint256"
        },
        {
          "internalType": "uint256",
          "name": "_depositEndBlock",
          "type": "uint256"
        },
        {
          "internalType": "contract IERC20",
          "name": "_lpToken",
          "type": "address"
        },
        {
          "internalType": "uint256[]",
          "name": "_allocationPoints",
          "type": "uint256[]"
        }
      ],
      "stateMutability": "nonpayable",
      "type": "constructor"
    },
    {
      "anonymous": false,
      "inputs": [
        {
          "indexed": true,
          "internalType": "address",
          "name": "user",
          "type": "address"
        },
        {
          "indexed": true,
          "internalType": "uint256",
          "name": "pid",
          "type": "uint256"
        },
        {
          "indexed": false,
          "internalType": "uint256",
          "name": "amount",
          "type": "uint256"
        }
      ],
      "name": "Claim",
      "type": "event"
    },
    {
      "anonymous": false,
      "inputs": [
        {
          "indexed": true,
          "internalType": "address",
          "name": "user",
          "type": "address"
        },
        {
          "indexed": true,
          "internalType": "uint256",
          "name": "pid",
          "type": "uint256"
        },
        {
          "indexed": false,
          "internalType": "uint256",
          "name": "amount",
          "type": "uint256"
        }
      ],
      "name": "Deposit",
      "type": "event"
    },
    {
      "anonymous": false,
      "inputs": [
        {
          "indexed": true,
          "internalType": "address",
          "name": "user",
          "type": "address"
        },
        {
          "indexed": true,
          "internalType": "uint256",
          "name": "pid",
          "type": "uint256"
        },
        {
          "indexed": false,
          "internalType": "uint256",
          "name": "amount",
          "type": "uint256"
        }
      ],
      "name": "EmergencyWithdraw",
      "type": "event"
    },
    {
      "anonymous": false,
      "inputs": [
        {
          "indexed": true,
          "internalType": "address",
          "name": "user",
          "type": "address"
        },
        {
          "indexed": true,
          "internalType": "uint256",
          "name": "pid",
          "type": "uint256"
        }
      ],
      "name": "Exit",
      "type": "event"
    },
    {
      "anonymous": false,
      "inputs": [
        {
          "indexed": true,
          "internalType": "address",
          "name": "user",
          "type": "address"
        },
        {
          "indexed": false,
          "internalType": "uint256",
          "name": "amount",
          "type": "uint256"
        }
      ],
      "name": "LeftoverClaim",
      "type": "event"
    },
    {
      "anonymous": false,
      "inputs": [
        {
          "indexed": true,
          "internalType": "address",
          "name": "previousOwner",
          "type": "address"
        },
        {
          "indexed": true,
          "internalType": "address",
          "name": "newOwner",
          "type": "address"
        }
      ],
      "name": "OwnershipTransferred",
      "type": "event"
    },
    {
      "anonymous": false,
      "inputs": [
        {
          "indexed": true,
          "internalType": "address",
          "name": "user",
          "type": "address"
        },
        {
          "indexed": true,
          "internalType": "uint256",
          "name": "pid",
          "type": "uint256"
        },
        {
          "indexed": false,
          "internalType": "uint256",
          "name": "amount",
          "type": "uint256"
        }
      ],
      "name": "Withdraw",
      "type": "event"
    },
    {
      "inputs": [],
      "name": "DUEL",
      "outputs": [
        {
          "internalType": "contract DuelToken",
          "name": "",
          "type": "address"
        }
      ],
      "stateMutability": "view",
      "type": "function"
    },
    {
      "inputs": [],
      "name": "FEE_BASE",
      "outputs": [
        {
          "internalType": "uint256",
          "name": "",
          "type": "uint256"
        }
      ],
      "stateMutability": "view",
      "type": "function"
    },
    {
      "inputs": [],
      "name": "SLASHING_FEE",
      "outputs": [
        {
          "internalType": "uint256",
          "name": "",
          "type": "uint256"
        }
      ],
      "stateMutability": "view",
      "type": "function"
    },
    {
      "inputs": [
        {
          "internalType": "contract IERC20",
          "name": "_lp",
          "type": "address"
        },
        {
          "internalType": "uint256",
          "name": "_alloc",
          "type": "uint256"
        },
        {
          "internalType": "bool",
          "name": "_withUpdate",
          "type": "bool"
        }
      ],
      "name": "addPool",
      "outputs": [],
      "stateMutability": "nonpayable",
      "type": "function"
    },
    {
      "inputs": [],
      "name": "claimLeftovers",
      "outputs": [],
      "stateMutability": "nonpayable",
      "type": "function"
    },
    {
      "inputs": [],
      "name": "claimingFee",
      "outputs": [
        {
          "internalType": "uint256",
          "name": "",
          "type": "uint256"
        }
      ],
      "stateMutability": "view",
      "type": "function"
    },
    {
      "inputs": [
        {
          "internalType": "uint256",
          "name": "_pid",
          "type": "uint256"
        },
        {
          "internalType": "uint256",
          "name": "_amount",
          "type": "uint256"
        }
      ],
      "name": "deposit",
      "outputs": [],
      "stateMutability": "nonpayable",
      "type": "function"
    },
    {
      "inputs": [],
      "name": "depositEndBlock",
      "outputs": [
        {
          "internalType": "uint256",
          "name": "",
          "type": "uint256"
        }
      ],
      "stateMutability": "view",
      "type": "function"
    },
    {
      "inputs": [
        {
          "internalType": "uint256",
          "name": "_pid",
          "type": "uint256"
        }
      ],
      "name": "emergencyWithdraw",
      "outputs": [],
      "stateMutability": "nonpayable",
      "type": "function"
    },
    {
      "inputs": [],
      "name": "endBlock",
      "outputs": [
        {
          "internalType": "uint256",
          "name": "",
          "type": "uint256"
        }
      ],
      "stateMutability": "view",
      "type": "function"
    },
    {
      "inputs": [],
      "name": "eventResult",
      "outputs": [
        {
          "internalType": "uint256",
          "name": "winnerPid",
          "type": "uint256"
        },
        {
          "internalType": "enum DuelEvent.EventResultStatus",
          "name": "status",
          "type": "uint8"
        }
      ],
      "stateMutability": "view",
      "type": "function"
    },
    {
      "inputs": [
        {
          "internalType": "uint256",
          "name": "_pid",
          "type": "uint256"
        }
      ],
      "name": "exit",
      "outputs": [],
      "stateMutability": "nonpayable",
      "type": "function"
    },
    {
      "inputs": [],
      "name": "feeRecipient",
      "outputs": [
        {
          "internalType": "address",
          "name": "",
          "type": "address"
        }
      ],
      "stateMutability": "view",
      "type": "function"
    },
    {
      "inputs": [],
      "name": "getBaseRewardPerBlock",
      "outputs": [
        {
          "internalType": "uint256",
          "name": "",
          "type": "uint256"
        }
      ],
      "stateMutability": "view",
      "type": "function"
    },
    {
      "inputs": [
        {
          "internalType": "uint256",
          "name": "_from",
          "type": "uint256"
        },
        {
          "internalType": "uint256",
          "name": "_to",
          "type": "uint256"
        }
      ],
      "name": "getMultiplier",
      "outputs": [
        {
          "internalType": "uint256",
          "name": "",
          "type": "uint256"
        }
      ],
      "stateMutability": "pure",
      "type": "function"
    },
    {
      "inputs": [
        {
          "internalType": "uint256",
          "name": "_pid",
          "type": "uint256"
        }
      ],
      "name": "getPoolRewardPerBlock",
      "outputs": [
        {
          "internalType": "uint256",
          "name": "",
          "type": "uint256"
        }
      ],
      "stateMutability": "view",
      "type": "function"
    },
    {
      "inputs": [],
      "name": "massUpdatePools",
      "outputs": [],
      "stateMutability": "nonpayable",
      "type": "function"
    },
    {
      "inputs": [],
      "name": "owner",
      "outputs": [
        {
          "internalType": "address",
          "name": "",
          "type": "address"
        }
      ],
      "stateMutability": "view",
      "type": "function"
    },
    {
      "inputs": [
        {
          "internalType": "uint256",
          "name": "_pid",
          "type": "uint256"
        },
        {
          "internalType": "address",
          "name": "_user",
          "type": "address"
        }
      ],
      "name": "pendingRewards",
      "outputs": [
        {
          "internalType": "uint256",
          "name": "",
          "type": "uint256"
        }
      ],
      "stateMutability": "view",
      "type": "function"
    },
    {
      "inputs": [
        {
          "internalType": "uint256",
          "name": "",
          "type": "uint256"
        }
      ],
      "name": "poolInfo",
      "outputs": [
        {
          "internalType": "contract IERC20",
          "name": "lpToken",
          "type": "address"
        },
        {
          "internalType": "uint256",
          "name": "supply",
          "type": "uint256"
        },
        {
          "internalType": "uint256",
          "name": "allocPoint",
          "type": "uint256"
        },
        {
          "internalType": "uint256",
          "name": "lastRewardBlock",
          "type": "uint256"
        },
        {
          "internalType": "uint256",
          "name": "accTokenPerShare",
          "type": "uint256"
        },
        {
          "internalType": "uint256",
          "name": "totalRewards",
          "type": "uint256"
        }
      ],
      "stateMutability": "view",
      "type": "function"
    },
    {
      "inputs": [],
      "name": "poolLength",
      "outputs": [
        {
          "internalType": "uint256",
          "name": "",
          "type": "uint256"
        }
      ],
      "stateMutability": "view",
      "type": "function"
    },
    {
      "inputs": [],
      "name": "renounceOwnership",
      "outputs": [],
      "stateMutability": "nonpayable",
      "type": "function"
    },
    {
      "inputs": [],
      "name": "setCancel",
      "outputs": [],
      "stateMutability": "nonpayable",
      "type": "function"
    },
    {
      "inputs": [
        {
          "internalType": "uint256",
          "name": "_fee",
          "type": "uint256"
        }
      ],
      "name": "setClaimingFee",
      "outputs": [],
      "stateMutability": "nonpayable",
      "type": "function"
    },
    {
      "inputs": [
        {
          "internalType": "uint256",
          "name": "_block",
          "type": "uint256"
        }
      ],
      "name": "setDepositEndBlock",
      "outputs": [],
      "stateMutability": "nonpayable",
      "type": "function"
    },
    {
      "inputs": [],
      "name": "setDraw",
      "outputs": [],
      "stateMutability": "nonpayable",
      "type": "function"
    },
    {
      "inputs": [
        {
          "internalType": "uint256",
          "name": "_block",
          "type": "uint256"
        }
      ],
      "name": "setEndBlock",
      "outputs": [],
      "stateMutability": "nonpayable",
      "type": "function"
    },
    {
      "inputs": [
        {
          "internalType": "address",
          "name": "_feeRecipient",
          "type": "address"
        }
      ],
      "name": "setFeeRecipient",
      "outputs": [],
      "stateMutability": "nonpayable",
      "type": "function"
    },
    {
      "inputs": [
        {
          "internalType": "uint256",
          "name": "_pid",
          "type": "uint256"
        },
        {
          "internalType": "uint256",
          "name": "_alloc",
          "type": "uint256"
        },
        {
          "internalType": "bool",
          "name": "_withUpdate",
          "type": "bool"
        }
      ],
      "name": "setPool",
      "outputs": [],
      "stateMutability": "nonpayable",
      "type": "function"
    },
    {
      "inputs": [
        {
          "internalType": "uint256",
          "name": "_block",
          "type": "uint256"
        }
      ],
      "name": "setStartBlock",
      "outputs": [],
      "stateMutability": "nonpayable",
      "type": "function"
    },
    {
      "inputs": [
        {
          "internalType": "uint256",
          "name": "_amount",
          "type": "uint256"
        }
      ],
      "name": "setTokenPerBlock",
      "outputs": [],
      "stateMutability": "nonpayable",
      "type": "function"
    },
    {
      "inputs": [
        {
          "internalType": "uint256",
          "name": "_pid",
          "type": "uint256"
        }
      ],
      "name": "setWin",
      "outputs": [],
      "stateMutability": "nonpayable",
      "type": "function"
    },
    {
      "inputs": [
        {
          "internalType": "uint256",
          "name": "_fee",
          "type": "uint256"
        }
      ],
      "name": "setWithdrawalFee",
      "outputs": [],
      "stateMutability": "nonpayable",
      "type": "function"
    },
    {
      "inputs": [],
      "name": "startBlock",
      "outputs": [
        {
          "internalType": "uint256",
          "name": "",
          "type": "uint256"
        }
      ],
      "stateMutability": "view",
      "type": "function"
    },
    {
      "inputs": [],
      "name": "tokenPerBlock",
      "outputs": [
        {
          "internalType": "uint256",
          "name": "",
          "type": "uint256"
        }
      ],
      "stateMutability": "view",
      "type": "function"
    },
    {
      "inputs": [],
      "name": "totalAllocPoint",
      "outputs": [
        {
          "internalType": "uint256",
          "name": "",
          "type": "uint256"
        }
      ],
      "stateMutability": "view",
      "type": "function"
    },
    {
      "inputs": [
        {
          "internalType": "address",
          "name": "newOwner",
          "type": "address"
        }
      ],
      "name": "transferOwnership",
      "outputs": [],
      "stateMutability": "nonpayable",
      "type": "function"
    },
    {
      "inputs": [
        {
          "internalType": "uint256",
          "name": "_pid",
          "type": "uint256"
        }
      ],
      "name": "updatePool",
      "outputs": [],
      "stateMutability": "nonpayable",
      "type": "function"
    },
    {
      "inputs": [
        {
          "internalType": "uint256",
          "name": "",
          "type": "uint256"
        },
        {
          "internalType": "address",
          "name": "",
          "type": "address"
        }
      ],
      "name": "userInfo",
      "outputs": [
        {
          "internalType": "uint256",
          "name": "amount",
          "type": "uint256"
        },
        {
          "internalType": "uint256",
          "name": "pendingReward",
          "type": "uint256"
        },
        {
          "internalType": "bool",
          "name": "claimed",
          "type": "bool"
        }
      ],
      "stateMutability": "view",
      "type": "function"
    },
    {
      "inputs": [
        {
          "internalType": "uint256",
          "name": "_pid",
          "type": "uint256"
        },
        {
          "internalType": "uint256",
          "name": "_amount",
          "type": "uint256"
        }
      ],
      "name": "withdraw",
      "outputs": [],
      "stateMutability": "nonpayable",
      "type": "function"
    },
    {
      "inputs": [],
      "name": "withdrawalFee",
      "outputs": [
        {
          "internalType": "uint256",
          "name": "",
          "type": "uint256"
        }
      ],
      "stateMutability": "view",
      "type": "function"
    }
  ],
  "transactionHash": "0x12b909b598f13b225cff7a5f1225c913ca5eb73ffe7cd693ba989170d6abbc67",
  "args": [
    "0x6ee9b76A9cDd69190b5Aad2B2F3B3fCB3471228e",
    "0xE293014dC435f2263088cF726a32E537941F96Fa",
    11864859,
    11926059,
    11897259,
    "0x69BAa471326c31f846ddE16505F2BD9442FD105c",
    [
      100,
      100
    ]
  ],
  "solcInputHash": "540f8ab2b5d97fb97a23aec013e3aacb",
  "bytecode": "0x60806040526019600255610190600355670de0b6b3a76400006006556000600e553480156200002d57600080fd5b50604051620036c1380380620036c1833981810160405260e08110156200005357600080fd5b815160208301516040808501516060860151608087015160a088015160c089018051955197999698949793969295919483019291846401000000008211156200009b57600080fd5b908301906020820185811115620000b157600080fd5b8251866020820283011164010000000082111715620000cf57600080fd5b82525081516020918201928201910280838360005b83811015620000fe578181015183820152602001620000e4565b5050505090500160405250505060006200011d6200020160201b60201c565b600080546001600160a01b0319166001600160a01b0383169081178255604051929350917f8be0079c531659141344cd1fd0a4f28419497f9722a3daafe3b4186f6b6457e0908290a35060018055600580546001600160a01b03808a166001600160a01b031992831617909255600480549289169290911691909117905560078590556008849055600983905560005b8151811015620001e857620001df83838381518110620001c957fe5b602002602001015160006200020560201b60201c565b600101620001ad565b5050600b805460ff191690555062000776945050505050565b3390565b6200020f62000201565b6001600160a01b031662000222620003bf565b6001600160a01b0316146200027e576040805162461bcd60e51b815260206004820181905260248201527f4f776e61626c653a2063616c6c6572206973206e6f7420746865206f776e6572604482015290519081900360640190fd5b6000600b5460ff1660038111156200029257fe5b14620002d05760405162461bcd60e51b81526004018080602001828103825260238152602001806200369e6023913960400191505060405180910390fd5b8015620002e157620002e1620003ce565b620002fd82600e54620003f360201b620025411790919060201c565b600e81905550600c6040518060c00160405280856001600160a01b031681526020016000815260200184815260200160075443116200033f5760075462000341565b435b815260006020808301829052604092830182905284546001808201875595835291819020845160069093020180546001600160a01b0319166001600160a01b03909316929092178255830151938101939093558101516002830155606081015160038301556080810151600483015560a00151600590910155505050565b6000546001600160a01b031690565b60005b600c54811015620003f057620003e78162000457565b600101620003d1565b50565b6000828201838110156200044e576040805162461bcd60e51b815260206004820152601b60248201527f536166654d6174683a206164646974696f6e206f766572666c6f770000000000604482015290519081900360640190fd5b90505b92915050565b6000600c82815481106200046757fe5b906000526020600020906006020190508060030154431115806200048c575060075443105b806200049e5750600854816003015410155b15620004ab5750620003f0565b600181015480620004c4575043600390910155620003f0565b60006008544311620004d75743620004db565b6008545b90506000620004f58460030154836200063560201b60201c565b905060006200054d600e5462000539876002015462000525600654876200065160201b6200259b1790919060201c565b6200065160201b6200259b1790919060201c565b620006af60201b620025f41790919060201c565b90506200059062000577856200053964e8d4a51000856200065160201b6200259b1790919060201c565b8660040154620003f360201b620025411790919060201c565b6004860155600385018390556005850154620005b99082620003f3602090811b6200254117901c565b60058087019190915554604080516340c10f1960e01b81523060048201526024810184905290516001600160a01b03909216916340c10f199160448082019260009290919082900301818387803b1580156200061457600080fd5b505af115801562000629573d6000803e3d6000fd5b50505050505050505050565b60006200044e83836200071860201b6200265b1790919060201c565b600082620006625750600062000451565b828202828482816200067057fe5b04146200044e5760405162461bcd60e51b81526004018080602001828103825260218152602001806200367d6021913960400191505060405180910390fd5b600080821162000706576040805162461bcd60e51b815260206004820152601a60248201527f536166654d6174683a206469766973696f6e206279207a65726f000000000000604482015290519081900360640190fd5b8183816200071057fe5b049392505050565b60008282111562000770576040805162461bcd60e51b815260206004820152601e60248201527f536166654d6174683a207375627472616374696f6e206f766572666c6f770000604482015290519081900360640190fd5b50900390565b612ef780620007866000396000f3fe608060405234801561001057600080fd5b50600436106102535760003560e01c80637f8661a111610146578063d18df53c116100c3578063e2bbb15811610087578063e2bbb158146105d9578063e738d2b3146105fc578063e74b981b14610604578063ecefc7051461062a578063f2fde38b14610632578063f35e4a6e1461065857610253565b8063d18df53c14610578578063d2618baf146105a4578063dc16041a146105ac578063dd0d145f146105c9578063e26cc3d7146105d157610253565b80639416c7cd1161010a5780639416c7cd146104fa578063a408bb4c1461052e578063ac1e502514610536578063b7aa8f1014610553578063c713aa941461055b57610253565b80637f8661a11461045e5780638bc7e8c41461047b5780638da5cb5b146104835780638dbb1e3a1461048b57806393f1a40b146104ae57610253565b806346ca6bea116101d457806359b599dc1161019857806359b599dc146103f9578063630b5ba114610416578063676fdbb11461041e578063715018a61461044e5780637e6d17e71461045657610253565b806346ca6bea1461036f57806348cd4cb11461039a57806348d298bf146103a257806351eb05a6146103bf5780635312ea8e146103dc57610253565b80633c3777371161021b5780633c377737146102f9578063411330bd146103015780634198709a14610320578063441a3e7014610328578063469048401461034b57610253565b8063081e3eda14610258578063083c6323146102725780630f332a8a1461027a5780631526fe271461029757806317caf6f1146102f1575b600080fd5b610260610675565b60408051918252519081900360200190f35b61026061067b565b6102606004803603602081101561029057600080fd5b5035610681565b6102b4600480360360208110156102ad57600080fd5b50356106ca565b604080516001600160a01b0390971687526020870195909552858501939093526060850191909152608084015260a0830152519081900360c00190f35b610260610717565b61026061071d565b61031e6004803603602081101561031757600080fd5b5035610723565b005b610260610894565b61031e6004803603604081101561033e57600080fd5b508035906020013561089a565b610353610ac1565b604080516001600160a01b039092168252519081900360200190f35b61031e6004803603606081101561038557600080fd5b50803590602081013590604001351515610ad0565b610260610bfa565b61031e600480360360208110156103b857600080fd5b5035610c00565b61031e600480360360208110156103d557600080fd5b5035610cbd565b61031e600480360360208110156103f257600080fd5b5035610e30565b61031e6004803603602081101561040f57600080fd5b5035610f21565b61031e611024565b610426611042565b6040518083815260200182600381111561043c57fe5b81526020019250505060405180910390f35b61031e61104e565b6102606110fa565b61031e6004803603602081101561047457600080fd5b5035611100565b6102606113a9565b6103536113af565b610260600480360360408110156104a157600080fd5b50803590602001356113be565b6104da600480360360408110156104c457600080fd5b50803590602001356001600160a01b03166113d3565b604080519384526020840192909252151582820152519081900360600190f35b61031e6004803603606081101561051057600080fd5b506001600160a01b0381351690602081013590604001351515611402565b61031e61158e565b61031e6004803603602081101561054c57600080fd5b5035611830565b6102606118ee565b61031e6004803603602081101561057157600080fd5b50356118f4565b6102606004803603604081101561058e57600080fd5b50803590602001356001600160a01b0316611a2a565b61031e611d2c565b61031e600480360360208110156105c257600080fd5b5035611dfc565b610353611ec7565b61031e611ed6565b61031e600480360360408110156105ef57600080fd5b5080359060200135611fa3565b6102606121e1565b61031e6004803603602081101561061a57600080fd5b50356001600160a01b03166121e7565b6102606122c6565b61031e6004803603602081101561064857600080fd5b50356001600160a01b03166122cc565b61031e6004803603602081101561066e57600080fd5b50356123ce565b600c5490565b60085481565b60006106c2600e546106bc600c858154811061069957fe5b90600052602060002090600602016002015460065461259b90919063ffffffff16565b906125f4565b90505b919050565b600c81815481106106d757fe5b60009182526020909120600690910201805460018201546002830154600384015460048501546005909501546001600160a01b0390941695509193909286565b600e5481565b60095481565b61072b6126b8565b6001600160a01b031661073c6113af565b6001600160a01b031614610785576040805162461bcd60e51b81526020600482018190526024820152600080516020612e11833981519152604482015290519081900360640190fd5b6000600b5460ff16600381111561079857fe5b146107d45760405162461bcd60e51b8152600401808060200182810382526023815260200180612e9f6023913960400191505060405180910390fd5b6801a055690d9db80000811115610832576040805162461bcd60e51b815260206004820152601860248201527f4475656c4576656e743a204d61782070657220626c6f636b0000000000000000604482015290519081900360640190fd5b670de0b6b3a764000081101561088f576040805162461bcd60e51b815260206004820152601860248201527f4475656c4576656e743a204d696e2070657220626c6f636b0000000000000000604482015290519081900360640190fd5b600655565b60065481565b600260015414156108f2576040805162461bcd60e51b815260206004820152601f60248201527f5265656e7472616e637947756172643a207265656e7472616e742063616c6c00604482015290519081900360640190fd5b600260015580610942576040805162461bcd60e51b8152602060048201526016602482015275111d595b115d995b9d0e8816995c9bc8185b5bdd5b9d60521b604482015290519081900360640190fd5b6000600c838154811061095157fe5b60009182526020808320868452600d8252604080852033865290925292208054600690920290920192508311156109b95760405162461bcd60e51b815260040180806020018281038252602b815260200180612cfd602b913960400191505060405180910390fd5b6109c284610cbd565b6109f46109e964e8d4a510006106bc8560040154856000015461259b90919063ffffffff16565b600183015490612541565b60018201556000610a04856126bc565b90506000610a128286612730565b90506000610a20838761274c565b8454909150610a2f908761265b565b84556001850154610a40908761265b565b60018601558454610a5b906001600160a01b0316338461275e565b8015610a7d576004548554610a7d916001600160a01b0391821691168361275e565b604080518381529051889133917ff279e6a1f5e320cca91135676d9cb6e44ca8a08c0b88342bcdb1144f6511b5689181900360200190a35050600180555050505050565b6004546001600160a01b031681565b610ad86126b8565b6001600160a01b0316610ae96113af565b6001600160a01b031614610b32576040805162461bcd60e51b81526020600482018190526024820152600080516020612e11833981519152604482015290519081900360640190fd5b6000600b5460ff166003811115610b4557fe5b14610b815760405162461bcd60e51b8152600401808060200182810382526023815260200180612e9f6023913960400191505060405180910390fd5b8015610b8f57610b8f611024565b610bcc82610bc6600c8681548110610ba357fe5b906000526020600020906006020160020154600e5461265b90919063ffffffff16565b90612541565b600e8190555081600c8481548110610be057fe5b906000526020600020906006020160020181905550505050565b60075481565b610c086126b8565b6001600160a01b0316610c196113af565b6001600160a01b031614610c62576040805162461bcd60e51b81526020600482018190526024820152600080516020612e11833981519152604482015290519081900360640190fd5b6064811115610cb8576040805162461bcd60e51b815260206004820152601a60248201527f4475656c4576656e743a204d617820636c616d696e6720666565000000000000604482015290519081900360640190fd5b600255565b6000600c8281548110610ccc57fe5b90600052602060002090600602019050806003015443111580610cf0575060075443105b80610d015750600854816003015410155b15610d0c5750610e2d565b600181015480610d23575043600390910155610e2d565b60006008544311610d345743610d38565b6008545b90506000610d4a8460030154836113be565b90506000610d77600e546106bc8760020154610d716006548761259b90919063ffffffff16565b9061259b565b9050610d9a610d8f856106bc8464e8d4a5100061259b565b600487015490612541565b6004860155600385018390556005850154610db59082612541565b60058087019190915554604080516340c10f1960e01b81523060048201526024810184905290516001600160a01b03909216916340c10f199160448082019260009290919082900301818387803b158015610e0f57600080fd5b505af1158015610e23573d6000803e3d6000fd5b5050505050505050505b50565b6000600c8281548110610e3f57fe5b60009182526020808320858452600d82526040808520338652909252922080546006929092029092016001810154909350610e799161265b565b60018301558054600090610e90906109c490612730565b90506000610ea46109c4846000015461274c565b600080855560018501558454909150610ec7906001600160a01b0316338461275e565b6004548454610ee3916001600160a01b0391821691168361275e565b604080518381529051869133917fbb757047c2b5f3974fe26b7c10f732e7bce710b0952a71082702781e62ae05959181900360200190a35050505050565b610f296126b8565b6001600160a01b0316610f3a6113af565b6001600160a01b031614610f83576040805162461bcd60e51b81526020600482018190526024820152600080516020612e11833981519152604482015290519081900360640190fd5b6000600b5460ff166003811115610f9657fe5b14610fd25760405162461bcd60e51b8152600401808060200182810382526023815260200180612e9f6023913960400191505060405180910390fd5b60075481118015610fe4575060085481105b61101f5760405162461bcd60e51b8152600401808060200182810382526022815260200180612cb56022913960400191505060405180910390fd5b600955565b60005b600c54811015610e2d5761103a81610cbd565b600101611027565b600a54600b5460ff1682565b6110566126b8565b6001600160a01b03166110676113af565b6001600160a01b0316146110b0576040805162461bcd60e51b81526020600482018190526024820152600080516020612e11833981519152604482015290519081900360640190fd5b600080546040516001600160a01b03909116907f8be0079c531659141344cd1fd0a4f28419497f9722a3daafe3b4186f6b6457e0908390a3600080546001600160a01b0319169055565b6109c481565b60026001541415611158576040805162461bcd60e51b815260206004820152601f60248201527f5265656e7472616e637947756172643a207265656e7472616e742063616c6c00604482015290519081900360640190fd5b60026001556000600b5460ff16600381111561117057fe5b14156111ad5760405162461bcd60e51b8152600401808060200182810382526027815260200180612dea6027913960400191505060405180910390fd5b6000600c82815481106111bc57fe5b60009182526020808320858452600d82526040808520338652909252922060028101546006909202909201925060ff161561123e576040805162461bcd60e51b815260206004820152601a60248201527f4475656c4576656e743a20436c61696d656420616c7265616479000000000000604482015290519081900360640190fd5b61124783610cbd565b60006112538433611a2a565b82549091501561131b576000611268856126bc565b9050600061127a828560000154612730565b9050600061128c83866000015461274c565b600080875560018801549192506112a3919061265b565b600187015585546112be906001600160a01b0316338461275e565b80156112e05760045486546112e0916001600160a01b0391821691168361275e565b604080518381529051889133917ff279e6a1f5e320cca91135676d9cb6e44ca8a08c0b88342bcdb1144f6511b5689181900360200190a35050505b60028201805460ff1916600117905580156113725761133a33826127b5565b604080518281529051859133917f34fcbac0073d7c3d388e51312faf357774904998eeb8fca628b9e6f65ee1cbf79181900360200190a35b604051849033907f22d324652c93739755cf4581508b60875ebdd78c20c0cff5cf8e23452b29963190600090a35050600180555050565b60035481565b6000546001600160a01b031690565b60006113ca828461265b565b90505b92915050565b600d60209081526000928352604080842090915290825290208054600182015460029092015490919060ff1683565b61140a6126b8565b6001600160a01b031661141b6113af565b6001600160a01b031614611464576040805162461bcd60e51b81526020600482018190526024820152600080516020612e11833981519152604482015290519081900360640190fd5b6000600b5460ff16600381111561147757fe5b146114b35760405162461bcd60e51b8152600401808060200182810382526023815260200180612e9f6023913960400191505060405180910390fd5b80156114c1576114c1611024565b600e546114ce9083612541565b600e81905550600c6040518060c00160405280856001600160a01b0316815260200160008152602001848152602001600754431161150e57600754611510565b435b815260006020808301829052604092830182905284546001808201875595835291819020845160069093020180546001600160a01b0319166001600160a01b03909316929092178255830151938101939093558101516002830155606081015160038301556080810151600483015560a00151600590910155505050565b6115966126b8565b6001600160a01b03166115a76113af565b6001600160a01b0316146115f0576040805162461bcd60e51b81526020600482018190526024820152600080516020612e11833981519152604482015290519081900360640190fd5b6000600b5460ff16600381111561160357fe5b14156116405760405162461bcd60e51b8152600401808060200182810382526027815260200180612dea6027913960400191505060405180910390fd5b600c60008154811061164e57fe5b600091825260209182902060069091020154604080516370a0823160e01b815230600482015290516001600160a01b03909216926370a0823192602480840193829003018186803b1580156116a257600080fd5b505afa1580156116b6573d6000803e3d6000fd5b505050506040513d60208110156116cc57600080fd5b50511561170a5760405162461bcd60e51b8152600401808060200182810382526024815260200180612dc66024913960400191505060405180910390fd5b600554604080516370a0823160e01b815230600482015290516000926001600160a01b0316916370a08231916024808301926020929190829003018186803b15801561175557600080fd5b505afa158015611769573d6000803e3d6000fd5b505050506040513d602081101561177f57600080fd5b50519050806117d5576040805162461bcd60e51b815260206004820152601760248201527f4475656c4576656e743a205a65726f2062616c616e6365000000000000000000604482015290519081900360640190fd5b6004546117eb906001600160a01b0316826127b5565b6004546040805183815290516001600160a01b03909216917f1ef1ff9107f9a7baefaf4a78cf58f97ba90340cea73be99daa7d96af301d55f99181900360200190a250565b6118386126b8565b6001600160a01b03166118496113af565b6001600160a01b031614611892576040805162461bcd60e51b81526020600482018190526024820152600080516020612e11833981519152604482015290519081900360640190fd5b6103e88111156118e9576040805162461bcd60e51b815260206004820152601d60248201527f4475656c4576656e743a204d6178207769746864726177616c20666565000000604482015290519081900360640190fd5b600355565b60065490565b6118fc6126b8565b6001600160a01b031661190d6113af565b6001600160a01b031614611956576040805162461bcd60e51b81526020600482018190526024820152600080516020612e11833981519152604482015290519081900360640190fd5b6000600b5460ff16600381111561196957fe5b146119a55760405162461bcd60e51b8152600401808060200182810382526023815260200180612e9f6023913960400191505060405180910390fd5b43600854116119e55760405162461bcd60e51b8152600401808060200182810382526022815260200180612e7d6022913960400191505060405180910390fd5b6007548111611a255760405162461bcd60e51b8152600401808060200182810382526036815260200180612d6f6036913960400191505060405180910390fd5b600855565b6000611a34612c1f565b600c8481548110611a4157fe5b60009182526020918290206040805160c081018252600690930290910180546001600160a01b03168352600181015493830193909352600283015490820152600382015460608201526004820154608082015260059091015460a08201529050611aa9612c5e565b506000848152600d602090815260408083206001600160a01b03871684528252918290208251606081018452815481526001820154928101929092526002015460ff16151591810191909152600754431080611b06575080604001515b15611b16576000925050506113cd565b60808201516020830151606084015143118015611b3257508015155b15611baa5760006008544311611b485743611b4c565b6008545b90506000611b5e8660600151836113be565b90506000611b85600e546106bc8960400151610d716006548761259b90919063ffffffff16565b9050611ba4611b9d856106bc8464e8d4a5100061259b565b8690612541565b94505050505b6000611bd48460200151610bc664e8d4a510006106bc87896000015161259b90919063ffffffff16565b90506001600b5460ff166003811115611be957fe5b148015611bf75750600a5488145b15611cdb5760a0850151600090611c17906106bc8464e8d4a5100061259b565b905060005b600c54811015611cd457600a548114611ccc57611c37612c1f565b600c8281548110611c4457fe5b60009182526020918290206040805160c081018252600690930290910180546001600160a01b03168352600181015493830193909352600283015490820152600382015460608201526004820154608082015260059091015460a08201819052909150611cc890611cc19064e8d4a51000906106bc90879061259b565b8590612541565b9350505b600101611c1c565b5050611d21565b6001600b5460ff166003811115611cee57fe5b148015611cfd5750600a548814155b80611d1857506003600b5460ff166003811115611d1657fe5b145b15611d21575060005b979650505050505050565b611d346126b8565b6001600160a01b0316611d456113af565b6001600160a01b031614611d8e576040805162461bcd60e51b81526020600482018190526024820152600080516020612e11833981519152604482015290519081900360640190fd5b6000600b5460ff166003811115611da157fe5b14611ddd5760405162461bcd60e51b8152600401808060200182810382526023815260200180612e9f6023913960400191505060405180910390fd5b611de5611024565b600b80546003919060ff19166001835b0217905550565b611e046126b8565b6001600160a01b0316611e156113af565b6001600160a01b031614611e5e576040805162461bcd60e51b81526020600482018190526024820152600080516020612e11833981519152604482015290519081900360640190fd5b6000600b5460ff166003811115611e7157fe5b14611ead5760405162461bcd60e51b8152600401808060200182810382526023815260200180612e9f6023913960400191505060405180910390fd5b611eb5611024565b600b805460ff19166001179055600a55565b6005546001600160a01b031681565b611ede6126b8565b6001600160a01b0316611eef6113af565b6001600160a01b031614611f38576040805162461bcd60e51b81526020600482018190526024820152600080516020612e11833981519152604482015290519081900360640190fd5b6000600b5460ff166003811115611f4b57fe5b14611f875760405162461bcd60e51b8152600401808060200182810382526023815260200180612e9f6023913960400191505060405180910390fd5b611f8f611024565b600b80546002919060ff1916600183611df5565b60026001541415611ffb576040805162461bcd60e51b815260206004820152601f60248201527f5265656e7472616e637947756172643a207265656e7472616e742063616c6c00604482015290519081900360640190fd5b60026001556000600b5460ff16600381111561201357fe5b1461204f5760405162461bcd60e51b8152600401808060200182810382526023815260200180612e9f6023913960400191505060405180910390fd5b60095443106120a5576040805162461bcd60e51b815260206004820152601b60248201527f4475656c4576656e743a204465706f73697420646561646c696e650000000000604482015290519081900360640190fd5b600081116120f3576040805162461bcd60e51b8152602060048201526016602482015275111d595b115d995b9d0e8816995c9bc8185b5bdd5b9d60521b604482015290519081900360640190fd5b6000600c838154811061210257fe5b60009182526020808320868452600d8252604080852033865290925292206006909102909101915061213384610cbd565b805415612167576121616109e964e8d4a510006106bc8560040154856000015461259b90919063ffffffff16565b60018201555b80546121739084612541565b815560018201546121849084612541565b600183015581546121a0906001600160a01b0316333086612904565b604080518481529051859133917f90890809c654f11d6e72a28fa60149770a0d11ec6c92319d6ceb2bb0a4ea1a159181900360200190a35050600180555050565b60025481565b6121ef6126b8565b6001600160a01b03166122006113af565b6001600160a01b031614612249576040805162461bcd60e51b81526020600482018190526024820152600080516020612e11833981519152604482015290519081900360640190fd5b6001600160a01b0381166122a4576040805162461bcd60e51b815260206004820152601d60248201527f4475656c4576656e743a205a65726f2066656520726563697069656e74000000604482015290519081900360640190fd5b600480546001600160a01b0319166001600160a01b0392909216919091179055565b61271081565b6122d46126b8565b6001600160a01b03166122e56113af565b6001600160a01b03161461232e576040805162461bcd60e51b81526020600482018190526024820152600080516020612e11833981519152604482015290519081900360640190fd5b6001600160a01b0381166123735760405162461bcd60e51b8152600401808060200182810382526026815260200180612cd76026913960400191505060405180910390fd5b600080546040516001600160a01b03808516939216917f8be0079c531659141344cd1fd0a4f28419497f9722a3daafe3b4186f6b6457e091a3600080546001600160a01b0319166001600160a01b0392909216919091179055565b6123d66126b8565b6001600160a01b03166123e76113af565b6001600160a01b031614612430576040805162461bcd60e51b81526020600482018190526024820152600080516020612e11833981519152604482015290519081900360640190fd5b6000600b5460ff16600381111561244357fe5b1461247f5760405162461bcd60e51b8152600401808060200182810382526023815260200180612e9f6023913960400191505060405180910390fd5b43600754116124bf5760405162461bcd60e51b8152600401808060200182810382526021815260200180612d4e6021913960400191505060405180910390fd5b60085481106124ff5760405162461bcd60e51b8152600401808060200182810382526033815260200180612c826033913960400191505060405180910390fd5b600781905560005b600c5481101561253d57600754600c828154811061252157fe5b6000918252602090912060036006909202010155600101612507565b5050565b6000828201838110156113ca576040805162461bcd60e51b815260206004820152601b60248201527f536166654d6174683a206164646974696f6e206f766572666c6f770000000000604482015290519081900360640190fd5b6000826125aa575060006113cd565b828202828482816125b757fe5b04146113ca5760405162461bcd60e51b8152600401808060200182810382526021815260200180612da56021913960400191505060405180910390fd5b600080821161264a576040805162461bcd60e51b815260206004820152601a60248201527f536166654d6174683a206469766973696f6e206279207a65726f000000000000604482015290519081900360640190fd5b81838161265357fe5b049392505050565b6000828211156126b2576040805162461bcd60e51b815260206004820152601e60248201527f536166654d6174683a207375627472616374696f6e206f766572666c6f770000604482015290519081900360640190fd5b50900390565b3390565b600080600b5460ff1660038111156126d057fe5b14612727576001600b5460ff1660038111156126e857fe5b1480156126f65750600a5482145b8061271157506002600b5460ff16600381111561270f57fe5b145b1561271f57506002546106c5565b5060006106c5565b506003546106c5565b60006113ca6127106106bc612745828761265b565b859061259b565b60006113ca6127106106bc848661259b565b604080516001600160a01b038416602482015260448082018490528251808303909101815260649091019091526020810180516001600160e01b031663a9059cbb60e01b1790526127b090849061295a565b505050565b600554604080516370a0823160e01b815230600482015290516000926001600160a01b0316916370a08231916024808301926020929190829003018186803b15801561280057600080fd5b505afa158015612814573d6000803e3d6000fd5b505050506040513d602081101561282a57600080fd5b50519050600081831161283d578261283f565b815b6005546040805163a9059cbb60e01b81526001600160a01b03888116600483015260248201859052915193945091169163a9059cbb916044808201926020929091908290030181600087803b15801561289757600080fd5b505af11580156128ab573d6000803e3d6000fd5b505050506040513d60208110156128c157600080fd5b50516128fe5760405162461bcd60e51b8152600401808060200182810382526022815260200180612e316022913960400191505060405180910390fd5b50505050565b604080516001600160a01b0380861660248301528416604482015260648082018490528251808303909101815260849091019091526020810180516001600160e01b03166323b872dd60e01b1790526128fe9085905b60606129af826040518060400160405280602081526020017f5361666545524332303a206c6f772d6c6576656c2063616c6c206661696c6564815250856001600160a01b0316612a0b9092919063ffffffff16565b8051909150156127b0578080602001905160208110156129ce57600080fd5b50516127b05760405162461bcd60e51b815260040180806020018281038252602a815260200180612e53602a913960400191505060405180910390fd5b6060612a1a8484600085612a24565b90505b9392505050565b606082471015612a655760405162461bcd60e51b8152600401808060200182810382526026815260200180612d286026913960400191505060405180910390fd5b612a6e85612b75565b612abf576040805162461bcd60e51b815260206004820152601d60248201527f416464726573733a2063616c6c20746f206e6f6e2d636f6e7472616374000000604482015290519081900360640190fd5b60006060866001600160a01b031685876040518082805190602001908083835b60208310612afe5780518252601f199092019160209182019101612adf565b6001836020036101000a03801982511681845116808217855250505050505090500191505060006040518083038185875af1925050503d8060008114612b60576040519150601f19603f3d011682016040523d82523d6000602084013e612b65565b606091505b5091509150611d21828286612b7b565b3b151590565b60608315612b8a575081612a1d565b825115612b9a5782518084602001fd5b8160405162461bcd60e51b81526004018080602001828103825283818151815260200191508051906020019080838360005b83811015612be4578181015183820152602001612bcc565b50505050905090810190601f168015612c115780820380516001836020036101000a031916815260200191505b509250505060405180910390fd5b6040518060c0016040528060006001600160a01b0316815260200160008152602001600081526020016000815260200160008152602001600081525090565b60405180606001604052806000815260200160008152602001600015158152509056fe4475656c4576656e743a20537461727420626c6f636b2073686f756c64206265206c657373207468656e20656e64426c6f636b4475656c4576656e743a2057726f6e67206465706f73697420656e6420626c6f636b4f776e61626c653a206e6577206f776e657220697320746865207a65726f20616464726573734475656c4576656e743a205769746864726177616c20616d6f756e74206578636565642062616c616e6365416464726573733a20696e73756666696369656e742062616c616e636520666f722063616c6c4475656c4576656e743a204576656e7420686173206265656e20737461727465644475656c4576656e743a20456e6420626c6f636b2073686f756c642062652067726561746572207468656e207374617274426c6f636b536166654d6174683a206d756c7469706c69636174696f6e206f766572666c6f774475656c4576656e743a204e6f7420616c6c2075736572732068617320636c61696d65644475656c4576656e743a204576656e7420686173206e6f74206265656e20636f6e636c756465644f776e61626c653a2063616c6c6572206973206e6f7420746865206f776e65724475656c4576656e743a2073616665546f6b656e5472616e73666572206572726f725361666545524332303a204552433230206f7065726174696f6e20646964206e6f7420737563636565644475656c4576656e743a204576656e7420686173206265656e2066696e69736865644475656c4576656e743a204576656e7420686173206265656e20636f6e636c75646564a26469706673582212201ebec1924fb0038c4483a168a91e136142b42b39851d28dd5fa21a74eb35290f64736f6c634300060c0033536166654d6174683a206d756c7469706c69636174696f6e206f766572666c6f774475656c4576656e743a204576656e7420686173206265656e20636f6e636c75646564",
  "devdoc": {
    "kind": "dev",
    "methods": {
      "addPool(address,uint256,bool)": {
        "details": "Adds a new pool, only owner."
      },
      "claimLeftovers()": {
        "details": "Sends leftover tokens to the fee recipient, only owner."
      },
      "deposit(uint256,uint256)": {
        "details": "Deposit LP tokens to the pool for reward token allocation."
      },
      "emergencyWithdraw(uint256)": {
        "details": "Withdraw without caring about rewards. EMERGENCY ONLY."
      },
      "exit(uint256)": {
        "details": "Exit pool and claim rewards"
      },
      "getBaseRewardPerBlock()": {
        "details": "Returns base reward per block."
      },
      "getMultiplier(uint256,uint256)": {
        "details": "Returns reward multiplier over the given _from to _to block."
      },
      "getPoolRewardPerBlock(uint256)": {
        "details": "Returns the pool specific reward per block."
      },
      "massUpdatePools()": {
        "details": "Updates reward vairables for all pools. Be careful of gas spending!"
      },
      "owner()": {
        "details": "Returns the address of the current owner."
      },
      "pendingRewards(uint256,address)": {
        "details": "Returns pending rewards for user."
      },
      "poolLength()": {
        "details": "Returns the poolInfo length."
      },
      "renounceOwnership()": {
        "details": "Leaves the contract without owner. It will not be possible to call `onlyOwner` functions anymore. Can only be called by the current owner. NOTE: Renouncing ownership will leave the contract without an owner, thereby removing any functionality that is only available to the owner."
      },
      "setCancel()": {
        "details": "Sets event status to EventResultStatus.Cancel. Only owner."
      },
      "setClaimingFee(uint256)": {
        "details": "Updates claming fee, max is 1%, only owner."
      },
      "setDepositEndBlock(uint256)": {
        "details": "Updates deposit end block, only owner."
      },
      "setDraw()": {
        "details": "Sets event status to EventResultStatus.Draw. Only owner."
      },
      "setEndBlock(uint256)": {
        "details": "Updates end block, only owner."
      },
      "setFeeRecipient(address)": {
        "details": "Updates fee recipient, only owner."
      },
      "setPool(uint256,uint256,bool)": {
        "details": "Updates pool allocation points, only owner."
      },
      "setStartBlock(uint256)": {
        "details": "Updates start block, only owner."
      },
      "setTokenPerBlock(uint256)": {
        "details": "Updates reward per block, only owner."
      },
      "setWin(uint256)": {
        "details": "Sets event status to EventResultStatus.Win and selects winner pool. Only owner."
      },
      "setWithdrawalFee(uint256)": {
        "details": "Updates withdrawal fee, max is 10%, only owner."
      },
      "transferOwnership(address)": {
        "details": "Transfers ownership of the contract to a new account (`newOwner`). Can only be called by the current owner."
      },
      "updatePool(uint256)": {
        "details": "Updates reward vairables for the pool."
      },
      "withdraw(uint256,uint256)": {
        "details": "Withdraw LP tokens from the pool."
      }
    },
    "version": 1
  },
  "userdoc": {
    "kind": "user",
    "methods": {},
    "version": 1
  },
  "storageLayout": {
    "storage": [
      {
        "astId": 290,
        "contract": "contracts/DuelEvent.sol:DuelEvent",
        "label": "_owner",
        "offset": 0,
        "slot": "0",
        "type": "t_address"
      },
      {
        "astId": 2422,
        "contract": "contracts/DuelEvent.sol:DuelEvent",
        "label": "_status",
        "offset": 0,
        "slot": "1",
        "type": "t_uint256"
      },
      {
        "astId": 2498,
        "contract": "contracts/DuelEvent.sol:DuelEvent",
        "label": "claimingFee",
        "offset": 0,
        "slot": "2",
        "type": "t_uint256"
      },
      {
        "astId": 2501,
        "contract": "contracts/DuelEvent.sol:DuelEvent",
        "label": "withdrawalFee",
        "offset": 0,
        "slot": "3",
        "type": "t_uint256"
      },
      {
        "astId": 2503,
        "contract": "contracts/DuelEvent.sol:DuelEvent",
        "label": "feeRecipient",
        "offset": 0,
        "slot": "4",
        "type": "t_address"
      },
      {
        "astId": 2505,
        "contract": "contracts/DuelEvent.sol:DuelEvent",
        "label": "DUEL",
        "offset": 0,
        "slot": "5",
        "type": "t_contract(DuelToken)4241"
      },
      {
        "astId": 2508,
        "contract": "contracts/DuelEvent.sol:DuelEvent",
        "label": "tokenPerBlock",
        "offset": 0,
        "slot": "6",
        "type": "t_uint256"
      },
      {
        "astId": 2510,
        "contract": "contracts/DuelEvent.sol:DuelEvent",
        "label": "startBlock",
        "offset": 0,
        "slot": "7",
        "type": "t_uint256"
      },
      {
        "astId": 2512,
        "contract": "contracts/DuelEvent.sol:DuelEvent",
        "label": "endBlock",
        "offset": 0,
        "slot": "8",
        "type": "t_uint256"
      },
      {
        "astId": 2514,
        "contract": "contracts/DuelEvent.sol:DuelEvent",
        "label": "depositEndBlock",
        "offset": 0,
        "slot": "9",
        "type": "t_uint256"
      },
      {
        "astId": 2526,
        "contract": "contracts/DuelEvent.sol:DuelEvent",
        "label": "eventResult",
        "offset": 0,
        "slot": "10",
        "type": "t_struct(EventResult)2524_storage"
      },
      {
        "astId": 2529,
        "contract": "contracts/DuelEvent.sol:DuelEvent",
        "label": "poolInfo",
        "offset": 0,
        "slot": "12",
        "type": "t_array(t_struct(PoolInfo)2489_storage)dyn_storage"
      },
      {
        "astId": 2535,
        "contract": "contracts/DuelEvent.sol:DuelEvent",
        "label": "userInfo",
        "offset": 0,
        "slot": "13",
        "type": "t_mapping(t_uint256,t_mapping(t_address,t_struct(UserInfo)2476_storage))"
      },
      {
        "astId": 2538,
        "contract": "contracts/DuelEvent.sol:DuelEvent",
        "label": "totalAllocPoint",
        "offset": 0,
        "slot": "14",
        "type": "t_uint256"
      }
    ],
    "types": {
      "t_address": {
        "encoding": "inplace",
        "label": "address",
        "numberOfBytes": "20"
      },
      "t_array(t_struct(PoolInfo)2489_storage)dyn_storage": {
        "base": "t_struct(PoolInfo)2489_storage",
        "encoding": "dynamic_array",
        "label": "struct DuelEvent.PoolInfo[]",
        "numberOfBytes": "32"
      },
      "t_bool": {
        "encoding": "inplace",
        "label": "bool",
        "numberOfBytes": "1"
      },
      "t_contract(DuelToken)4241": {
        "encoding": "inplace",
        "label": "contract DuelToken",
        "numberOfBytes": "20"
      },
      "t_contract(IERC20)1387": {
        "encoding": "inplace",
        "label": "contract IERC20",
        "numberOfBytes": "20"
      },
      "t_enum(EventResultStatus)2519": {
        "encoding": "inplace",
        "label": "enum DuelEvent.EventResultStatus",
        "numberOfBytes": "1"
      },
      "t_mapping(t_address,t_struct(UserInfo)2476_storage)": {
        "encoding": "mapping",
        "key": "t_address",
        "label": "mapping(address => struct DuelEvent.UserInfo)",
        "numberOfBytes": "32",
        "value": "t_struct(UserInfo)2476_storage"
      },
      "t_mapping(t_uint256,t_mapping(t_address,t_struct(UserInfo)2476_storage))": {
        "encoding": "mapping",
        "key": "t_uint256",
        "label": "mapping(uint256 => mapping(address => struct DuelEvent.UserInfo))",
        "numberOfBytes": "32",
        "value": "t_mapping(t_address,t_struct(UserInfo)2476_storage)"
      },
      "t_struct(EventResult)2524_storage": {
        "encoding": "inplace",
        "label": "struct DuelEvent.EventResult",
        "members": [
          {
            "astId": 2521,
            "contract": "contracts/DuelEvent.sol:DuelEvent",
            "label": "winnerPid",
            "offset": 0,
            "slot": "0",
            "type": "t_uint256"
          },
          {
            "astId": 2523,
            "contract": "contracts/DuelEvent.sol:DuelEvent",
            "label": "status",
            "offset": 0,
            "slot": "1",
            "type": "t_enum(EventResultStatus)2519"
          }
        ],
        "numberOfBytes": "64"
      },
      "t_struct(PoolInfo)2489_storage": {
        "encoding": "inplace",
        "label": "struct DuelEvent.PoolInfo",
        "members": [
          {
            "astId": 2478,
            "contract": "contracts/DuelEvent.sol:DuelEvent",
            "label": "lpToken",
            "offset": 0,
            "slot": "0",
            "type": "t_contract(IERC20)1387"
          },
          {
            "astId": 2480,
            "contract": "contracts/DuelEvent.sol:DuelEvent",
            "label": "supply",
            "offset": 0,
            "slot": "1",
            "type": "t_uint256"
          },
          {
            "astId": 2482,
            "contract": "contracts/DuelEvent.sol:DuelEvent",
            "label": "allocPoint",
            "offset": 0,
            "slot": "2",
            "type": "t_uint256"
          },
          {
            "astId": 2484,
            "contract": "contracts/DuelEvent.sol:DuelEvent",
            "label": "lastRewardBlock",
            "offset": 0,
            "slot": "3",
            "type": "t_uint256"
          },
          {
            "astId": 2486,
            "contract": "contracts/DuelEvent.sol:DuelEvent",
            "label": "accTokenPerShare",
            "offset": 0,
            "slot": "4",
            "type": "t_uint256"
          },
          {
            "astId": 2488,
            "contract": "contracts/DuelEvent.sol:DuelEvent",
            "label": "totalRewards",
            "offset": 0,
            "slot": "5",
            "type": "t_uint256"
          }
        ],
        "numberOfBytes": "192"
      },
      "t_struct(UserInfo)2476_storage": {
        "encoding": "inplace",
        "label": "struct DuelEvent.UserInfo",
        "members": [
          {
            "astId": 2471,
            "contract": "contracts/DuelEvent.sol:DuelEvent",
            "label": "amount",
            "offset": 0,
            "slot": "0",
            "type": "t_uint256"
          },
          {
            "astId": 2473,
            "contract": "contracts/DuelEvent.sol:DuelEvent",
            "label": "pendingReward",
            "offset": 0,
            "slot": "1",
            "type": "t_uint256"
          },
          {
            "astId": 2475,
            "contract": "contracts/DuelEvent.sol:DuelEvent",
            "label": "claimed",
            "offset": 0,
            "slot": "2",
            "type": "t_bool"
          }
        ],
        "numberOfBytes": "96"
      },
      "t_uint256": {
        "encoding": "inplace",
        "label": "uint256",
        "numberOfBytes": "32"
      }
    }
  }
}