{
  "address": "0x0F06110d031929e8487ac0c7548dB49BB23c41ba",
  "abi": [
    {
      "inputs": [
        {
          "internalType": "contract DuelToken",
          "name": "_DUEL",
          "type": "address"
        },
        {
          "internalType": "address",
          "name": "_devAddress",
          "type": "address"
        },
        {
          "internalType": "address",
          "name": "_refAddress",
          "type": "address"
        },
        {
          "internalType": "uint256",
          "name": "_perBlock",
          "type": "uint256"
        },
        {
          "internalType": "uint256",
          "name": "_startBlock",
          "type": "uint256"
        },
        {
          "internalType": "uint256",
          "name": "_endBlock",
          "type": "uint256"
        },
        {
          "internalType": "contract IERC20",
          "name": "_lpToken",
          "type": "address"
        },
        {
          "internalType": "uint256[]",
          "name": "_allocationPoints",
          "type": "uint256[]"
        }
      ],
      "stateMutability": "nonpayable",
      "type": "constructor"
    },
    {
      "anonymous": false,
      "inputs": [
        {
          "indexed": true,
          "internalType": "address",
          "name": "user",
          "type": "address"
        },
        {
          "indexed": true,
          "internalType": "uint256",
          "name": "pid",
          "type": "uint256"
        },
        {
          "indexed": false,
          "internalType": "uint256",
          "name": "amount",
          "type": "uint256"
        }
      ],
      "name": "Claim",
      "type": "event"
    },
    {
      "anonymous": false,
      "inputs": [
        {
          "indexed": true,
          "internalType": "address",
          "name": "user",
          "type": "address"
        },
        {
          "indexed": true,
          "internalType": "uint256",
          "name": "pid",
          "type": "uint256"
        },
        {
          "indexed": false,
          "internalType": "uint256",
          "name": "amount",
          "type": "uint256"
        }
      ],
      "name": "Deposit",
      "type": "event"
    },
    {
      "anonymous": false,
      "inputs": [
        {
          "indexed": true,
          "internalType": "address",
          "name": "user",
          "type": "address"
        },
        {
          "indexed": true,
          "internalType": "uint256",
          "name": "pid",
          "type": "uint256"
        },
        {
          "indexed": false,
          "internalType": "uint256",
          "name": "amount",
          "type": "uint256"
        }
      ],
      "name": "EmergencyWithdraw",
      "type": "event"
    },
    {
      "anonymous": false,
      "inputs": [
        {
          "indexed": true,
          "internalType": "address",
          "name": "previousOwner",
          "type": "address"
        },
        {
          "indexed": true,
          "internalType": "address",
          "name": "newOwner",
          "type": "address"
        }
      ],
      "name": "OwnershipTransferred",
      "type": "event"
    },
    {
      "anonymous": false,
      "inputs": [
        {
          "indexed": true,
          "internalType": "address",
          "name": "user",
          "type": "address"
        },
        {
          "indexed": true,
          "internalType": "uint256",
          "name": "pid",
          "type": "uint256"
        },
        {
          "indexed": false,
          "internalType": "uint256",
          "name": "amount",
          "type": "uint256"
        }
      ],
      "name": "Withdraw",
      "type": "event"
    },
    {
      "inputs": [],
      "name": "BASE_BP",
      "outputs": [
        {
          "internalType": "uint256",
          "name": "",
          "type": "uint256"
        }
      ],
      "stateMutability": "view",
      "type": "function"
    },
    {
      "inputs": [],
      "name": "DEV_SHARE",
      "outputs": [
        {
          "internalType": "uint256",
          "name": "",
          "type": "uint256"
        }
      ],
      "stateMutability": "view",
      "type": "function"
    },
    {
      "inputs": [],
      "name": "DUEL",
      "outputs": [
        {
          "internalType": "contract DuelToken",
          "name": "",
          "type": "address"
        }
      ],
      "stateMutability": "view",
      "type": "function"
    },
    {
      "inputs": [],
      "name": "REF_SHARE",
      "outputs": [
        {
          "internalType": "uint256",
          "name": "",
          "type": "uint256"
        }
      ],
      "stateMutability": "view",
      "type": "function"
    },
    {
      "inputs": [],
      "name": "STAKE_SHARE",
      "outputs": [
        {
          "internalType": "uint256",
          "name": "",
          "type": "uint256"
        }
      ],
      "stateMutability": "view",
      "type": "function"
    },
    {
      "inputs": [
        {
          "internalType": "uint256",
          "name": "_pid",
          "type": "uint256"
        }
      ],
      "name": "claimAndExit",
      "outputs": [],
      "stateMutability": "nonpayable",
      "type": "function"
    },
    {
      "inputs": [
        {
          "internalType": "uint256",
          "name": "_pid",
          "type": "uint256"
        },
        {
          "internalType": "uint256",
          "name": "_amount",
          "type": "uint256"
        }
      ],
      "name": "deposit",
      "outputs": [],
      "stateMutability": "nonpayable",
      "type": "function"
    },
    {
      "inputs": [],
      "name": "devAddress",
      "outputs": [
        {
          "internalType": "address",
          "name": "",
          "type": "address"
        }
      ],
      "stateMutability": "view",
      "type": "function"
    },
    {
      "inputs": [
        {
          "internalType": "uint256",
          "name": "_pid",
          "type": "uint256"
        }
      ],
      "name": "emergencyWithdraw",
      "outputs": [],
      "stateMutability": "nonpayable",
      "type": "function"
    },
    {
      "inputs": [],
      "name": "endBlock",
      "outputs": [
        {
          "internalType": "uint256",
          "name": "",
          "type": "uint256"
        }
      ],
      "stateMutability": "view",
      "type": "function"
    },
    {
      "inputs": [],
      "name": "getBaseRewardPerBlock",
      "outputs": [
        {
          "internalType": "uint256",
          "name": "",
          "type": "uint256"
        }
      ],
      "stateMutability": "view",
      "type": "function"
    },
    {
      "inputs": [
        {
          "internalType": "uint256",
          "name": "_from",
          "type": "uint256"
        },
        {
          "internalType": "uint256",
          "name": "_to",
          "type": "uint256"
        }
      ],
      "name": "getMultiplier",
      "outputs": [
        {
          "internalType": "uint256",
          "name": "",
          "type": "uint256"
        }
      ],
      "stateMutability": "view",
      "type": "function"
    },
    {
      "inputs": [
        {
          "internalType": "uint256",
          "name": "_pid",
          "type": "uint256"
        }
      ],
      "name": "getPoolRewardPerBlock",
      "outputs": [
        {
          "internalType": "uint256",
          "name": "",
          "type": "uint256"
        }
      ],
      "stateMutability": "view",
      "type": "function"
    },
    {
      "inputs": [],
      "name": "lastBlockDevWithdraw",
      "outputs": [
        {
          "internalType": "uint256",
          "name": "",
          "type": "uint256"
        }
      ],
      "stateMutability": "view",
      "type": "function"
    },
    {
      "inputs": [],
      "name": "massUpdatePools",
      "outputs": [],
      "stateMutability": "nonpayable",
      "type": "function"
    },
    {
      "inputs": [],
      "name": "owner",
      "outputs": [
        {
          "internalType": "address",
          "name": "",
          "type": "address"
        }
      ],
      "stateMutability": "view",
      "type": "function"
    },
    {
      "inputs": [
        {
          "internalType": "uint256",
          "name": "_pid",
          "type": "uint256"
        },
        {
          "internalType": "address",
          "name": "_user",
          "type": "address"
        }
      ],
      "name": "pendingRewards",
      "outputs": [
        {
          "internalType": "uint256",
          "name": "",
          "type": "uint256"
        }
      ],
      "stateMutability": "view",
      "type": "function"
    },
    {
      "inputs": [
        {
          "internalType": "uint256",
          "name": "",
          "type": "uint256"
        }
      ],
      "name": "poolInfo",
      "outputs": [
        {
          "internalType": "contract IERC20",
          "name": "lpToken",
          "type": "address"
        },
        {
          "internalType": "uint256",
          "name": "supply",
          "type": "uint256"
        },
        {
          "internalType": "uint256",
          "name": "allocPoint",
          "type": "uint256"
        },
        {
          "internalType": "uint256",
          "name": "lastRewardBlock",
          "type": "uint256"
        },
        {
          "internalType": "uint256",
          "name": "accTokenPerShare",
          "type": "uint256"
        },
        {
          "internalType": "uint256",
          "name": "totalRewards",
          "type": "uint256"
        }
      ],
      "stateMutability": "view",
      "type": "function"
    },
    {
      "inputs": [],
      "name": "poolLength",
      "outputs": [
        {
          "internalType": "uint256",
          "name": "",
          "type": "uint256"
        }
      ],
      "stateMutability": "view",
      "type": "function"
    },
    {
      "inputs": [],
      "name": "refAddress",
      "outputs": [
        {
          "internalType": "address",
          "name": "",
          "type": "address"
        }
      ],
      "stateMutability": "view",
      "type": "function"
    },
    {
      "inputs": [],
      "name": "renounceOwnership",
      "outputs": [],
      "stateMutability": "nonpayable",
      "type": "function"
    },
    {
      "inputs": [],
      "name": "rewardMultiplier",
      "outputs": [
        {
          "internalType": "uint256",
          "name": "",
          "type": "uint256"
        }
      ],
      "stateMutability": "view",
      "type": "function"
    },
    {
      "inputs": [
        {
          "internalType": "uint256",
          "name": "_pid",
          "type": "uint256"
        }
      ],
      "name": "selectWinner",
      "outputs": [],
      "stateMutability": "nonpayable",
      "type": "function"
    },
    {
      "inputs": [
        {
          "internalType": "uint256",
          "name": "_pid",
          "type": "uint256"
        },
        {
          "internalType": "uint256",
          "name": "_allocPoint",
          "type": "uint256"
        },
        {
          "internalType": "bool",
          "name": "_withUpdate",
          "type": "bool"
        }
      ],
      "name": "set",
      "outputs": [],
      "stateMutability": "nonpayable",
      "type": "function"
    },
    {
      "inputs": [
        {
          "internalType": "address",
          "name": "_dev",
          "type": "address"
        }
      ],
      "name": "setDevAddress",
      "outputs": [],
      "stateMutability": "nonpayable",
      "type": "function"
    },
    {
      "inputs": [
        {
          "internalType": "uint256",
          "name": "_amount",
          "type": "uint256"
        }
      ],
      "name": "setPerBlock",
      "outputs": [],
      "stateMutability": "nonpayable",
      "type": "function"
    },
    {
      "inputs": [
        {
          "internalType": "address",
          "name": "_ref",
          "type": "address"
        }
      ],
      "name": "setRefAddress",
      "outputs": [],
      "stateMutability": "nonpayable",
      "type": "function"
    },
    {
      "inputs": [
        {
          "internalType": "uint256",
          "name": "_multiplier",
          "type": "uint256"
        }
      ],
      "name": "setRewardMultiplier",
      "outputs": [],
      "stateMutability": "nonpayable",
      "type": "function"
    },
    {
      "inputs": [],
      "name": "startBlock",
      "outputs": [
        {
          "internalType": "uint256",
          "name": "",
          "type": "uint256"
        }
      ],
      "stateMutability": "view",
      "type": "function"
    },
    {
      "inputs": [],
      "name": "tokenPerBlock",
      "outputs": [
        {
          "internalType": "uint256",
          "name": "",
          "type": "uint256"
        }
      ],
      "stateMutability": "view",
      "type": "function"
    },
    {
      "inputs": [],
      "name": "totalAllocPoint",
      "outputs": [
        {
          "internalType": "uint256",
          "name": "",
          "type": "uint256"
        }
      ],
      "stateMutability": "view",
      "type": "function"
    },
    {
      "inputs": [
        {
          "internalType": "address",
          "name": "newOwner",
          "type": "address"
        }
      ],
      "name": "transferOwnership",
      "outputs": [],
      "stateMutability": "nonpayable",
      "type": "function"
    },
    {
      "inputs": [
        {
          "internalType": "uint256",
          "name": "_pid",
          "type": "uint256"
        }
      ],
      "name": "updatePool",
      "outputs": [],
      "stateMutability": "nonpayable",
      "type": "function"
    },
    {
      "inputs": [
        {
          "internalType": "uint256",
          "name": "",
          "type": "uint256"
        },
        {
          "internalType": "address",
          "name": "",
          "type": "address"
        }
      ],
      "name": "userInfo",
      "outputs": [
        {
          "internalType": "uint256",
          "name": "amount",
          "type": "uint256"
        },
        {
          "internalType": "uint256",
          "name": "pendingReward",
          "type": "uint256"
        }
      ],
      "stateMutability": "view",
      "type": "function"
    },
    {
      "inputs": [],
      "name": "winnerPoolId",
      "outputs": [
        {
          "internalType": "uint256",
          "name": "",
          "type": "uint256"
        }
      ],
      "stateMutability": "view",
      "type": "function"
    },
    {
      "inputs": [],
      "name": "winnerSelected",
      "outputs": [
        {
          "internalType": "bool",
          "name": "",
          "type": "bool"
        }
      ],
      "stateMutability": "view",
      "type": "function"
    },
    {
      "inputs": [
        {
          "internalType": "uint256",
          "name": "_pid",
          "type": "uint256"
        },
        {
          "internalType": "uint256",
          "name": "_amount",
          "type": "uint256"
        }
      ],
      "name": "withdraw",
      "outputs": [],
      "stateMutability": "nonpayable",
      "type": "function"
    },
    {
      "inputs": [],
      "name": "withdrawDevAndRefFee",
      "outputs": [],
      "stateMutability": "nonpayable",
      "type": "function"
    }
  ],
  "transactionHash": "0x12c5e6ad894614e1b1182944636915d9b56fbe3e513f19fa220f6f79c62a17f5",
  "args": [
    "0x4aa3b6dA6898E3770CFaaBC343AdF1de8c29b8c0",
    "0xE293014dC435f2263088cF726a32E537941F96Fa",
    "0xE293014dC435f2263088cF726a32E537941F96Fa",
    "2000000000000000000",
    11560687,
    23121374,
    "0x5537487b4f0188E8B9b5DcD2FCDC032C92E50480",
    [
      100,
      100
    ]
  ],
  "solcInputHash": "1da209f8fc828ab97b6f70013f87cc2f",
  "bytecode": "0x608060405260016006556000600955600d805460ff191690553480156200002557600080fd5b50604051620028803803806200288083398181016040526101008110156200004c57600080fd5b815160208301516040808501516060860151608087015160a088015160c089015160e08a0180519651989a9799959894979396929591949391820192846401000000008211156200009c57600080fd5b908301906020820185811115620000b257600080fd5b8251866020820283011164010000000082111715620000d057600080fd5b82525081516020918201928201910280838360005b83811015620000ff578181015183820152602001620000e5565b5050505090500160405250505060006200011e6200020660201b60201c565b600080546001600160a01b0319166001600160a01b0383169081178255604051929350917f8be0079c531659141344cd1fd0a4f28419497f9722a3daafe3b4186f6b6457e0908290a350600180546001600160a01b03808b166001600160a01b031992831617909255600280548a841690831617905560038054928916929091169190911790556005859055600a849055600b839055600484905560005b8151811015620001f757620001ee828281518110620001d757fe5b60200260200101518460006200020a60201b60201c565b600101620001bc565b5050505050505050506200077b565b3390565b600d5460ff16156200024e5760405162461bcd60e51b8152600401808060200182810382526028815260200180620028376028913960400191505060405180910390fd5b80156200025f576200025f620003df565b6000600a5443116200027457600a5462000276565b435b905062000294846009546200040660201b620017e81790919060201c565b6009556040805160c0810182526001600160a01b039485168152600060208201818152928201968752606082019384526080820181815260a0830182815260078054600181018255935292517fa66cc928b5edb82af9bd49922954155ab7b0942694bea4ce44661d9a8736c688600690930292830180546001600160a01b031916919098161790965591517fa66cc928b5edb82af9bd49922954155ab7b0942694bea4ce44661d9a8736c68983015594517fa66cc928b5edb82af9bd49922954155ab7b0942694bea4ce44661d9a8736c68a82015590517fa66cc928b5edb82af9bd49922954155ab7b0942694bea4ce44661d9a8736c68b82015591517fa66cc928b5edb82af9bd49922954155ab7b0942694bea4ce44661d9a8736c68c8301555090517fa66cc928b5edb82af9bd49922954155ab7b0942694bea4ce44661d9a8736c68d90910155565b60075460005b818110156200040257620003f9816200046a565b600101620003e5565b5050565b60008282018381101562000461576040805162461bcd60e51b815260206004820152601b60248201527f536166654d6174683a206164646974696f6e206f766572666c6f770000000000604482015290519081900360640190fd5b90505b92915050565b6000600782815481106200047a57fe5b90600052602060002090600602019050806003015443116200049d575062000630565b600181015480620004b657504360039091015562000630565b6000600b544311620004c95743620004cd565b600b545b90506000620004e78460030154836200063360201b60201c565b905060006200054d612710620005396126ac62000525600954620005398b60020154620005256005548b6200065660201b620018421790919060201c565b6200065660201b620018421790919060201c565b620006b460201b6200189b1790919060201c565b90506200059062000577856200053964e8d4a51000856200065660201b620018421790919060201c565b86600401546200040660201b620017e81790919060201c565b60048601554360038601556005850154620005b8908262000406602090811b620017e817901c565b6005860155600154604080516340c10f1960e01b81523060048201526024810184905290516001600160a01b03909216916340c10f199160448082019260009290919082900301818387803b1580156200061157600080fd5b505af115801562000626573d6000803e3d6000fd5b5050505050505050505b50565b6000620004616006546200052585856200071d60201b620019021790919060201c565b600082620006675750600062000464565b828202828482816200067557fe5b0414620004615760405162461bcd60e51b81526004018080602001828103825260218152602001806200285f6021913960400191505060405180910390fd5b60008082116200070b576040805162461bcd60e51b815260206004820152601a60248201527f536166654d6174683a206469766973696f6e206279207a65726f000000000000604482015290519081900360640190fd5b8183816200071557fe5b049392505050565b60008282111562000775576040805162461bcd60e51b815260206004820152601e60248201527f536166654d6174683a207375627472616374696f6e206f766572666c6f770000604482015290519081900360640190fd5b50900390565b6120ac806200078b6000396000f3fe608060405234801561001057600080fd5b50600436106102325760003560e01c80636f2c590a11610130578063b76e360c116100b8578063d18df53c1161007c578063d18df53c14610532578063dd0d145f1461055e578063e2bbb15814610566578063efce5fb614610589578063f2fde38b1461059157610232565b8063b76e360c146104ec578063b7aa8f10146104f4578063c7648c4f146104fc578063d0d41fe114610504578063d11c9c0a1461052a57610232565b806381952c24116100ff57806381952c24146104435780638d382812146104605780638da5cb5b1461047c5780638dbb1e3a1461048457806393f1a40b146104a757610232565b80636f2c590a14610416578063715018a61461041e5780637c186278146102375780637e94fda91461042657610232565b806337c01f28116101be5780634c524be4116101825780634c524be41461038c57806351eb05a6146103a95780635312ea8e146103c6578063630b5ba1146103e357806364482f79146103eb57610232565b806337c01f281461032d5780633ad10ef6146103355780634198709a14610359578063441a3e701461036157806348cd4cb11461038457610232565b80630bd075a1116102055780630bd075a1146102895780630f332a8a146102a657806312270c40146102c35780631526fe27146102cb57806317caf6f11461032557610232565b8063029dd6ba14610237578063061e26af14610251578063081e3eda14610279578063083c632314610281575b600080fd5b61023f6105b7565b60408051918252519081900360200190f35b6102776004803603602081101561026757600080fd5b50356001600160a01b03166105bc565b005b61023f610640565b61023f610646565b6102776004803603602081101561029f57600080fd5b503561064c565b61023f600480360360208110156102bc57600080fd5b50356106b3565b61027761071c565b6102e8600480360360208110156102e157600080fd5b5035610979565b604080516001600160a01b0390971687526020870195909552858501939093526060850191909152608084015260a0830152519081900360c00190f35b61023f6109c6565b61023f6109cc565b61033d6109d2565b604080516001600160a01b039092168252519081900360200190f35b61023f6109e1565b6102776004803603604081101561037757600080fd5b50803590602001356109e7565b61023f610b1b565b610277600480360360208110156103a257600080fd5b5035610b21565b610277600480360360208110156103bf57600080fd5b5035610b9d565b610277600480360360208110156103dc57600080fd5b5035610cf4565b610277610da7565b6102776004803603606081101561040157600080fd5b50803590602081013590604001351515610dca565b61023f610ee7565b610277610eed565b6102776004803603602081101561043c57600080fd5b5035610f99565b6102776004803603602081101561045957600080fd5b503561129d565b6104686113bf565b604080519115158252519081900360200190f35b61033d6113c8565b61023f6004803603604081101561049a57600080fd5b50803590602001356113d7565b6104d3600480360360408110156104bd57600080fd5b50803590602001356001600160a01b03166113f4565b6040805192835260208301919091528051918290030190f35b61023f611418565b61023f61141e565b61023f61144c565b6102776004803603602081101561051a57600080fd5b50356001600160a01b0316611452565b61023f6114d6565b61023f6004803603604081101561054857600080fd5b50803590602001356001600160a01b03166114dc565b61033d6115dc565b6102776004803603604081101561057c57600080fd5b50803590602001356115eb565b61033d6116d7565b610277600480360360208110156105a757600080fd5b50356001600160a01b03166116e6565b603281565b6105c461195f565b6001600160a01b03166105d56113c8565b6001600160a01b03161461061e576040805162461bcd60e51b8152602060048201819052602482015260008051602061200b833981519152604482015290519081900360640190fd5b600380546001600160a01b0319166001600160a01b0392909216919091179055565b60075490565b600b5481565b61065461195f565b6001600160a01b03166106656113c8565b6001600160a01b0316146106ae576040805162461bcd60e51b8152602060048201819052602482015260008051602061200b833981519152604482015290519081900360640190fd5b600655565b6000806106ca6106c4436001611902565b436113d7565b905061071560095461070f600786815481106106e257fe5b9060005260206000209060060201600201546107096005548661184290919063ffffffff16565b90611842565b9061189b565b9392505050565b600a5443101561075d5760405162461bcd60e51b8152600401808060200182810382526026815260200180611fe56026913960400191505060405180910390fd5b600b5443101561079e5760405162461bcd60e51b8152600401808060200182810382526027815260200180611f4c6027913960400191505060405180910390fd5b600d5460ff166107df5760405162461bcd60e51b815260040180806020018281038252602b815260200180611f99602b913960400191505060405180910390fd5b436004541061081f5760405162461bcd60e51b815260040180806020018281038252602281526020018061202b6022913960400191505060405180910390fd5b6000600b5443116108305743610834565b600b545b90506000610844600454836113d7565b9050600061085d6005548361184290919063ffffffff16565b6001546002549192506001600160a01b03908116916340c10f19911661088a61271061070f866032611842565b6040518363ffffffff1660e01b815260040180836001600160a01b0316815260200182815260200192505050600060405180830381600087803b1580156108d057600080fd5b505af11580156108e4573d6000803e3d6000fd5b50506001546003546001600160a01b0391821693506340c10f1992501661091261271061070f866032611842565b6040518363ffffffff1660e01b815260040180836001600160a01b0316815260200182815260200192505050600060405180830381600087803b15801561095857600080fd5b505af115801561096c573d6000803e3d6000fd5b5050436004555050505050565b6007818154811061098657fe5b60009182526020909120600690910201805460018201546002830154600384015460048501546005909501546001600160a01b0390941695509193909286565b60095481565b61271081565b6002546001600160a01b031681565b60055481565b6000600783815481106109f657fe5b600091825260208083208684526008825260408085203386529092529220805460069092029092019250831115610a5e5760405162461bcd60e51b815260040180806020018281038252602b815260200180611efb602b913960400191505060405180910390fd5b6001820154610a6d9084611902565b6001830155610a7b84610b9d565b805415610aba57610ab4610aa964e8d4a5100061070f8560040154856000015461184290919063ffffffff16565b6001830154906117e8565b60018201555b8054610ac69084611902565b81558154610ade906001600160a01b03163385611963565b604080518481529051859133917ff279e6a1f5e320cca91135676d9cb6e44ca8a08c0b88342bcdb1144f6511b5689181900360200190a350505050565b600a5481565b610b2961195f565b6001600160a01b0316610b3a6113c8565b6001600160a01b031614610b83576040805162461bcd60e51b8152602060048201819052602482015260008051602061200b833981519152604482015290519081900360640190fd5b610b8b610da7565b600d805460ff19166001179055600c55565b600060078281548110610bac57fe5b9060005260206000209060060201905080600301544311610bcd5750610cf1565b600181015480610be4575043600390910155610cf1565b6000600b544311610bf55743610bf9565b600b545b90506000610c0b8460030154836113d7565b90506000610c3e61271061070f6126ac61070960095461070f8b600201546107096005548b61184290919063ffffffff16565b9050610c61610c568561070f8464e8d4a51000611842565b6004870154906117e8565b60048601554360038601556005850154610c7b90826117e8565b6005860155600154604080516340c10f1960e01b81523060048201526024810184905290516001600160a01b03909216916340c10f199160448082019260009290919082900301818387803b158015610cd357600080fd5b505af1158015610ce7573d6000803e3d6000fd5b5050505050505050505b50565b600060078281548110610d0357fe5b60009182526020808320858452600882526040808520338652909252922080546006929092029092016001810154909350610d3d91611902565b60018084019190915560008083559082018190558254610d6a916001600160a01b03909116903390611963565b80546040805191825251849133917fbb757047c2b5f3974fe26b7c10f732e7bce710b0952a71082702781e62ae05959181900360200190a3505050565b60075460005b81811015610dc657610dbe81610b9d565b600101610dad565b5050565b610dd261195f565b6001600160a01b0316610de36113c8565b6001600160a01b031614610e2c576040805162461bcd60e51b8152602060048201819052602482015260008051602061200b833981519152604482015290519081900360640190fd5b600d5460ff1615610e6e5760405162461bcd60e51b8152600401808060200182810382526028815260200180611ead6028913960400191505060405180910390fd5b8015610e7c57610e7c610da7565b610eb982610eb360078681548110610e9057fe5b90600052602060002090600602016002015460095461190290919063ffffffff16565b906117e8565b6009819055508160078481548110610ecd57fe5b906000526020600020906006020160020181905550505050565b60065481565b610ef561195f565b6001600160a01b0316610f066113c8565b6001600160a01b031614610f4f576040805162461bcd60e51b8152602060048201819052602482015260008051602061200b833981519152604482015290519081900360640190fd5b600080546040516001600160a01b03909116907f8be0079c531659141344cd1fd0a4f28419497f9722a3daafe3b4186f6b6457e0908390a3600080546001600160a01b0319169055565b600060078281548110610fa857fe5b600091825260208083208584526008825260408085203386529092529220600a54600690920290920192504310156110115760405162461bcd60e51b8152600401808060200182810382526026815260200180611fe56026913960400191505060405180910390fd5b600b544310156110525760405162461bcd60e51b8152600401808060200182810382526027815260200180611f4c6027913960400191505060405180910390fd5b600d5460ff166110935760405162461bcd60e51b815260040180806020018281038252602b815260200180611f99602b913960400191505060405180910390fd5b600c5483146110d35760405162461bcd60e51b8152600401808060200182810382526026815260200180611f736026913960400191505060405180910390fd5b6110dc83610b9d565b600061111061110564e8d4a5100061070f8660040154866000015461184290919063ffffffff16565b6001840154906117e8565b9050600061112b84600501548361189b90919063ffffffff16565b60075490915060005b818110156111df57600c5481146111d75761114d611e6d565b6007828154811061115a57fe5b60009182526020918290206040805160c081018252600690930290910180546001600160a01b03168352600181015493830193909352600283015490820152600382015460608201526004820154608082015260059091015460a082018190529091506111d3906111cc908690611842565b86906117e8565b9450505b600101611134565b5083541561125457835460018601546111f791611902565b600186015583548554611217916001600160a01b03909116903390611963565b83546040805191825251879133917ff279e6a1f5e320cca91135676d9cb6e44ca8a08c0b88342bcdb1144f6511b5689181900360200190a3600084555b61125e33846119ba565b604080518481529051879133917f34fcbac0073d7c3d388e51312faf357774904998eeb8fca628b9e6f65ee1cbf79181900360200190a3505050505050565b6112a561195f565b6001600160a01b03166112b66113c8565b6001600160a01b0316146112ff576040805162461bcd60e51b8152602060048201819052602482015260008051602061200b833981519152604482015290519081900360640190fd5b6801a055690d9db8000081111561135d576040805162461bcd60e51b815260206004820152601860248201527f4475656c4576656e743a204d61782070657220626c6f636b0000000000000000604482015290519081900360640190fd5b670de0b6b3a76400008110156113ba576040805162461bcd60e51b815260206004820152601860248201527f4475656c4576656e743a204d696e2070657220626c6f636b0000000000000000604482015290519081900360640190fd5b600555565b600d5460ff1681565b6000546001600160a01b031690565b6006546000906113eb906107098486611902565b90505b92915050565b60086020908152600092835260408084209091529082529020805460019091015482565b60045481565b60008061142f6106c4436001611902565b90506114466005548261184290919063ffffffff16565b91505090565b6126ac81565b61145a61195f565b6001600160a01b031661146b6113c8565b6001600160a01b0316146114b4576040805162461bcd60e51b8152602060048201819052602482015260008051602061200b833981519152604482015290519081900360640190fd5b600280546001600160a01b0319166001600160a01b0392909216919091179055565b600c5481565b600080600784815481106114ec57fe5b600091825260208083208784526008825260408085206001600160a01b0389168652909252922060046006909202909201908101546001820154600383015492945090914311801561153d57508015155b156115ba576000600b5443116115535743611557565b600b545b905060006115698660030154836113d7565b9050600061159c61271061070f6126ac61070960095461070f8d600201546107096005548b61184290919063ffffffff16565b90506115b46111cc8561070f8464e8d4a51000611842565b94505050505b82546115d19064e8d4a510009061070f9085611842565b979650505050505050565b6001546001600160a01b031681565b6000600783815481106115fa57fe5b600091825260208083208684526008825260408085203386529092529220600160069092029092019081015490925061163390846117e8565b600183015561164184610b9d565b8054156116755761166f610aa964e8d4a5100061070f8560040154856000015461184290919063ffffffff16565b60018201555b805461168190846117e8565b8155815461169a906001600160a01b0316333086611b4a565b604080518481529051859133917f90890809c654f11d6e72a28fa60149770a0d11ec6c92319d6ceb2bb0a4ea1a159181900360200190a350505050565b6003546001600160a01b031681565b6116ee61195f565b6001600160a01b03166116ff6113c8565b6001600160a01b031614611748576040805162461bcd60e51b8152602060048201819052602482015260008051602061200b833981519152604482015290519081900360640190fd5b6001600160a01b03811661178d5760405162461bcd60e51b8152600401808060200182810382526026815260200180611ed56026913960400191505060405180910390fd5b600080546040516001600160a01b03808516939216917f8be0079c531659141344cd1fd0a4f28419497f9722a3daafe3b4186f6b6457e091a3600080546001600160a01b0319166001600160a01b0392909216919091179055565b6000828201838110156113eb576040805162461bcd60e51b815260206004820152601b60248201527f536166654d6174683a206164646974696f6e206f766572666c6f770000000000604482015290519081900360640190fd5b600082611851575060006113ee565b8282028284828161185e57fe5b04146113eb5760405162461bcd60e51b8152600401808060200182810382526021815260200180611fc46021913960400191505060405180910390fd5b60008082116118f1576040805162461bcd60e51b815260206004820152601a60248201527f536166654d6174683a206469766973696f6e206279207a65726f000000000000604482015290519081900360640190fd5b8183816118fa57fe5b049392505050565b600082821115611959576040805162461bcd60e51b815260206004820152601e60248201527f536166654d6174683a207375627472616374696f6e206f766572666c6f770000604482015290519081900360640190fd5b50900390565b3390565b604080516001600160a01b038416602482015260448082018490528251808303909101815260649091019091526020810180516001600160e01b031663a9059cbb60e01b1790526119b5908490611baa565b505050565b600154604080516370a0823160e01b815230600482015290516000926001600160a01b0316916370a08231916024808301926020929190829003018186803b158015611a0557600080fd5b505afa158015611a19573d6000803e3d6000fd5b505050506040513d6020811015611a2f57600080fd5b5051905080821115611ac3576001546040805163a9059cbb60e01b81526001600160a01b038681166004830152602482018590529151919092169163a9059cbb9160448083019260209291908290030181600087803b158015611a9157600080fd5b505af1158015611aa5573d6000803e3d6000fd5b505050506040513d6020811015611abb57600080fd5b506119b59050565b6001546040805163a9059cbb60e01b81526001600160a01b038681166004830152602482018690529151919092169163a9059cbb9160448083019260209291908290030181600087803b158015611b1957600080fd5b505af1158015611b2d573d6000803e3d6000fd5b505050506040513d6020811015611b4357600080fd5b5050505050565b604080516001600160a01b0380861660248301528416604482015260648082018490528251808303909101815260849091019091526020810180516001600160e01b03166323b872dd60e01b179052611ba4908590611baa565b50505050565b6060611bff826040518060400160405280602081526020017f5361666545524332303a206c6f772d6c6576656c2063616c6c206661696c6564815250856001600160a01b0316611c5b9092919063ffffffff16565b8051909150156119b557808060200190516020811015611c1e57600080fd5b50516119b55760405162461bcd60e51b815260040180806020018281038252602a81526020018061204d602a913960400191505060405180910390fd5b6060611c6a8484600085611c72565b949350505050565b606082471015611cb35760405162461bcd60e51b8152600401808060200182810382526026815260200180611f266026913960400191505060405180910390fd5b611cbc85611dc3565b611d0d576040805162461bcd60e51b815260206004820152601d60248201527f416464726573733a2063616c6c20746f206e6f6e2d636f6e7472616374000000604482015290519081900360640190fd5b60006060866001600160a01b031685876040518082805190602001908083835b60208310611d4c5780518252601f199092019160209182019101611d2d565b6001836020036101000a03801982511681845116808217855250505050505090500191505060006040518083038185875af1925050503d8060008114611dae576040519150601f19603f3d011682016040523d82523d6000602084013e611db3565b606091505b50915091506115d1828286611dc9565b3b151590565b60608315611dd8575081610715565b825115611de85782518084602001fd5b8160405162461bcd60e51b81526004018080602001828103825283818151815260200191508051906020019080838360005b83811015611e32578181015183820152602001611e1a565b50505050905090810190601f168015611e5f5780820380516001836020036101000a031916815260200191505b509250505060405180910390fd5b6040518060c0016040528060006001600160a01b031681526020016000815260200160008152602001600081526020016000815260200160008152509056fe4475656c4576656e743a2057696e6e657220706f6f6c20686173206265656e2073656c65637465644f776e61626c653a206e6577206f776e657220697320746865207a65726f20616464726573734475656c4576656e743a205769746864726177616c20616d6f756e74206578636565642062616c616e6365416464726573733a20696e73756666696369656e742062616c616e636520666f722063616c6c4475656c4576656e743a204661726d696e6720686173206e6f742066696e6973686564207965744475656c4576656e743a2043616e6e6f7420636c61696d2066726f6d206c6f736520706f6f6c4475656c4576656e743a2057696e6e657220706f6f6c20686173206e6f742073656c656374656420796574536166654d6174683a206d756c7469706c69636174696f6e206f766572666c6f774475656c4576656e743a204661726d696e6720686173206e6f742073746172746564207965744f776e61626c653a2063616c6c6572206973206e6f7420746865206f776e65724475656c4576656e743a205265776172647320616c726561647920636c61696d65645361666545524332303a204552433230206f7065726174696f6e20646964206e6f742073756363656564a264697066735822122003ca6eb37c36bfe988c9c3ac7affc468fc136094ca6d4e25922a0c5d4cda8c6764736f6c634300060c00334475656c4576656e743a2057696e6e657220706f6f6c20686173206265656e2073656c6563746564536166654d6174683a206d756c7469706c69636174696f6e206f766572666c6f77",
  "devdoc": {
    "kind": "dev",
    "methods": {
      "claimAndExit(uint256)": {
        "details": "Returns pending rewards for user."
      },
      "deposit(uint256,uint256)": {
        "details": "Deposit LP tokens to the pool for reward token allocation."
      },
      "emergencyWithdraw(uint256)": {
        "details": "Withdraw without caring about rewards. EMERGENCY ONLY."
      },
      "getBaseRewardPerBlock()": {
        "details": "Returns the pool specific reward per block."
      },
      "getMultiplier(uint256,uint256)": {
        "details": "Returns reward multiplier over the given _from to _to block."
      },
      "getPoolRewardPerBlock(uint256)": {
        "details": "Returns the pool specific reward per block."
      },
      "massUpdatePools()": {
        "details": "Updates reward vairables for all pools. Be careful of gas spending!"
      },
      "owner()": {
        "details": "Returns the address of the current owner."
      },
      "pendingRewards(uint256,address)": {
        "details": "Returns pending rewards for user."
      },
      "poolLength()": {
        "details": "Returns the poolInfo length."
      },
      "renounceOwnership()": {
        "details": "Leaves the contract without owner. It will not be possible to call `onlyOwner` functions anymore. Can only be called by the current owner. NOTE: Renouncing ownership will leave the contract without an owner, thereby removing any functionality that is only available to the owner."
      },
      "selectWinner(uint256)": {
        "details": "Select winner pool. Can only be called by the owner."
      },
      "set(uint256,uint256,bool)": {
        "details": "Updates pool allocation points. Can only be called by the owner."
      },
      "setDevAddress(address)": {
        "details": "Updates dev address, only owner."
      },
      "setPerBlock(uint256)": {
        "details": "Updates reward per block, only owner."
      },
      "setRefAddress(address)": {
        "details": "Updates ref address, only owner."
      },
      "setRewardMultiplier(uint256)": {
        "details": "Updates reward multiplier, only owner."
      },
      "transferOwnership(address)": {
        "details": "Transfers ownership of the contract to a new account (`newOwner`). Can only be called by the current owner."
      },
      "updatePool(uint256)": {
        "details": "Updates reward vairables for the pool."
      },
      "withdraw(uint256,uint256)": {
        "details": "Withdraw LP tokens from the pool."
      }
    },
    "version": 1
  },
  "userdoc": {
    "kind": "user",
    "methods": {},
    "version": 1
  },
  "storageLayout": {
    "storage": [
      {
        "astId": 7,
        "contract": "contracts/DuelEvent.sol:DuelEvent",
        "label": "_owner",
        "offset": 0,
        "slot": "0",
        "type": "t_address"
      },
      {
        "astId": 2631,
        "contract": "contracts/DuelEvent.sol:DuelEvent",
        "label": "DUEL",
        "offset": 0,
        "slot": "1",
        "type": "t_contract(DuelToken)3942"
      },
      {
        "astId": 2645,
        "contract": "contracts/DuelEvent.sol:DuelEvent",
        "label": "devAddress",
        "offset": 0,
        "slot": "2",
        "type": "t_address"
      },
      {
        "astId": 2647,
        "contract": "contracts/DuelEvent.sol:DuelEvent",
        "label": "refAddress",
        "offset": 0,
        "slot": "3",
        "type": "t_address"
      },
      {
        "astId": 2649,
        "contract": "contracts/DuelEvent.sol:DuelEvent",
        "label": "lastBlockDevWithdraw",
        "offset": 0,
        "slot": "4",
        "type": "t_uint256"
      },
      {
        "astId": 2651,
        "contract": "contracts/DuelEvent.sol:DuelEvent",
        "label": "tokenPerBlock",
        "offset": 0,
        "slot": "5",
        "type": "t_uint256"
      },
      {
        "astId": 2654,
        "contract": "contracts/DuelEvent.sol:DuelEvent",
        "label": "rewardMultiplier",
        "offset": 0,
        "slot": "6",
        "type": "t_uint256"
      },
      {
        "astId": 2657,
        "contract": "contracts/DuelEvent.sol:DuelEvent",
        "label": "poolInfo",
        "offset": 0,
        "slot": "7",
        "type": "t_array(t_struct(PoolInfo)2629_storage)dyn_storage"
      },
      {
        "astId": 2663,
        "contract": "contracts/DuelEvent.sol:DuelEvent",
        "label": "userInfo",
        "offset": 0,
        "slot": "8",
        "type": "t_mapping(t_uint256,t_mapping(t_address,t_struct(UserInfo)2616_storage))"
      },
      {
        "astId": 2666,
        "contract": "contracts/DuelEvent.sol:DuelEvent",
        "label": "totalAllocPoint",
        "offset": 0,
        "slot": "9",
        "type": "t_uint256"
      },
      {
        "astId": 2668,
        "contract": "contracts/DuelEvent.sol:DuelEvent",
        "label": "startBlock",
        "offset": 0,
        "slot": "10",
        "type": "t_uint256"
      },
      {
        "astId": 2670,
        "contract": "contracts/DuelEvent.sol:DuelEvent",
        "label": "endBlock",
        "offset": 0,
        "slot": "11",
        "type": "t_uint256"
      },
      {
        "astId": 2672,
        "contract": "contracts/DuelEvent.sol:DuelEvent",
        "label": "winnerPoolId",
        "offset": 0,
        "slot": "12",
        "type": "t_uint256"
      },
      {
        "astId": 2675,
        "contract": "contracts/DuelEvent.sol:DuelEvent",
        "label": "winnerSelected",
        "offset": 0,
        "slot": "13",
        "type": "t_bool"
      }
    ],
    "types": {
      "t_address": {
        "encoding": "inplace",
        "label": "address",
        "numberOfBytes": "20"
      },
      "t_array(t_struct(PoolInfo)2629_storage)dyn_storage": {
        "base": "t_struct(PoolInfo)2629_storage",
        "encoding": "dynamic_array",
        "label": "struct DuelEvent.PoolInfo[]",
        "numberOfBytes": "32"
      },
      "t_bool": {
        "encoding": "inplace",
        "label": "bool",
        "numberOfBytes": "1"
      },
      "t_contract(DuelToken)3942": {
        "encoding": "inplace",
        "label": "contract DuelToken",
        "numberOfBytes": "20"
      },
      "t_contract(IERC20)1104": {
        "encoding": "inplace",
        "label": "contract IERC20",
        "numberOfBytes": "20"
      },
      "t_mapping(t_address,t_struct(UserInfo)2616_storage)": {
        "encoding": "mapping",
        "key": "t_address",
        "label": "mapping(address => struct DuelEvent.UserInfo)",
        "numberOfBytes": "32",
        "value": "t_struct(UserInfo)2616_storage"
      },
      "t_mapping(t_uint256,t_mapping(t_address,t_struct(UserInfo)2616_storage))": {
        "encoding": "mapping",
        "key": "t_uint256",
        "label": "mapping(uint256 => mapping(address => struct DuelEvent.UserInfo))",
        "numberOfBytes": "32",
        "value": "t_mapping(t_address,t_struct(UserInfo)2616_storage)"
      },
      "t_struct(PoolInfo)2629_storage": {
        "encoding": "inplace",
        "label": "struct DuelEvent.PoolInfo",
        "members": [
          {
            "astId": 2618,
            "contract": "contracts/DuelEvent.sol:DuelEvent",
            "label": "lpToken",
            "offset": 0,
            "slot": "0",
            "type": "t_contract(IERC20)1104"
          },
          {
            "astId": 2620,
            "contract": "contracts/DuelEvent.sol:DuelEvent",
            "label": "supply",
            "offset": 0,
            "slot": "1",
            "type": "t_uint256"
          },
          {
            "astId": 2622,
            "contract": "contracts/DuelEvent.sol:DuelEvent",
            "label": "allocPoint",
            "offset": 0,
            "slot": "2",
            "type": "t_uint256"
          },
          {
            "astId": 2624,
            "contract": "contracts/DuelEvent.sol:DuelEvent",
            "label": "lastRewardBlock",
            "offset": 0,
            "slot": "3",
            "type": "t_uint256"
          },
          {
            "astId": 2626,
            "contract": "contracts/DuelEvent.sol:DuelEvent",
            "label": "accTokenPerShare",
            "offset": 0,
            "slot": "4",
            "type": "t_uint256"
          },
          {
            "astId": 2628,
            "contract": "contracts/DuelEvent.sol:DuelEvent",
            "label": "totalRewards",
            "offset": 0,
            "slot": "5",
            "type": "t_uint256"
          }
        ],
        "numberOfBytes": "192"
      },
      "t_struct(UserInfo)2616_storage": {
        "encoding": "inplace",
        "label": "struct DuelEvent.UserInfo",
        "members": [
          {
            "astId": 2613,
            "contract": "contracts/DuelEvent.sol:DuelEvent",
            "label": "amount",
            "offset": 0,
            "slot": "0",
            "type": "t_uint256"
          },
          {
            "astId": 2615,
            "contract": "contracts/DuelEvent.sol:DuelEvent",
            "label": "pendingReward",
            "offset": 0,
            "slot": "1",
            "type": "t_uint256"
          }
        ],
        "numberOfBytes": "64"
      },
      "t_uint256": {
        "encoding": "inplace",
        "label": "uint256",
        "numberOfBytes": "32"
      }
    }
  }
}