{
  "address": "0xA6b9050a28e7Cb349EEA3AA907e2D7B01fbEFFdA",
  "abi": [
    {
      "inputs": [
        {
          "internalType": "contract DuelToken",
          "name": "_DUEL",
          "type": "address"
        },
        {
          "internalType": "address",
          "name": "_feeAddress",
          "type": "address"
        },
        {
          "internalType": "uint256",
          "name": "_startBlock",
          "type": "uint256"
        },
        {
          "internalType": "uint256",
          "name": "_endBlock",
          "type": "uint256"
        },
        {
          "internalType": "uint256",
          "name": "_depositEndBlock",
          "type": "uint256"
        },
        {
          "internalType": "contract IERC20",
          "name": "_lpToken",
          "type": "address"
        },
        {
          "internalType": "uint256[]",
          "name": "_allocationPoints",
          "type": "uint256[]"
        }
      ],
      "stateMutability": "nonpayable",
      "type": "constructor"
    },
    {
      "anonymous": false,
      "inputs": [
        {
          "indexed": true,
          "internalType": "address",
          "name": "user",
          "type": "address"
        },
        {
          "indexed": true,
          "internalType": "uint256",
          "name": "pid",
          "type": "uint256"
        },
        {
          "indexed": false,
          "internalType": "uint256",
          "name": "amount",
          "type": "uint256"
        }
      ],
      "name": "Claim",
      "type": "event"
    },
    {
      "anonymous": false,
      "inputs": [
        {
          "indexed": true,
          "internalType": "address",
          "name": "user",
          "type": "address"
        },
        {
          "indexed": true,
          "internalType": "uint256",
          "name": "pid",
          "type": "uint256"
        },
        {
          "indexed": false,
          "internalType": "uint256",
          "name": "amount",
          "type": "uint256"
        }
      ],
      "name": "Deposit",
      "type": "event"
    },
    {
      "anonymous": false,
      "inputs": [
        {
          "indexed": true,
          "internalType": "address",
          "name": "user",
          "type": "address"
        },
        {
          "indexed": true,
          "internalType": "uint256",
          "name": "pid",
          "type": "uint256"
        },
        {
          "indexed": false,
          "internalType": "uint256",
          "name": "amount",
          "type": "uint256"
        }
      ],
      "name": "EmergencyWithdraw",
      "type": "event"
    },
    {
      "anonymous": false,
      "inputs": [
        {
          "indexed": true,
          "internalType": "address",
          "name": "user",
          "type": "address"
        },
        {
          "indexed": true,
          "internalType": "uint256",
          "name": "pid",
          "type": "uint256"
        }
      ],
      "name": "Exit",
      "type": "event"
    },
    {
      "anonymous": false,
      "inputs": [
        {
          "indexed": true,
          "internalType": "address",
          "name": "user",
          "type": "address"
        },
        {
          "indexed": false,
          "internalType": "uint256",
          "name": "amount",
          "type": "uint256"
        }
      ],
      "name": "LeftoverClaim",
      "type": "event"
    },
    {
      "anonymous": false,
      "inputs": [
        {
          "indexed": true,
          "internalType": "address",
          "name": "previousOwner",
          "type": "address"
        },
        {
          "indexed": true,
          "internalType": "address",
          "name": "newOwner",
          "type": "address"
        }
      ],
      "name": "OwnershipTransferred",
      "type": "event"
    },
    {
      "anonymous": false,
      "inputs": [
        {
          "indexed": true,
          "internalType": "address",
          "name": "user",
          "type": "address"
        },
        {
          "indexed": true,
          "internalType": "uint256",
          "name": "pid",
          "type": "uint256"
        },
        {
          "indexed": false,
          "internalType": "uint256",
          "name": "amount",
          "type": "uint256"
        }
      ],
      "name": "Withdraw",
      "type": "event"
    },
    {
      "inputs": [],
      "name": "DUEL",
      "outputs": [
        {
          "internalType": "contract DuelToken",
          "name": "",
          "type": "address"
        }
      ],
      "stateMutability": "view",
      "type": "function"
    },
    {
      "inputs": [],
      "name": "FEE_BASE",
      "outputs": [
        {
          "internalType": "uint256",
          "name": "",
          "type": "uint256"
        }
      ],
      "stateMutability": "view",
      "type": "function"
    },
    {
      "inputs": [],
      "name": "claimLeftovers",
      "outputs": [],
      "stateMutability": "nonpayable",
      "type": "function"
    },
    {
      "inputs": [],
      "name": "claimingFee",
      "outputs": [
        {
          "internalType": "uint256",
          "name": "",
          "type": "uint256"
        }
      ],
      "stateMutability": "view",
      "type": "function"
    },
    {
      "inputs": [
        {
          "internalType": "uint256",
          "name": "_pid",
          "type": "uint256"
        },
        {
          "internalType": "uint256",
          "name": "_amount",
          "type": "uint256"
        }
      ],
      "name": "deposit",
      "outputs": [],
      "stateMutability": "nonpayable",
      "type": "function"
    },
    {
      "inputs": [],
      "name": "depositEndBlock",
      "outputs": [
        {
          "internalType": "uint256",
          "name": "",
          "type": "uint256"
        }
      ],
      "stateMutability": "view",
      "type": "function"
    },
    {
      "inputs": [
        {
          "internalType": "uint256",
          "name": "_pid",
          "type": "uint256"
        }
      ],
      "name": "emergencyWithdraw",
      "outputs": [],
      "stateMutability": "nonpayable",
      "type": "function"
    },
    {
      "inputs": [],
      "name": "endBlock",
      "outputs": [
        {
          "internalType": "uint256",
          "name": "",
          "type": "uint256"
        }
      ],
      "stateMutability": "view",
      "type": "function"
    },
    {
      "inputs": [],
      "name": "eventResult",
      "outputs": [
        {
          "internalType": "uint256",
          "name": "winnerPid",
          "type": "uint256"
        },
        {
          "internalType": "enum DuelEvent.EventResultStatus",
          "name": "status",
          "type": "uint8"
        }
      ],
      "stateMutability": "view",
      "type": "function"
    },
    {
      "inputs": [
        {
          "internalType": "uint256",
          "name": "_pid",
          "type": "uint256"
        }
      ],
      "name": "exit",
      "outputs": [],
      "stateMutability": "nonpayable",
      "type": "function"
    },
    {
      "inputs": [],
      "name": "feeRecipient",
      "outputs": [
        {
          "internalType": "address",
          "name": "",
          "type": "address"
        }
      ],
      "stateMutability": "view",
      "type": "function"
    },
    {
      "inputs": [],
      "name": "getBaseRewardPerBlock",
      "outputs": [
        {
          "internalType": "uint256",
          "name": "",
          "type": "uint256"
        }
      ],
      "stateMutability": "view",
      "type": "function"
    },
    {
      "inputs": [
        {
          "internalType": "uint256",
          "name": "_from",
          "type": "uint256"
        },
        {
          "internalType": "uint256",
          "name": "_to",
          "type": "uint256"
        }
      ],
      "name": "getMultiplier",
      "outputs": [
        {
          "internalType": "uint256",
          "name": "",
          "type": "uint256"
        }
      ],
      "stateMutability": "pure",
      "type": "function"
    },
    {
      "inputs": [
        {
          "internalType": "uint256",
          "name": "_pid",
          "type": "uint256"
        }
      ],
      "name": "getPoolRewardPerBlock",
      "outputs": [
        {
          "internalType": "uint256",
          "name": "",
          "type": "uint256"
        }
      ],
      "stateMutability": "view",
      "type": "function"
    },
    {
      "inputs": [],
      "name": "massUpdatePools",
      "outputs": [],
      "stateMutability": "nonpayable",
      "type": "function"
    },
    {
      "inputs": [],
      "name": "owner",
      "outputs": [
        {
          "internalType": "address",
          "name": "",
          "type": "address"
        }
      ],
      "stateMutability": "view",
      "type": "function"
    },
    {
      "inputs": [
        {
          "internalType": "uint256",
          "name": "_pid",
          "type": "uint256"
        },
        {
          "internalType": "address",
          "name": "_user",
          "type": "address"
        }
      ],
      "name": "pendingRewards",
      "outputs": [
        {
          "internalType": "uint256",
          "name": "",
          "type": "uint256"
        }
      ],
      "stateMutability": "view",
      "type": "function"
    },
    {
      "inputs": [
        {
          "internalType": "uint256",
          "name": "",
          "type": "uint256"
        }
      ],
      "name": "poolInfo",
      "outputs": [
        {
          "internalType": "contract IERC20",
          "name": "lpToken",
          "type": "address"
        },
        {
          "internalType": "uint256",
          "name": "supply",
          "type": "uint256"
        },
        {
          "internalType": "uint256",
          "name": "allocPoint",
          "type": "uint256"
        },
        {
          "internalType": "uint256",
          "name": "lastRewardBlock",
          "type": "uint256"
        },
        {
          "internalType": "uint256",
          "name": "accTokenPerShare",
          "type": "uint256"
        },
        {
          "internalType": "uint256",
          "name": "totalRewards",
          "type": "uint256"
        }
      ],
      "stateMutability": "view",
      "type": "function"
    },
    {
      "inputs": [],
      "name": "poolLength",
      "outputs": [
        {
          "internalType": "uint256",
          "name": "",
          "type": "uint256"
        }
      ],
      "stateMutability": "view",
      "type": "function"
    },
    {
      "inputs": [],
      "name": "renounceOwnership",
      "outputs": [],
      "stateMutability": "nonpayable",
      "type": "function"
    },
    {
      "inputs": [],
      "name": "setCancel",
      "outputs": [],
      "stateMutability": "nonpayable",
      "type": "function"
    },
    {
      "inputs": [
        {
          "internalType": "uint256",
          "name": "_fee",
          "type": "uint256"
        }
      ],
      "name": "setClaimingFee",
      "outputs": [],
      "stateMutability": "nonpayable",
      "type": "function"
    },
    {
      "inputs": [
        {
          "internalType": "uint256",
          "name": "_block",
          "type": "uint256"
        }
      ],
      "name": "setDepositEndBlock",
      "outputs": [],
      "stateMutability": "nonpayable",
      "type": "function"
    },
    {
      "inputs": [],
      "name": "setDraw",
      "outputs": [],
      "stateMutability": "nonpayable",
      "type": "function"
    },
    {
      "inputs": [
        {
          "internalType": "uint256",
          "name": "_block",
          "type": "uint256"
        }
      ],
      "name": "setEndBlock",
      "outputs": [],
      "stateMutability": "nonpayable",
      "type": "function"
    },
    {
      "inputs": [
        {
          "internalType": "address",
          "name": "_feeRecipient",
          "type": "address"
        }
      ],
      "name": "setFeeRecipient",
      "outputs": [],
      "stateMutability": "nonpayable",
      "type": "function"
    },
    {
      "inputs": [
        {
          "internalType": "uint256",
          "name": "_pid",
          "type": "uint256"
        },
        {
          "internalType": "uint256",
          "name": "_alloc",
          "type": "uint256"
        },
        {
          "internalType": "bool",
          "name": "_withUpdate",
          "type": "bool"
        }
      ],
      "name": "setPool",
      "outputs": [],
      "stateMutability": "nonpayable",
      "type": "function"
    },
    {
      "inputs": [
        {
          "internalType": "uint256",
          "name": "_block",
          "type": "uint256"
        }
      ],
      "name": "setStartBlock",
      "outputs": [],
      "stateMutability": "nonpayable",
      "type": "function"
    },
    {
      "inputs": [
        {
          "internalType": "uint256",
          "name": "_amount",
          "type": "uint256"
        }
      ],
      "name": "setTokenPerBlock",
      "outputs": [],
      "stateMutability": "nonpayable",
      "type": "function"
    },
    {
      "inputs": [
        {
          "internalType": "uint256",
          "name": "_pid",
          "type": "uint256"
        }
      ],
      "name": "setWin",
      "outputs": [],
      "stateMutability": "nonpayable",
      "type": "function"
    },
    {
      "inputs": [
        {
          "internalType": "uint256",
          "name": "_fee",
          "type": "uint256"
        }
      ],
      "name": "setWithdrawalFee",
      "outputs": [],
      "stateMutability": "nonpayable",
      "type": "function"
    },
    {
      "inputs": [],
      "name": "startBlock",
      "outputs": [
        {
          "internalType": "uint256",
          "name": "",
          "type": "uint256"
        }
      ],
      "stateMutability": "view",
      "type": "function"
    },
    {
      "inputs": [],
      "name": "tokenPerBlock",
      "outputs": [
        {
          "internalType": "uint256",
          "name": "",
          "type": "uint256"
        }
      ],
      "stateMutability": "view",
      "type": "function"
    },
    {
      "inputs": [],
      "name": "totalAllocPoint",
      "outputs": [
        {
          "internalType": "uint256",
          "name": "",
          "type": "uint256"
        }
      ],
      "stateMutability": "view",
      "type": "function"
    },
    {
      "inputs": [
        {
          "internalType": "address",
          "name": "newOwner",
          "type": "address"
        }
      ],
      "name": "transferOwnership",
      "outputs": [],
      "stateMutability": "nonpayable",
      "type": "function"
    },
    {
      "inputs": [
        {
          "internalType": "uint256",
          "name": "_pid",
          "type": "uint256"
        }
      ],
      "name": "updatePool",
      "outputs": [],
      "stateMutability": "nonpayable",
      "type": "function"
    },
    {
      "inputs": [
        {
          "internalType": "uint256",
          "name": "",
          "type": "uint256"
        },
        {
          "internalType": "address",
          "name": "",
          "type": "address"
        }
      ],
      "name": "userInfo",
      "outputs": [
        {
          "internalType": "uint256",
          "name": "amount",
          "type": "uint256"
        },
        {
          "internalType": "uint256",
          "name": "rewardDebt",
          "type": "uint256"
        },
        {
          "internalType": "uint256",
          "name": "pendingReward",
          "type": "uint256"
        },
        {
          "internalType": "bool",
          "name": "claimed",
          "type": "bool"
        }
      ],
      "stateMutability": "view",
      "type": "function"
    },
    {
      "inputs": [
        {
          "internalType": "uint256",
          "name": "_pid",
          "type": "uint256"
        },
        {
          "internalType": "uint256",
          "name": "_amount",
          "type": "uint256"
        }
      ],
      "name": "withdraw",
      "outputs": [],
      "stateMutability": "nonpayable",
      "type": "function"
    },
    {
      "inputs": [],
      "name": "withdrawalFee",
      "outputs": [
        {
          "internalType": "uint256",
          "name": "",
          "type": "uint256"
        }
      ],
      "stateMutability": "view",
      "type": "function"
    }
  ],
  "transactionHash": "0x7e8d68451681060434290f9f75fc1fa27146d8d972ff4c0ebab1d1eea3fdcf3d",
  "args": [
    "0x6ee9b76A9cDd69190b5Aad2B2F3B3fCB3471228e",
    "0xE293014dC435f2263088cF726a32E537941F96Fa",
    11986650,
    11987850,
    11987250,
    "0x69BAa471326c31f846ddE16505F2BD9442FD105c",
    [
      100,
      100
    ]
  ],
  "solcInputHash": "4fff6697e3ead434ae4d1acf242016bf",
  "bytecode": "0x60a06040526019600255610190600355670de0b6b3a76400006005556000600d553480156200002d57600080fd5b50604051620032a0380380620032a0833981810160405260e08110156200005357600080fd5b815160208301516040808501516060860151608087015160a088015160c089018051955197999698949793969295919483019291846401000000008211156200009b57600080fd5b908301906020820185811115620000b157600080fd5b8251866020820283011164010000000082111715620000cf57600080fd5b82525081516020918201928201910280838360005b83811015620000fe578181015183820152602001620000e4565b5050505090500160405250505060006200011d620001fc60201b60201c565b600080546001600160a01b0319166001600160a01b0383169081178255604051929350917f8be0079c531659141344cd1fd0a4f28419497f9722a3daafe3b4186f6b6457e0908290a35060018055606087901b6001600160601b031916608052600480546001600160a01b0319166001600160a01b03881617905560068590556007849055600883905560005b8151811015620001e357620001da83838381518110620001c657fe5b60200260200101516200020060201b60201c565b600101620001aa565b5050600a805460ff19169055506200033f945050505050565b3390565b6200021c81600d54620002dd60201b620025061790919060201c565b600d81905550600b6040518060c00160405280846001600160a01b031681526020016000815260200183815260200160065443116200025e5760065462000260565b435b815260006020808301829052604092830182905284546001808201875595835291819020845160069093020180546001600160a01b0319166001600160a01b03909316929092178255830151938101939093558101516002830155606081015160038301556080810151600483015560a001516005909101555050565b60008282018381101562000338576040805162461bcd60e51b815260206004820152601b60248201527f536166654d6174683a206164646974696f6e206f766572666c6f770000000000604482015290519081900360640190fd5b9392505050565b60805160601c612f2f6200037160003980610dc252806115825280611dfc528061277e528061282c5250612f2f6000f3fe608060405234801561001057600080fd5b506004361061023d5760003560e01c80637f8661a11161013b578063d2618baf116100b8578063e738d2b31161007c578063e738d2b3146105b2578063e74b981b146105ba578063ecefc705146105e0578063f2fde38b146105e8578063f35e4a6e1461060e5761023d565b8063d2618baf1461055a578063dc16041a14610562578063dd0d145f1461057f578063e26cc3d714610587578063e2bbb1581461058f5761023d565b8063a408bb4c116100ff578063a408bb4c146104e4578063ac1e5025146104ec578063b7aa8f1014610509578063c713aa9414610511578063d18df53c1461052e5761023d565b80637f8661a1146104405780638bc7e8c41461045d5780638da5cb5b146104655780638dbb1e3a1461046d57806393f1a40b146104905761023d565b806346904840116101c95780635312ea8e1161018d5780635312ea8e146103c657806359b599dc146103e3578063630b5ba114610400578063676fdbb114610408578063715018a6146104385761023d565b8063469048401461033557806346ca6bea1461035957806348cd4cb11461038457806348d298bf1461038c57806351eb05a6146103a95761023d565b806317caf6f11161021057806317caf6f1146102db5780633c377737146102e3578063411330bd146102eb5780634198709a1461030a578063441a3e70146103125761023d565b8063081e3eda14610242578063083c63231461025c5780630f332a8a146102645780631526fe2714610281575b600080fd5b61024a61062b565b60408051918252519081900360200190f35b61024a610631565b61024a6004803603602081101561027a57600080fd5b5035610637565b61029e6004803603602081101561029757600080fd5b5035610680565b604080516001600160a01b0390971687526020870195909552858501939093526060850191909152608084015260a0830152519081900360c00190f35b61024a6106cd565b61024a6106d3565b6103086004803603602081101561030157600080fd5b50356106d9565b005b61024a61084a565b6103086004803603604081101561032857600080fd5b5080359060200135610850565b61033d610aae565b604080516001600160a01b039092168252519081900360200190f35b6103086004803603606081101561036f57600080fd5b50803590602081013590604001351515610abd565b61024a610be7565b610308600480360360208110156103a257600080fd5b5035610bed565b610308600480360360208110156103bf57600080fd5b5035610caa565b610308600480360360208110156103dc57600080fd5b5035610e2a565b610308600480360360208110156103f957600080fd5b5035610f21565b610308611024565b610410611042565b6040518083815260200182600381111561042657fe5b81526020019250505060405180910390f35b61030861104e565b6103086004803603602081101561045657600080fd5b50356110fa565b61024a6113a3565b61033d6113a9565b61024a6004803603604081101561048357600080fd5b50803590602001356113b8565b6104bc600480360360408110156104a657600080fd5b50803590602001356001600160a01b03166113cd565b6040805194855260208501939093528383019190915215156060830152519081900360800190f35b610308611402565b6103086004803603602081101561050257600080fd5b50356116c8565b61024a611786565b6103086004803603602081101561052757600080fd5b503561178c565b61024a6004803603604081101561054457600080fd5b50803590602001356001600160a01b03166118c2565b610308611bdd565b6103086004803603602081101561057857600080fd5b5035611cee565b61033d611dfa565b610308611e1e565b610308600480360360408110156105a557600080fd5b5080359060200135611f2c565b61024a6121a6565b610308600480360360208110156105d057600080fd5b50356001600160a01b03166121ac565b61024a61228b565b610308600480360360208110156105fe57600080fd5b50356001600160a01b0316612291565b6103086004803603602081101561062457600080fd5b5035612393565b600b5490565b60075481565b6000610678600d54610672600b858154811061064f57fe5b90600052602060002090600602016002015460055461256090919063ffffffff16565b906125b9565b90505b919050565b600b818154811061068d57fe5b60009182526020909120600690910201805460018201546002830154600384015460048501546005909501546001600160a01b0390941695509193909286565b600d5481565b60085481565b6106e1612620565b6001600160a01b03166106f26113a9565b6001600160a01b03161461073b576040805162461bcd60e51b81526020600482018190526024820152600080516020612e49833981519152604482015290519081900360640190fd5b6000600a5460ff16600381111561074e57fe5b1461078a5760405162461bcd60e51b8152600401808060200182810382526023815260200180612ed76023913960400191505060405180910390fd5b6801a055690d9db800008111156107e8576040805162461bcd60e51b815260206004820152601860248201527f4475656c4576656e743a204d61782070657220626c6f636b0000000000000000604482015290519081900360640190fd5b670de0b6b3a7640000811015610845576040805162461bcd60e51b815260206004820152601860248201527f4475656c4576656e743a204d696e2070657220626c6f636b0000000000000000604482015290519081900360640190fd5b600555565b60055481565b600260015414156108a8576040805162461bcd60e51b815260206004820152601f60248201527f5265656e7472616e637947756172643a207265656e7472616e742063616c6c00604482015290519081900360640190fd5b6002600155806108f8576040805162461bcd60e51b8152602060048201526016602482015275111d595b115d995b9d0e8816995c9bc8185b5bdd5b9d60521b604482015290519081900360640190fd5b6000600b838154811061090757fe5b60009182526020808320868452600c82526040808520338652909252922080546006909202909201925083111561096f5760405162461bcd60e51b815260040180806020018281038252602b815260200180612d35602b913960400191505060405180910390fd5b61097884610caa565b60006109ac82600101546109a664e8d4a510006106728760040154876000015461256090919063ffffffff16565b90612624565b60028301549091506109be9082612506565b600283015560006109ce86612681565b905060006109dc82876126f5565b905060006109ea8388612711565b85549091506109f99088612624565b8086556004870154610a169164e8d4a51000916106729190612560565b600180870191909155860154610a2c9088612624565b60018701558554610a47906001600160a01b03163384612723565b8015610a69576004548654610a69916001600160a01b03918216911683612723565b604080518381529051899133917ff279e6a1f5e320cca91135676d9cb6e44ca8a08c0b88342bcdb1144f6511b5689181900360200190a3505060018055505050505050565b6004546001600160a01b031681565b610ac5612620565b6001600160a01b0316610ad66113a9565b6001600160a01b031614610b1f576040805162461bcd60e51b81526020600482018190526024820152600080516020612e49833981519152604482015290519081900360640190fd5b6000600a5460ff166003811115610b3257fe5b14610b6e5760405162461bcd60e51b8152600401808060200182810382526023815260200180612ed76023913960400191505060405180910390fd5b8015610b7c57610b7c611024565b610bb982610bb3600b8681548110610b9057fe5b906000526020600020906006020160020154600d5461262490919063ffffffff16565b90612506565b600d8190555081600b8481548110610bcd57fe5b906000526020600020906006020160020181905550505050565b60065481565b610bf5612620565b6001600160a01b0316610c066113a9565b6001600160a01b031614610c4f576040805162461bcd60e51b81526020600482018190526024820152600080516020612e49833981519152604482015290519081900360640190fd5b6064811115610ca5576040805162461bcd60e51b815260206004820152601a60248201527f4475656c4576656e743a204d617820636c616d696e6720666565000000000000604482015290519081900360640190fd5b600255565b6000600b8281548110610cb957fe5b90600052602060002090600602019050806003015443111580610ce25750600754816003015410155b15610ced5750610e27565b600181015480610d04575043600390910155610e27565b60006007544311610d155743610d19565b6007545b90506000610d2b8460030154836113b8565b90506000610d58600d546106728760020154610d526005548761256090919063ffffffff16565b90612560565b9050610d7b610d70856106728464e8d4a51000612560565b600487015490612506565b6004860155600385018390556005850154610d969082612506565b6005860155604080516340c10f1960e01b81523060048201526024810183905290516001600160a01b037f000000000000000000000000000000000000000000000000000000000000000016916340c10f1991604480830192600092919082900301818387803b158015610e0957600080fd5b505af1158015610e1d573d6000803e3d6000fd5b5050505050505050505b50565b6000600b8281548110610e3957fe5b60009182526020808320858452600c82526040808520338652909252922080546006929092029092016001810154909350610e7391612624565b60018301556003548154600091610e89916126f5565b90506000610e9d6003548460000154612711565b60008085556001850181905560028501558454909150610ec7906001600160a01b03163384612723565b6004548454610ee3916001600160a01b03918216911683612723565b604080518381529051869133917fbb757047c2b5f3974fe26b7c10f732e7bce710b0952a71082702781e62ae05959181900360200190a35050505050565b610f29612620565b6001600160a01b0316610f3a6113a9565b6001600160a01b031614610f83576040805162461bcd60e51b81526020600482018190526024820152600080516020612e49833981519152604482015290519081900360640190fd5b6000600a5460ff166003811115610f9657fe5b14610fd25760405162461bcd60e51b8152600401808060200182810382526023815260200180612ed76023913960400191505060405180910390fd5b60065481118015610fe4575060075481105b61101f5760405162461bcd60e51b8152600401808060200182810382526022815260200180612cc66022913960400191505060405180910390fd5b600855565b60005b600b54811015610e275761103a81610caa565b600101611027565b600954600a5460ff1682565b611056612620565b6001600160a01b03166110676113a9565b6001600160a01b0316146110b0576040805162461bcd60e51b81526020600482018190526024820152600080516020612e49833981519152604482015290519081900360640190fd5b600080546040516001600160a01b03909116907f8be0079c531659141344cd1fd0a4f28419497f9722a3daafe3b4186f6b6457e0908390a3600080546001600160a01b0319169055565b60026001541415611152576040805162461bcd60e51b815260206004820152601f60248201527f5265656e7472616e637947756172643a207265656e7472616e742063616c6c00604482015290519081900360640190fd5b60026001556000600a5460ff16600381111561116a57fe5b14156111a75760405162461bcd60e51b8152600401808060200182810382526027815260200180612e226027913960400191505060405180910390fd5b6000600b82815481106111b657fe5b60009182526020808320858452600c82526040808520338652909252922060038101546006909202909201925060ff1615611238576040805162461bcd60e51b815260206004820152601a60248201527f4475656c4576656e743a20436c61696d656420616c7265616479000000000000604482015290519081900360640190fd5b61124183610caa565b600061124d84336118c2565b82549091501561131557600061126285612681565b905060006112748285600001546126f5565b90506000611286838660000154612711565b6000808755600188015491925061129d9190612624565b600187015585546112b8906001600160a01b03163384612723565b80156112da5760045486546112da916001600160a01b03918216911683612723565b604080518381529051889133917ff279e6a1f5e320cca91135676d9cb6e44ca8a08c0b88342bcdb1144f6511b5689181900360200190a35050505b60038201805460ff19166001179055801561136c57611334338261277a565b604080518281529051859133917f34fcbac0073d7c3d388e51312faf357774904998eeb8fca628b9e6f65ee1cbf79181900360200190a35b604051849033907f22d324652c93739755cf4581508b60875ebdd78c20c0cff5cf8e23452b29963190600090a35050600180555050565b60035481565b6000546001600160a01b031690565b60006113c48284612624565b90505b92915050565b600c60209081526000928352604080842090915290825290208054600182015460028301546003909301549192909160ff1684565b61140a612620565b6001600160a01b031661141b6113a9565b6001600160a01b031614611464576040805162461bcd60e51b81526020600482018190526024820152600080516020612e49833981519152604482015290519081900360640190fd5b6000600a5460ff16600381111561147757fe5b14156114b45760405162461bcd60e51b8152600401808060200182810382526027815260200180612e226027913960400191505060405180910390fd5b600b6000815481106114c257fe5b600091825260209182902060069091020154604080516370a0823160e01b815230600482015290516001600160a01b03909216926370a0823192602480840193829003018186803b15801561151657600080fd5b505afa15801561152a573d6000803e3d6000fd5b505050506040513d602081101561154057600080fd5b50511561157e5760405162461bcd60e51b8152600401808060200182810382526024815260200180612dfe6024913960400191505060405180910390fd5b60007f00000000000000000000000000000000000000000000000000000000000000006001600160a01b03166370a08231306040518263ffffffff1660e01b815260040180826001600160a01b0316815260200191505060206040518083038186803b1580156115ed57600080fd5b505afa158015611601573d6000803e3d6000fd5b505050506040513d602081101561161757600080fd5b505190508061166d576040805162461bcd60e51b815260206004820152601760248201527f4475656c4576656e743a205a65726f2062616c616e6365000000000000000000604482015290519081900360640190fd5b600454611683906001600160a01b03168261277a565b6004546040805183815290516001600160a01b03909216917f1ef1ff9107f9a7baefaf4a78cf58f97ba90340cea73be99daa7d96af301d55f99181900360200190a250565b6116d0612620565b6001600160a01b03166116e16113a9565b6001600160a01b03161461172a576040805162461bcd60e51b81526020600482018190526024820152600080516020612e49833981519152604482015290519081900360640190fd5b6103e8811115611781576040805162461bcd60e51b815260206004820152601d60248201527f4475656c4576656e743a204d6178207769746864726177616c20666565000000604482015290519081900360640190fd5b600355565b60055490565b611794612620565b6001600160a01b03166117a56113a9565b6001600160a01b0316146117ee576040805162461bcd60e51b81526020600482018190526024820152600080516020612e49833981519152604482015290519081900360640190fd5b6000600a5460ff16600381111561180157fe5b1461183d5760405162461bcd60e51b8152600401808060200182810382526023815260200180612ed76023913960400191505060405180910390fd5b436007541161187d5760405162461bcd60e51b8152600401808060200182810382526022815260200180612eb56022913960400191505060405180910390fd5b60065481116118bd5760405162461bcd60e51b8152600401808060200182810382526036815260200180612da76036913960400191505060405180910390fd5b600755565b60006118cc612c29565b600b84815481106118d957fe5b60009182526020918290206040805160c081018252600690930290910180546001600160a01b03168352600181015493830193909352600283015490820152600382015460608201526004820154608082015260059091015460a08201529050611941612c68565b506000848152600c602090815260408083206001600160a01b038716845282529182902082516080810184528154815260018201549281019290925260028101549282019290925260039091015460ff16151560608201526006544310806119aa575080606001515b156119ba576000925050506113c7565b6080820151602083015160408301516060850151431180156119db57508115155b15611a5357600060075443116119f157436119f5565b6007545b90506000611a078760600151836113b8565b90506000611a2e600d546106728a60400151610d526005548761256090919063ffffffff16565b9050611a4d611a46866106728464e8d4a51000612560565b8790612506565b95505050505b611a85611a7e85602001516109a664e8d4a51000610672888a6000015161256090919063ffffffff16565b8290612506565b90506001600a5460ff166003811115611a9a57fe5b148015611aa8575060095488145b15611b8c5760a0850151600090611ac8906106728464e8d4a51000612560565b905060005b600b54811015611b85576009548114611b7d57611ae8612c29565b600b8281548110611af557fe5b60009182526020918290206040805160c081018252600690930290910180546001600160a01b03168352600181015493830193909352600283015490820152600382015460608201526004820154608082015260059091015460a08201819052909150611b7990611b729064e8d4a5100090610672908790612560565b8590612506565b9350505b600101611acd565b5050611bd2565b6001600a5460ff166003811115611b9f57fe5b148015611bae57506009548814155b80611bc957506003600a5460ff166003811115611bc757fe5b145b15611bd2575060005b979650505050505050565b611be5612620565b6001600160a01b0316611bf66113a9565b6001600160a01b031614611c3f576040805162461bcd60e51b81526020600482018190526024820152600080516020612e49833981519152604482015290519081900360640190fd5b6000600a5460ff166003811115611c5257fe5b14611c8e5760405162461bcd60e51b8152600401808060200182810382526023815260200180612ed76023913960400191505060405180910390fd5b600854431015611ccf5760405162461bcd60e51b8152600401808060200182810382526027815260200180612d0e6027913960400191505060405180910390fd5b611cd7611024565b600a80546003919060ff19166001835b0217905550565b611cf6612620565b6001600160a01b0316611d076113a9565b6001600160a01b031614611d50576040805162461bcd60e51b81526020600482018190526024820152600080516020612e49833981519152604482015290519081900360640190fd5b6000600a5460ff166003811115611d6357fe5b14611d9f5760405162461bcd60e51b8152600401808060200182810382526023815260200180612ed76023913960400191505060405180910390fd5b600854431015611de05760405162461bcd60e51b8152600401808060200182810382526027815260200180612d0e6027913960400191505060405180910390fd5b611de8611024565b600a805460ff19166001179055600955565b7f000000000000000000000000000000000000000000000000000000000000000081565b611e26612620565b6001600160a01b0316611e376113a9565b6001600160a01b031614611e80576040805162461bcd60e51b81526020600482018190526024820152600080516020612e49833981519152604482015290519081900360640190fd5b6000600a5460ff166003811115611e9357fe5b14611ecf5760405162461bcd60e51b8152600401808060200182810382526023815260200180612ed76023913960400191505060405180910390fd5b600854431015611f105760405162461bcd60e51b8152600401808060200182810382526027815260200180612d0e6027913960400191505060405180910390fd5b611f18611024565b600a80546002919060ff1916600183611ce7565b60026001541415611f84576040805162461bcd60e51b815260206004820152601f60248201527f5265656e7472616e637947756172643a207265656e7472616e742063616c6c00604482015290519081900360640190fd5b60026001556000600a5460ff166003811115611f9c57fe5b14611fd85760405162461bcd60e51b8152600401808060200182810382526023815260200180612ed76023913960400191505060405180910390fd5b600854431061202e576040805162461bcd60e51b815260206004820152601b60248201527f4475656c4576656e743a204465706f73697420646561646c696e650000000000604482015290519081900360640190fd5b6000811161207c576040805162461bcd60e51b8152602060048201526016602482015275111d595b115d995b9d0e8816995c9bc8185b5bdd5b9d60521b604482015290519081900360640190fd5b6000600b838154811061208b57fe5b60009182526020808320868452600c825260408085203386529092529220600690910290910191506120bc84610caa565b80541561210a5760006120f182600101546109a664e8d4a510006106728760040154876000015461256090919063ffffffff16565b60028301549091506121039082612506565b6002830155505b80546121169084612506565b80825560048301546121339164e8d4a51000916106729190612560565b6001808301919091558201546121499084612506565b60018301558154612165906001600160a01b031633308661290e565b604080518481529051859133917f90890809c654f11d6e72a28fa60149770a0d11ec6c92319d6ceb2bb0a4ea1a159181900360200190a35050600180555050565b60025481565b6121b4612620565b6001600160a01b03166121c56113a9565b6001600160a01b03161461220e576040805162461bcd60e51b81526020600482018190526024820152600080516020612e49833981519152604482015290519081900360640190fd5b6001600160a01b038116612269576040805162461bcd60e51b815260206004820152601d60248201527f4475656c4576656e743a205a65726f2066656520726563697069656e74000000604482015290519081900360640190fd5b600480546001600160a01b0319166001600160a01b0392909216919091179055565b61271081565b612299612620565b6001600160a01b03166122aa6113a9565b6001600160a01b0316146122f3576040805162461bcd60e51b81526020600482018190526024820152600080516020612e49833981519152604482015290519081900360640190fd5b6001600160a01b0381166123385760405162461bcd60e51b8152600401808060200182810382526026815260200180612ce86026913960400191505060405180910390fd5b600080546040516001600160a01b03808516939216917f8be0079c531659141344cd1fd0a4f28419497f9722a3daafe3b4186f6b6457e091a3600080546001600160a01b0319166001600160a01b0392909216919091179055565b61239b612620565b6001600160a01b03166123ac6113a9565b6001600160a01b0316146123f5576040805162461bcd60e51b81526020600482018190526024820152600080516020612e49833981519152604482015290519081900360640190fd5b6000600a5460ff16600381111561240857fe5b146124445760405162461bcd60e51b8152600401808060200182810382526023815260200180612ed76023913960400191505060405180910390fd5b43600654116124845760405162461bcd60e51b8152600401808060200182810382526021815260200180612d866021913960400191505060405180910390fd5b60075481106124c45760405162461bcd60e51b8152600401808060200182810382526033815260200180612c936033913960400191505060405180910390fd5b600681905560005b600b5481101561250257600654600b82815481106124e657fe5b60009182526020909120600360069092020101556001016124cc565b5050565b6000828201838110156113c4576040805162461bcd60e51b815260206004820152601b60248201527f536166654d6174683a206164646974696f6e206f766572666c6f770000000000604482015290519081900360640190fd5b60008261256f575060006113c7565b8282028284828161257c57fe5b04146113c45760405162461bcd60e51b8152600401808060200182810382526021815260200180612ddd6021913960400191505060405180910390fd5b600080821161260f576040805162461bcd60e51b815260206004820152601a60248201527f536166654d6174683a206469766973696f6e206279207a65726f000000000000604482015290519081900360640190fd5b81838161261857fe5b049392505050565b3390565b60008282111561267b576040805162461bcd60e51b815260206004820152601e60248201527f536166654d6174683a207375627472616374696f6e206f766572666c6f770000604482015290519081900360640190fd5b50900390565b600080600a5460ff16600381111561269557fe5b146126ec576001600a5460ff1660038111156126ad57fe5b1480156126bb575060095482145b806126d657506002600a5460ff1660038111156126d457fe5b145b156126e4575060025461067b565b50600061067b565b5060035461067b565b60006113c461271061067261270a8287612624565b8590612560565b60006113c46127106106728486612560565b604080516001600160a01b038416602482015260448082018490528251808303909101815260649091019091526020810180516001600160e01b031663a9059cbb60e01b179052612775908490612964565b505050565b60007f00000000000000000000000000000000000000000000000000000000000000006001600160a01b03166370a08231306040518263ffffffff1660e01b815260040180826001600160a01b0316815260200191505060206040518083038186803b1580156127e957600080fd5b505afa1580156127fd573d6000803e3d6000fd5b505050506040513d602081101561281357600080fd5b5051905060008183116128265782612828565b815b90507f00000000000000000000000000000000000000000000000000000000000000006001600160a01b031663a9059cbb85836040518363ffffffff1660e01b815260040180836001600160a01b0316815260200182815260200192505050602060405180830381600087803b1580156128a157600080fd5b505af11580156128b5573d6000803e3d6000fd5b505050506040513d60208110156128cb57600080fd5b50516129085760405162461bcd60e51b8152600401808060200182810382526022815260200180612e696022913960400191505060405180910390fd5b50505050565b604080516001600160a01b0380861660248301528416604482015260648082018490528251808303909101815260849091019091526020810180516001600160e01b03166323b872dd60e01b1790526129089085905b60606129b9826040518060400160405280602081526020017f5361666545524332303a206c6f772d6c6576656c2063616c6c206661696c6564815250856001600160a01b0316612a159092919063ffffffff16565b805190915015612775578080602001905160208110156129d857600080fd5b50516127755760405162461bcd60e51b815260040180806020018281038252602a815260200180612e8b602a913960400191505060405180910390fd5b6060612a248484600085612a2e565b90505b9392505050565b606082471015612a6f5760405162461bcd60e51b8152600401808060200182810382526026815260200180612d606026913960400191505060405180910390fd5b612a7885612b7f565b612ac9576040805162461bcd60e51b815260206004820152601d60248201527f416464726573733a2063616c6c20746f206e6f6e2d636f6e7472616374000000604482015290519081900360640190fd5b60006060866001600160a01b031685876040518082805190602001908083835b60208310612b085780518252601f199092019160209182019101612ae9565b6001836020036101000a03801982511681845116808217855250505050505090500191505060006040518083038185875af1925050503d8060008114612b6a576040519150601f19603f3d011682016040523d82523d6000602084013e612b6f565b606091505b5091509150611bd2828286612b85565b3b151590565b60608315612b94575081612a27565b825115612ba45782518084602001fd5b8160405162461bcd60e51b81526004018080602001828103825283818151815260200191508051906020019080838360005b83811015612bee578181015183820152602001612bd6565b50505050905090810190601f168015612c1b5780820380516001836020036101000a031916815260200191505b509250505060405180910390fd5b6040518060c0016040528060006001600160a01b0316815260200160008152602001600081526020016000815260200160008152602001600081525090565b6040518060800160405280600081526020016000815260200160008152602001600015158152509056fe4475656c4576656e743a20537461727420626c6f636b2073686f756c64206265206c657373207468656e20656e64426c6f636b4475656c4576656e743a2057726f6e67206465706f73697420656e6420626c6f636b4f776e61626c653a206e6577206f776e657220697320746865207a65726f20616464726573734475656c4576656e743a204465706f73697420646561646c696e65206e6f7420726561636865644475656c4576656e743a205769746864726177616c20616d6f756e74206578636565642062616c616e6365416464726573733a20696e73756666696369656e742062616c616e636520666f722063616c6c4475656c4576656e743a204576656e7420686173206265656e20737461727465644475656c4576656e743a20456e6420626c6f636b2073686f756c642062652067726561746572207468656e207374617274426c6f636b536166654d6174683a206d756c7469706c69636174696f6e206f766572666c6f774475656c4576656e743a204e6f7420616c6c2075736572732068617320636c61696d65644475656c4576656e743a204576656e7420686173206e6f74206265656e20636f6e636c756465644f776e61626c653a2063616c6c6572206973206e6f7420746865206f776e65724475656c4576656e743a2073616665546f6b656e5472616e73666572206572726f725361666545524332303a204552433230206f7065726174696f6e20646964206e6f7420737563636565644475656c4576656e743a204576656e7420686173206265656e2066696e69736865644475656c4576656e743a204576656e7420686173206265656e20636f6e636c75646564a26469706673582212207559220e740df0abe09c3330c06621bd8511753089688a84659f11bd247a241a64736f6c634300060c0033",
  "devdoc": {
    "kind": "dev",
    "methods": {
      "claimLeftovers()": {
        "details": "Sends leftover tokens to the fee recipient, only owner."
      },
      "deposit(uint256,uint256)": {
        "details": "Deposit LP tokens to the pool for reward token allocation."
      },
      "emergencyWithdraw(uint256)": {
        "details": "Withdraw without caring about rewards. EMERGENCY ONLY."
      },
      "exit(uint256)": {
        "details": "Exit pool and claim rewards"
      },
      "getBaseRewardPerBlock()": {
        "details": "Returns base reward per block."
      },
      "getMultiplier(uint256,uint256)": {
        "details": "Returns reward multiplier over the given _from to _to block."
      },
      "getPoolRewardPerBlock(uint256)": {
        "details": "Returns the pool specific reward per block."
      },
      "massUpdatePools()": {
        "details": "Updates reward variables for all pools. Be careful of gas spending!"
      },
      "owner()": {
        "details": "Returns the address of the current owner."
      },
      "pendingRewards(uint256,address)": {
        "details": "Returns pending rewards for user."
      },
      "poolLength()": {
        "details": "Returns the poolInfo length."
      },
      "renounceOwnership()": {
        "details": "Leaves the contract without owner. It will not be possible to call `onlyOwner` functions anymore. Can only be called by the current owner. NOTE: Renouncing ownership will leave the contract without an owner, thereby removing any functionality that is only available to the owner."
      },
      "setCancel()": {
        "details": "Sets event status to EventResultStatus.Cancel. Only owner."
      },
      "setClaimingFee(uint256)": {
        "details": "Updates claming fee, max is 1%, only owner."
      },
      "setDepositEndBlock(uint256)": {
        "details": "Updates deposit end block, only owner."
      },
      "setDraw()": {
        "details": "Sets event status to EventResultStatus.Draw. Only owner."
      },
      "setEndBlock(uint256)": {
        "details": "Updates end block, only owner."
      },
      "setFeeRecipient(address)": {
        "details": "Updates fee recipient, only owner."
      },
      "setPool(uint256,uint256,bool)": {
        "details": "Updates pool allocation points, only owner."
      },
      "setStartBlock(uint256)": {
        "details": "Updates start block, only owner."
      },
      "setTokenPerBlock(uint256)": {
        "details": "Updates reward per block, only owner."
      },
      "setWin(uint256)": {
        "details": "Sets event status to EventResultStatus.Win and selects winner pool. Only owner."
      },
      "setWithdrawalFee(uint256)": {
        "details": "Updates withdrawal fee, max is 10%, only owner."
      },
      "transferOwnership(address)": {
        "details": "Transfers ownership of the contract to a new account (`newOwner`). Can only be called by the current owner."
      },
      "updatePool(uint256)": {
        "details": "Updates reward vairables for the pool."
      },
      "withdraw(uint256,uint256)": {
        "details": "Withdraw LP tokens from the pool."
      }
    },
    "version": 1
  },
  "userdoc": {
    "kind": "user",
    "methods": {},
    "version": 1
  },
  "storageLayout": {
    "storage": [
      {
        "astId": 290,
        "contract": "contracts/DuelEvent.sol:DuelEvent",
        "label": "_owner",
        "offset": 0,
        "slot": "0",
        "type": "t_address"
      },
      {
        "astId": 2422,
        "contract": "contracts/DuelEvent.sol:DuelEvent",
        "label": "_status",
        "offset": 0,
        "slot": "1",
        "type": "t_uint256"
      },
      {
        "astId": 2497,
        "contract": "contracts/DuelEvent.sol:DuelEvent",
        "label": "claimingFee",
        "offset": 0,
        "slot": "2",
        "type": "t_uint256"
      },
      {
        "astId": 2500,
        "contract": "contracts/DuelEvent.sol:DuelEvent",
        "label": "withdrawalFee",
        "offset": 0,
        "slot": "3",
        "type": "t_uint256"
      },
      {
        "astId": 2502,
        "contract": "contracts/DuelEvent.sol:DuelEvent",
        "label": "feeRecipient",
        "offset": 0,
        "slot": "4",
        "type": "t_address"
      },
      {
        "astId": 2507,
        "contract": "contracts/DuelEvent.sol:DuelEvent",
        "label": "tokenPerBlock",
        "offset": 0,
        "slot": "5",
        "type": "t_uint256"
      },
      {
        "astId": 2509,
        "contract": "contracts/DuelEvent.sol:DuelEvent",
        "label": "startBlock",
        "offset": 0,
        "slot": "6",
        "type": "t_uint256"
      },
      {
        "astId": 2511,
        "contract": "contracts/DuelEvent.sol:DuelEvent",
        "label": "endBlock",
        "offset": 0,
        "slot": "7",
        "type": "t_uint256"
      },
      {
        "astId": 2513,
        "contract": "contracts/DuelEvent.sol:DuelEvent",
        "label": "depositEndBlock",
        "offset": 0,
        "slot": "8",
        "type": "t_uint256"
      },
      {
        "astId": 2525,
        "contract": "contracts/DuelEvent.sol:DuelEvent",
        "label": "eventResult",
        "offset": 0,
        "slot": "9",
        "type": "t_struct(EventResult)2523_storage"
      },
      {
        "astId": 2528,
        "contract": "contracts/DuelEvent.sol:DuelEvent",
        "label": "poolInfo",
        "offset": 0,
        "slot": "11",
        "type": "t_array(t_struct(PoolInfo)2491_storage)dyn_storage"
      },
      {
        "astId": 2534,
        "contract": "contracts/DuelEvent.sol:DuelEvent",
        "label": "userInfo",
        "offset": 0,
        "slot": "12",
        "type": "t_mapping(t_uint256,t_mapping(t_address,t_struct(UserInfo)2478_storage))"
      },
      {
        "astId": 2537,
        "contract": "contracts/DuelEvent.sol:DuelEvent",
        "label": "totalAllocPoint",
        "offset": 0,
        "slot": "13",
        "type": "t_uint256"
      }
    ],
    "types": {
      "t_address": {
        "encoding": "inplace",
        "label": "address",
        "numberOfBytes": "20"
      },
      "t_array(t_struct(PoolInfo)2491_storage)dyn_storage": {
        "base": "t_struct(PoolInfo)2491_storage",
        "encoding": "dynamic_array",
        "label": "struct DuelEvent.PoolInfo[]",
        "numberOfBytes": "32"
      },
      "t_bool": {
        "encoding": "inplace",
        "label": "bool",
        "numberOfBytes": "1"
      },
      "t_contract(IERC20)1387": {
        "encoding": "inplace",
        "label": "contract IERC20",
        "numberOfBytes": "20"
      },
      "t_enum(EventResultStatus)2518": {
        "encoding": "inplace",
        "label": "enum DuelEvent.EventResultStatus",
        "numberOfBytes": "1"
      },
      "t_mapping(t_address,t_struct(UserInfo)2478_storage)": {
        "encoding": "mapping",
        "key": "t_address",
        "label": "mapping(address => struct DuelEvent.UserInfo)",
        "numberOfBytes": "32",
        "value": "t_struct(UserInfo)2478_storage"
      },
      "t_mapping(t_uint256,t_mapping(t_address,t_struct(UserInfo)2478_storage))": {
        "encoding": "mapping",
        "key": "t_uint256",
        "label": "mapping(uint256 => mapping(address => struct DuelEvent.UserInfo))",
        "numberOfBytes": "32",
        "value": "t_mapping(t_address,t_struct(UserInfo)2478_storage)"
      },
      "t_struct(EventResult)2523_storage": {
        "encoding": "inplace",
        "label": "struct DuelEvent.EventResult",
        "members": [
          {
            "astId": 2520,
            "contract": "contracts/DuelEvent.sol:DuelEvent",
            "label": "winnerPid",
            "offset": 0,
            "slot": "0",
            "type": "t_uint256"
          },
          {
            "astId": 2522,
            "contract": "contracts/DuelEvent.sol:DuelEvent",
            "label": "status",
            "offset": 0,
            "slot": "1",
            "type": "t_enum(EventResultStatus)2518"
          }
        ],
        "numberOfBytes": "64"
      },
      "t_struct(PoolInfo)2491_storage": {
        "encoding": "inplace",
        "label": "struct DuelEvent.PoolInfo",
        "members": [
          {
            "astId": 2480,
            "contract": "contracts/DuelEvent.sol:DuelEvent",
            "label": "lpToken",
            "offset": 0,
            "slot": "0",
            "type": "t_contract(IERC20)1387"
          },
          {
            "astId": 2482,
            "contract": "contracts/DuelEvent.sol:DuelEvent",
            "label": "supply",
            "offset": 0,
            "slot": "1",
            "type": "t_uint256"
          },
          {
            "astId": 2484,
            "contract": "contracts/DuelEvent.sol:DuelEvent",
            "label": "allocPoint",
            "offset": 0,
            "slot": "2",
            "type": "t_uint256"
          },
          {
            "astId": 2486,
            "contract": "contracts/DuelEvent.sol:DuelEvent",
            "label": "lastRewardBlock",
            "offset": 0,
            "slot": "3",
            "type": "t_uint256"
          },
          {
            "astId": 2488,
            "contract": "contracts/DuelEvent.sol:DuelEvent",
            "label": "accTokenPerShare",
            "offset": 0,
            "slot": "4",
            "type": "t_uint256"
          },
          {
            "astId": 2490,
            "contract": "contracts/DuelEvent.sol:DuelEvent",
            "label": "totalRewards",
            "offset": 0,
            "slot": "5",
            "type": "t_uint256"
          }
        ],
        "numberOfBytes": "192"
      },
      "t_struct(UserInfo)2478_storage": {
        "encoding": "inplace",
        "label": "struct DuelEvent.UserInfo",
        "members": [
          {
            "astId": 2471,
            "contract": "contracts/DuelEvent.sol:DuelEvent",
            "label": "amount",
            "offset": 0,
            "slot": "0",
            "type": "t_uint256"
          },
          {
            "astId": 2473,
            "contract": "contracts/DuelEvent.sol:DuelEvent",
            "label": "rewardDebt",
            "offset": 0,
            "slot": "1",
            "type": "t_uint256"
          },
          {
            "astId": 2475,
            "contract": "contracts/DuelEvent.sol:DuelEvent",
            "label": "pendingReward",
            "offset": 0,
            "slot": "2",
            "type": "t_uint256"
          },
          {
            "astId": 2477,
            "contract": "contracts/DuelEvent.sol:DuelEvent",
            "label": "claimed",
            "offset": 0,
            "slot": "3",
            "type": "t_bool"
          }
        ],
        "numberOfBytes": "128"
      },
      "t_uint256": {
        "encoding": "inplace",
        "label": "uint256",
        "numberOfBytes": "32"
      }
    }
  }
}