{
  "address": "0x9159F30F1c3F0317b0a2D6bC176f29266Be790eE",
  "abi": [
    {
      "inputs": [
        {
          "internalType": "uint256",
          "name": "_cap",
          "type": "uint256"
        },
        {
          "internalType": "uint256",
          "name": "_lockFromBlock",
          "type": "uint256"
        },
        {
          "internalType": "uint256",
          "name": "_lockToBlock",
          "type": "uint256"
        }
      ],
      "stateMutability": "nonpayable",
      "type": "constructor"
    },
    {
      "anonymous": false,
      "inputs": [
        {
          "indexed": true,
          "internalType": "address",
          "name": "owner",
          "type": "address"
        },
        {
          "indexed": true,
          "internalType": "address",
          "name": "spender",
          "type": "address"
        },
        {
          "indexed": false,
          "internalType": "uint256",
          "name": "value",
          "type": "uint256"
        }
      ],
      "name": "Approval",
      "type": "event"
    },
    {
      "anonymous": false,
      "inputs": [
        {
          "indexed": true,
          "internalType": "address",
          "name": "user",
          "type": "address"
        }
      ],
      "name": "AuthorizedAdded",
      "type": "event"
    },
    {
      "anonymous": false,
      "inputs": [
        {
          "indexed": true,
          "internalType": "address",
          "name": "user",
          "type": "address"
        }
      ],
      "name": "AuthorizedRemoved",
      "type": "event"
    },
    {
      "anonymous": false,
      "inputs": [
        {
          "indexed": true,
          "internalType": "address",
          "name": "to",
          "type": "address"
        },
        {
          "indexed": false,
          "internalType": "uint256",
          "name": "value",
          "type": "uint256"
        }
      ],
      "name": "Lock",
      "type": "event"
    },
    {
      "anonymous": false,
      "inputs": [
        {
          "indexed": true,
          "internalType": "address",
          "name": "previousOwner",
          "type": "address"
        },
        {
          "indexed": true,
          "internalType": "address",
          "name": "newOwner",
          "type": "address"
        }
      ],
      "name": "OwnershipTransferred",
      "type": "event"
    },
    {
      "anonymous": false,
      "inputs": [
        {
          "indexed": true,
          "internalType": "address",
          "name": "from",
          "type": "address"
        },
        {
          "indexed": true,
          "internalType": "address",
          "name": "to",
          "type": "address"
        },
        {
          "indexed": false,
          "internalType": "uint256",
          "name": "value",
          "type": "uint256"
        }
      ],
      "name": "Transfer",
      "type": "event"
    },
    {
      "inputs": [
        {
          "internalType": "address",
          "name": "_toAdd",
          "type": "address"
        }
      ],
      "name": "addAuthorized",
      "outputs": [],
      "stateMutability": "nonpayable",
      "type": "function"
    },
    {
      "inputs": [
        {
          "internalType": "address",
          "name": "owner",
          "type": "address"
        },
        {
          "internalType": "address",
          "name": "spender",
          "type": "address"
        }
      ],
      "name": "allowance",
      "outputs": [
        {
          "internalType": "uint256",
          "name": "",
          "type": "uint256"
        }
      ],
      "stateMutability": "view",
      "type": "function"
    },
    {
      "inputs": [
        {
          "internalType": "address",
          "name": "spender",
          "type": "address"
        },
        {
          "internalType": "uint256",
          "name": "amount",
          "type": "uint256"
        }
      ],
      "name": "approve",
      "outputs": [
        {
          "internalType": "bool",
          "name": "",
          "type": "bool"
        }
      ],
      "stateMutability": "nonpayable",
      "type": "function"
    },
    {
      "inputs": [
        {
          "internalType": "address",
          "name": "",
          "type": "address"
        }
      ],
      "name": "authorized",
      "outputs": [
        {
          "internalType": "bool",
          "name": "",
          "type": "bool"
        }
      ],
      "stateMutability": "view",
      "type": "function"
    },
    {
      "inputs": [
        {
          "internalType": "address",
          "name": "account",
          "type": "address"
        }
      ],
      "name": "balanceOf",
      "outputs": [
        {
          "internalType": "uint256",
          "name": "",
          "type": "uint256"
        }
      ],
      "stateMutability": "view",
      "type": "function"
    },
    {
      "inputs": [
        {
          "internalType": "address",
          "name": "_holder",
          "type": "address"
        }
      ],
      "name": "canUnlockAmount",
      "outputs": [
        {
          "internalType": "uint256",
          "name": "",
          "type": "uint256"
        }
      ],
      "stateMutability": "view",
      "type": "function"
    },
    {
      "inputs": [],
      "name": "cap",
      "outputs": [
        {
          "internalType": "uint256",
          "name": "",
          "type": "uint256"
        }
      ],
      "stateMutability": "view",
      "type": "function"
    },
    {
      "inputs": [],
      "name": "circulatingSupply",
      "outputs": [
        {
          "internalType": "uint256",
          "name": "",
          "type": "uint256"
        }
      ],
      "stateMutability": "view",
      "type": "function"
    },
    {
      "inputs": [],
      "name": "decimals",
      "outputs": [
        {
          "internalType": "uint8",
          "name": "",
          "type": "uint8"
        }
      ],
      "stateMutability": "view",
      "type": "function"
    },
    {
      "inputs": [
        {
          "internalType": "address",
          "name": "spender",
          "type": "address"
        },
        {
          "internalType": "uint256",
          "name": "subtractedValue",
          "type": "uint256"
        }
      ],
      "name": "decreaseAllowance",
      "outputs": [
        {
          "internalType": "bool",
          "name": "",
          "type": "bool"
        }
      ],
      "stateMutability": "nonpayable",
      "type": "function"
    },
    {
      "inputs": [
        {
          "internalType": "address",
          "name": "spender",
          "type": "address"
        },
        {
          "internalType": "uint256",
          "name": "addedValue",
          "type": "uint256"
        }
      ],
      "name": "increaseAllowance",
      "outputs": [
        {
          "internalType": "bool",
          "name": "",
          "type": "bool"
        }
      ],
      "stateMutability": "nonpayable",
      "type": "function"
    },
    {
      "inputs": [
        {
          "internalType": "address",
          "name": "_holder",
          "type": "address"
        }
      ],
      "name": "lastUnlockBlock",
      "outputs": [
        {
          "internalType": "uint256",
          "name": "",
          "type": "uint256"
        }
      ],
      "stateMutability": "view",
      "type": "function"
    },
    {
      "inputs": [
        {
          "internalType": "address",
          "name": "_holder",
          "type": "address"
        },
        {
          "internalType": "uint256",
          "name": "_amount",
          "type": "uint256"
        }
      ],
      "name": "lock",
      "outputs": [],
      "stateMutability": "nonpayable",
      "type": "function"
    },
    {
      "inputs": [],
      "name": "lockFromBlock",
      "outputs": [
        {
          "internalType": "uint256",
          "name": "",
          "type": "uint256"
        }
      ],
      "stateMutability": "view",
      "type": "function"
    },
    {
      "inputs": [
        {
          "internalType": "address",
          "name": "_holder",
          "type": "address"
        }
      ],
      "name": "lockOf",
      "outputs": [
        {
          "internalType": "uint256",
          "name": "",
          "type": "uint256"
        }
      ],
      "stateMutability": "view",
      "type": "function"
    },
    {
      "inputs": [],
      "name": "lockToBlock",
      "outputs": [
        {
          "internalType": "uint256",
          "name": "",
          "type": "uint256"
        }
      ],
      "stateMutability": "view",
      "type": "function"
    },
    {
      "inputs": [],
      "name": "lockedSupply",
      "outputs": [
        {
          "internalType": "uint256",
          "name": "",
          "type": "uint256"
        }
      ],
      "stateMutability": "view",
      "type": "function"
    },
    {
      "inputs": [
        {
          "internalType": "address",
          "name": "_to",
          "type": "address"
        },
        {
          "internalType": "uint256",
          "name": "_amount",
          "type": "uint256"
        }
      ],
      "name": "mint",
      "outputs": [],
      "stateMutability": "nonpayable",
      "type": "function"
    },
    {
      "inputs": [],
      "name": "name",
      "outputs": [
        {
          "internalType": "string",
          "name": "",
          "type": "string"
        }
      ],
      "stateMutability": "view",
      "type": "function"
    },
    {
      "inputs": [],
      "name": "owner",
      "outputs": [
        {
          "internalType": "address",
          "name": "",
          "type": "address"
        }
      ],
      "stateMutability": "view",
      "type": "function"
    },
    {
      "inputs": [
        {
          "internalType": "address",
          "name": "_toRemove",
          "type": "address"
        }
      ],
      "name": "removeAuthorized",
      "outputs": [],
      "stateMutability": "nonpayable",
      "type": "function"
    },
    {
      "inputs": [],
      "name": "renounceOwnership",
      "outputs": [],
      "stateMutability": "nonpayable",
      "type": "function"
    },
    {
      "inputs": [],
      "name": "symbol",
      "outputs": [
        {
          "internalType": "string",
          "name": "",
          "type": "string"
        }
      ],
      "stateMutability": "view",
      "type": "function"
    },
    {
      "inputs": [
        {
          "internalType": "address",
          "name": "_holder",
          "type": "address"
        }
      ],
      "name": "totalBalanceOf",
      "outputs": [
        {
          "internalType": "uint256",
          "name": "",
          "type": "uint256"
        }
      ],
      "stateMutability": "view",
      "type": "function"
    },
    {
      "inputs": [],
      "name": "totalLock",
      "outputs": [
        {
          "internalType": "uint256",
          "name": "",
          "type": "uint256"
        }
      ],
      "stateMutability": "view",
      "type": "function"
    },
    {
      "inputs": [],
      "name": "totalSupply",
      "outputs": [
        {
          "internalType": "uint256",
          "name": "",
          "type": "uint256"
        }
      ],
      "stateMutability": "view",
      "type": "function"
    },
    {
      "inputs": [
        {
          "internalType": "address",
          "name": "recipient",
          "type": "address"
        },
        {
          "internalType": "uint256",
          "name": "amount",
          "type": "uint256"
        }
      ],
      "name": "transfer",
      "outputs": [
        {
          "internalType": "bool",
          "name": "",
          "type": "bool"
        }
      ],
      "stateMutability": "nonpayable",
      "type": "function"
    },
    {
      "inputs": [
        {
          "internalType": "address",
          "name": "sender",
          "type": "address"
        },
        {
          "internalType": "address",
          "name": "recipient",
          "type": "address"
        },
        {
          "internalType": "uint256",
          "name": "amount",
          "type": "uint256"
        }
      ],
      "name": "transferFrom",
      "outputs": [
        {
          "internalType": "bool",
          "name": "",
          "type": "bool"
        }
      ],
      "stateMutability": "nonpayable",
      "type": "function"
    },
    {
      "inputs": [
        {
          "internalType": "address",
          "name": "newOwner",
          "type": "address"
        }
      ],
      "name": "transferOwnership",
      "outputs": [],
      "stateMutability": "nonpayable",
      "type": "function"
    },
    {
      "inputs": [],
      "name": "unlock",
      "outputs": [],
      "stateMutability": "nonpayable",
      "type": "function"
    },
    {
      "inputs": [],
      "name": "unlockedSupply",
      "outputs": [
        {
          "internalType": "uint256",
          "name": "",
          "type": "uint256"
        }
      ],
      "stateMutability": "view",
      "type": "function"
    }
  ],
  "transactionHash": "0x318cabf80a02c955ec0bbf61541562a52ae99c510b26d432f8136216cacf6a4f",
  "args": [
    "5000000000000000000000000000",
    16450691,
    26962691
  ],
  "solcInputHash": "885529c1d2ec087e15344f0f8efd0dc5",
  "bytecode": "0x60806040523480156200001157600080fd5b5060405162001a4c38038062001a4c833981810160405260608110156200003757600080fd5b508051602080830151604093840151845180860186526004808252634845504160e01b8286018181528851808a01909952918852948701949094528051949592949193909291869186918691869186916200009691600391906200013a565b508051620000ac9060049060208401906200013a565b50506005805460ff19166012179055506000620000c862000136565b60058054610100600160a81b0319166101006001600160a01b03841690810291909117909155604051919250906000907f8be0079c531659141344cd1fd0a4f28419497f9722a3daafe3b4186f6b6457e0908290a350600792909255600955600a5550620001d69350505050565b3390565b828054600181600116156101000203166002900490600052602060002090601f016020900481019282601f106200017d57805160ff1916838001178555620001ad565b82800160010185558215620001ad579182015b82811115620001ad57825182559160200191906001019062000190565b50620001bb929150620001bf565b5090565b5b80821115620001bb5760008155600101620001c0565b61186680620001e66000396000f3fe608060405234801561001057600080fd5b50600436106101e55760003560e01c806370a082311161010f578063a69df4b5116100a2578063cf1c316a11610071578063cf1c316a14610569578063dd62ed3e1461058f578063f2fde38b146105bd578063fd3d27b8146105e3576101e5565b8063a69df4b514610507578063a9059cbb1461050f578063b91816111461053b578063ca5c7b9114610561576101e5565b80638e875e1a116100de5780638e875e1a146104c35780639358928b146104cb57806395d89b41146104d3578063a457c2d7146104db576101e5565b806370a082311461044b578063715018a61461047157806389a2867c146104795780638da5cb5b1461049f576101e5565b8063355274ea11610187578063485d7d9411610156578063485d7d94146103d15780634b0ee02a146103f75780635a46d3b51461041d57806366fc237b14610443576101e5565b8063355274ea1461036957806339509351146103715780633a1aae351461039d57806340c10f19146103a5576101e5565b8063202b1760116101c3578063202b1760146102c157806323b872dd146102e7578063282d3fdf1461031d578063313ce5671461034b576101e5565b806306fdde03146101ea578063095ea7b31461026757806318160ddd146102a7575b600080fd5b6101f26105eb565b6040805160208082528351818301528351919283929083019185019080838360005b8381101561022c578181015183820152602001610214565b50505050905090810190601f1680156102595780820380516001836020036101000a031916815260200191505b509250505060405180910390f35b6102936004803603604081101561027d57600080fd5b506001600160a01b038135169060200135610681565b604080519115158252519081900360200190f35b6102af61069f565b60408051918252519081900360200190f35b6102af600480360360208110156102d757600080fd5b50356001600160a01b03166106a5565b610293600480360360608110156102fd57600080fd5b506001600160a01b0381358116916020810135909116906040013561076b565b6103496004803603604081101561033357600080fd5b506001600160a01b0381351690602001356107f2565b005b6103536109e5565b6040805160ff9092168252519081900360200190f35b6102af6109ee565b6102936004803603604081101561038757600080fd5b506001600160a01b0381351690602001356109f4565b6102af610a42565b610349600480360360408110156103bb57600080fd5b506001600160a01b038135169060200135610a48565b610349600480360360208110156103e757600080fd5b50356001600160a01b0316610ab8565b6102af6004803603602081101561040d57600080fd5b50356001600160a01b0316610b79565b6102af6004803603602081101561043357600080fd5b50356001600160a01b0316610ba6565b6102af610bc1565b6102af6004803603602081101561046157600080fd5b50356001600160a01b0316610bc7565b610349610be2565b6102af6004803603602081101561048f57600080fd5b50356001600160a01b0316610c94565b6104a7610caf565b604080516001600160a01b039092168252519081900360200190f35b6102af610cc3565b6102af610cc9565b6101f2610cd8565b610293600480360360408110156104f157600080fd5b506001600160a01b038135169060200135610d39565b610349610da1565b6102936004803603604081101561052557600080fd5b506001600160a01b038135169060200135610ec2565b6102936004803603602081101561055157600080fd5b50356001600160a01b0316610ed6565b6102af610eeb565b6103496004803603602081101561057f57600080fd5b50356001600160a01b0316610ef5565b6102af600480360360408110156105a557600080fd5b506001600160a01b0381358116916020013516610fa3565b610349600480360360208110156105d357600080fd5b50356001600160a01b0316610fce565b6102af6110dc565b60038054604080516020601f60026000196101006001881615020190951694909404938401819004810282018101909252828152606093909290918301828280156106775780601f1061064c57610100808354040283529160200191610677565b820191906000526020600020905b81548152906001019060200180831161065a57829003601f168201915b5050505050905090565b600061069561068e6110f2565b84846110f6565b5060015b92915050565b60025490565b60006009544310156106b957506000610766565b600a5443106106e157506001600160a01b0381166000908152600b6020526040902054610766565b6001600160a01b0382166000908152600c60205260408120546107059043906111e2565b6001600160a01b0384166000908152600c6020526040812054600a54929350909161072f916111e2565b6001600160a01b0385166000908152600b602052604090205490915061076190829061075b908561123f565b9061129f565b925050505b919050565b6000610778848484611306565b6107e8846107846110f2565b6107e38560405180606001604052806028815260200161177b602891396001600160a01b038a166000908152600160205260408120906107c26110f2565b6001600160a01b031681526020810191909152604001600020549190611461565b6110f6565b5060019392505050565b6107fa6110f2565b6001600160a01b031661080b610caf565b6001600160a01b031614610854576040805162461bcd60e51b815260206004820181905260248201526000805160206117a3833981519152604482015290519081900360640190fd5b6001600160a01b0382166108af576040805162461bcd60e51b815260206004820152601f60248201527f45524332303a206c6f636b20746f20746865207a65726f206164647265737300604482015290519081900360640190fd5b6108b882610bc7565b81111561090c576040805162461bcd60e51b815260206004820152601f60248201527f45524332303a206c6f636b20616d6f756e74206f7665722062616c616e636500604482015290519081900360640190fd5b6001600160a01b0382166000908152600b602052604090205461092f90826114f8565b6001600160a01b0383166000908152600b602052604090205560085461095590826114f8565b6008556009546001600160a01b0383166000908152600c60205260409020541015610997576009546001600160a01b0383166000908152600c60205260409020555b6109a2823083611306565b6040805182815290516001600160a01b038416917f625fed9875dada8643f2418b838ae0bc78d9a148a18eee4ee1979ff0f3f5d427919081900360200190a25050565b60055460ff1690565b60075490565b6000610695610a016110f2565b846107e38560016000610a126110f2565b6001600160a01b03908116825260208083019390935260409182016000908120918c1681529252902054906114f8565b60085490565b610a506110f2565b6001600160a01b0316610a61610caf565b6001600160a01b031614610aaa576040805162461bcd60e51b815260206004820181905260248201526000805160206117a3833981519152604482015290519081900360640190fd5b610ab48282611552565b5050565b610ac06110f2565b6001600160a01b0316610ad1610caf565b6001600160a01b031614610b1a576040805162461bcd60e51b815260206004820181905260248201526000805160206117a3833981519152604482015290519081900360640190fd5b6001600160a01b038116331415610b3057600080fd5b6001600160a01b038116600081815260066020526040808220805460ff19169055517f0fafd0343e6c6f6985727574866da48938c918559eb9521cf9cc0d317ea0f7b49190a250565b6000610699610b8783610bc7565b6001600160a01b0384166000908152600b6020526040902054906114f8565b6001600160a01b03166000908152600b602052604090205490565b60095481565b6001600160a01b031660009081526020819052604090205490565b610bea6110f2565b6001600160a01b0316610bfb610caf565b6001600160a01b031614610c44576040805162461bcd60e51b815260206004820181905260248201526000805160206117a3833981519152604482015290519081900360640190fd5b60055460405160009161010090046001600160a01b0316907f8be0079c531659141344cd1fd0a4f28419497f9722a3daafe3b4186f6b6457e0908390a360058054610100600160a81b0319169055565b6001600160a01b03166000908152600c602052604090205490565b60055461010090046001600160a01b031690565b600a5481565b6000610cd361069f565b905090565b60048054604080516020601f60026000196101006001881615020190951694909404938401819004810282018101909252828152606093909290918301828280156106775780601f1061064c57610100808354040283529160200191610677565b6000610695610d466110f2565b846107e38560405180606001604052806025815260200161180c6025913960016000610d706110f2565b6001600160a01b03908116825260208083019390935260409182016000908120918d16815292529020549190611461565b336000908152600b6020526040902054610df9576040805162461bcd60e51b815260206004820152601460248201527345524332303a2063616e6e6f7420756e6c6f636b60601b604482015290519081900360640190fd5b6000610e04336106a5565b905060008111610e50576040805162461bcd60e51b8152602060048201526012602482015271115490cc8c0e8816995c9bc8185b5bdd5b9d60721b604482015290519081900360640190fd5b610e5930610bc7565b811115610e6c57610e6930610bc7565b90505b336000908152600b6020526040902054610e8690826111e2565b336000908152600b6020908152604080832093909355600c905220439055600854610eb190826111e2565b600855610ebf303383611306565b50565b6000610695610ecf6110f2565b8484611306565b60066020526000908152604090205460ff1681565b6000610cd3610a42565b610efd6110f2565b6001600160a01b0316610f0e610caf565b6001600160a01b031614610f57576040805162461bcd60e51b815260206004820181905260248201526000805160206117a3833981519152604482015290519081900360640190fd5b6001600160a01b038116600081815260066020526040808220805460ff19166001179055517fdd10d14f6ac19e913d4edbb11fd30661531e2ccd0d23f571e9b224f001f0dd069190a250565b6001600160a01b03918216600090815260016020908152604080832093909416825291909152205490565b610fd66110f2565b6001600160a01b0316610fe7610caf565b6001600160a01b031614611030576040805162461bcd60e51b815260206004820181905260248201526000805160206117a3833981519152604482015290519081900360640190fd5b6001600160a01b0381166110755760405162461bcd60e51b81526004018080602001828103825260268152602001806116ec6026913960400191505060405180910390fd5b6005546040516001600160a01b0380841692610100900416907f8be0079c531659141344cd1fd0a4f28419497f9722a3daafe3b4186f6b6457e090600090a3600580546001600160a01b0390921661010002610100600160a81b0319909216919091179055565b6000610cd36008546110ec61069f565b906111e2565b3390565b6001600160a01b03831661113b5760405162461bcd60e51b81526004018080602001828103825260248152602001806117e86024913960400191505060405180910390fd5b6001600160a01b0382166111805760405162461bcd60e51b81526004018080602001828103825260228152602001806117126022913960400191505060405180910390fd5b6001600160a01b03808416600081815260016020908152604080832094871680845294825291829020859055815185815291517f8c5be1e5ebec7d5bd14f71427d1e84f3dd0314c0f7b2291e5b200ac8c7c3b9259281900390910190a3505050565b600082821115611239576040805162461bcd60e51b815260206004820152601e60248201527f536166654d6174683a207375627472616374696f6e206f766572666c6f770000604482015290519081900360640190fd5b50900390565b60008261124e57506000610699565b8282028284828161125b57fe5b04146112985760405162461bcd60e51b815260040180806020018281038252602181526020018061175a6021913960400191505060405180910390fd5b9392505050565b60008082116112f5576040805162461bcd60e51b815260206004820152601a60248201527f536166654d6174683a206469766973696f6e206279207a65726f000000000000604482015290519081900360640190fd5b8183816112fe57fe5b049392505050565b6001600160a01b03831661134b5760405162461bcd60e51b81526004018080602001828103825260258152602001806117c36025913960400191505060405180910390fd5b6001600160a01b0382166113905760405162461bcd60e51b81526004018080602001828103825260238152602001806116c96023913960400191505060405180910390fd5b61139b838383611642565b6113d881604051806060016040528060268152602001611734602691396001600160a01b0386166000908152602081905260409020549190611461565b6001600160a01b03808516600090815260208190526040808220939093559084168152205461140790826114f8565b6001600160a01b038084166000818152602081815260409182902094909455805185815290519193928716927fddf252ad1be2c89b69c2b068fc378daa952ba7f163c4a11628f55a4df523b3ef92918290030190a3505050565b600081848411156114f05760405162461bcd60e51b81526004018080602001828103825283818151815260200191508051906020019080838360005b838110156114b557818101518382015260200161149d565b50505050905090810190601f1680156114e25780820380516001836020036101000a031916815260200191505b509250505060405180910390fd5b505050900390565b600082820183811015611298576040805162461bcd60e51b815260206004820152601b60248201527f536166654d6174683a206164646974696f6e206f766572666c6f770000000000604482015290519081900360640190fd5b6001600160a01b0382166115ad576040805162461bcd60e51b815260206004820152601f60248201527f45524332303a206d696e7420746f20746865207a65726f206164647265737300604482015290519081900360640190fd5b6115b960008383611642565b6002546115c690826114f8565b6002556001600160a01b0382166000908152602081905260409020546115ec90826114f8565b6001600160a01b0383166000818152602081815260408083209490945583518581529351929391927fddf252ad1be2c89b69c2b068fc378daa952ba7f163c4a11628f55a4df523b3ef9281900390910190a35050565b61164d8383836116c3565b6001600160a01b0383166116c3576007546116708261166a61069f565b906114f8565b11156116c3576040805162461bcd60e51b815260206004820152601960248201527f45524332304361707065643a2063617020657863656564656400000000000000604482015290519081900360640190fd5b50505056fe45524332303a207472616e7366657220746f20746865207a65726f20616464726573734f776e61626c653a206e6577206f776e657220697320746865207a65726f206164647265737345524332303a20617070726f766520746f20746865207a65726f206164647265737345524332303a207472616e7366657220616d6f756e7420657863656564732062616c616e6365536166654d6174683a206d756c7469706c69636174696f6e206f766572666c6f7745524332303a207472616e7366657220616d6f756e74206578636565647320616c6c6f77616e63654f776e61626c653a2063616c6c6572206973206e6f7420746865206f776e657245524332303a207472616e736665722066726f6d20746865207a65726f206164647265737345524332303a20617070726f76652066726f6d20746865207a65726f206164647265737345524332303a2064656372656173656420616c6c6f77616e63652062656c6f77207a65726fa26469706673582212202cb9ecdf6fe5c57579db18a7bf1c0d031ecc2e11836b1953989b88626f2f5e9964736f6c634300060c0033",
  "devdoc": {
    "kind": "dev",
    "methods": {
      "allowance(address,address)": {
        "details": "See {IERC20-allowance}."
      },
      "approve(address,uint256)": {
        "details": "See {IERC20-approve}. Requirements: - `spender` cannot be the zero address."
      },
      "balanceOf(address)": {
        "details": "See {IERC20-balanceOf}."
      },
      "cap()": {
        "details": "Returns the cap on the token's total supply."
      },
      "decimals()": {
        "details": "Returns the number of decimals used to get its user representation. For example, if `decimals` equals `2`, a balance of `505` tokens should be displayed to a user as `5,05` (`505 / 10 ** 2`). Tokens usually opt for a value of 18, imitating the relationship between Ether and Wei. This is the value {ERC20} uses, unless {_setupDecimals} is called. NOTE: This information is only used for _display_ purposes: it in no way affects any of the arithmetic of the contract, including {IERC20-balanceOf} and {IERC20-transfer}."
      },
      "decreaseAllowance(address,uint256)": {
        "details": "Atomically decreases the allowance granted to `spender` by the caller. This is an alternative to {approve} that can be used as a mitigation for problems described in {IERC20-approve}. Emits an {Approval} event indicating the updated allowance. Requirements: - `spender` cannot be the zero address. - `spender` must have allowance for the caller of at least `subtractedValue`."
      },
      "increaseAllowance(address,uint256)": {
        "details": "Atomically increases the allowance granted to `spender` by the caller. This is an alternative to {approve} that can be used as a mitigation for problems described in {IERC20-approve}. Emits an {Approval} event indicating the updated allowance. Requirements: - `spender` cannot be the zero address."
      },
      "name()": {
        "details": "Returns the name of the token."
      },
      "owner()": {
        "details": "Returns the address of the current owner."
      },
      "renounceOwnership()": {
        "details": "Leaves the contract without owner. It will not be possible to call `onlyOwner` functions anymore. Can only be called by the current owner. NOTE: Renouncing ownership will leave the contract without an owner, thereby removing any functionality that is only available to the owner."
      },
      "symbol()": {
        "details": "Returns the symbol of the token, usually a shorter version of the name."
      },
      "totalSupply()": {
        "details": "See {IERC20-totalSupply}."
      },
      "transfer(address,uint256)": {
        "details": "See {IERC20-transfer}. Requirements: - `recipient` cannot be the zero address. - the caller must have a balance of at least `amount`."
      },
      "transferFrom(address,address,uint256)": {
        "details": "See {IERC20-transferFrom}. Emits an {Approval} event indicating the updated allowance. This is not required by the EIP. See the note at the beginning of {ERC20}. Requirements: - `sender` and `recipient` cannot be the zero address. - `sender` must have a balance of at least `amount`. - the caller must have allowance for ``sender``'s tokens of at least `amount`."
      },
      "transferOwnership(address)": {
        "details": "Transfers ownership of the contract to a new account (`newOwner`). Can only be called by the current owner."
      }
    },
    "version": 1
  },
  "userdoc": {
    "kind": "user",
    "methods": {
      "mint(address,uint256)": {
        "notice": "Creates `_amount` token to `_to`. Must only be called by the owner (MasterBreeder)."
      }
    },
    "version": 1
  },
  "storageLayout": {
    "storage": [
      {
        "astId": 481,
        "contract": "contracts/HepaToken.sol:HepaToken",
        "label": "_balances",
        "offset": 0,
        "slot": "0",
        "type": "t_mapping(t_address,t_uint256)"
      },
      {
        "astId": 487,
        "contract": "contracts/HepaToken.sol:HepaToken",
        "label": "_allowances",
        "offset": 0,
        "slot": "1",
        "type": "t_mapping(t_address,t_mapping(t_address,t_uint256))"
      },
      {
        "astId": 489,
        "contract": "contracts/HepaToken.sol:HepaToken",
        "label": "_totalSupply",
        "offset": 0,
        "slot": "2",
        "type": "t_uint256"
      },
      {
        "astId": 491,
        "contract": "contracts/HepaToken.sol:HepaToken",
        "label": "_name",
        "offset": 0,
        "slot": "3",
        "type": "t_string_storage"
      },
      {
        "astId": 493,
        "contract": "contracts/HepaToken.sol:HepaToken",
        "label": "_symbol",
        "offset": 0,
        "slot": "4",
        "type": "t_string_storage"
      },
      {
        "astId": 495,
        "contract": "contracts/HepaToken.sol:HepaToken",
        "label": "_decimals",
        "offset": 0,
        "slot": "5",
        "type": "t_uint8"
      },
      {
        "astId": 7,
        "contract": "contracts/HepaToken.sol:HepaToken",
        "label": "_owner",
        "offset": 1,
        "slot": "5",
        "type": "t_address"
      },
      {
        "astId": 2118,
        "contract": "contracts/HepaToken.sol:HepaToken",
        "label": "authorized",
        "offset": 0,
        "slot": "6",
        "type": "t_mapping(t_address,t_bool)"
      },
      {
        "astId": 2200,
        "contract": "contracts/HepaToken.sol:HepaToken",
        "label": "_cap",
        "offset": 0,
        "slot": "7",
        "type": "t_uint256"
      },
      {
        "astId": 2202,
        "contract": "contracts/HepaToken.sol:HepaToken",
        "label": "_totalLock",
        "offset": 0,
        "slot": "8",
        "type": "t_uint256"
      },
      {
        "astId": 2204,
        "contract": "contracts/HepaToken.sol:HepaToken",
        "label": "lockFromBlock",
        "offset": 0,
        "slot": "9",
        "type": "t_uint256"
      },
      {
        "astId": 2206,
        "contract": "contracts/HepaToken.sol:HepaToken",
        "label": "lockToBlock",
        "offset": 0,
        "slot": "10",
        "type": "t_uint256"
      },
      {
        "astId": 2210,
        "contract": "contracts/HepaToken.sol:HepaToken",
        "label": "_locks",
        "offset": 0,
        "slot": "11",
        "type": "t_mapping(t_address,t_uint256)"
      },
      {
        "astId": 2214,
        "contract": "contracts/HepaToken.sol:HepaToken",
        "label": "_lastUnlockBlock",
        "offset": 0,
        "slot": "12",
        "type": "t_mapping(t_address,t_uint256)"
      }
    ],
    "types": {
      "t_address": {
        "encoding": "inplace",
        "label": "address",
        "numberOfBytes": "20"
      },
      "t_bool": {
        "encoding": "inplace",
        "label": "bool",
        "numberOfBytes": "1"
      },
      "t_mapping(t_address,t_bool)": {
        "encoding": "mapping",
        "key": "t_address",
        "label": "mapping(address => bool)",
        "numberOfBytes": "32",
        "value": "t_bool"
      },
      "t_mapping(t_address,t_mapping(t_address,t_uint256))": {
        "encoding": "mapping",
        "key": "t_address",
        "label": "mapping(address => mapping(address => uint256))",
        "numberOfBytes": "32",
        "value": "t_mapping(t_address,t_uint256)"
      },
      "t_mapping(t_address,t_uint256)": {
        "encoding": "mapping",
        "key": "t_address",
        "label": "mapping(address => uint256)",
        "numberOfBytes": "32",
        "value": "t_uint256"
      },
      "t_string_storage": {
        "encoding": "bytes",
        "label": "string",
        "numberOfBytes": "32"
      },
      "t_uint256": {
        "encoding": "inplace",
        "label": "uint256",
        "numberOfBytes": "32"
      },
      "t_uint8": {
        "encoding": "inplace",
        "label": "uint8",
        "numberOfBytes": "1"
      }
    }
  }
}