{
  "address": "0xba638f51052b655380E6ea8e857f42b39344ADc7",
  "abi": [
    {
      "inputs": [
        {
          "internalType": "uint256",
          "name": "_cap",
          "type": "uint256"
        },
        {
          "internalType": "uint256",
          "name": "_lockFromBlock",
          "type": "uint256"
        },
        {
          "internalType": "uint256",
          "name": "_lockToBlock",
          "type": "uint256"
        }
      ],
      "stateMutability": "nonpayable",
      "type": "constructor"
    },
    {
      "anonymous": false,
      "inputs": [
        {
          "indexed": true,
          "internalType": "address",
          "name": "owner",
          "type": "address"
        },
        {
          "indexed": true,
          "internalType": "address",
          "name": "spender",
          "type": "address"
        },
        {
          "indexed": false,
          "internalType": "uint256",
          "name": "value",
          "type": "uint256"
        }
      ],
      "name": "Approval",
      "type": "event"
    },
    {
      "anonymous": false,
      "inputs": [
        {
          "indexed": true,
          "internalType": "address",
          "name": "to",
          "type": "address"
        },
        {
          "indexed": false,
          "internalType": "uint256",
          "name": "value",
          "type": "uint256"
        }
      ],
      "name": "Lock",
      "type": "event"
    },
    {
      "anonymous": false,
      "inputs": [
        {
          "indexed": true,
          "internalType": "address",
          "name": "previousOwner",
          "type": "address"
        },
        {
          "indexed": true,
          "internalType": "address",
          "name": "newOwner",
          "type": "address"
        }
      ],
      "name": "OwnershipTransferred",
      "type": "event"
    },
    {
      "anonymous": false,
      "inputs": [
        {
          "indexed": true,
          "internalType": "address",
          "name": "from",
          "type": "address"
        },
        {
          "indexed": true,
          "internalType": "address",
          "name": "to",
          "type": "address"
        },
        {
          "indexed": false,
          "internalType": "uint256",
          "name": "value",
          "type": "uint256"
        }
      ],
      "name": "Transfer",
      "type": "event"
    },
    {
      "inputs": [
        {
          "internalType": "address",
          "name": "_toAdd",
          "type": "address"
        }
      ],
      "name": "addAuthorized",
      "outputs": [],
      "stateMutability": "nonpayable",
      "type": "function"
    },
    {
      "inputs": [
        {
          "internalType": "address",
          "name": "owner",
          "type": "address"
        },
        {
          "internalType": "address",
          "name": "spender",
          "type": "address"
        }
      ],
      "name": "allowance",
      "outputs": [
        {
          "internalType": "uint256",
          "name": "",
          "type": "uint256"
        }
      ],
      "stateMutability": "view",
      "type": "function"
    },
    {
      "inputs": [
        {
          "internalType": "address",
          "name": "spender",
          "type": "address"
        },
        {
          "internalType": "uint256",
          "name": "amount",
          "type": "uint256"
        }
      ],
      "name": "approve",
      "outputs": [
        {
          "internalType": "bool",
          "name": "",
          "type": "bool"
        }
      ],
      "stateMutability": "nonpayable",
      "type": "function"
    },
    {
      "inputs": [
        {
          "internalType": "address",
          "name": "",
          "type": "address"
        }
      ],
      "name": "authorized",
      "outputs": [
        {
          "internalType": "bool",
          "name": "",
          "type": "bool"
        }
      ],
      "stateMutability": "view",
      "type": "function"
    },
    {
      "inputs": [
        {
          "internalType": "address",
          "name": "account",
          "type": "address"
        }
      ],
      "name": "balanceOf",
      "outputs": [
        {
          "internalType": "uint256",
          "name": "",
          "type": "uint256"
        }
      ],
      "stateMutability": "view",
      "type": "function"
    },
    {
      "inputs": [
        {
          "internalType": "address",
          "name": "_holder",
          "type": "address"
        }
      ],
      "name": "canUnlockAmount",
      "outputs": [
        {
          "internalType": "uint256",
          "name": "",
          "type": "uint256"
        }
      ],
      "stateMutability": "view",
      "type": "function"
    },
    {
      "inputs": [],
      "name": "cap",
      "outputs": [
        {
          "internalType": "uint256",
          "name": "",
          "type": "uint256"
        }
      ],
      "stateMutability": "view",
      "type": "function"
    },
    {
      "inputs": [],
      "name": "circulatingSupply",
      "outputs": [
        {
          "internalType": "uint256",
          "name": "",
          "type": "uint256"
        }
      ],
      "stateMutability": "view",
      "type": "function"
    },
    {
      "inputs": [],
      "name": "decimals",
      "outputs": [
        {
          "internalType": "uint8",
          "name": "",
          "type": "uint8"
        }
      ],
      "stateMutability": "view",
      "type": "function"
    },
    {
      "inputs": [
        {
          "internalType": "address",
          "name": "spender",
          "type": "address"
        },
        {
          "internalType": "uint256",
          "name": "subtractedValue",
          "type": "uint256"
        }
      ],
      "name": "decreaseAllowance",
      "outputs": [
        {
          "internalType": "bool",
          "name": "",
          "type": "bool"
        }
      ],
      "stateMutability": "nonpayable",
      "type": "function"
    },
    {
      "inputs": [
        {
          "internalType": "address",
          "name": "spender",
          "type": "address"
        },
        {
          "internalType": "uint256",
          "name": "addedValue",
          "type": "uint256"
        }
      ],
      "name": "increaseAllowance",
      "outputs": [
        {
          "internalType": "bool",
          "name": "",
          "type": "bool"
        }
      ],
      "stateMutability": "nonpayable",
      "type": "function"
    },
    {
      "inputs": [
        {
          "internalType": "address",
          "name": "_holder",
          "type": "address"
        }
      ],
      "name": "lastUnlockBlock",
      "outputs": [
        {
          "internalType": "uint256",
          "name": "",
          "type": "uint256"
        }
      ],
      "stateMutability": "view",
      "type": "function"
    },
    {
      "inputs": [
        {
          "internalType": "address",
          "name": "_holder",
          "type": "address"
        },
        {
          "internalType": "uint256",
          "name": "_amount",
          "type": "uint256"
        }
      ],
      "name": "lock",
      "outputs": [],
      "stateMutability": "nonpayable",
      "type": "function"
    },
    {
      "inputs": [],
      "name": "lockFromBlock",
      "outputs": [
        {
          "internalType": "uint256",
          "name": "",
          "type": "uint256"
        }
      ],
      "stateMutability": "view",
      "type": "function"
    },
    {
      "inputs": [
        {
          "internalType": "uint256",
          "name": "_newLockFrom",
          "type": "uint256"
        }
      ],
      "name": "lockFromUpdate",
      "outputs": [],
      "stateMutability": "nonpayable",
      "type": "function"
    },
    {
      "inputs": [
        {
          "internalType": "address",
          "name": "_holder",
          "type": "address"
        }
      ],
      "name": "lockOf",
      "outputs": [
        {
          "internalType": "uint256",
          "name": "",
          "type": "uint256"
        }
      ],
      "stateMutability": "view",
      "type": "function"
    },
    {
      "inputs": [],
      "name": "lockToBlock",
      "outputs": [
        {
          "internalType": "uint256",
          "name": "",
          "type": "uint256"
        }
      ],
      "stateMutability": "view",
      "type": "function"
    },
    {
      "inputs": [
        {
          "internalType": "uint256",
          "name": "_newLockTo",
          "type": "uint256"
        }
      ],
      "name": "lockToUpdate",
      "outputs": [],
      "stateMutability": "nonpayable",
      "type": "function"
    },
    {
      "inputs": [],
      "name": "lockedSupply",
      "outputs": [
        {
          "internalType": "uint256",
          "name": "",
          "type": "uint256"
        }
      ],
      "stateMutability": "view",
      "type": "function"
    },
    {
      "inputs": [
        {
          "internalType": "address",
          "name": "_to",
          "type": "address"
        },
        {
          "internalType": "uint256",
          "name": "_amount",
          "type": "uint256"
        }
      ],
      "name": "mint",
      "outputs": [],
      "stateMutability": "nonpayable",
      "type": "function"
    },
    {
      "inputs": [],
      "name": "name",
      "outputs": [
        {
          "internalType": "string",
          "name": "",
          "type": "string"
        }
      ],
      "stateMutability": "view",
      "type": "function"
    },
    {
      "inputs": [],
      "name": "owner",
      "outputs": [
        {
          "internalType": "address",
          "name": "",
          "type": "address"
        }
      ],
      "stateMutability": "view",
      "type": "function"
    },
    {
      "inputs": [
        {
          "internalType": "address",
          "name": "_toRemove",
          "type": "address"
        }
      ],
      "name": "removeAuthorized",
      "outputs": [],
      "stateMutability": "nonpayable",
      "type": "function"
    },
    {
      "inputs": [],
      "name": "renounceOwnership",
      "outputs": [],
      "stateMutability": "nonpayable",
      "type": "function"
    },
    {
      "inputs": [],
      "name": "symbol",
      "outputs": [
        {
          "internalType": "string",
          "name": "",
          "type": "string"
        }
      ],
      "stateMutability": "view",
      "type": "function"
    },
    {
      "inputs": [
        {
          "internalType": "address",
          "name": "_holder",
          "type": "address"
        }
      ],
      "name": "totalBalanceOf",
      "outputs": [
        {
          "internalType": "uint256",
          "name": "",
          "type": "uint256"
        }
      ],
      "stateMutability": "view",
      "type": "function"
    },
    {
      "inputs": [],
      "name": "totalLock",
      "outputs": [
        {
          "internalType": "uint256",
          "name": "",
          "type": "uint256"
        }
      ],
      "stateMutability": "view",
      "type": "function"
    },
    {
      "inputs": [],
      "name": "totalSupply",
      "outputs": [
        {
          "internalType": "uint256",
          "name": "",
          "type": "uint256"
        }
      ],
      "stateMutability": "view",
      "type": "function"
    },
    {
      "inputs": [
        {
          "internalType": "address",
          "name": "recipient",
          "type": "address"
        },
        {
          "internalType": "uint256",
          "name": "amount",
          "type": "uint256"
        }
      ],
      "name": "transfer",
      "outputs": [
        {
          "internalType": "bool",
          "name": "",
          "type": "bool"
        }
      ],
      "stateMutability": "nonpayable",
      "type": "function"
    },
    {
      "inputs": [
        {
          "internalType": "address",
          "name": "sender",
          "type": "address"
        },
        {
          "internalType": "address",
          "name": "recipient",
          "type": "address"
        },
        {
          "internalType": "uint256",
          "name": "amount",
          "type": "uint256"
        }
      ],
      "name": "transferFrom",
      "outputs": [
        {
          "internalType": "bool",
          "name": "",
          "type": "bool"
        }
      ],
      "stateMutability": "nonpayable",
      "type": "function"
    },
    {
      "inputs": [
        {
          "internalType": "address",
          "name": "newOwner",
          "type": "address"
        }
      ],
      "name": "transferOwnership",
      "outputs": [],
      "stateMutability": "nonpayable",
      "type": "function"
    },
    {
      "inputs": [],
      "name": "unlock",
      "outputs": [],
      "stateMutability": "nonpayable",
      "type": "function"
    },
    {
      "inputs": [],
      "name": "unlockedSupply",
      "outputs": [
        {
          "internalType": "uint256",
          "name": "",
          "type": "uint256"
        }
      ],
      "stateMutability": "view",
      "type": "function"
    }
  ],
  "transactionHash": "0xec6a3a9f938fa458e05f16aacaa5c0c66ec14268ee7bc2642ddce76b46f9ddd3",
  "args": [
    "5000000000000000000000000000",
    9756052,
    9763252
  ],
  "solcInputHash": "ef67f97080597fd51d8e967a73f1d4f3",
  "bytecode": "0x60806040523480156200001157600080fd5b5060405162001a7838038062001a78833981810160405260608110156200003757600080fd5b508051602080830151604093840151845180860186526004808252634845504160e01b8286018181528851808a01909952918852948701949094528051949592949193909291869186918691869186916200009691600391906200013a565b508051620000ac9060049060208401906200013a565b50506005805460ff19166012179055506000620000c862000136565b60058054610100600160a81b0319166101006001600160a01b03841690810291909117909155604051919250906000907f8be0079c531659141344cd1fd0a4f28419497f9722a3daafe3b4186f6b6457e0908290a350600792909255600955600a5550620001d69350505050565b3390565b828054600181600116156101000203166002900490600052602060002090601f016020900481019282601f106200017d57805160ff1916838001178555620001ad565b82800160010185558215620001ad579182015b82811115620001ad57825182559160200191906001019062000190565b50620001bb929150620001bf565b5090565b5b80821115620001bb5760008155600101620001c0565b61189280620001e66000396000f3fe608060405234801561001057600080fd5b50600436106101fb5760003560e01c806370a082311161011a578063a69df4b5116100ad578063ca5c7b911161007c578063ca5c7b91146105b1578063cf1c316a146105b9578063dd62ed3e146105df578063f2fde38b1461060d578063fd3d27b814610633576101fb565b8063a69df4b51461053a578063a9059cbb14610542578063b91816111461056e578063c38533c614610594576101fb565b80638e875e1a116100e95780638e875e1a146104f65780639358928b146104fe57806395d89b4114610506578063a457c2d71461050e576101fb565b806370a082311461047e578063715018a6146104a457806389a2867c146104ac5780638da5cb5b146104d2576101fb565b8063355274ea11610192578063485d7d9411610161578063485d7d94146104045780634b0ee02a1461042a5780635a46d3b51461045057806366fc237b14610476576101fb565b8063355274ea1461039c57806339509351146103a45780633a1aae35146103d057806340c10f19146103d8576101fb565b8063202b1760116101ce578063202b1760146102f657806323b872dd1461031c578063282d3fdf14610352578063313ce5671461037e576101fb565b806306fdde0314610200578063095ea7b31461027d5780630cb285e2146102bd57806318160ddd146102dc575b600080fd5b61020861063b565b6040805160208082528351818301528351919283929083019185019080838360005b8381101561024257818101518382015260200161022a565b50505050905090810190601f16801561026f5780820380516001836020036101000a031916815260200191505b509250505060405180910390f35b6102a96004803603604081101561029357600080fd5b506001600160a01b0381351690602001356106d1565b604080519115158252519081900360200190f35b6102da600480360360208110156102d357600080fd5b50356106ef565b005b6102e461072a565b60408051918252519081900360200190f35b6102e46004803603602081101561030c57600080fd5b50356001600160a01b0316610730565b6102a96004803603606081101561033257600080fd5b506001600160a01b038135811691602081013590911690604001356107f6565b6102da6004803603604081101561036857600080fd5b506001600160a01b03813516906020013561087d565b610386610a70565b6040805160ff9092168252519081900360200190f35b6102e4610a79565b6102a9600480360360408110156103ba57600080fd5b506001600160a01b038135169060200135610a7f565b6102e4610acd565b6102da600480360360408110156103ee57600080fd5b506001600160a01b038135169060200135610ad3565b6102da6004803603602081101561041a57600080fd5b50356001600160a01b0316610b43565b6102e46004803603602081101561044057600080fd5b50356001600160a01b0316610bdc565b6102e46004803603602081101561046657600080fd5b50356001600160a01b0316610c09565b6102e4610c24565b6102e46004803603602081101561049457600080fd5b50356001600160a01b0316610c2a565b6102da610c45565b6102e4600480360360208110156104c257600080fd5b50356001600160a01b0316610cf7565b6104da610d12565b604080516001600160a01b039092168252519081900360200190f35b6102e4610d26565b6102e4610d2c565b610208610d3b565b6102a96004803603604081101561052457600080fd5b506001600160a01b038135169060200135610d9c565b6102da610e04565b6102a96004803603604081101561055857600080fd5b506001600160a01b038135169060200135610edb565b6102a96004803603602081101561058457600080fd5b50356001600160a01b0316610eef565b6102da600480360360208110156105aa57600080fd5b5035610f04565b6102e4610f3f565b6102da600480360360208110156105cf57600080fd5b50356001600160a01b0316610f49565b6102e4600480360360408110156105f557600080fd5b506001600160a01b0381358116916020013516610fcf565b6102da6004803603602081101561062357600080fd5b50356001600160a01b0316610ffa565b6102e4611108565b60038054604080516020601f60026000196101006001881615020190951694909404938401819004810282018101909252828152606093909290918301828280156106c75780601f1061069c576101008083540402835291602001916106c7565b820191906000526020600020905b8154815290600101906020018083116106aa57829003601f168201915b5050505050905090565b60006106e56106de61111e565b8484611122565b5060015b92915050565b3360009081526006602052604090205460ff168061071c575033610711610d12565b6001600160a01b0316145b61072557600080fd5b600a55565b60025490565b6000600954431015610744575060006107f1565b600a54431061076c57506001600160a01b0381166000908152600b60205260409020546107f1565b6001600160a01b0382166000908152600c602052604081205461079090439061120e565b6001600160a01b0384166000908152600c6020526040812054600a5492935090916107ba9161120e565b6001600160a01b0385166000908152600b60205260409020549091506107ec9082906107e6908561126b565b906112cb565b925050505b919050565b6000610803848484611332565b6108738461080f61111e565b61086e856040518060600160405280602881526020016117a7602891396001600160a01b038a1660009081526001602052604081209061084d61111e565b6001600160a01b03168152602081019190915260400160002054919061148d565b611122565b5060019392505050565b61088561111e565b6001600160a01b0316610896610d12565b6001600160a01b0316146108df576040805162461bcd60e51b815260206004820181905260248201526000805160206117cf833981519152604482015290519081900360640190fd5b6001600160a01b03821661093a576040805162461bcd60e51b815260206004820152601f60248201527f45524332303a206c6f636b20746f20746865207a65726f206164647265737300604482015290519081900360640190fd5b61094382610c2a565b811115610997576040805162461bcd60e51b815260206004820152601f60248201527f45524332303a206c6f636b20616d6f756e74206f7665722062616c616e636500604482015290519081900360640190fd5b6001600160a01b0382166000908152600b60205260409020546109ba9082611524565b6001600160a01b0383166000908152600b60205260409020556008546109e09082611524565b6008556009546001600160a01b0383166000908152600c60205260409020541015610a22576009546001600160a01b0383166000908152600c60205260409020555b610a2d823083611332565b6040805182815290516001600160a01b038416917f625fed9875dada8643f2418b838ae0bc78d9a148a18eee4ee1979ff0f3f5d427919081900360200190a25050565b60055460ff1690565b60075490565b60006106e5610a8c61111e565b8461086e8560016000610a9d61111e565b6001600160a01b03908116825260208083019390935260409182016000908120918c168152925290205490611524565b60085490565b610adb61111e565b6001600160a01b0316610aec610d12565b6001600160a01b031614610b35576040805162461bcd60e51b815260206004820181905260248201526000805160206117cf833981519152604482015290519081900360640190fd5b610b3f828261157e565b5050565b610b4b61111e565b6001600160a01b0316610b5c610d12565b6001600160a01b031614610ba5576040805162461bcd60e51b815260206004820181905260248201526000805160206117cf833981519152604482015290519081900360640190fd5b6001600160a01b038116331415610bbb57600080fd5b6001600160a01b03166000908152600660205260409020805460ff19169055565b60006106e9610bea83610c2a565b6001600160a01b0384166000908152600b602052604090205490611524565b6001600160a01b03166000908152600b602052604090205490565b60095481565b6001600160a01b031660009081526020819052604090205490565b610c4d61111e565b6001600160a01b0316610c5e610d12565b6001600160a01b031614610ca7576040805162461bcd60e51b815260206004820181905260248201526000805160206117cf833981519152604482015290519081900360640190fd5b60055460405160009161010090046001600160a01b0316907f8be0079c531659141344cd1fd0a4f28419497f9722a3daafe3b4186f6b6457e0908390a360058054610100600160a81b0319169055565b6001600160a01b03166000908152600c602052604090205490565b60055461010090046001600160a01b031690565b600a5481565b6000610d3661072a565b905090565b60048054604080516020601f60026000196101006001881615020190951694909404938401819004810282018101909252828152606093909290918301828280156106c75780601f1061069c576101008083540402835291602001916106c7565b60006106e5610da961111e565b8461086e856040518060600160405280602581526020016118386025913960016000610dd361111e565b6001600160a01b03908116825260208083019390935260409182016000908120918d1681529252902054919061148d565b336000908152600b6020526040902054610e5c576040805162461bcd60e51b815260206004820152601460248201527345524332303a2063616e6e6f7420756e6c6f636b60601b604482015290519081900360640190fd5b6000610e6733610730565b9050610e7230610c2a565b811115610e8557610e8230610c2a565b90505b336000908152600b6020526040902054610e9f908261120e565b336000908152600b6020908152604080832093909355600c905220439055600854610eca908261120e565b600855610ed8303383611332565b50565b60006106e5610ee861111e565b8484611332565b60066020526000908152604090205460ff1681565b3360009081526006602052604090205460ff1680610f31575033610f26610d12565b6001600160a01b0316145b610f3a57600080fd5b600955565b6000610d36610acd565b610f5161111e565b6001600160a01b0316610f62610d12565b6001600160a01b031614610fab576040805162461bcd60e51b815260206004820181905260248201526000805160206117cf833981519152604482015290519081900360640190fd5b6001600160a01b03166000908152600660205260409020805460ff19166001179055565b6001600160a01b03918216600090815260016020908152604080832093909416825291909152205490565b61100261111e565b6001600160a01b0316611013610d12565b6001600160a01b03161461105c576040805162461bcd60e51b815260206004820181905260248201526000805160206117cf833981519152604482015290519081900360640190fd5b6001600160a01b0381166110a15760405162461bcd60e51b81526004018080602001828103825260268152602001806117186026913960400191505060405180910390fd5b6005546040516001600160a01b0380841692610100900416907f8be0079c531659141344cd1fd0a4f28419497f9722a3daafe3b4186f6b6457e090600090a3600580546001600160a01b0390921661010002610100600160a81b0319909216919091179055565b6000610d3660085461111861072a565b9061120e565b3390565b6001600160a01b0383166111675760405162461bcd60e51b81526004018080602001828103825260248152602001806118146024913960400191505060405180910390fd5b6001600160a01b0382166111ac5760405162461bcd60e51b815260040180806020018281038252602281526020018061173e6022913960400191505060405180910390fd5b6001600160a01b03808416600081815260016020908152604080832094871680845294825291829020859055815185815291517f8c5be1e5ebec7d5bd14f71427d1e84f3dd0314c0f7b2291e5b200ac8c7c3b9259281900390910190a3505050565b600082821115611265576040805162461bcd60e51b815260206004820152601e60248201527f536166654d6174683a207375627472616374696f6e206f766572666c6f770000604482015290519081900360640190fd5b50900390565b60008261127a575060006106e9565b8282028284828161128757fe5b04146112c45760405162461bcd60e51b81526004018080602001828103825260218152602001806117866021913960400191505060405180910390fd5b9392505050565b6000808211611321576040805162461bcd60e51b815260206004820152601a60248201527f536166654d6174683a206469766973696f6e206279207a65726f000000000000604482015290519081900360640190fd5b81838161132a57fe5b049392505050565b6001600160a01b0383166113775760405162461bcd60e51b81526004018080602001828103825260258152602001806117ef6025913960400191505060405180910390fd5b6001600160a01b0382166113bc5760405162461bcd60e51b81526004018080602001828103825260238152602001806116f56023913960400191505060405180910390fd5b6113c783838361166e565b61140481604051806060016040528060268152602001611760602691396001600160a01b038616600090815260208190526040902054919061148d565b6001600160a01b0380851660009081526020819052604080822093909355908416815220546114339082611524565b6001600160a01b038084166000818152602081815260409182902094909455805185815290519193928716927fddf252ad1be2c89b69c2b068fc378daa952ba7f163c4a11628f55a4df523b3ef92918290030190a3505050565b6000818484111561151c5760405162461bcd60e51b81526004018080602001828103825283818151815260200191508051906020019080838360005b838110156114e15781810151838201526020016114c9565b50505050905090810190601f16801561150e5780820380516001836020036101000a031916815260200191505b509250505060405180910390fd5b505050900390565b6000828201838110156112c4576040805162461bcd60e51b815260206004820152601b60248201527f536166654d6174683a206164646974696f6e206f766572666c6f770000000000604482015290519081900360640190fd5b6001600160a01b0382166115d9576040805162461bcd60e51b815260206004820152601f60248201527f45524332303a206d696e7420746f20746865207a65726f206164647265737300604482015290519081900360640190fd5b6115e56000838361166e565b6002546115f29082611524565b6002556001600160a01b0382166000908152602081905260409020546116189082611524565b6001600160a01b0383166000818152602081815260408083209490945583518581529351929391927fddf252ad1be2c89b69c2b068fc378daa952ba7f163c4a11628f55a4df523b3ef9281900390910190a35050565b6116798383836116ef565b6001600160a01b0383166116ef5760075461169c8261169661072a565b90611524565b11156116ef576040805162461bcd60e51b815260206004820152601960248201527f45524332304361707065643a2063617020657863656564656400000000000000604482015290519081900360640190fd5b50505056fe45524332303a207472616e7366657220746f20746865207a65726f20616464726573734f776e61626c653a206e6577206f776e657220697320746865207a65726f206164647265737345524332303a20617070726f766520746f20746865207a65726f206164647265737345524332303a207472616e7366657220616d6f756e7420657863656564732062616c616e6365536166654d6174683a206d756c7469706c69636174696f6e206f766572666c6f7745524332303a207472616e7366657220616d6f756e74206578636565647320616c6c6f77616e63654f776e61626c653a2063616c6c6572206973206e6f7420746865206f776e657245524332303a207472616e736665722066726f6d20746865207a65726f206164647265737345524332303a20617070726f76652066726f6d20746865207a65726f206164647265737345524332303a2064656372656173656420616c6c6f77616e63652062656c6f77207a65726fa264697066735822122010cfdf30cb3e610dcc565eeec1878a663b0118e979f996e1ada3212983281aaf64736f6c634300060c0033",
  "devdoc": {
    "kind": "dev",
    "methods": {
      "allowance(address,address)": {
        "details": "See {IERC20-allowance}."
      },
      "approve(address,uint256)": {
        "details": "See {IERC20-approve}. Requirements: - `spender` cannot be the zero address."
      },
      "balanceOf(address)": {
        "details": "See {IERC20-balanceOf}."
      },
      "cap()": {
        "details": "Returns the cap on the token's total supply."
      },
      "decimals()": {
        "details": "Returns the number of decimals used to get its user representation. For example, if `decimals` equals `2`, a balance of `505` tokens should be displayed to a user as `5,05` (`505 / 10 ** 2`). Tokens usually opt for a value of 18, imitating the relationship between Ether and Wei. This is the value {ERC20} uses, unless {_setupDecimals} is called. NOTE: This information is only used for _display_ purposes: it in no way affects any of the arithmetic of the contract, including {IERC20-balanceOf} and {IERC20-transfer}."
      },
      "decreaseAllowance(address,uint256)": {
        "details": "Atomically decreases the allowance granted to `spender` by the caller. This is an alternative to {approve} that can be used as a mitigation for problems described in {IERC20-approve}. Emits an {Approval} event indicating the updated allowance. Requirements: - `spender` cannot be the zero address. - `spender` must have allowance for the caller of at least `subtractedValue`."
      },
      "increaseAllowance(address,uint256)": {
        "details": "Atomically increases the allowance granted to `spender` by the caller. This is an alternative to {approve} that can be used as a mitigation for problems described in {IERC20-approve}. Emits an {Approval} event indicating the updated allowance. Requirements: - `spender` cannot be the zero address."
      },
      "name()": {
        "details": "Returns the name of the token."
      },
      "owner()": {
        "details": "Returns the address of the current owner."
      },
      "renounceOwnership()": {
        "details": "Leaves the contract without owner. It will not be possible to call `onlyOwner` functions anymore. Can only be called by the current owner. NOTE: Renouncing ownership will leave the contract without an owner, thereby removing any functionality that is only available to the owner."
      },
      "symbol()": {
        "details": "Returns the symbol of the token, usually a shorter version of the name."
      },
      "totalSupply()": {
        "details": "See {IERC20-totalSupply}."
      },
      "transfer(address,uint256)": {
        "details": "See {IERC20-transfer}. Requirements: - `recipient` cannot be the zero address. - the caller must have a balance of at least `amount`."
      },
      "transferFrom(address,address,uint256)": {
        "details": "See {IERC20-transferFrom}. Emits an {Approval} event indicating the updated allowance. This is not required by the EIP. See the note at the beginning of {ERC20}. Requirements: - `sender` and `recipient` cannot be the zero address. - `sender` must have a balance of at least `amount`. - the caller must have allowance for ``sender``'s tokens of at least `amount`."
      },
      "transferOwnership(address)": {
        "details": "Transfers ownership of the contract to a new account (`newOwner`). Can only be called by the current owner."
      }
    },
    "version": 1
  },
  "userdoc": {
    "kind": "user",
    "methods": {
      "mint(address,uint256)": {
        "notice": "Creates `_amount` token to `_to`. Must only be called by the owner (MasterBreeder)."
      }
    },
    "version": 1
  },
  "storageLayout": {
    "storage": [
      {
        "astId": 481,
        "contract": "contracts/HepaToken.sol:HepaToken",
        "label": "_balances",
        "offset": 0,
        "slot": "0",
        "type": "t_mapping(t_address,t_uint256)"
      },
      {
        "astId": 487,
        "contract": "contracts/HepaToken.sol:HepaToken",
        "label": "_allowances",
        "offset": 0,
        "slot": "1",
        "type": "t_mapping(t_address,t_mapping(t_address,t_uint256))"
      },
      {
        "astId": 489,
        "contract": "contracts/HepaToken.sol:HepaToken",
        "label": "_totalSupply",
        "offset": 0,
        "slot": "2",
        "type": "t_uint256"
      },
      {
        "astId": 491,
        "contract": "contracts/HepaToken.sol:HepaToken",
        "label": "_name",
        "offset": 0,
        "slot": "3",
        "type": "t_string_storage"
      },
      {
        "astId": 493,
        "contract": "contracts/HepaToken.sol:HepaToken",
        "label": "_symbol",
        "offset": 0,
        "slot": "4",
        "type": "t_string_storage"
      },
      {
        "astId": 495,
        "contract": "contracts/HepaToken.sol:HepaToken",
        "label": "_decimals",
        "offset": 0,
        "slot": "5",
        "type": "t_uint8"
      },
      {
        "astId": 7,
        "contract": "contracts/HepaToken.sol:HepaToken",
        "label": "_owner",
        "offset": 1,
        "slot": "5",
        "type": "t_address"
      },
      {
        "astId": 2118,
        "contract": "contracts/HepaToken.sol:HepaToken",
        "label": "authorized",
        "offset": 0,
        "slot": "6",
        "type": "t_mapping(t_address,t_bool)"
      },
      {
        "astId": 2184,
        "contract": "contracts/HepaToken.sol:HepaToken",
        "label": "_cap",
        "offset": 0,
        "slot": "7",
        "type": "t_uint256"
      },
      {
        "astId": 2186,
        "contract": "contracts/HepaToken.sol:HepaToken",
        "label": "_totalLock",
        "offset": 0,
        "slot": "8",
        "type": "t_uint256"
      },
      {
        "astId": 2188,
        "contract": "contracts/HepaToken.sol:HepaToken",
        "label": "lockFromBlock",
        "offset": 0,
        "slot": "9",
        "type": "t_uint256"
      },
      {
        "astId": 2190,
        "contract": "contracts/HepaToken.sol:HepaToken",
        "label": "lockToBlock",
        "offset": 0,
        "slot": "10",
        "type": "t_uint256"
      },
      {
        "astId": 2194,
        "contract": "contracts/HepaToken.sol:HepaToken",
        "label": "_locks",
        "offset": 0,
        "slot": "11",
        "type": "t_mapping(t_address,t_uint256)"
      },
      {
        "astId": 2198,
        "contract": "contracts/HepaToken.sol:HepaToken",
        "label": "_lastUnlockBlock",
        "offset": 0,
        "slot": "12",
        "type": "t_mapping(t_address,t_uint256)"
      }
    ],
    "types": {
      "t_address": {
        "encoding": "inplace",
        "label": "address",
        "numberOfBytes": "20"
      },
      "t_bool": {
        "encoding": "inplace",
        "label": "bool",
        "numberOfBytes": "1"
      },
      "t_mapping(t_address,t_bool)": {
        "encoding": "mapping",
        "key": "t_address",
        "label": "mapping(address => bool)",
        "numberOfBytes": "32",
        "value": "t_bool"
      },
      "t_mapping(t_address,t_mapping(t_address,t_uint256))": {
        "encoding": "mapping",
        "key": "t_address",
        "label": "mapping(address => mapping(address => uint256))",
        "numberOfBytes": "32",
        "value": "t_mapping(t_address,t_uint256)"
      },
      "t_mapping(t_address,t_uint256)": {
        "encoding": "mapping",
        "key": "t_address",
        "label": "mapping(address => uint256)",
        "numberOfBytes": "32",
        "value": "t_uint256"
      },
      "t_string_storage": {
        "encoding": "bytes",
        "label": "string",
        "numberOfBytes": "32"
      },
      "t_uint256": {
        "encoding": "inplace",
        "label": "uint256",
        "numberOfBytes": "32"
      },
      "t_uint8": {
        "encoding": "inplace",
        "label": "uint8",
        "numberOfBytes": "1"
      }
    }
  }
}