{
  "_format": "hh-sol-artifact-1",
  "contractName": "LotteryFactory",
  "sourceName": "contracts/lottery/LotteryFactory.sol",
  "abi": [
    {
      "inputs": [
        {
          "internalType": "address",
          "name": "_duel",
          "type": "address"
        },
        {
          "internalType": "address",
          "name": "_dev",
          "type": "address"
        }
      ],
      "stateMutability": "nonpayable",
      "type": "constructor"
    },
    {
      "anonymous": false,
      "inputs": [
        {
          "indexed": false,
          "internalType": "address",
          "name": "lottery",
          "type": "address"
        }
      ],
      "name": "LotteryCreated",
      "type": "event"
    },
    {
      "anonymous": false,
      "inputs": [
        {
          "indexed": true,
          "internalType": "address",
          "name": "previousOwner",
          "type": "address"
        },
        {
          "indexed": true,
          "internalType": "address",
          "name": "newOwner",
          "type": "address"
        }
      ],
      "name": "OwnershipTransferred",
      "type": "event"
    },
    {
      "inputs": [],
      "name": "DEV",
      "outputs": [
        {
          "internalType": "address",
          "name": "",
          "type": "address"
        }
      ],
      "stateMutability": "view",
      "type": "function"
    },
    {
      "inputs": [],
      "name": "DUEL",
      "outputs": [
        {
          "internalType": "address",
          "name": "",
          "type": "address"
        }
      ],
      "stateMutability": "view",
      "type": "function"
    },
    {
      "inputs": [
        {
          "internalType": "address",
          "name": "_address",
          "type": "address"
        }
      ],
      "name": "deleteInstance",
      "outputs": [],
      "stateMutability": "nonpayable",
      "type": "function"
    },
    {
      "inputs": [
        {
          "internalType": "uint256",
          "name": "_supply",
          "type": "uint256"
        },
        {
          "internalType": "uint256",
          "name": "_price",
          "type": "uint256"
        },
        {
          "internalType": "uint256",
          "name": "_start",
          "type": "uint256"
        },
        {
          "internalType": "uint256",
          "name": "_end",
          "type": "uint256"
        },
        {
          "internalType": "uint256",
          "name": "_cap",
          "type": "uint256"
        }
      ],
      "name": "deployInstance",
      "outputs": [],
      "stateMutability": "nonpayable",
      "type": "function"
    },
    {
      "inputs": [],
      "name": "getLotteries",
      "outputs": [
        {
          "internalType": "address[]",
          "name": "result",
          "type": "address[]"
        }
      ],
      "stateMutability": "view",
      "type": "function"
    },
    {
      "inputs": [],
      "name": "owner",
      "outputs": [
        {
          "internalType": "address",
          "name": "",
          "type": "address"
        }
      ],
      "stateMutability": "view",
      "type": "function"
    },
    {
      "inputs": [],
      "name": "renounceOwnership",
      "outputs": [],
      "stateMutability": "nonpayable",
      "type": "function"
    },
    {
      "inputs": [
        {
          "internalType": "address",
          "name": "newOwner",
          "type": "address"
        }
      ],
      "name": "transferOwnership",
      "outputs": [],
      "stateMutability": "nonpayable",
      "type": "function"
    }
  ],
  "bytecode": "0x60c060405234801561001057600080fd5b5060405161247538038061247583398101604081905261002f916100fa565b60006100396100f6565b600080546001600160a01b0319166001600160a01b0383169081178255604051929350917f8be0079c531659141344cd1fd0a4f28419497f9722a3daafe3b4186f6b6457e0908290a3506001600160a01b0382166100b25760405162461bcd60e51b81526004016100a990610168565b60405180910390fd5b6001600160a01b0381166100d85760405162461bcd60e51b81526004016100a990610133565b6001600160601b0319606092831b8116608052911b1660a0526101c2565b3390565b6000806040838503121561010c578182fd5b8251610117816101aa565b6020840151909250610128816101aa565b809150509250929050565b6020808252818101527f4c6f7474657279466163746f72793a205a65726f206465762061646472657373604082015260600190565b60208082526022908201527f4c6f7474657279466163746f72793a205a65726f20746f6b656e206164647265604082015261737360f01b606082015260800190565b6001600160a01b03811681146101bf57600080fd5b50565b60805160601c60a05160601c6122806101f56000398061026d528061046b52508061024c528061048f52506122806000f3fe60806040523480156200001157600080fd5b5060043610620000945760003560e01c8063bcc82ec41162000063578063bcc82ec414620000f5578063c1eb5ddd146200010e578063dd0d145f1462000118578063f2fde38b14620001225762000094565b80631d0793c414620000995780634751cd8014620000b2578063715018a614620000c95780638da5cb5b14620000d3575b600080fd5b620000b0620000aa3660046200075f565b62000139565b005b620000b0620000c33660046200078f565b62000199565b620000b062000321565b620000dd620003b1565b604051620000ec9190620007ca565b60405180910390f35b620000ff620003c0565b604051620000ec919062000825565b620000dd62000469565b620000dd6200048d565b620000b0620001333660046200075f565b620004b1565b620001436200057b565b6001600160a01b031662000156620003b1565b6001600160a01b031614620001885760405162461bcd60e51b81526004016200017f90620009be565b60405180910390fd5b620001956001826200057f565b5050565b620001a36200057b565b6001600160a01b0316620001b6620003b1565b6001600160a01b031614620001df5760405162461bcd60e51b81526004016200017f90620009be565b60008511620002025760405162461bcd60e51b81526004016200017f9062000933565b60008411620002255760405162461bcd60e51b81526004016200017f90620008fc565b818310620002475760405162461bcd60e51b81526004016200017f906200096a565b6000337f00000000000000000000000000000000000000000000000000000000000000007f000000000000000000000000000000000000000000000000000000000000000088888888886040516200029f9062000751565b620002b2989796959493929190620007de565b604051809103906000f080158015620002cf573d6000803e3d6000fd5b509050620002df6001826200059f565b507fe610764cbcba803247df3450b7492f6a0084b7b5b734a7901c13fef8f84ffaf481604051620003119190620007ca565b60405180910390a1505050505050565b6200032b6200057b565b6001600160a01b03166200033e620003b1565b6001600160a01b031614620003675760405162461bcd60e51b81526004016200017f90620009be565b600080546040516001600160a01b03909116907f8be0079c531659141344cd1fd0a4f28419497f9722a3daafe3b4186f6b6457e0908390a3600080546001600160a01b0319169055565b6000546001600160a01b031690565b6060620003ce6001620005b6565b67ffffffffffffffff81118015620003e557600080fd5b5060405190808252806020026020018201604052801562000410578160200160208202803683370190505b50905060005b620004226001620005b6565b811015620004655762000437600182620005c3565b8282815181106200044457fe5b6001600160a01b039092166020928302919091019091015260010162000416565b5090565b7f000000000000000000000000000000000000000000000000000000000000000081565b7f000000000000000000000000000000000000000000000000000000000000000081565b620004bb6200057b565b6001600160a01b0316620004ce620003b1565b6001600160a01b031614620004f75760405162461bcd60e51b81526004016200017f90620009be565b6001600160a01b038116620005205760405162461bcd60e51b81526004016200017f90620008b6565b600080546040516001600160a01b03808516939216917f8be0079c531659141344cd1fd0a4f28419497f9722a3daafe3b4186f6b6457e091a3600080546001600160a01b0319166001600160a01b0392909216919091179055565b3390565b600062000596836001600160a01b038416620005d1565b90505b92915050565b600062000596836001600160a01b0384166200069d565b60006200059982620006ec565b6000620005968383620006f0565b600081815260018301602052604081205480156200069257835460001980830191908101906000908790839081106200060657fe5b90600052602060002001549050808760000184815481106200062457fe5b6000918252602080832090910192909255828152600189810190925260409020908401905586548790806200065557fe5b6001900381819060005260206000200160009055905586600101600087815260200190815260200160002060009055600194505050505062000599565b600091505062000599565b6000620006ab838362000739565b620006e35750815460018181018455600084815260208082209093018490558454848252828601909352604090209190915562000599565b50600062000599565b5490565b81546000908210620007165760405162461bcd60e51b81526004016200017f9062000874565b8260000182815481106200072657fe5b9060005260206000200154905092915050565b60009081526001919091016020526040902054151590565b61185780620009f483390190565b60006020828403121562000771578081fd5b81356001600160a01b038116811462000788578182fd5b9392505050565b600080600080600060a08688031215620007a7578081fd5b505083359560208501359550604085013594606081013594506080013592509050565b6001600160a01b0391909116815260200190565b6001600160a01b03988916815296881660208801529490961660408601526060850192909252608084015260a083015260c082019290925260e08101919091526101000190565b6020808252825182820181905260009190848201906040850190845b81811015620008685783516001600160a01b03168352928401929184019160010162000841565b50909695505050505050565b60208082526022908201527f456e756d657261626c655365743a20696e646578206f7574206f6620626f756e604082015261647360f01b606082015260800190565b60208082526026908201527f4f776e61626c653a206e6577206f776e657220697320746865207a65726f206160408201526564647265737360d01b606082015260800190565b6020808252601a908201527f4c6f7474657279466163746f72793a205a65726f207072696365000000000000604082015260600190565b6020808252601b908201527f4c6f7474657279466163746f72793a205a65726f20737570706c790000000000604082015260600190565b60208082526034908201527f4c6f7474657279466163746f72793a2053746172742074696d652073686f756c60408201527364206265206265666f726520656e642074696d6560601b606082015260800190565b6020808252818101527f4f776e61626c653a2063616c6c6572206973206e6f7420746865206f776e657260408201526060019056fe60c06040526009805460ff191690553480156200001b57600080fd5b5060405162001857380380620018578339810160408190526200003e916200027c565b60006200004a62000192565b600080546001600160a01b0319166001600160a01b03831690811782556040519293509160008051602062001837833981519152908290a3506001600160a01b038716620000b55760405162461bcd60e51b8152600401620000ac90620002f9565b60405180910390fd5b6001600160a01b038616620000de5760405162461bcd60e51b8152600401620000ac90620003e2565b60008511620001015760405162461bcd60e51b8152600401620000ac9062000419565b60008411620001245760405162461bcd60e51b8152600401620000ac9062000376565b818310620001465760405162461bcd60e51b8152600401620000ac9062000450565b6001600160601b0319606088811b821660805287901b1660a05260018590556002849055600383905560048290556005819055620001848862000196565b5050505050505050620004a1565b3390565b620001a062000192565b6001600160a01b0316620001b36200024f565b6001600160a01b031614620001dc5760405162461bcd60e51b8152600401620000ac90620003ad565b6001600160a01b038116620002055760405162461bcd60e51b8152600401620000ac9062000330565b600080546040516001600160a01b03808516939216916000805160206200183783398151915291a3600080546001600160a01b0319166001600160a01b0392909216919091179055565b6000546001600160a01b031690565b80516001600160a01b03811681146200027657600080fd5b92915050565b600080600080600080600080610100898b03121562000299578384fd5b620002a58a8a6200025e565b9750620002b68a60208b016200025e565b9650620002c78a60408b016200025e565b9550606089015194506080890151935060a0890151925060c0890151915060e089015190509295985092959890939650565b6020808252601f908201527f4475656c4c6f74746572793a205a65726f20746f6b656e206164647265737300604082015260600190565b60208082526026908201527f4f776e61626c653a206e6577206f776e657220697320746865207a65726f206160408201526564647265737360d01b606082015260800190565b60208082526017908201527f4475656c4c6f74746572793a205a65726f207072696365000000000000000000604082015260600190565b6020808252818101527f4f776e61626c653a2063616c6c6572206973206e6f7420746865206f776e6572604082015260600190565b6020808252601d908201527f4475656c4c6f74746572793a205a65726f206465762061646472657373000000604082015260600190565b60208082526018908201527f4475656c4c6f74746572793a205a65726f20737570706c790000000000000000604082015260600190565b60208082526031908201527f4475656c4c6f74746572793a2053746172742074696d652073686f756c64206260408201527065206265666f726520656e642074696d6560781b606082015260800190565b60805160601c60a05160601c611353620004e46000398061054052806108c752508061040a528061051e528061074b528061088152806109c952506113536000f3fe608060405234801561001057600080fd5b50600436106101375760003560e01c806378e97925116100b8578063c1eb5ddd1161007c578063c1eb5ddd1461021d578063ccb98ffc14610225578063d2941c7f14610238578063d5cf5c721461024b578063dd0d145f1461025e578063f2fde38b1461026657610137565b806378e97925146101ea57806380017f4e146101f2578063859bd0f0146102055780638da5cb5b1461020d578063906a26e01461021557610137565b80633e0a322d116100ff5780633e0a322d146101aa57806344eb5392146101bd5780635d83c2b8146101d2578063715018a6146101da578063771282f6146101e257610137565b8063023697f01461013c5780631209b1f6146101515780632d9feae61461016f5780633197cbb614610182578063365b98b21461018a575b600080fd5b61014f61014a366004610d8d565b610279565b005b6101596104cc565b60405161016691906112e4565b60405180910390f35b61014f61017d366004610d5d565b6104d2565b610159610568565b61019d610198366004610d5d565b61056e565b6040516101669190610dca565b61014f6101b8366004610d5d565b610595565b6101c5610619565b6040516101669190610e1b565b610159610622565b61014f610628565b6101596106b1565b6101596106b7565b610159610200366004610d16565b6106bd565b61014f6106cf565b61019d6108b0565b6101596108bf565b61019d6108c5565b61014f610233366004610d5d565b6108e9565b610159610246366004610d5d565b61096d565b61014f610259366004610d5d565b610983565b61019d6109c7565b61014f610274366004610d16565b6109eb565b61028233610aab565b156102a85760405162461bcd60e51b815260040161029f90611037565b60405180910390fd5b3332146102c75760405162461bcd60e51b815260040161029f90611258565b60095460ff16156102ea5760405162461bcd60e51b815260040161029f90610e59565b60035442101561030c5760405162461bcd60e51b815260040161029f90611078565b600454421061032d5760405162461bcd60e51b815260040161029f90610fd0565b6001546006546103409060ff8416610ab1565b111561035e5760405162461bcd60e51b815260040161029f906111ca565b600061036c8260ff1661096d565b3360009081526007602052604090205490915061038c9060ff8416610ab1565b336000818152600760205260408120929092556008805460018101825592527ff3f7a9fe364faab93b216da50a3214154f22a0a2b415b23a84c8169e8b636ee390910180546001600160a01b03191690911790556006546103f09060ff8416610ab1565b6006556040516323b872dd60e01b81526001600160a01b037f000000000000000000000000000000000000000000000000000000000000000016906323b872dd9061044390339030908690600401610dde565b602060405180830381600087803b15801561045d57600080fd5b505af1158015610471573d6000803e3d6000fd5b505050506040513d601f19601f820116820180604052508101906104959190610d3d565b50604051819060ff84169033907f97fac0ce6558f4accbb4696915809c0ef7023ffe7ba9454e94d49fb652aae1d590600090a45050565b60025481565b6104da610add565b6001600160a01b03166104eb6108b0565b6001600160a01b0316146105115760405162461bcd60e51b815260040161029f906110f0565b6105656001600160a01b037f0000000000000000000000000000000000000000000000000000000000000000167f000000000000000000000000000000000000000000000000000000000000000083610ae1565b50565b60045481565b6008818154811061057b57fe5b6000918252602090912001546001600160a01b0316905081565b61059d610add565b6001600160a01b03166105ae6108b0565b6001600160a01b0316146105d45760405162461bcd60e51b815260040161029f906110f0565b4281116105f35760405162461bcd60e51b815260040161029f9061129f565b60045481106106145760405162461bcd60e51b815260040161029f90611000565b600355565b60095460ff1681565b60015481565b610630610add565b6001600160a01b03166106416108b0565b6001600160a01b0316146106675760405162461bcd60e51b815260040161029f906110f0565b600080546040516001600160a01b03909116907f8be0079c531659141344cd1fd0a4f28419497f9722a3daafe3b4186f6b6457e0908390a3600080546001600160a01b0319169055565b60065481565b60035481565b60076020526000908152604090205481565b6106d7610add565b6001600160a01b03166106e86108b0565b6001600160a01b03161461070e5760405162461bcd60e51b815260040161029f906110f0565b60095460ff16156107315760405162461bcd60e51b815260040161029f90610ed6565b6005546040516370a0823160e01b81526001600160a01b037f000000000000000000000000000000000000000000000000000000000000000016906370a0823190610780903090600401610dca565b60206040518083038186803b15801561079857600080fd5b505afa1580156107ac573d6000803e3d6000fd5b505050506040513d601f19601f820116820180604052508101906107d09190610d75565b106107ed5760405162461bcd60e51b815260040161029f9061115c565b6009805460ff1916600117905560005b600854811015610565576108a86008828154811061081757fe5b9060005260206000200160009054906101000a90046001600160a01b0316610877600254600760006008878154811061084c57fe5b60009182526020808320909101546001600160a01b0316835282019290925260400190205490610b3c565b6001600160a01b037f0000000000000000000000000000000000000000000000000000000000000000169190610ae1565b6001016107fd565b6000546001600160a01b031690565b60055481565b7f000000000000000000000000000000000000000000000000000000000000000081565b6108f1610add565b6001600160a01b03166109026108b0565b6001600160a01b0316146109285760405162461bcd60e51b815260040161029f906110f0565b4281116109475760405162461bcd60e51b815260040161029f90610f0d565b60035481116109685760405162461bcd60e51b815260040161029f90611125565b600455565b60025460009061097d9083610b3c565b92915050565b61098b610add565b6001600160a01b031661099c6108b0565b6001600160a01b0316146109c25760405162461bcd60e51b815260040161029f906110f0565b600555565b7f000000000000000000000000000000000000000000000000000000000000000081565b6109f3610add565b6001600160a01b0316610a046108b0565b6001600160a01b031614610a2a5760405162461bcd60e51b815260040161029f906110f0565b6001600160a01b038116610a505760405162461bcd60e51b815260040161029f90610e90565b600080546040516001600160a01b03808516939216917f8be0079c531659141344cd1fd0a4f28419497f9722a3daafe3b4186f6b6457e091a3600080546001600160a01b0319166001600160a01b0392909216919091179055565b3b151590565b600082820183811015610ad65760405162461bcd60e51b815260040161029f90610f53565b9392505050565b3390565b610b378363a9059cbb60e01b8484604051602401610b00929190610e02565b60408051601f198184030181529190526020810180516001600160e01b03166001600160e01b031990931692909217909152610b76565b505050565b600082610b4b5750600061097d565b82820282848281610b5857fe5b0414610ad65760405162461bcd60e51b815260040161029f906110af565b6060610bcb826040518060400160405280602081526020017f5361666545524332303a206c6f772d6c6576656c2063616c6c206661696c6564815250856001600160a01b0316610c059092919063ffffffff16565b805190915015610b375780806020019051810190610be99190610d3d565b610b375760405162461bcd60e51b815260040161029f9061120e565b6060610c148484600085610c1c565b949350505050565b606082471015610c3e5760405162461bcd60e51b815260040161029f90610f8a565b610c4785610aab565b610c635760405162461bcd60e51b815260040161029f90611193565b60006060866001600160a01b03168587604051610c809190610dae565b60006040518083038185875af1925050503d8060008114610cbd576040519150601f19603f3d011682016040523d82523d6000602084013e610cc2565b606091505b5091509150610cd2828286610cdd565b979650505050505050565b60608315610cec575081610ad6565b825115610cfc5782518084602001fd5b8160405162461bcd60e51b815260040161029f9190610e26565b600060208284031215610d27578081fd5b81356001600160a01b0381168114610ad6578182fd5b600060208284031215610d4e578081fd5b81518015158114610ad6578182fd5b600060208284031215610d6e578081fd5b5035919050565b600060208284031215610d86578081fd5b5051919050565b600060208284031215610d9e578081fd5b813560ff81168114610ad6578182fd5b60008251610dc08184602087016112ed565b9190910192915050565b6001600160a01b0391909116815260200190565b6001600160a01b039384168152919092166020820152604081019190915260600190565b6001600160a01b03929092168252602082015260400190565b901515815260200190565b6000602082528251806020840152610e458160408501602087016112ed565b601f01601f19169190910160400192915050565b6020808252601e908201527f4475656c4c6f74746572793a204c6f74746572792063616e63656c6c65640000604082015260600190565b60208082526026908201527f4f776e61626c653a206e6577206f776e657220697320746865207a65726f206160408201526564647265737360d01b606082015260800190565b6020808252601e908201527f4475656c4c6f74746572793a20416c72656164792063616e63656c6c65640000604082015260600190565b60208082526026908201527f4475656c4c6f74746572793a204c6f747465727920686173206265656e2066696040820152651b9a5cda195960d21b606082015260800190565b6020808252601b908201527f536166654d6174683a206164646974696f6e206f766572666c6f770000000000604082015260600190565b60208082526026908201527f416464726573733a20696e73756666696369656e742062616c616e636520666f6040820152651c8818d85b1b60d21b606082015260800190565b602080825260169082015275111d595b131bdd1d195c9e4e8812185cc8195b99195960521b604082015260600190565b6020808252601f908201527f4475656c4c6f74746572793a20496e76616c69642073746172742074696d6500604082015260600190565b60208082526021908201527f4475656c4c6f74746572793a20436f6e7472616374206e6f7420616c6c6f77656040820152601960fa1b606082015260800190565b60208082526018908201527f4475656c4c6f74746572793a204e6f7420737461727465640000000000000000604082015260600190565b60208082526021908201527f536166654d6174683a206d756c7469706c69636174696f6e206f766572666c6f6040820152607760f81b606082015260800190565b6020808252818101527f4f776e61626c653a2063616c6c6572206973206e6f7420746865206f776e6572604082015260600190565b6020808252601d908201527f4475656c4c6f74746572793a20496e76616c696420656e642074696d65000000604082015260600190565b60208082526018908201527f4475656c4c6f74746572793a2043617020726561636865640000000000000000604082015260600190565b6020808252601d908201527f416464726573733a2063616c6c20746f206e6f6e2d636f6e7472616374000000604082015260600190565b60208082526024908201527f4475656c4c6f74746572793a204e6f7420656e6f756768207469636b657473206040820152631b19599d60e21b606082015260800190565b6020808252602a908201527f5361666545524332303a204552433230206f7065726174696f6e20646964206e6040820152691bdd081cdd58d8d9595960b21b606082015260800190565b60208082526027908201527f4475656c4c6f74746572793a2050726f787920636f6e7472616374206e6f7420604082015266185b1b1bddd95960ca1b606082015260800190565b60208082526025908201527f4475656c4c6f74746572793a204c6f747465727920686173206265656e207374604082015264185c9d195960da1b606082015260800190565b90815260200190565b60005b838110156113085781810151838201526020016112f0565b83811115611317576000848401525b5050505056fea264697066735822122009acbd66f86bdde2edd4810170d240e7624c17385e0b8cd2bf3c79c1b4200bff64736f6c634300060c00338be0079c531659141344cd1fd0a4f28419497f9722a3daafe3b4186f6b6457e0a264697066735822122022365a170e29a0ba7bccad34cd85d1ecf840483eacb05f1a772dc3e9291a2e9b64736f6c634300060c0033",
  "linkReferences": {},
  "deployedLinkReferences": {}
}