{
  "address": "0x745c546b7a6733e1c4e63884Dd1326E67f7B84a5",
  "abi": [
    {
      "inputs": [
        {
          "internalType": "contract HepaToken",
          "name": "_govToken",
          "type": "address"
        },
        {
          "internalType": "address",
          "name": "_devaddr",
          "type": "address"
        },
        {
          "internalType": "uint256",
          "name": "_rewardPerBlock",
          "type": "uint256"
        },
        {
          "internalType": "uint256",
          "name": "_startBlock",
          "type": "uint256"
        },
        {
          "internalType": "uint256",
          "name": "_halvingAfterBlock",
          "type": "uint256"
        },
        {
          "internalType": "uint256[]",
          "name": "_rewardMultiplier",
          "type": "uint256[]"
        },
        {
          "internalType": "uint256[]",
          "name": "_blockDeltaStartStage",
          "type": "uint256[]"
        },
        {
          "internalType": "uint256[]",
          "name": "_blockDeltaEndStage",
          "type": "uint256[]"
        },
        {
          "internalType": "uint256[]",
          "name": "_userFeeStage",
          "type": "uint256[]"
        },
        {
          "internalType": "uint256[]",
          "name": "_devFeeStage",
          "type": "uint256[]"
        }
      ],
      "stateMutability": "nonpayable",
      "type": "constructor"
    },
    {
      "anonymous": false,
      "inputs": [
        {
          "indexed": true,
          "internalType": "address",
          "name": "user",
          "type": "address"
        },
        {
          "indexed": true,
          "internalType": "uint256",
          "name": "pid",
          "type": "uint256"
        },
        {
          "indexed": false,
          "internalType": "uint256",
          "name": "amount",
          "type": "uint256"
        }
      ],
      "name": "Deposit",
      "type": "event"
    },
    {
      "anonymous": false,
      "inputs": [
        {
          "indexed": true,
          "internalType": "address",
          "name": "user",
          "type": "address"
        },
        {
          "indexed": true,
          "internalType": "uint256",
          "name": "pid",
          "type": "uint256"
        },
        {
          "indexed": false,
          "internalType": "uint256",
          "name": "amount",
          "type": "uint256"
        }
      ],
      "name": "EmergencyWithdraw",
      "type": "event"
    },
    {
      "anonymous": false,
      "inputs": [
        {
          "indexed": true,
          "internalType": "address",
          "name": "previousOwner",
          "type": "address"
        },
        {
          "indexed": true,
          "internalType": "address",
          "name": "newOwner",
          "type": "address"
        }
      ],
      "name": "OwnershipTransferred",
      "type": "event"
    },
    {
      "anonymous": false,
      "inputs": [
        {
          "indexed": true,
          "internalType": "address",
          "name": "user",
          "type": "address"
        },
        {
          "indexed": true,
          "internalType": "uint256",
          "name": "pid",
          "type": "uint256"
        },
        {
          "indexed": false,
          "internalType": "uint256",
          "name": "amount",
          "type": "uint256"
        },
        {
          "indexed": false,
          "internalType": "uint256",
          "name": "lockAmount",
          "type": "uint256"
        }
      ],
      "name": "SendHepaTokenReward",
      "type": "event"
    },
    {
      "anonymous": false,
      "inputs": [
        {
          "indexed": true,
          "internalType": "address",
          "name": "user",
          "type": "address"
        },
        {
          "indexed": true,
          "internalType": "uint256",
          "name": "pid",
          "type": "uint256"
        },
        {
          "indexed": false,
          "internalType": "uint256",
          "name": "amount",
          "type": "uint256"
        }
      ],
      "name": "Withdraw",
      "type": "event"
    },
    {
      "inputs": [],
      "name": "FINISH_BONUS_AT_BLOCK",
      "outputs": [
        {
          "internalType": "uint256",
          "name": "",
          "type": "uint256"
        }
      ],
      "stateMutability": "view",
      "type": "function"
    },
    {
      "inputs": [
        {
          "internalType": "uint256",
          "name": "",
          "type": "uint256"
        }
      ],
      "name": "HALVING_AT_BLOCK",
      "outputs": [
        {
          "internalType": "uint256",
          "name": "",
          "type": "uint256"
        }
      ],
      "stateMutability": "view",
      "type": "function"
    },
    {
      "inputs": [],
      "name": "PERCENT_LOCK_BONUS_REWARD",
      "outputs": [
        {
          "internalType": "uint256",
          "name": "",
          "type": "uint256"
        }
      ],
      "stateMutability": "view",
      "type": "function"
    },
    {
      "inputs": [
        {
          "internalType": "uint256",
          "name": "",
          "type": "uint256"
        }
      ],
      "name": "REWARD_MULTIPLIER",
      "outputs": [
        {
          "internalType": "uint256",
          "name": "",
          "type": "uint256"
        }
      ],
      "stateMutability": "view",
      "type": "function"
    },
    {
      "inputs": [],
      "name": "REWARD_PER_BLOCK",
      "outputs": [
        {
          "internalType": "uint256",
          "name": "",
          "type": "uint256"
        }
      ],
      "stateMutability": "view",
      "type": "function"
    },
    {
      "inputs": [],
      "name": "START_BLOCK",
      "outputs": [
        {
          "internalType": "uint256",
          "name": "",
          "type": "uint256"
        }
      ],
      "stateMutability": "view",
      "type": "function"
    },
    {
      "inputs": [
        {
          "internalType": "uint256",
          "name": "_allocPoint",
          "type": "uint256"
        },
        {
          "internalType": "contract IERC20",
          "name": "_lpToken",
          "type": "address"
        },
        {
          "internalType": "bool",
          "name": "_withUpdate",
          "type": "bool"
        }
      ],
      "name": "add",
      "outputs": [],
      "stateMutability": "nonpayable",
      "type": "function"
    },
    {
      "inputs": [
        {
          "internalType": "address",
          "name": "_toAdd",
          "type": "address"
        }
      ],
      "name": "addAuthorized",
      "outputs": [],
      "stateMutability": "nonpayable",
      "type": "function"
    },
    {
      "inputs": [
        {
          "internalType": "address",
          "name": "",
          "type": "address"
        }
      ],
      "name": "authorized",
      "outputs": [
        {
          "internalType": "bool",
          "name": "",
          "type": "bool"
        }
      ],
      "stateMutability": "view",
      "type": "function"
    },
    {
      "inputs": [
        {
          "internalType": "uint256",
          "name": "",
          "type": "uint256"
        }
      ],
      "name": "blockDeltaEndStage",
      "outputs": [
        {
          "internalType": "uint256",
          "name": "",
          "type": "uint256"
        }
      ],
      "stateMutability": "view",
      "type": "function"
    },
    {
      "inputs": [
        {
          "internalType": "uint256",
          "name": "",
          "type": "uint256"
        }
      ],
      "name": "blockDeltaStartStage",
      "outputs": [
        {
          "internalType": "uint256",
          "name": "",
          "type": "uint256"
        }
      ],
      "stateMutability": "view",
      "type": "function"
    },
    {
      "inputs": [
        {
          "internalType": "uint256",
          "name": "_newFinish",
          "type": "uint256"
        }
      ],
      "name": "bonusFinishUpdate",
      "outputs": [],
      "stateMutability": "nonpayable",
      "type": "function"
    },
    {
      "inputs": [
        {
          "internalType": "uint256",
          "name": "_pid",
          "type": "uint256"
        }
      ],
      "name": "claimReward",
      "outputs": [],
      "stateMutability": "nonpayable",
      "type": "function"
    },
    {
      "inputs": [
        {
          "internalType": "uint256[]",
          "name": "_pids",
          "type": "uint256[]"
        }
      ],
      "name": "claimRewards",
      "outputs": [],
      "stateMutability": "nonpayable",
      "type": "function"
    },
    {
      "inputs": [
        {
          "internalType": "uint256",
          "name": "_pid",
          "type": "uint256"
        },
        {
          "internalType": "uint256",
          "name": "_amount",
          "type": "uint256"
        }
      ],
      "name": "deposit",
      "outputs": [],
      "stateMutability": "nonpayable",
      "type": "function"
    },
    {
      "inputs": [
        {
          "internalType": "address",
          "name": "_devaddr",
          "type": "address"
        }
      ],
      "name": "dev",
      "outputs": [],
      "stateMutability": "nonpayable",
      "type": "function"
    },
    {
      "inputs": [
        {
          "internalType": "uint256",
          "name": "",
          "type": "uint256"
        }
      ],
      "name": "devFeeStage",
      "outputs": [
        {
          "internalType": "uint256",
          "name": "",
          "type": "uint256"
        }
      ],
      "stateMutability": "view",
      "type": "function"
    },
    {
      "inputs": [],
      "name": "devaddr",
      "outputs": [
        {
          "internalType": "address",
          "name": "",
          "type": "address"
        }
      ],
      "stateMutability": "view",
      "type": "function"
    },
    {
      "inputs": [
        {
          "internalType": "uint256",
          "name": "_pid",
          "type": "uint256"
        }
      ],
      "name": "emergencyWithdraw",
      "outputs": [],
      "stateMutability": "nonpayable",
      "type": "function"
    },
    {
      "inputs": [
        {
          "internalType": "address",
          "name": "_user",
          "type": "address"
        }
      ],
      "name": "getGlobalAmount",
      "outputs": [
        {
          "internalType": "uint256",
          "name": "",
          "type": "uint256"
        }
      ],
      "stateMutability": "view",
      "type": "function"
    },
    {
      "inputs": [
        {
          "internalType": "uint256",
          "name": "_from",
          "type": "uint256"
        },
        {
          "internalType": "uint256",
          "name": "_to",
          "type": "uint256"
        }
      ],
      "name": "getMultiplier",
      "outputs": [
        {
          "internalType": "uint256",
          "name": "",
          "type": "uint256"
        }
      ],
      "stateMutability": "view",
      "type": "function"
    },
    {
      "inputs": [
        {
          "internalType": "uint256",
          "name": "pid1",
          "type": "uint256"
        }
      ],
      "name": "getNewRewardPerBlock",
      "outputs": [
        {
          "internalType": "uint256",
          "name": "",
          "type": "uint256"
        }
      ],
      "stateMutability": "view",
      "type": "function"
    },
    {
      "inputs": [
        {
          "internalType": "uint256",
          "name": "_from",
          "type": "uint256"
        },
        {
          "internalType": "uint256",
          "name": "_to",
          "type": "uint256"
        },
        {
          "internalType": "uint256",
          "name": "_allocPoint",
          "type": "uint256"
        }
      ],
      "name": "getPoolReward",
      "outputs": [
        {
          "internalType": "uint256",
          "name": "forFarmer",
          "type": "uint256"
        }
      ],
      "stateMutability": "view",
      "type": "function"
    },
    {
      "inputs": [],
      "name": "govToken",
      "outputs": [
        {
          "internalType": "contract HepaToken",
          "name": "",
          "type": "address"
        }
      ],
      "stateMutability": "view",
      "type": "function"
    },
    {
      "inputs": [
        {
          "internalType": "uint256[]",
          "name": "_newHalving",
          "type": "uint256[]"
        }
      ],
      "name": "halvingUpdate",
      "outputs": [],
      "stateMutability": "nonpayable",
      "type": "function"
    },
    {
      "inputs": [
        {
          "internalType": "uint256",
          "name": "_newlock",
          "type": "uint256"
        }
      ],
      "name": "lockUpdate",
      "outputs": [],
      "stateMutability": "nonpayable",
      "type": "function"
    },
    {
      "inputs": [],
      "name": "massUpdatePools",
      "outputs": [],
      "stateMutability": "nonpayable",
      "type": "function"
    },
    {
      "inputs": [],
      "name": "owner",
      "outputs": [
        {
          "internalType": "address",
          "name": "",
          "type": "address"
        }
      ],
      "stateMutability": "view",
      "type": "function"
    },
    {
      "inputs": [
        {
          "internalType": "uint256",
          "name": "_pid",
          "type": "uint256"
        },
        {
          "internalType": "address",
          "name": "_user",
          "type": "address"
        }
      ],
      "name": "pendingReward",
      "outputs": [
        {
          "internalType": "uint256",
          "name": "",
          "type": "uint256"
        }
      ],
      "stateMutability": "view",
      "type": "function"
    },
    {
      "inputs": [
        {
          "internalType": "contract IERC20",
          "name": "",
          "type": "address"
        }
      ],
      "name": "poolExistence",
      "outputs": [
        {
          "internalType": "bool",
          "name": "",
          "type": "bool"
        }
      ],
      "stateMutability": "view",
      "type": "function"
    },
    {
      "inputs": [
        {
          "internalType": "address",
          "name": "",
          "type": "address"
        }
      ],
      "name": "poolId1",
      "outputs": [
        {
          "internalType": "uint256",
          "name": "",
          "type": "uint256"
        }
      ],
      "stateMutability": "view",
      "type": "function"
    },
    {
      "inputs": [
        {
          "internalType": "uint256",
          "name": "",
          "type": "uint256"
        }
      ],
      "name": "poolInfo",
      "outputs": [
        {
          "internalType": "contract IERC20",
          "name": "lpToken",
          "type": "address"
        },
        {
          "internalType": "uint256",
          "name": "allocPoint",
          "type": "uint256"
        },
        {
          "internalType": "uint256",
          "name": "lastRewardBlock",
          "type": "uint256"
        },
        {
          "internalType": "uint256",
          "name": "accGovTokenPerShare",
          "type": "uint256"
        }
      ],
      "stateMutability": "view",
      "type": "function"
    },
    {
      "inputs": [],
      "name": "poolLength",
      "outputs": [
        {
          "internalType": "uint256",
          "name": "",
          "type": "uint256"
        }
      ],
      "stateMutability": "view",
      "type": "function"
    },
    {
      "inputs": [
        {
          "internalType": "address",
          "name": "_newOwner",
          "type": "address"
        }
      ],
      "name": "reclaimTokenOwnership",
      "outputs": [],
      "stateMutability": "nonpayable",
      "type": "function"
    },
    {
      "inputs": [
        {
          "internalType": "address",
          "name": "_toRemove",
          "type": "address"
        }
      ],
      "name": "removeAuthorized",
      "outputs": [],
      "stateMutability": "nonpayable",
      "type": "function"
    },
    {
      "inputs": [],
      "name": "renounceOwnership",
      "outputs": [],
      "stateMutability": "nonpayable",
      "type": "function"
    },
    {
      "inputs": [
        {
          "internalType": "uint256",
          "name": "_pid",
          "type": "uint256"
        },
        {
          "internalType": "address",
          "name": "_user",
          "type": "address"
        },
        {
          "internalType": "uint256",
          "name": "_block",
          "type": "uint256"
        }
      ],
      "name": "reviseDeposit",
      "outputs": [],
      "stateMutability": "nonpayable",
      "type": "function"
    },
    {
      "inputs": [
        {
          "internalType": "uint256",
          "name": "_pid",
          "type": "uint256"
        },
        {
          "internalType": "address",
          "name": "_user",
          "type": "address"
        },
        {
          "internalType": "uint256",
          "name": "_block",
          "type": "uint256"
        }
      ],
      "name": "reviseWithdraw",
      "outputs": [],
      "stateMutability": "nonpayable",
      "type": "function"
    },
    {
      "inputs": [
        {
          "internalType": "uint256[]",
          "name": "_newMulReward",
          "type": "uint256[]"
        }
      ],
      "name": "rewardMulUpdate",
      "outputs": [],
      "stateMutability": "nonpayable",
      "type": "function"
    },
    {
      "inputs": [
        {
          "internalType": "uint256",
          "name": "_newReward",
          "type": "uint256"
        }
      ],
      "name": "rewardUpdate",
      "outputs": [],
      "stateMutability": "nonpayable",
      "type": "function"
    },
    {
      "inputs": [
        {
          "internalType": "uint256",
          "name": "_pid",
          "type": "uint256"
        },
        {
          "internalType": "uint256",
          "name": "_allocPoint",
          "type": "uint256"
        },
        {
          "internalType": "bool",
          "name": "_withUpdate",
          "type": "bool"
        }
      ],
      "name": "set",
      "outputs": [],
      "stateMutability": "nonpayable",
      "type": "function"
    },
    {
      "inputs": [
        {
          "internalType": "uint256[]",
          "name": "_devFees",
          "type": "uint256[]"
        }
      ],
      "name": "setDevFeeStage",
      "outputs": [],
      "stateMutability": "nonpayable",
      "type": "function"
    },
    {
      "inputs": [
        {
          "internalType": "uint256[]",
          "name": "_blockEnds",
          "type": "uint256[]"
        }
      ],
      "name": "setStageEnds",
      "outputs": [],
      "stateMutability": "nonpayable",
      "type": "function"
    },
    {
      "inputs": [
        {
          "internalType": "uint256[]",
          "name": "_blockStarts",
          "type": "uint256[]"
        }
      ],
      "name": "setStageStarts",
      "outputs": [],
      "stateMutability": "nonpayable",
      "type": "function"
    },
    {
      "inputs": [
        {
          "internalType": "uint256[]",
          "name": "_userFees",
          "type": "uint256[]"
        }
      ],
      "name": "setUserFeeStage",
      "outputs": [],
      "stateMutability": "nonpayable",
      "type": "function"
    },
    {
      "inputs": [
        {
          "internalType": "uint256",
          "name": "_newstarblock",
          "type": "uint256"
        }
      ],
      "name": "starblockUpdate",
      "outputs": [],
      "stateMutability": "nonpayable",
      "type": "function"
    },
    {
      "inputs": [],
      "name": "totalAllocPoint",
      "outputs": [
        {
          "internalType": "uint256",
          "name": "",
          "type": "uint256"
        }
      ],
      "stateMutability": "view",
      "type": "function"
    },
    {
      "inputs": [
        {
          "internalType": "address",
          "name": "newOwner",
          "type": "address"
        }
      ],
      "name": "transferOwnership",
      "outputs": [],
      "stateMutability": "nonpayable",
      "type": "function"
    },
    {
      "inputs": [
        {
          "internalType": "uint256",
          "name": "_pid",
          "type": "uint256"
        }
      ],
      "name": "updatePool",
      "outputs": [],
      "stateMutability": "nonpayable",
      "type": "function"
    },
    {
      "inputs": [
        {
          "internalType": "uint256",
          "name": "_pid",
          "type": "uint256"
        }
      ],
      "name": "userDelta",
      "outputs": [
        {
          "internalType": "uint256",
          "name": "",
          "type": "uint256"
        }
      ],
      "stateMutability": "view",
      "type": "function"
    },
    {
      "inputs": [
        {
          "internalType": "uint256",
          "name": "",
          "type": "uint256"
        }
      ],
      "name": "userFeeStage",
      "outputs": [
        {
          "internalType": "uint256",
          "name": "",
          "type": "uint256"
        }
      ],
      "stateMutability": "view",
      "type": "function"
    },
    {
      "inputs": [
        {
          "internalType": "address",
          "name": "",
          "type": "address"
        }
      ],
      "name": "userGlobalInfo",
      "outputs": [
        {
          "internalType": "uint256",
          "name": "globalAmount",
          "type": "uint256"
        }
      ],
      "stateMutability": "view",
      "type": "function"
    },
    {
      "inputs": [
        {
          "internalType": "uint256",
          "name": "",
          "type": "uint256"
        },
        {
          "internalType": "address",
          "name": "",
          "type": "address"
        }
      ],
      "name": "userInfo",
      "outputs": [
        {
          "internalType": "uint256",
          "name": "amount",
          "type": "uint256"
        },
        {
          "internalType": "uint256",
          "name": "rewardDebt",
          "type": "uint256"
        },
        {
          "internalType": "uint256",
          "name": "rewardDebtAtBlock",
          "type": "uint256"
        },
        {
          "internalType": "uint256",
          "name": "lastWithdrawBlock",
          "type": "uint256"
        },
        {
          "internalType": "uint256",
          "name": "firstDepositBlock",
          "type": "uint256"
        },
        {
          "internalType": "uint256",
          "name": "blockdelta",
          "type": "uint256"
        },
        {
          "internalType": "uint256",
          "name": "lastDepositBlock",
          "type": "uint256"
        }
      ],
      "stateMutability": "view",
      "type": "function"
    },
    {
      "inputs": [
        {
          "internalType": "uint256",
          "name": "_pid",
          "type": "uint256"
        },
        {
          "internalType": "uint256",
          "name": "_amount",
          "type": "uint256"
        }
      ],
      "name": "withdraw",
      "outputs": [],
      "stateMutability": "nonpayable",
      "type": "function"
    }
  ],
  "transactionHash": "0x7e02e52b94f0ccae1b5a0aeb92af3b85e98bd02d0316c706fcca6960951aab5a",
  "args": [
    "0xba638f51052b655380E6ea8e857f42b39344ADc7",
    "0x7618ba6355Acf36dD686FD5EbFebA8fEfEf93B71",
    "1000000000000000000",
    9756052,
    1200,
    [
      256,
      128,
      64,
      32,
      16,
      8,
      8,
      8,
      8,
      8,
      8,
      8,
      8,
      8,
      8,
      8,
      8,
      8,
      8,
      8,
      8,
      8,
      8,
      8,
      8,
      8,
      8,
      8,
      8,
      8,
      8,
      8,
      8,
      8,
      8,
      8,
      8,
      8,
      8,
      8,
      8,
      8,
      8,
      8,
      8,
      8,
      8,
      8,
      8,
      8,
      8,
      8,
      8,
      8,
      8,
      8,
      8,
      8,
      8,
      8,
      8,
      8,
      8,
      8,
      8,
      8,
      8,
      8,
      8,
      8,
      8,
      8,
      8,
      8,
      8,
      8,
      8,
      8,
      8,
      8,
      8,
      8,
      8,
      8,
      8,
      8,
      8,
      8,
      8,
      8,
      8,
      8,
      8,
      8,
      8,
      8,
      8,
      8,
      8,
      8,
      8,
      8,
      8,
      8
    ],
    [
      0,
      1,
      1201,
      28801,
      86401,
      144001,
      403201,
      115201
    ],
    [
      1200,
      28800,
      86400,
      144000,
      403200,
      115200
    ],
    [
      75,
      92,
      96,
      98,
      99,
      995,
      9975,
      9999
    ],
    [
      25,
      8,
      4,
      2,
      1,
      5,
      25,
      1
    ]
  ],
  "solcInputHash": "ef67f97080597fd51d8e967a73f1d4f3",
  "bytecode": "0x608060405260006014553480156200001657600080fd5b506040516200390c3803806200390c83398181016040526101408110156200003d57600080fd5b815160208301516040808501516060860151608087015160a0880180519451969895979396929591949293820192846401000000008211156200007f57600080fd5b9083019060208201858111156200009557600080fd5b8251866020820283011164010000000082111715620000b357600080fd5b82525081516020918201928201910280838360005b83811015620000e2578181015183820152602001620000c8565b50505050905001604052602001805160405193929190846401000000008211156200010c57600080fd5b9083019060208201858111156200012257600080fd5b82518660208202830111640100000000821117156200014057600080fd5b82525081516020918201928201910280838360005b838110156200016f57818101518382015260200162000155565b50505050905001604052602001805160405193929190846401000000008211156200019957600080fd5b908301906020820185811115620001af57600080fd5b8251866020820283011164010000000082111715620001cd57600080fd5b82525081516020918201928201910280838360005b83811015620001fc578181015183820152602001620001e2565b50505050905001604052602001805160405193929190846401000000008211156200022657600080fd5b9083019060208201858111156200023c57600080fd5b82518660208202830111640100000000821117156200025a57600080fd5b82525081516020918201928201910280838360005b83811015620002895781810151838201526020016200026f565b5050505090500160405260200180516040519392919084640100000000821115620002b357600080fd5b908301906020820185811115620002c957600080fd5b8251866020820283011164010000000082111715620002e757600080fd5b82525081516020918201928201910280838360005b8381101562000316578181015183820152602001620002fc565b505050509050016040525050506000620003356200051160201b60201c565b600080546001600160a01b0319166001600160a01b0383169081178255604051929350917f8be0079c531659141344cd1fd0a4f28419497f9722a3daafe3b4186f6b6457e0908290a3506001600255600380546001600160a01b03808d166001600160a01b03199283161790925560048054928c16929091169190911790556005889055600d8790558451620003d3906006906020880190620005d7565b508351620003e9906008906020870190620005d7565b508251620003ff906009906020860190620005d7565b5081516200041590600a906020850190620005d7565b5080516200042b90600b906020840190620005d7565b5060005b60065460001901811015620004ae5760006200047c6001620004688b62000468866001018d6200051560201b620029241790919060201c565b6200057c60201b620029841790919060201c565b6007805460018181018355600092909252600080516020620038cb83398151915201919091559190910190506200042f565b50620004d68762000468600160068054905003896200051560201b620029241790919060201c565b600c55505060078054600181018255600091909152600019600080516020620038cb83398151915290910155506200063e9650505050505050565b3390565b600082620005265750600062000576565b828202828482816200053457fe5b0414620005735760405162461bcd60e51b8152600401808060200182810382526021815260200180620038eb6021913960400191505060405180910390fd5b90505b92915050565b60008282018381101562000573576040805162461bcd60e51b815260206004820152601b60248201527f536166654d6174683a206164646974696f6e206f766572666c6f770000000000604482015290519081900360640190fd5b82805482825590600052602060002090810192821562000615579160200282015b8281111562000615578251825591602001919060010190620005f8565b506200062392915062000627565b5090565b5b8082111562000623576000815560010162000628565b61327d806200064e6000396000f3fe608060405234801561001057600080fd5b50600436106103425760003560e01c8063715018a6116101b8578063ae169a5011610104578063cf1c316a116100a2578063d9608d8a1161007c578063d9608d8a14610d16578063e2bbb15814610d3c578063eda6704814610d5f578063f2fde38b14610d8557610342565b8063cf1c316a14610ccb578063d007db2914610cf1578063d49e77cd14610d0e57610342565b8063c8ed7680116100de578063c8ed768014610c39578063cb0b8ca114610c62578063cbd258b514610c7f578063ce2529c914610ca557610342565b8063ae169a5014610bc5578063b918161114610be2578063beff2a5314610c1c57610342565b80638dbb1e3a1161017157806395fdf2581161014b57806395fdf25814610b81578063975532dc14610b89578063980c2a9814610b9157806398969e8214610b9957610342565b80638dbb1e3a14610ad4578063929c697114610af757806393f1a40b14610b1d57610342565b8063715018a61461092a57806382386d5814610932578063847bdaa4146109645780638cc883ce14610a055780638d88a90e14610aa65780638da5cb5b14610acc57610342565b806339b3e8261161029257806351eb05a6116102305780636066debd1161020a5780636066debd146108a85780636245f084146108da578063630b5ba1146108f757806364482f79146108ff57610342565b806351eb05a6146107cd5780635312ea8e146107ea5780635eac62391461080757610342565b8063441a3e701161026c578063441a3e70146106425780634666406414610665578063485d7d94146107065780634af0e3e11461072c57610342565b806339b3e826146106005780633d479cd5146106085780634179b4fb1461062557610342565b80631d465c82116102ff57806324b95c3e116102d957806324b95c3e146104845780632a7b0107146104a15780632fda773514610542578063354affb71461055f57610342565b80631d465c82146104165780631eaaa04514610433578063245b211d1461046757610342565b806301b689c01461034757806305268cff14610366578063081e3eda1461038a57806309ae4d2c146103a45780631526fe27146103c157806317caf6f11461040e575b600080fd5b6103646004803603602081101561035d57600080fd5b5035610dab565b005b61036e610de6565b604080516001600160a01b039092168252519081900360200190f35b610392610df5565b60408051918252519081900360200190f35b610392600480360360208110156103ba57600080fd5b5035610dfb565b6103de600480360360208110156103d757600080fd5b5035610e39565b604080516001600160a01b0390951685526020850193909352838301919091526060830152519081900360800190f35b610392610e7a565b6103926004803603602081101561042c57600080fd5b5035610e80565b6103646004803603606081101561044957600080fd5b508035906001600160a01b0360208201351690604001351515610ef9565b6103646004803603602081101561047d57600080fd5b5035611153565b6103646004803603602081101561049a57600080fd5b503561118e565b610364600480360360208110156104b757600080fd5b810190602081018135600160201b8111156104d157600080fd5b8201836020820111156104e357600080fd5b803590602001918460208302840111600160201b8311171561050457600080fd5b9190808060200260200160405190810160405280939291908181526020018383602002808284376000920191909152509295506111c9945050505050565b6103926004803603602081101561055857600080fd5b5035611216565b6103646004803603602081101561057557600080fd5b810190602081018135600160201b81111561058f57600080fd5b8201836020820111156105a157600080fd5b803590602001918460208302840111600160201b831117156105c257600080fd5b919080806020026020016040519081016040528093929190818152602001838360200280828437600092019190915250929550611234945050505050565b61039261127d565b6103646004803603602081101561061e57600080fd5b5035611283565b6103926004803603602081101561063b57600080fd5b50356112be565b6103646004803603604081101561065857600080fd5b50803590602001356112cb565b6103646004803603602081101561067b57600080fd5b810190602081018135600160201b81111561069557600080fd5b8201836020820111156106a757600080fd5b803590602001918460208302840111600160201b831117156106c857600080fd5b91908080602002602001604051908101604052809392919081815260200183836020028082843760009201919091525092955061190b945050505050565b6103646004803603602081101561071c57600080fd5b50356001600160a01b0316611954565b6103646004803603602081101561074257600080fd5b810190602081018135600160201b81111561075c57600080fd5b82018360208201111561076e57600080fd5b803590602001918460208302840111600160201b8311171561078f57600080fd5b9190808060200260200160405190810160405280939291908181526020018383602002808284376000920191909152509295506119ed945050505050565b610364600480360360208110156107e357600080fd5b5035611a36565b6103646004803603602081101561080057600080fd5b5035611baf565b6103646004803603602081101561081d57600080fd5b810190602081018135600160201b81111561083757600080fd5b82018360208201111561084957600080fd5b803590602001918460208302840111600160201b8311171561086a57600080fd5b919080806020026020016040519081016040528093929190818152602001838360200280828437600092019190915250929550611cfe945050505050565b610364600480360360608110156108be57600080fd5b508035906001600160a01b036020820135169060400135611d2e565b610392600480360360208110156108f057600080fd5b5035611d8d565b610364611d9a565b6103646004803603606081101561091557600080fd5b50803590602081013590604001351515611db9565b610364611e94565b6103646004803603606081101561094857600080fd5b508035906001600160a01b036020820135169060400135611f40565b6103646004803603602081101561097a57600080fd5b810190602081018135600160201b81111561099457600080fd5b8201836020820111156109a657600080fd5b803590602001918460208302840111600160201b831117156109c757600080fd5b919080806020026020016040519081016040528093929190818152602001838360200280828437600092019190915250929550611f9f945050505050565b61036460048036036020811015610a1b57600080fd5b810190602081018135600160201b811115610a3557600080fd5b820183602082011115610a4757600080fd5b803590602001918460208302840111600160201b83111715610a6857600080fd5b919080806020026020016040519081016040528093929190818152602001838360200280828437600092019190915250929550611fe8945050505050565b61036460048036036020811015610abc57600080fd5b50356001600160a01b0316612031565b61036e612089565b61039260048036036040811015610aea57600080fd5b5080359060200135612098565b61039260048036036020811015610b0d57600080fd5b50356001600160a01b0316612194565b610b4960048036036040811015610b3357600080fd5b50803590602001356001600160a01b03166121cc565b604080519788526020880196909652868601949094526060860192909252608085015260a084015260c0830152519081900360e00190f35b61039261221b565b610392612221565b610392612227565b61039260048036036040811015610baf57600080fd5b50803590602001356001600160a01b031661222d565b61036460048036036020811015610bdb57600080fd5b5035612373565b610c0860048036036020811015610bf857600080fd5b50356001600160a01b0316612385565b604080519115158252519081900360200190f35b61039260048036036020811015610c3257600080fd5b503561239a565b61039260048036036060811015610c4f57600080fd5b50803590602081013590604001356123a7565b61039260048036036020811015610c7857600080fd5b50356124ef565b610c0860048036036020811015610c9557600080fd5b50356001600160a01b03166124fc565b61039260048036036020811015610cbb57600080fd5b50356001600160a01b0316612511565b61036460048036036020811015610ce157600080fd5b50356001600160a01b0316612523565b61039260048036036020811015610d0757600080fd5b50356125ac565b61036e6125b9565b61039260048036036020811015610d2c57600080fd5b50356001600160a01b03166125c8565b61036460048036036040811015610d5257600080fd5b50803590602001356125da565b61036460048036036020811015610d7557600080fd5b50356001600160a01b0316612783565b61036460048036036020811015610d9b57600080fd5b50356001600160a01b0316612822565b3360009081526001602052604090205460ff1680610dd8575033610dcd612089565b6001600160a01b0316145b610de157600080fd5b600e55565b6003546001600160a01b031681565b600f5490565b60008181526011602090815260408083203384529091528120600381015415610e2b576003015443039050610e34565b60040154430390505b919050565b600f8181548110610e4657fe5b600091825260209091206004909102018054600182015460028301546003909301546001600160a01b039092169350919084565b60145481565b600080610e906001430343612098565b905082610ead57600554610ea5908290612924565b915050610e34565b610ea5601454610ef3600f6001870381548110610ec657fe5b906000526020600020906004020160010154610eed6005548661292490919063ffffffff16565b90612924565b906129de565b610f01612a45565b6001600160a01b0316610f12612089565b6001600160a01b031614610f5b576040805162461bcd60e51b815260206004820181905260248201526000805160206131d9833981519152604482015290519081900360640190fd5b6001600160a01b038216600090815260136020526040902054829060ff1615610fb55760405162461bcd60e51b81526004018080602001828103825260258152602001806131f96025913960400191505060405180910390fd5b6001600160a01b0383166000908152601060205260409020541561100a5760405162461bcd60e51b81526004018080602001828103825260268152602001806131146026913960400191505060405180910390fd5b811561101857611018611d9a565b6000600d54431161102b57600d5461102d565b435b60145490915061103d9086612984565b601455600f80546001600160a01b0395861660008181526010602090815260408083206001958601905560138252808320805460ff1916861790558051608081018252938452908301998a5282019485526060820181815284549384018555939052517f8d1108e10bcb7c27dddfc02ed9d693a074039d026cf4ea4240b40f7d581ac802600490920291820180546001600160a01b031916919097161790955594517f8d1108e10bcb7c27dddfc02ed9d693a074039d026cf4ea4240b40f7d581ac803850155517f8d1108e10bcb7c27dddfc02ed9d693a074039d026cf4ea4240b40f7d581ac804840155505090517f8d1108e10bcb7c27dddfc02ed9d693a074039d026cf4ea4240b40f7d581ac80590910155565b3360009081526001602052604090205460ff1680611180575033611175612089565b6001600160a01b0316145b61118957600080fd5b600c55565b3360009081526001602052604090205460ff16806111bb5750336111b0612089565b6001600160a01b0316145b6111c457600080fd5b600d55565b3360009081526001602052604090205460ff16806111f65750336111eb612089565b6001600160a01b0316145b6111ff57600080fd5b805161121290600a9060208401906130a0565b5050565b6006818154811061122357fe5b600091825260209091200154905081565b3360009081526001602052604090205460ff1680611261575033611256612089565b6001600160a01b0316145b61126a57600080fd5b80516112129060079060208401906130a0565b600d5481565b3360009081526001602052604090205460ff16806112b05750336112a5612089565b6001600160a01b0316145b6112b957600080fd5b600555565b6007818154811061122357fe5b600280541415611322576040805162461bcd60e51b815260206004820152601f60248201527f5265656e7472616e637947756172643a207265656e7472616e742063616c6c00604482015290519081900360640190fd5b600280819055506000600f838154811061133857fe5b600091825260208083208684526011825260408085203386528352808520601290935290932081546004909302909301935091908411156113c0576040805162461bcd60e51b815260206004820152601e60248201527f4d6173746572486570613a3a77697468647261773a206e6f7420676f6f640000604482015290519081900360640190fd5b80546113cc9085612a49565b81556113d785611a36565b6113e085612aa6565b83156118ff5781546113f29085612a49565b825560038201541561140f5760038201544303600583015561141c565b6004820154430360058301555b600860008154811061142a57fe5b9060005260206000200154826005015414806114495750816006015443145b156114c257611494336114826064610ef3600a60008154811061146857fe5b90600052602060002001548961292490919063ffffffff16565b85546001600160a01b03169190612d2b565b600454600b80546114bd926001600160a01b03169161148291606491610ef39160009061146857fe5b6118a1565b60086001815481106114d057fe5b906000526020600020015482600501541015801561150a575060096000815481106114f757fe5b9060005260206000200154826005015411155b1561155457611529336114826064610ef3600a60018154811061146857fe5b600454600b80546114bd926001600160a01b03169161148291606491610ef391600190811061146857fe5b600860028154811061156257fe5b906000526020600020015482600501541015801561159c5750600960018154811061158957fe5b9060005260206000200154826005015411155b156115e6576115bb336114826064610ef3600a60028154811061146857fe5b600454600b80546114bd926001600160a01b03169161148291606491610ef391600290811061146857fe5b60086003815481106115f457fe5b906000526020600020015482600501541015801561162e5750600960028154811061161b57fe5b9060005260206000200154826005015411155b156116785761164d336114826064610ef3600a60038154811061146857fe5b600454600b80546114bd926001600160a01b03169161148291606491610ef391600390811061146857fe5b600860048154811061168657fe5b90600052602060002001548260050154101580156116c0575060096003815481106116ad57fe5b9060005260206000200154826005015411155b1561170e576116df336114826064610ef3600a60048154811061146857fe5b6114bd600460009054906101000a90046001600160a01b03166114826064610ef3600b60048154811061146857fe5b600860058154811061171c57fe5b90600052602060002001548260050154101580156117565750600960048154811061174357fe5b9060005260206000200154826005015411155b156117a257611776336114826103e8610ef3600a60058154811061146857fe5b600454600b80546114bd926001600160a01b031691611482916103e891610ef391600590811061146857fe5b60086006815481106117b057fe5b90600052602060002001548260050154101580156117ea575060096005815481106117d757fe5b9060005260206000200154826005015411155b156118365761180a33611482612710610ef3600a60068154811061146857fe5b600454600b80546114bd926001600160a01b0316916114829161271091610ef391600690811061146857fe5b600860078154811061184457fe5b9060005260206000200154826005015411156118a15761187533611482612710610ef3600a60078154811061146857fe5b600454600b80546118a1926001600160a01b0316916114829161271091610ef391600790811061146857fe5b600383015482546118bc9164e8d4a5100091610ef391612924565b6001830155604080518581529051869133917ff279e6a1f5e320cca91135676d9cb6e44ca8a08c0b88342bcdb1144f6511b5689181900360200190a34360038301555b50506001600255505050565b3360009081526001602052604090205460ff168061193857503361192d612089565b6001600160a01b0316145b61194157600080fd5b80516112129060069060208401906130a0565b61195c612a45565b6001600160a01b031661196d612089565b6001600160a01b0316146119b6576040805162461bcd60e51b815260206004820181905260248201526000805160206131d9833981519152604482015290519081900360640190fd5b6001600160a01b0381163314156119cc57600080fd5b6001600160a01b03166000908152600160205260409020805460ff19169055565b3360009081526001602052604090205460ff1680611a1a575033611a0f612089565b6001600160a01b0316145b611a2357600080fd5b80516112129060099060208401906130a0565b6000600f8281548110611a4557fe5b9060005260206000209060040201905080600201544311611a665750611bac565b8054604080516370a0823160e01b815230600482015290516000926001600160a01b0316916370a08231916024808301926020929190829003018186803b158015611ab057600080fd5b505afa158015611ac4573d6000803e3d6000fd5b505050506040513d6020811015611ada57600080fd5b5051905080611af0575043600290910155611bac565b6000611b0583600201544385600101546123a7565b600354604080516340c10f1960e01b81523060048201526024810184905290519293506001600160a01b03909116916340c10f199160448082019260009290919082900301818387803b158015611b5b57600080fd5b505af1158015611b6f573d6000803e3d6000fd5b50505050611b9d611b9283610ef364e8d4a510008561292490919063ffffffff16565b600385015490612984565b60038401555050436002909101555b50565b600280541415611c06576040805162461bcd60e51b815260206004820152601f60248201527f5265656e7472616e637947756172643a207265656e7472616e742063616c6c00604482015290519081900360640190fd5b600280819055506000600f8281548110611c1c57fe5b600091825260208083208584526011825260408085203386529092529083208054600490930290910193509190611c5b90606490610ef390604b612924565b90506000611c7c6064610ef36019866000015461292490919063ffffffff16565b600080855560018501558454909150611c9f906001600160a01b03163384612d2b565b6004548454611cbb916001600160a01b03918216911683612d2b565b604080518381529051869133917fbb757047c2b5f3974fe26b7c10f732e7bce710b0952a71082702781e62ae05959181900360200190a350506001600255505050565b60005b815181101561121257611d26828281518110611d1957fe5b6020026020010151612373565b600101611d01565b3360009081526001602052604090205460ff1680611d5b575033611d50612089565b6001600160a01b0316145b611d6457600080fd5b60009283526011602090815260408085206001600160a01b039094168552929052912060030155565b6008818154811061122357fe5b600f5460005b8181101561121257611db181611a36565b600101611da0565b611dc1612a45565b6001600160a01b0316611dd2612089565b6001600160a01b031614611e1b576040805162461bcd60e51b815260206004820181905260248201526000805160206131d9833981519152604482015290519081900360640190fd5b8015611e2957611e29611d9a565b611e6682611e60600f8681548110611e3d57fe5b906000526020600020906004020160010154601454612a4990919063ffffffff16565b90612984565b60148190555081600f8481548110611e7a57fe5b906000526020600020906004020160010181905550505050565b611e9c612a45565b6001600160a01b0316611ead612089565b6001600160a01b031614611ef6576040805162461bcd60e51b815260206004820181905260248201526000805160206131d9833981519152604482015290519081900360640190fd5b600080546040516001600160a01b03909116907f8be0079c531659141344cd1fd0a4f28419497f9722a3daafe3b4186f6b6457e0908390a3600080546001600160a01b0319169055565b3360009081526001602052604090205460ff1680611f6d575033611f62612089565b6001600160a01b0316145b611f7657600080fd5b60009283526011602090815260408085206001600160a01b039094168552929052912060040155565b3360009081526001602052604090205460ff1680611fcc575033611fc1612089565b6001600160a01b0316145b611fd557600080fd5b80516112129060089060208401906130a0565b3360009081526001602052604090205460ff168061201557503361200a612089565b6001600160a01b0316145b61201e57600080fd5b805161121290600b9060208401906130a0565b3360009081526001602052604090205460ff168061205e575033612053612089565b6001600160a01b0316145b61206757600080fd5b600480546001600160a01b0319166001600160a01b0392909216919091179055565b6000546001600160a01b031690565b600d5460009081908410156120b157600091505061218e565b60005b60075481101561218a576000600782815481106120cd57fe5b906000526020600020015490506001600680549050038211156120f6576000935050505061218e565b80851161213c5760006121256006848154811061210f57fe5b600091825260209091200154610eed888a612a49565b90506121318482612984565b94505050505061218e565b8086101561218157600061216c6006848154811061215657fe5b600091825260209091200154610eed848a612a49565b9196508691905061217d8482612984565b9350505b506001016120b4565b5090505b92915050565b600061219e6130eb565b50506001600160a01b0316600090815260126020908152604091829020825191820190925290549081905290565b6011602052816000526040600020602052806000526040600020600091509150508060000154908060010154908060020154908060030154908060040154908060050154908060060154905087565b600e5481565b60055481565b600c5481565b600080600f848154811061223d57fe5b600091825260208083208784526011825260408085206001600160a01b03898116875290845281862060049586029093016003810154815484516370a0823160e01b81523098810198909852935191985093969395939492909116926370a08231926024808301939192829003018186803b1580156122bb57600080fd5b505afa1580156122cf573d6000803e3d6000fd5b505050506040513d60208110156122e557600080fd5b50516002850154909150431180156122fd5750600081115b1561233a57600061231785600201544387600101546123a7565b905061233661232f83610ef38464e8d4a51000612924565b8490612984565b9250505b612368836001015461236264e8d4a51000610ef386886000015461292490919063ffffffff16565b90612a49565b979650505050505050565b61237c81611a36565b611bac81612aa6565b60016020526000908152604090205460ff1681565b600b818154811061122357fe5b6000806123b48585612098565b905060006123d7601454610ef386610eed6005548761292490919063ffffffff16565b905060006124cf600360009054906101000a90046001600160a01b03166001600160a01b03166318160ddd6040518163ffffffff1660e01b815260040160206040518083038186803b15801561242c57600080fd5b505afa158015612440573d6000803e3d6000fd5b505050506040513d602081101561245657600080fd5b505160035460408051631aa93a7560e11b815290516001600160a01b039092169163355274ea91600480820192602092909190829003018186803b15801561249d57600080fd5b505afa1580156124b1573d6000803e3d6000fd5b505050506040513d60208110156124c757600080fd5b505190612a49565b9050818110156124e1578093506124e5565b8193505b5050509392505050565b6009818154811061122357fe5b60136020526000908152604090205460ff1681565b60106020526000908152604090205481565b61252b612a45565b6001600160a01b031661253c612089565b6001600160a01b031614612585576040805162461bcd60e51b815260206004820181905260248201526000805160206131d9833981519152604482015290519081900360640190fd5b6001600160a01b03166000908152600160208190526040909120805460ff19169091179055565b600a818154811061122357fe5b6004546001600160a01b031681565b60126020526000908152604090205481565b600280541415612631576040805162461bcd60e51b815260206004820152601f60248201527f5265656e7472616e637947756172643a207265656e7472616e742063616c6c00604482015290519081900360640190fd5b60028055806126715760405162461bcd60e51b81526004018080602001828103825260328152602001806131866032913960400191505060405180910390fd5b6000600f838154811061268057fe5b600091825260208083208684526011825260408085203386528352808520601290935290932080546004909302909301935091906126be9085612984565b81556126c985611a36565b6126d285612aa6565b82546126e9906001600160a01b0316333087612d7d565b81546126f6574360028301555b81546127029085612984565b808355600384015461271f9164e8d4a5100091610ef39190612924565b6001830155604080518581529051869133917f90890809c654f11d6e72a28fa60149770a0d11ec6c92319d6ceb2bb0a4ea1a159181900360200190a360048201541561276a57612771565b4360048301555b50436006909101555050600160025550565b3360009081526001602052604090205460ff16806127b05750336127a5612089565b6001600160a01b0316145b6127b957600080fd5b6003546040805163f2fde38b60e01b81526001600160a01b0384811660048301529151919092169163f2fde38b91602480830192600092919082900301818387803b15801561280757600080fd5b505af115801561281b573d6000803e3d6000fd5b5050505050565b61282a612a45565b6001600160a01b031661283b612089565b6001600160a01b031614612884576040805162461bcd60e51b815260206004820181905260248201526000805160206131d9833981519152604482015290519081900360640190fd5b6001600160a01b0381166128c95760405162461bcd60e51b815260040180806020018281038252602681526020018061313a6026913960400191505060405180910390fd5b600080546040516001600160a01b03808516939216917f8be0079c531659141344cd1fd0a4f28419497f9722a3daafe3b4186f6b6457e091a3600080546001600160a01b0319166001600160a01b0392909216919091179055565b6000826129335750600061218e565b8282028284828161294057fe5b041461297d5760405162461bcd60e51b81526004018080602001828103825260218152602001806131b86021913960400191505060405180910390fd5b9392505050565b60008282018381101561297d576040805162461bcd60e51b815260206004820152601b60248201527f536166654d6174683a206164646974696f6e206f766572666c6f770000000000604482015290519081900360640190fd5b6000808211612a34576040805162461bcd60e51b815260206004820152601a60248201527f536166654d6174683a206469766973696f6e206279207a65726f000000000000604482015290519081900360640190fd5b818381612a3d57fe5b049392505050565b3390565b600082821115612aa0576040805162461bcd60e51b815260206004820152601e60248201527f536166654d6174683a207375627472616374696f6e206f766572666c6f770000604482015290519081900360640190fd5b50900390565b6000600f8281548110612ab557fe5b60009182526020808320858452601182526040808520338652909252922080546004909202909201925015612d26576000612b12826001015461236264e8d4a51000610ef38760030154876000015461292490919063ffffffff16565b600354604080516370a0823160e01b815230600482015290519293506000926001600160a01b03909216916370a0823191602480820192602092909190829003018186803b158015612b6357600080fd5b505afa158015612b77573d6000803e3d6000fd5b505050506040513d6020811015612b8d57600080fd5b5051905080821115612b9d578091505b8115612d03576003546040805163a9059cbb60e01b81523360048201526024810185905290516001600160a01b039092169163a9059cbb916044808201926020929091908290030181600087803b158015612bf757600080fd5b505af1158015612c0b573d6000803e3d6000fd5b505050506040513d6020811015612c2157600080fd5b5050600c54600284015460009110612cbc57612c4d6064610ef3600e548661292490919063ffffffff16565b6003546040805163282d3fdf60e01b81523360048201526024810184905290519293506001600160a01b039091169163282d3fdf9160448082019260009290919082900301818387803b158015612ca357600080fd5b505af1158015612cb7573d6000803e3d6000fd5b505050505b43600285015560408051848152602081018390528151889233927fb848bb3f208d3e99f7d61ea4e6e9a7bcb30e7118440e5e45d0cea5d7bfe9606a929081900390910190a3505b60038401548354612d1e9164e8d4a5100091610ef391612924565b600184015550505b505050565b604080516001600160a01b038416602482015260448082018490528251808303909101815260649091019091526020810180516001600160e01b031663a9059cbb60e01b179052612d26908490612ddd565b604080516001600160a01b0380861660248301528416604482015260648082018490528251808303909101815260849091019091526020810180516001600160e01b03166323b872dd60e01b179052612dd7908590612ddd565b50505050565b6060612e32826040518060400160405280602081526020017f5361666545524332303a206c6f772d6c6576656c2063616c6c206661696c6564815250856001600160a01b0316612e8e9092919063ffffffff16565b805190915015612d2657808060200190516020811015612e5157600080fd5b5051612d265760405162461bcd60e51b815260040180806020018281038252602a81526020018061321e602a913960400191505060405180910390fd5b6060612e9d8484600085612ea5565b949350505050565b606082471015612ee65760405162461bcd60e51b81526004018080602001828103825260268152602001806131606026913960400191505060405180910390fd5b612eef85612ff6565b612f40576040805162461bcd60e51b815260206004820152601d60248201527f416464726573733a2063616c6c20746f206e6f6e2d636f6e7472616374000000604482015290519081900360640190fd5b60006060866001600160a01b031685876040518082805190602001908083835b60208310612f7f5780518252601f199092019160209182019101612f60565b6001836020036101000a03801982511681845116808217855250505050505090500191505060006040518083038185875af1925050503d8060008114612fe1576040519150601f19603f3d011682016040523d82523d6000602084013e612fe6565b606091505b5091509150612368828286612ffc565b3b151590565b6060831561300b57508161297d565b82511561301b5782518084602001fd5b8160405162461bcd60e51b81526004018080602001828103825283818151815260200191508051906020019080838360005b8381101561306557818101518382015260200161304d565b50505050905090810190601f1680156130925780820380516001836020036101000a031916815260200191505b509250505060405180910390fd5b8280548282559060005260206000209081019282156130db579160200282015b828111156130db5782518255916020019190600101906130c0565b506130e79291506130fe565b5090565b6040518060200160405280600081525090565b5b808211156130e757600081556001016130ff56fe4d6173746572486570613a3a6164643a206c7020697320616c726561647920696e20706f6f6c4f776e61626c653a206e6577206f776e657220697320746865207a65726f2061646472657373416464726573733a20696e73756666696369656e742062616c616e636520666f722063616c6c4d6173746572486570613a3a6465706f7369743a20616d6f756e74206d7573742062652067726561746572207468616e2030536166654d6174683a206d756c7469706c69636174696f6e206f766572666c6f774f776e61626c653a2063616c6c6572206973206e6f7420746865206f776e65724d6173746572486570613a3a6e6f6e4475706c6963617465643a206475706c6963617465645361666545524332303a204552433230206f7065726174696f6e20646964206e6f742073756363656564a264697066735822122046c9f6f419b11357311428c14c1abcb3ac8c3cd6feafd50fae8b3312aaf3621164736f6c634300060c0033a66cc928b5edb82af9bd49922954155ab7b0942694bea4ce44661d9a8736c688536166654d6174683a206d756c7469706c69636174696f6e206f766572666c6f77",
  "devdoc": {
    "kind": "dev",
    "methods": {
      "owner()": {
        "details": "Returns the address of the current owner."
      },
      "renounceOwnership()": {
        "details": "Leaves the contract without owner. It will not be possible to call `onlyOwner` functions anymore. Can only be called by the current owner. NOTE: Renouncing ownership will leave the contract without an owner, thereby removing any functionality that is only available to the owner."
      },
      "transferOwnership(address)": {
        "details": "Transfers ownership of the contract to a new account (`newOwner`). Can only be called by the current owner."
      }
    },
    "version": 1
  },
  "userdoc": {
    "kind": "user",
    "methods": {},
    "version": 1
  },
  "storageLayout": {
    "storage": [
      {
        "astId": 7,
        "contract": "contracts/MasterHepa.sol:MasterHepa",
        "label": "_owner",
        "offset": 0,
        "slot": "0",
        "type": "t_address"
      },
      {
        "astId": 2118,
        "contract": "contracts/MasterHepa.sol:MasterHepa",
        "label": "authorized",
        "offset": 0,
        "slot": "1",
        "type": "t_mapping(t_address,t_bool)"
      },
      {
        "astId": 2080,
        "contract": "contracts/MasterHepa.sol:MasterHepa",
        "label": "_status",
        "offset": 0,
        "slot": "2",
        "type": "t_uint256"
      },
      {
        "astId": 2684,
        "contract": "contracts/MasterHepa.sol:MasterHepa",
        "label": "govToken",
        "offset": 0,
        "slot": "3",
        "type": "t_contract(HepaToken)2633"
      },
      {
        "astId": 2686,
        "contract": "contracts/MasterHepa.sol:MasterHepa",
        "label": "devaddr",
        "offset": 0,
        "slot": "4",
        "type": "t_address"
      },
      {
        "astId": 2688,
        "contract": "contracts/MasterHepa.sol:MasterHepa",
        "label": "REWARD_PER_BLOCK",
        "offset": 0,
        "slot": "5",
        "type": "t_uint256"
      },
      {
        "astId": 2691,
        "contract": "contracts/MasterHepa.sol:MasterHepa",
        "label": "REWARD_MULTIPLIER",
        "offset": 0,
        "slot": "6",
        "type": "t_array(t_uint256)dyn_storage"
      },
      {
        "astId": 2694,
        "contract": "contracts/MasterHepa.sol:MasterHepa",
        "label": "HALVING_AT_BLOCK",
        "offset": 0,
        "slot": "7",
        "type": "t_array(t_uint256)dyn_storage"
      },
      {
        "astId": 2697,
        "contract": "contracts/MasterHepa.sol:MasterHepa",
        "label": "blockDeltaStartStage",
        "offset": 0,
        "slot": "8",
        "type": "t_array(t_uint256)dyn_storage"
      },
      {
        "astId": 2700,
        "contract": "contracts/MasterHepa.sol:MasterHepa",
        "label": "blockDeltaEndStage",
        "offset": 0,
        "slot": "9",
        "type": "t_array(t_uint256)dyn_storage"
      },
      {
        "astId": 2703,
        "contract": "contracts/MasterHepa.sol:MasterHepa",
        "label": "userFeeStage",
        "offset": 0,
        "slot": "10",
        "type": "t_array(t_uint256)dyn_storage"
      },
      {
        "astId": 2706,
        "contract": "contracts/MasterHepa.sol:MasterHepa",
        "label": "devFeeStage",
        "offset": 0,
        "slot": "11",
        "type": "t_array(t_uint256)dyn_storage"
      },
      {
        "astId": 2708,
        "contract": "contracts/MasterHepa.sol:MasterHepa",
        "label": "FINISH_BONUS_AT_BLOCK",
        "offset": 0,
        "slot": "12",
        "type": "t_uint256"
      },
      {
        "astId": 2710,
        "contract": "contracts/MasterHepa.sol:MasterHepa",
        "label": "START_BLOCK",
        "offset": 0,
        "slot": "13",
        "type": "t_uint256"
      },
      {
        "astId": 2712,
        "contract": "contracts/MasterHepa.sol:MasterHepa",
        "label": "PERCENT_LOCK_BONUS_REWARD",
        "offset": 0,
        "slot": "14",
        "type": "t_uint256"
      },
      {
        "astId": 2715,
        "contract": "contracts/MasterHepa.sol:MasterHepa",
        "label": "poolInfo",
        "offset": 0,
        "slot": "15",
        "type": "t_array(t_struct(PoolInfo)2682_storage)dyn_storage"
      },
      {
        "astId": 2719,
        "contract": "contracts/MasterHepa.sol:MasterHepa",
        "label": "poolId1",
        "offset": 0,
        "slot": "16",
        "type": "t_mapping(t_address,t_uint256)"
      },
      {
        "astId": 2725,
        "contract": "contracts/MasterHepa.sol:MasterHepa",
        "label": "userInfo",
        "offset": 0,
        "slot": "17",
        "type": "t_mapping(t_uint256,t_mapping(t_address,t_struct(UserInfo)2670_storage))"
      },
      {
        "astId": 2729,
        "contract": "contracts/MasterHepa.sol:MasterHepa",
        "label": "userGlobalInfo",
        "offset": 0,
        "slot": "18",
        "type": "t_mapping(t_address,t_struct(UserGlobalInfo)2673_storage)"
      },
      {
        "astId": 2733,
        "contract": "contracts/MasterHepa.sol:MasterHepa",
        "label": "poolExistence",
        "offset": 0,
        "slot": "19",
        "type": "t_mapping(t_contract(IERC20)1045,t_bool)"
      },
      {
        "astId": 2736,
        "contract": "contracts/MasterHepa.sol:MasterHepa",
        "label": "totalAllocPoint",
        "offset": 0,
        "slot": "20",
        "type": "t_uint256"
      }
    ],
    "types": {
      "t_address": {
        "encoding": "inplace",
        "label": "address",
        "numberOfBytes": "20"
      },
      "t_array(t_struct(PoolInfo)2682_storage)dyn_storage": {
        "base": "t_struct(PoolInfo)2682_storage",
        "encoding": "dynamic_array",
        "label": "struct MasterHepa.PoolInfo[]",
        "numberOfBytes": "32"
      },
      "t_array(t_uint256)dyn_storage": {
        "base": "t_uint256",
        "encoding": "dynamic_array",
        "label": "uint256[]",
        "numberOfBytes": "32"
      },
      "t_bool": {
        "encoding": "inplace",
        "label": "bool",
        "numberOfBytes": "1"
      },
      "t_contract(HepaToken)2633": {
        "encoding": "inplace",
        "label": "contract HepaToken",
        "numberOfBytes": "20"
      },
      "t_contract(IERC20)1045": {
        "encoding": "inplace",
        "label": "contract IERC20",
        "numberOfBytes": "20"
      },
      "t_mapping(t_address,t_bool)": {
        "encoding": "mapping",
        "key": "t_address",
        "label": "mapping(address => bool)",
        "numberOfBytes": "32",
        "value": "t_bool"
      },
      "t_mapping(t_address,t_struct(UserGlobalInfo)2673_storage)": {
        "encoding": "mapping",
        "key": "t_address",
        "label": "mapping(address => struct MasterHepa.UserGlobalInfo)",
        "numberOfBytes": "32",
        "value": "t_struct(UserGlobalInfo)2673_storage"
      },
      "t_mapping(t_address,t_struct(UserInfo)2670_storage)": {
        "encoding": "mapping",
        "key": "t_address",
        "label": "mapping(address => struct MasterHepa.UserInfo)",
        "numberOfBytes": "32",
        "value": "t_struct(UserInfo)2670_storage"
      },
      "t_mapping(t_address,t_uint256)": {
        "encoding": "mapping",
        "key": "t_address",
        "label": "mapping(address => uint256)",
        "numberOfBytes": "32",
        "value": "t_uint256"
      },
      "t_mapping(t_contract(IERC20)1045,t_bool)": {
        "encoding": "mapping",
        "key": "t_contract(IERC20)1045",
        "label": "mapping(contract IERC20 => bool)",
        "numberOfBytes": "32",
        "value": "t_bool"
      },
      "t_mapping(t_uint256,t_mapping(t_address,t_struct(UserInfo)2670_storage))": {
        "encoding": "mapping",
        "key": "t_uint256",
        "label": "mapping(uint256 => mapping(address => struct MasterHepa.UserInfo))",
        "numberOfBytes": "32",
        "value": "t_mapping(t_address,t_struct(UserInfo)2670_storage)"
      },
      "t_struct(PoolInfo)2682_storage": {
        "encoding": "inplace",
        "label": "struct MasterHepa.PoolInfo",
        "members": [
          {
            "astId": 2675,
            "contract": "contracts/MasterHepa.sol:MasterHepa",
            "label": "lpToken",
            "offset": 0,
            "slot": "0",
            "type": "t_contract(IERC20)1045"
          },
          {
            "astId": 2677,
            "contract": "contracts/MasterHepa.sol:MasterHepa",
            "label": "allocPoint",
            "offset": 0,
            "slot": "1",
            "type": "t_uint256"
          },
          {
            "astId": 2679,
            "contract": "contracts/MasterHepa.sol:MasterHepa",
            "label": "lastRewardBlock",
            "offset": 0,
            "slot": "2",
            "type": "t_uint256"
          },
          {
            "astId": 2681,
            "contract": "contracts/MasterHepa.sol:MasterHepa",
            "label": "accGovTokenPerShare",
            "offset": 0,
            "slot": "3",
            "type": "t_uint256"
          }
        ],
        "numberOfBytes": "128"
      },
      "t_struct(UserGlobalInfo)2673_storage": {
        "encoding": "inplace",
        "label": "struct MasterHepa.UserGlobalInfo",
        "members": [
          {
            "astId": 2672,
            "contract": "contracts/MasterHepa.sol:MasterHepa",
            "label": "globalAmount",
            "offset": 0,
            "slot": "0",
            "type": "t_uint256"
          }
        ],
        "numberOfBytes": "32"
      },
      "t_struct(UserInfo)2670_storage": {
        "encoding": "inplace",
        "label": "struct MasterHepa.UserInfo",
        "members": [
          {
            "astId": 2657,
            "contract": "contracts/MasterHepa.sol:MasterHepa",
            "label": "amount",
            "offset": 0,
            "slot": "0",
            "type": "t_uint256"
          },
          {
            "astId": 2659,
            "contract": "contracts/MasterHepa.sol:MasterHepa",
            "label": "rewardDebt",
            "offset": 0,
            "slot": "1",
            "type": "t_uint256"
          },
          {
            "astId": 2661,
            "contract": "contracts/MasterHepa.sol:MasterHepa",
            "label": "rewardDebtAtBlock",
            "offset": 0,
            "slot": "2",
            "type": "t_uint256"
          },
          {
            "astId": 2663,
            "contract": "contracts/MasterHepa.sol:MasterHepa",
            "label": "lastWithdrawBlock",
            "offset": 0,
            "slot": "3",
            "type": "t_uint256"
          },
          {
            "astId": 2665,
            "contract": "contracts/MasterHepa.sol:MasterHepa",
            "label": "firstDepositBlock",
            "offset": 0,
            "slot": "4",
            "type": "t_uint256"
          },
          {
            "astId": 2667,
            "contract": "contracts/MasterHepa.sol:MasterHepa",
            "label": "blockdelta",
            "offset": 0,
            "slot": "5",
            "type": "t_uint256"
          },
          {
            "astId": 2669,
            "contract": "contracts/MasterHepa.sol:MasterHepa",
            "label": "lastDepositBlock",
            "offset": 0,
            "slot": "6",
            "type": "t_uint256"
          }
        ],
        "numberOfBytes": "224"
      },
      "t_uint256": {
        "encoding": "inplace",
        "label": "uint256",
        "numberOfBytes": "32"
      }
    }
  }
}