{
  "address": "0x580313Da32177bd8d873FaCA272A43Fc0A663236",
  "abi": [
    {
      "inputs": [
        {
          "internalType": "contract HepaToken",
          "name": "_govToken",
          "type": "address"
        },
        {
          "internalType": "address",
          "name": "_devaddr",
          "type": "address"
        },
        {
          "internalType": "uint256",
          "name": "_rewardPerBlock",
          "type": "uint256"
        },
        {
          "internalType": "uint256",
          "name": "_startBlock",
          "type": "uint256"
        },
        {
          "internalType": "uint256",
          "name": "_halvingAfterBlock",
          "type": "uint256"
        },
        {
          "internalType": "uint256[]",
          "name": "_rewardMultiplier",
          "type": "uint256[]"
        },
        {
          "internalType": "uint256[]",
          "name": "_blockDeltaStartStage",
          "type": "uint256[]"
        },
        {
          "internalType": "uint256[]",
          "name": "_blockDeltaEndStage",
          "type": "uint256[]"
        },
        {
          "internalType": "uint256[]",
          "name": "_userFeeStage",
          "type": "uint256[]"
        },
        {
          "internalType": "uint256[]",
          "name": "_devFeeStage",
          "type": "uint256[]"
        }
      ],
      "stateMutability": "nonpayable",
      "type": "constructor"
    },
    {
      "anonymous": false,
      "inputs": [
        {
          "indexed": true,
          "internalType": "address",
          "name": "user",
          "type": "address"
        }
      ],
      "name": "AuthorizedAdded",
      "type": "event"
    },
    {
      "anonymous": false,
      "inputs": [
        {
          "indexed": true,
          "internalType": "address",
          "name": "user",
          "type": "address"
        }
      ],
      "name": "AuthorizedRemoved",
      "type": "event"
    },
    {
      "anonymous": false,
      "inputs": [
        {
          "indexed": true,
          "internalType": "address",
          "name": "user",
          "type": "address"
        },
        {
          "indexed": true,
          "internalType": "uint256",
          "name": "pid",
          "type": "uint256"
        },
        {
          "indexed": false,
          "internalType": "uint256",
          "name": "amount",
          "type": "uint256"
        }
      ],
      "name": "Deposit",
      "type": "event"
    },
    {
      "anonymous": false,
      "inputs": [
        {
          "indexed": true,
          "internalType": "address",
          "name": "user",
          "type": "address"
        },
        {
          "indexed": true,
          "internalType": "uint256",
          "name": "pid",
          "type": "uint256"
        },
        {
          "indexed": false,
          "internalType": "uint256",
          "name": "amount",
          "type": "uint256"
        }
      ],
      "name": "EmergencyWithdraw",
      "type": "event"
    },
    {
      "anonymous": false,
      "inputs": [
        {
          "indexed": true,
          "internalType": "address",
          "name": "previousOwner",
          "type": "address"
        },
        {
          "indexed": true,
          "internalType": "address",
          "name": "newOwner",
          "type": "address"
        }
      ],
      "name": "OwnershipTransferred",
      "type": "event"
    },
    {
      "anonymous": false,
      "inputs": [
        {
          "indexed": true,
          "internalType": "address",
          "name": "user",
          "type": "address"
        },
        {
          "indexed": true,
          "internalType": "uint256",
          "name": "pid",
          "type": "uint256"
        },
        {
          "indexed": false,
          "internalType": "uint256",
          "name": "amount",
          "type": "uint256"
        },
        {
          "indexed": false,
          "internalType": "uint256",
          "name": "lockAmount",
          "type": "uint256"
        }
      ],
      "name": "SendHepaTokenReward",
      "type": "event"
    },
    {
      "anonymous": false,
      "inputs": [
        {
          "indexed": true,
          "internalType": "address",
          "name": "user",
          "type": "address"
        },
        {
          "indexed": true,
          "internalType": "uint256",
          "name": "pid",
          "type": "uint256"
        },
        {
          "indexed": false,
          "internalType": "uint256",
          "name": "amount",
          "type": "uint256"
        }
      ],
      "name": "Withdraw",
      "type": "event"
    },
    {
      "inputs": [],
      "name": "FINISH_BONUS_AT_BLOCK",
      "outputs": [
        {
          "internalType": "uint256",
          "name": "",
          "type": "uint256"
        }
      ],
      "stateMutability": "view",
      "type": "function"
    },
    {
      "inputs": [
        {
          "internalType": "uint256",
          "name": "",
          "type": "uint256"
        }
      ],
      "name": "HALVING_AT_BLOCK",
      "outputs": [
        {
          "internalType": "uint256",
          "name": "",
          "type": "uint256"
        }
      ],
      "stateMutability": "view",
      "type": "function"
    },
    {
      "inputs": [],
      "name": "PERCENT_LOCK_BONUS_REWARD",
      "outputs": [
        {
          "internalType": "uint256",
          "name": "",
          "type": "uint256"
        }
      ],
      "stateMutability": "view",
      "type": "function"
    },
    {
      "inputs": [
        {
          "internalType": "uint256",
          "name": "",
          "type": "uint256"
        }
      ],
      "name": "REWARD_MULTIPLIER",
      "outputs": [
        {
          "internalType": "uint256",
          "name": "",
          "type": "uint256"
        }
      ],
      "stateMutability": "view",
      "type": "function"
    },
    {
      "inputs": [],
      "name": "REWARD_PER_BLOCK",
      "outputs": [
        {
          "internalType": "uint256",
          "name": "",
          "type": "uint256"
        }
      ],
      "stateMutability": "view",
      "type": "function"
    },
    {
      "inputs": [],
      "name": "START_BLOCK",
      "outputs": [
        {
          "internalType": "uint256",
          "name": "",
          "type": "uint256"
        }
      ],
      "stateMutability": "view",
      "type": "function"
    },
    {
      "inputs": [
        {
          "internalType": "uint256",
          "name": "_allocPoint",
          "type": "uint256"
        },
        {
          "internalType": "contract IERC20",
          "name": "_lpToken",
          "type": "address"
        },
        {
          "internalType": "bool",
          "name": "_withUpdate",
          "type": "bool"
        }
      ],
      "name": "add",
      "outputs": [],
      "stateMutability": "nonpayable",
      "type": "function"
    },
    {
      "inputs": [
        {
          "internalType": "address",
          "name": "_toAdd",
          "type": "address"
        }
      ],
      "name": "addAuthorized",
      "outputs": [],
      "stateMutability": "nonpayable",
      "type": "function"
    },
    {
      "inputs": [
        {
          "internalType": "address",
          "name": "",
          "type": "address"
        }
      ],
      "name": "authorized",
      "outputs": [
        {
          "internalType": "bool",
          "name": "",
          "type": "bool"
        }
      ],
      "stateMutability": "view",
      "type": "function"
    },
    {
      "inputs": [
        {
          "internalType": "uint256",
          "name": "",
          "type": "uint256"
        }
      ],
      "name": "blockDeltaEndStage",
      "outputs": [
        {
          "internalType": "uint256",
          "name": "",
          "type": "uint256"
        }
      ],
      "stateMutability": "view",
      "type": "function"
    },
    {
      "inputs": [
        {
          "internalType": "uint256",
          "name": "",
          "type": "uint256"
        }
      ],
      "name": "blockDeltaStartStage",
      "outputs": [
        {
          "internalType": "uint256",
          "name": "",
          "type": "uint256"
        }
      ],
      "stateMutability": "view",
      "type": "function"
    },
    {
      "inputs": [
        {
          "internalType": "uint256",
          "name": "_newFinish",
          "type": "uint256"
        }
      ],
      "name": "bonusFinishUpdate",
      "outputs": [],
      "stateMutability": "nonpayable",
      "type": "function"
    },
    {
      "inputs": [
        {
          "internalType": "uint256",
          "name": "_pid",
          "type": "uint256"
        }
      ],
      "name": "claimReward",
      "outputs": [],
      "stateMutability": "nonpayable",
      "type": "function"
    },
    {
      "inputs": [
        {
          "internalType": "uint256[]",
          "name": "_pids",
          "type": "uint256[]"
        }
      ],
      "name": "claimRewards",
      "outputs": [],
      "stateMutability": "nonpayable",
      "type": "function"
    },
    {
      "inputs": [
        {
          "internalType": "uint256",
          "name": "_pid",
          "type": "uint256"
        },
        {
          "internalType": "uint256",
          "name": "_amount",
          "type": "uint256"
        }
      ],
      "name": "deposit",
      "outputs": [],
      "stateMutability": "nonpayable",
      "type": "function"
    },
    {
      "inputs": [
        {
          "internalType": "address",
          "name": "_devaddr",
          "type": "address"
        }
      ],
      "name": "dev",
      "outputs": [],
      "stateMutability": "nonpayable",
      "type": "function"
    },
    {
      "inputs": [
        {
          "internalType": "uint256",
          "name": "",
          "type": "uint256"
        }
      ],
      "name": "devFeeStage",
      "outputs": [
        {
          "internalType": "uint256",
          "name": "",
          "type": "uint256"
        }
      ],
      "stateMutability": "view",
      "type": "function"
    },
    {
      "inputs": [],
      "name": "devaddr",
      "outputs": [
        {
          "internalType": "address",
          "name": "",
          "type": "address"
        }
      ],
      "stateMutability": "view",
      "type": "function"
    },
    {
      "inputs": [
        {
          "internalType": "uint256",
          "name": "_pid",
          "type": "uint256"
        }
      ],
      "name": "emergencyWithdraw",
      "outputs": [],
      "stateMutability": "nonpayable",
      "type": "function"
    },
    {
      "inputs": [
        {
          "internalType": "address",
          "name": "_user",
          "type": "address"
        }
      ],
      "name": "getGlobalAmount",
      "outputs": [
        {
          "internalType": "uint256",
          "name": "",
          "type": "uint256"
        }
      ],
      "stateMutability": "view",
      "type": "function"
    },
    {
      "inputs": [
        {
          "internalType": "uint256",
          "name": "_from",
          "type": "uint256"
        },
        {
          "internalType": "uint256",
          "name": "_to",
          "type": "uint256"
        }
      ],
      "name": "getMultiplier",
      "outputs": [
        {
          "internalType": "uint256",
          "name": "",
          "type": "uint256"
        }
      ],
      "stateMutability": "view",
      "type": "function"
    },
    {
      "inputs": [
        {
          "internalType": "uint256",
          "name": "poolId",
          "type": "uint256"
        }
      ],
      "name": "getNewRewardPerBlock",
      "outputs": [
        {
          "internalType": "uint256",
          "name": "",
          "type": "uint256"
        }
      ],
      "stateMutability": "view",
      "type": "function"
    },
    {
      "inputs": [
        {
          "internalType": "uint256",
          "name": "_from",
          "type": "uint256"
        },
        {
          "internalType": "uint256",
          "name": "_to",
          "type": "uint256"
        },
        {
          "internalType": "uint256",
          "name": "_allocPoint",
          "type": "uint256"
        }
      ],
      "name": "getPoolReward",
      "outputs": [
        {
          "internalType": "uint256",
          "name": "forFarmer",
          "type": "uint256"
        }
      ],
      "stateMutability": "view",
      "type": "function"
    },
    {
      "inputs": [],
      "name": "govToken",
      "outputs": [
        {
          "internalType": "contract HepaToken",
          "name": "",
          "type": "address"
        }
      ],
      "stateMutability": "view",
      "type": "function"
    },
    {
      "inputs": [
        {
          "internalType": "uint256[]",
          "name": "_newHalving",
          "type": "uint256[]"
        }
      ],
      "name": "halvingUpdate",
      "outputs": [],
      "stateMutability": "nonpayable",
      "type": "function"
    },
    {
      "inputs": [
        {
          "internalType": "uint256",
          "name": "_newlock",
          "type": "uint256"
        }
      ],
      "name": "lockUpdate",
      "outputs": [],
      "stateMutability": "nonpayable",
      "type": "function"
    },
    {
      "inputs": [],
      "name": "massUpdatePools",
      "outputs": [],
      "stateMutability": "nonpayable",
      "type": "function"
    },
    {
      "inputs": [],
      "name": "owner",
      "outputs": [
        {
          "internalType": "address",
          "name": "",
          "type": "address"
        }
      ],
      "stateMutability": "view",
      "type": "function"
    },
    {
      "inputs": [
        {
          "internalType": "uint256",
          "name": "_pid",
          "type": "uint256"
        },
        {
          "internalType": "address",
          "name": "_user",
          "type": "address"
        }
      ],
      "name": "pendingReward",
      "outputs": [
        {
          "internalType": "uint256",
          "name": "",
          "type": "uint256"
        }
      ],
      "stateMutability": "view",
      "type": "function"
    },
    {
      "inputs": [
        {
          "internalType": "contract IERC20",
          "name": "",
          "type": "address"
        }
      ],
      "name": "poolExistence",
      "outputs": [
        {
          "internalType": "bool",
          "name": "",
          "type": "bool"
        }
      ],
      "stateMutability": "view",
      "type": "function"
    },
    {
      "inputs": [
        {
          "internalType": "uint256",
          "name": "",
          "type": "uint256"
        }
      ],
      "name": "poolInfo",
      "outputs": [
        {
          "internalType": "contract IERC20",
          "name": "lpToken",
          "type": "address"
        },
        {
          "internalType": "uint256",
          "name": "allocPoint",
          "type": "uint256"
        },
        {
          "internalType": "uint256",
          "name": "lastRewardBlock",
          "type": "uint256"
        },
        {
          "internalType": "uint256",
          "name": "accGovTokenPerShare",
          "type": "uint256"
        }
      ],
      "stateMutability": "view",
      "type": "function"
    },
    {
      "inputs": [],
      "name": "poolLength",
      "outputs": [
        {
          "internalType": "uint256",
          "name": "",
          "type": "uint256"
        }
      ],
      "stateMutability": "view",
      "type": "function"
    },
    {
      "inputs": [
        {
          "internalType": "address",
          "name": "_newOwner",
          "type": "address"
        }
      ],
      "name": "reclaimTokenOwnership",
      "outputs": [],
      "stateMutability": "nonpayable",
      "type": "function"
    },
    {
      "inputs": [
        {
          "internalType": "address",
          "name": "_toRemove",
          "type": "address"
        }
      ],
      "name": "removeAuthorized",
      "outputs": [],
      "stateMutability": "nonpayable",
      "type": "function"
    },
    {
      "inputs": [],
      "name": "renounceOwnership",
      "outputs": [],
      "stateMutability": "nonpayable",
      "type": "function"
    },
    {
      "inputs": [
        {
          "internalType": "uint256[]",
          "name": "_newMulReward",
          "type": "uint256[]"
        }
      ],
      "name": "rewardMulUpdate",
      "outputs": [],
      "stateMutability": "nonpayable",
      "type": "function"
    },
    {
      "inputs": [
        {
          "internalType": "uint256",
          "name": "_newReward",
          "type": "uint256"
        }
      ],
      "name": "rewardUpdate",
      "outputs": [],
      "stateMutability": "nonpayable",
      "type": "function"
    },
    {
      "inputs": [
        {
          "internalType": "uint256",
          "name": "_pid",
          "type": "uint256"
        },
        {
          "internalType": "uint256",
          "name": "_allocPoint",
          "type": "uint256"
        },
        {
          "internalType": "bool",
          "name": "_withUpdate",
          "type": "bool"
        }
      ],
      "name": "set",
      "outputs": [],
      "stateMutability": "nonpayable",
      "type": "function"
    },
    {
      "inputs": [
        {
          "internalType": "uint256",
          "name": "_newstarblock",
          "type": "uint256"
        }
      ],
      "name": "starBlockUpdate",
      "outputs": [],
      "stateMutability": "nonpayable",
      "type": "function"
    },
    {
      "inputs": [],
      "name": "totalAllocPoint",
      "outputs": [
        {
          "internalType": "uint256",
          "name": "",
          "type": "uint256"
        }
      ],
      "stateMutability": "view",
      "type": "function"
    },
    {
      "inputs": [
        {
          "internalType": "address",
          "name": "newOwner",
          "type": "address"
        }
      ],
      "name": "transferOwnership",
      "outputs": [],
      "stateMutability": "nonpayable",
      "type": "function"
    },
    {
      "inputs": [
        {
          "internalType": "uint256",
          "name": "_pid",
          "type": "uint256"
        }
      ],
      "name": "updatePool",
      "outputs": [],
      "stateMutability": "nonpayable",
      "type": "function"
    },
    {
      "inputs": [
        {
          "internalType": "uint256",
          "name": "_pid",
          "type": "uint256"
        }
      ],
      "name": "userDelta",
      "outputs": [
        {
          "internalType": "uint256",
          "name": "",
          "type": "uint256"
        }
      ],
      "stateMutability": "view",
      "type": "function"
    },
    {
      "inputs": [
        {
          "internalType": "uint256",
          "name": "",
          "type": "uint256"
        }
      ],
      "name": "userFeeStage",
      "outputs": [
        {
          "internalType": "uint256",
          "name": "",
          "type": "uint256"
        }
      ],
      "stateMutability": "view",
      "type": "function"
    },
    {
      "inputs": [
        {
          "internalType": "address",
          "name": "",
          "type": "address"
        }
      ],
      "name": "userGlobalInfo",
      "outputs": [
        {
          "internalType": "uint256",
          "name": "",
          "type": "uint256"
        }
      ],
      "stateMutability": "view",
      "type": "function"
    },
    {
      "inputs": [
        {
          "internalType": "uint256",
          "name": "",
          "type": "uint256"
        },
        {
          "internalType": "address",
          "name": "",
          "type": "address"
        }
      ],
      "name": "userInfo",
      "outputs": [
        {
          "internalType": "uint256",
          "name": "amount",
          "type": "uint256"
        },
        {
          "internalType": "uint256",
          "name": "rewardDebt",
          "type": "uint256"
        },
        {
          "internalType": "uint256",
          "name": "rewardDebtAtBlock",
          "type": "uint256"
        },
        {
          "internalType": "uint256",
          "name": "lastWithdrawBlock",
          "type": "uint256"
        },
        {
          "internalType": "uint256",
          "name": "firstDepositBlock",
          "type": "uint256"
        },
        {
          "internalType": "uint256",
          "name": "lastDepositBlock",
          "type": "uint256"
        }
      ],
      "stateMutability": "view",
      "type": "function"
    },
    {
      "inputs": [
        {
          "internalType": "uint256",
          "name": "_pid",
          "type": "uint256"
        },
        {
          "internalType": "uint256",
          "name": "_amount",
          "type": "uint256"
        }
      ],
      "name": "withdraw",
      "outputs": [],
      "stateMutability": "nonpayable",
      "type": "function"
    }
  ],
  "transactionHash": "0x29a56906b02ca52b6e5d86f0b8b26dffd3136d76683ed643cbab64c1e61a388d",
  "args": [
    "0x9159F30F1c3F0317b0a2D6bC176f29266Be790eE",
    "0x7618ba6355Acf36dD686FD5EbFebA8fEfEf93B71",
    "1000000000000000000",
    8869091,
    201600,
    [
      256,
      128,
      64,
      32,
      16,
      8,
      8,
      8,
      8,
      8,
      8,
      8,
      8,
      8,
      8,
      8,
      8,
      8,
      8,
      8,
      8,
      8,
      8,
      8,
      8,
      8,
      8,
      8,
      8,
      8,
      8,
      8,
      8,
      8,
      8,
      8,
      8,
      8,
      8,
      8,
      8,
      8,
      8,
      8,
      8,
      8,
      8,
      8,
      8,
      8,
      8,
      8,
      8,
      8,
      8,
      8,
      8,
      8,
      8,
      8,
      8,
      8,
      8,
      8,
      8,
      8,
      8,
      8,
      8,
      8,
      8,
      8,
      8,
      8,
      8,
      8,
      8,
      8,
      8,
      8,
      8,
      8,
      8,
      8,
      8,
      8,
      8,
      8,
      8,
      8,
      8,
      8,
      8,
      8,
      8,
      8,
      8,
      8,
      8,
      8,
      8,
      8,
      8,
      8
    ],
    [
      0,
      1,
      1201,
      28801,
      86401,
      144001,
      403201,
      115201
    ],
    [
      1200,
      28800,
      86400,
      144000,
      403200,
      115200
    ],
    [
      75,
      92,
      96,
      98,
      99,
      995,
      9975,
      9999
    ],
    [
      25,
      8,
      4,
      2,
      1,
      5,
      25,
      1
    ]
  ],
  "solcInputHash": "885529c1d2ec087e15344f0f8efd0dc5",
  "bytecode": "0x60806040523480156200001157600080fd5b50604051620035943803806200359483398181016040526101408110156200003857600080fd5b815160208301516040808501516060860151608087015160a0880180519451969895979396929591949293820192846401000000008211156200007a57600080fd5b9083019060208201858111156200009057600080fd5b8251866020820283011164010000000082111715620000ae57600080fd5b82525081516020918201928201910280838360005b83811015620000dd578181015183820152602001620000c3565b50505050905001604052602001805160405193929190846401000000008211156200010757600080fd5b9083019060208201858111156200011d57600080fd5b82518660208202830111640100000000821117156200013b57600080fd5b82525081516020918201928201910280838360005b838110156200016a57818101518382015260200162000150565b50505050905001604052602001805160405193929190846401000000008211156200019457600080fd5b908301906020820185811115620001aa57600080fd5b8251866020820283011164010000000082111715620001c857600080fd5b82525081516020918201928201910280838360005b83811015620001f7578181015183820152602001620001dd565b50505050905001604052602001805160405193929190846401000000008211156200022157600080fd5b9083019060208201858111156200023757600080fd5b82518660208202830111640100000000821117156200025557600080fd5b82525081516020918201928201910280838360005b83811015620002845781810151838201526020016200026a565b5050505090500160405260200180516040519392919084640100000000821115620002ae57600080fd5b908301906020820185811115620002c457600080fd5b8251866020820283011164010000000082111715620002e257600080fd5b82525081516020918201928201910280838360005b8381101562000311578181015183820152602001620002f7565b505050509050016040525050506000620003306200050c60201b60201c565b600080546001600160a01b0319166001600160a01b0383169081178255604051929350917f8be0079c531659141344cd1fd0a4f28419497f9722a3daafe3b4186f6b6457e0908290a3506001600255600380546001600160a01b03808d166001600160a01b03199283161790925560048054928c16929091169190911790556005889055600d8790558451620003ce906006906020880190620005d2565b508351620003e4906008906020870190620005d2565b508251620003fa906009906020860190620005d2565b5081516200041090600a906020850190620005d2565b5080516200042690600b906020840190620005d2565b5060005b60065460001901811015620004a9576000620004776001620004638b62000463866001018d6200051060201b620025791790919060201c565b6200057760201b620025d91790919060201c565b60078054600181810183556000929092526000805160206200355383398151915201919091559190910190506200042a565b50620004d18762000463600160068054905003896200051060201b620025791790919060201c565b600c55505060078054600181018255600091909152600019600080516020620035538339815191529091015550620006399650505050505050565b3390565b600082620005215750600062000571565b828202828482816200052f57fe5b04146200056e5760405162461bcd60e51b8152600401808060200182810382526021815260200180620035736021913960400191505060405180910390fd5b90505b92915050565b6000828201838110156200056e576040805162461bcd60e51b815260206004820152601b60248201527f536166654d6174683a206164646974696f6e206f766572666c6f770000000000604482015290519081900360640190fd5b82805482825590600052602060002090810192821562000610579160200282015b8281111562000610578251825591602001919060010190620005f3565b506200061e92915062000622565b5090565b5b808211156200061e576000815560010162000623565b612f0a80620006496000396000f3fe608060405234801561001057600080fd5b50600436106102955760003560e01c806364482f7911610167578063b9181611116100ce578063d007db2911610087578063d007db2914610937578063d49e77cd14610954578063d9608d8a1461095c578063e2bbb15814610982578063eda67048146109a5578063f2fde38b146109cb57610295565b8063b91816111461084e578063beff2a5314610888578063c8ed7680146108a5578063cb0b8ca1146108ce578063cbd258b5146108eb578063cf1c316a1461091157610295565b806393f1a40b1161012057806393f1a40b1461078e57806395fdf258146107ed578063975532dc146107f5578063980c2a98146107fd57806398969e8214610805578063ae169a501461083157610295565b806364482f79146106e4578063715018a61461070f5780638d88a90e146107175780638da5cb5b1461073d5780638dbb1e3a14610745578063929c69711461076857610295565b8063354affb71161020b578063485d7d94116101c4578063485d7d94146105bc57806351eb05a6146105e25780635312ea8e146105ff5780635eac62391461061c5780636245f084146106bf578063630b5ba1146106dc57610295565b8063354affb71461041157806339b3e826146104b45780633d479cd5146104bc5780634179b4fb146104d9578063441a3e70146104f6578063466640641461051957610295565b806317caf6f11161025d57806317caf6f11461036157806317e4578e146103695780631d465c82146103865780631eaaa045146103a3578063245b211d146103d75780632fda7735146103f457610295565b806301b689c01461029a57806305268cff146102b9578063081e3eda146102dd57806309ae4d2c146102f75780631526fe2714610314575b600080fd5b6102b7600480360360208110156102b057600080fd5b50356109f1565b005b6102c1610a6c565b604080516001600160a01b039092168252519081900360200190f35b6102e5610a7b565b60408051918252519081900360200190f35b6102e56004803603602081101561030d57600080fd5b5035610a81565b6103316004803603602081101561032a57600080fd5b5035610ae5565b604080516001600160a01b0390951685526020850193909352838301919091526060830152519081900360800190f35b6102e5610b26565b6102b76004803603602081101561037f57600080fd5b5035610b2c565b6102e56004803603602081101561039c57600080fd5b5035610bbc565b6102b7600480360360608110156103b957600080fd5b508035906001600160a01b0360208201351690604001351515610c44565b6102b7600480360360208110156103ed57600080fd5b5035610e3e565b6102e56004803603602081101561040a57600080fd5b5035610ece565b6102b76004803603602081101561042757600080fd5b81019060208101813564010000000081111561044257600080fd5b82018360208201111561045457600080fd5b8035906020019184602083028401116401000000008311171561047657600080fd5b919080806020026020016040519081016040528093929190818152602001838360200280828437600092019190915250929550610eec945050505050565b6102e5610f7a565b6102b7600480360360208110156104d257600080fd5b5035610f80565b6102e5600480360360208110156104ef57600080fd5b5035611010565b6102b76004803603604081101561050c57600080fd5b508035906020013561101d565b6102b76004803603602081101561052f57600080fd5b81019060208101813564010000000081111561054a57600080fd5b82018360208201111561055c57600080fd5b8035906020019184602083028401116401000000008311171561057e57600080fd5b919080806020026020016040519081016040528093929190818152602001838360200280828437600092019190915250929550611642945050505050565b6102b7600480360360208110156105d257600080fd5b50356001600160a01b03166116cc565b6102b7600480360360208110156105f857600080fd5b503561178d565b6102b76004803603602081101561061557600080fd5b5035611906565b6102b76004803603602081101561063257600080fd5b81019060208101813564010000000081111561064d57600080fd5b82018360208201111561065f57600080fd5b8035906020019184602083028401116401000000008311171561068157600080fd5b919080806020026020016040519081016040528093929190818152602001838360200280828437600092019190915250929550611a55945050505050565b6102e5600480360360208110156106d557600080fd5b5035611a85565b6102b7611a92565b6102b7600480360360608110156106fa57600080fd5b50803590602081013590604001351515611ab1565b6102b7611b8c565b6102b76004803603602081101561072d57600080fd5b50356001600160a01b0316611c38565b6102c1611ceb565b6102e56004803603604081101561075b57600080fd5b5080359060200135611cfa565b6102e56004803603602081101561077e57600080fd5b50356001600160a01b0316611dfb565b6107ba600480360360408110156107a457600080fd5b50803590602001356001600160a01b0316611e16565b604080519687526020870195909552858501939093526060850191909152608084015260a0830152519081900360c00190f35b6102e5611e56565b6102e5611e5c565b6102e5611e62565b6102e56004803603604081101561081b57600080fd5b50803590602001356001600160a01b0316611e68565b6102b76004803603602081101561084757600080fd5b5035611fae565b6108746004803603602081101561086457600080fd5b50356001600160a01b0316611fc0565b604080519115158252519081900360200190f35b6102e56004803603602081101561089e57600080fd5b5035611fd5565b6102e5600480360360608110156108bb57600080fd5b5080359060208101359060400135611fe2565b6102e5600480360360208110156108e457600080fd5b503561212a565b6108746004803603602081101561090157600080fd5b50356001600160a01b0316612137565b6102b76004803603602081101561092757600080fd5b50356001600160a01b031661214c565b6102e56004803603602081101561094d57600080fd5b50356121fd565b6102c161220a565b6102e56004803603602081101561097257600080fd5b50356001600160a01b0316612219565b6102b76004803603604081101561099857600080fd5b508035906020013561222b565b6102b7600480360360208110156109bb57600080fd5b50356001600160a01b03166123d8565b6102b7600480360360208110156109e157600080fd5b50356001600160a01b0316612477565b3360009081526001602052604090205460ff1680610a1e575033610a13611ceb565b6001600160a01b0316145b610a2757600080fd5b600e548110610a675760405162461bcd60e51b8152600401808060200182810382526027815260200180612eae6027913960400191505060405180910390fd5b600e55565b6003546001600160a01b031681565b600f5490565b60008181526010602090815260408083203384529091528120600381015415610ac7576000610abd82600301544361263390919063ffffffff16565b9250610ae0915050565b6000610abd82600401544361263390919063ffffffff16565b919050565b600f8181548110610af257fe5b600091825260209091206004909102018054600182015460028301546003909301546001600160a01b039092169350919084565b60135481565b3360009081526001602052604090205460ff1680610b59575033610b4e611ceb565b6001600160a01b0316145b610b6257600080fd5b60008111610bb7576040805162461bcd60e51b815260206004820152601d60248201527f4d617374657220486570613a205a65726f20737461727420626c6f636b000000604482015290519081900360640190fd5b600d55565b600080610bd3610bcd436001612633565b43611cfa565b905082610bf057600554610be8908290612579565b915050610ae0565b601354610be890610c3e600f610c07876001612633565b81548110610c1157fe5b906000526020600020906004020160010154610c386005548661257990919063ffffffff16565b90612579565b90612690565b610c4c6126f7565b6001600160a01b0316610c5d611ceb565b6001600160a01b031614610ca6576040805162461bcd60e51b81526020600482018190526024820152600080516020612e1c833981519152604482015290519081900360640190fd5b6001600160a01b038216600090815260126020526040902054829060ff1615610d005760405162461bcd60e51b8152600401808060200182810382526025815260200180612e5f6025913960400191505060405180910390fd5b8115610d0e57610d0e611a92565b6000600d544311610d2157600d54610d23565b435b601354909150610d3390866125d9565b6013556001600160a01b0393841660008181526012602090815260408083208054600160ff1990911681179091558151608081018352948552918401988952830193845260608301828152600f8054928301815590925291517f8d1108e10bcb7c27dddfc02ed9d693a074039d026cf4ea4240b40f7d581ac802600490930292830180546001600160a01b031916919097161790955594517f8d1108e10bcb7c27dddfc02ed9d693a074039d026cf4ea4240b40f7d581ac803860155517f8d1108e10bcb7c27dddfc02ed9d693a074039d026cf4ea4240b40f7d581ac8048501555050517f8d1108e10bcb7c27dddfc02ed9d693a074039d026cf4ea4240b40f7d581ac80590910155565b3360009081526001602052604090205460ff1680610e6b575033610e60611ceb565b6001600160a01b0316145b610e7457600080fd5b60008111610ec9576040805162461bcd60e51b815260206004820152601e60248201527f4d617374657220486570613a205a65726f2066696e69736820626c6f636b0000604482015290519081900360640190fd5b600c55565b60068181548110610edb57fe5b600091825260209091200154905081565b3360009081526001602052604090205460ff1680610f19575033610f0e611ceb565b6001600160a01b0316145b610f2257600080fd5b600754815114610f635760405162461bcd60e51b8152600401808060200182810382526023815260200180612e3c6023913960400191505060405180910390fd5b8051610f76906007906020840190612cf5565b5050565b600d5481565b3360009081526001602052604090205460ff1680610fad575033610fa2611ceb565b6001600160a01b0316145b610fb657600080fd5b6000811161100b576040805162461bcd60e51b815260206004820152601860248201527f4d617374657220486570613a205a65726f207265776172640000000000000000604482015290519081900360640190fd5b600555565b60078181548110610edb57fe5b600280541415611074576040805162461bcd60e51b815260206004820152601f60248201527f5265656e7472616e637947756172643a207265656e7472616e742063616c6c00604482015290519081900360640190fd5b600280819055506000600f838154811061108a57fe5b600091825260208083208684526010825260408085203386529092529220805460049092029092019250831115611108576040805162461bcd60e51b815260206004820152601e60248201527f4d6173746572486570613a3a77697468647261773a206e6f7420676f6f640000604482015290519081900360640190fd5b336000908152601160205260409020546111229084612633565b3360009081526011602052604090205561113b8461178d565b611144846126fb565b82156116375780546111569084612633565b8155600481015460009061116b904390612633565b60038301549091501561118b576003820154611188904390612633565b90505b600860008154811061119957fe5b90600052602060002001548114806111b45750816005015443145b1561122d576111ff336111ed6064610c3e600a6000815481106111d357fe5b90600052602060002001548961257990919063ffffffff16565b85546001600160a01b03169190612980565b600454600b8054611228926001600160a01b0316916111ed91606491610c3e916000906111d357fe5b6115d8565b600860018154811061123b57fe5b9060005260206000200154811015801561126d5750600960008154811061125e57fe5b90600052602060002001548111155b156112b75761128c336111ed6064610c3e600a6001815481106111d357fe5b600454600b8054611228926001600160a01b0316916111ed91606491610c3e9160019081106111d357fe5b60086002815481106112c557fe5b906000526020600020015481101580156112f7575060096001815481106112e857fe5b90600052602060002001548111155b1561134157611316336111ed6064610c3e600a6002815481106111d357fe5b600454600b8054611228926001600160a01b0316916111ed91606491610c3e9160029081106111d357fe5b600860038154811061134f57fe5b906000526020600020015481101580156113815750600960028154811061137257fe5b90600052602060002001548111155b156113cb576113a0336111ed6064610c3e600a6003815481106111d357fe5b600454600b8054611228926001600160a01b0316916111ed91606491610c3e9160039081106111d357fe5b60086004815481106113d957fe5b9060005260206000200154811015801561140b575060096003815481106113fc57fe5b90600052602060002001548111155b156114595761142a336111ed6064610c3e600a6004815481106111d357fe5b611228600460009054906101000a90046001600160a01b03166111ed6064610c3e600b6004815481106111d357fe5b600860058154811061146757fe5b906000526020600020015481101580156114995750600960048154811061148a57fe5b90600052602060002001548111155b156114e5576114b9336111ed6103e8610c3e600a6005815481106111d357fe5b600454600b8054611228926001600160a01b0316916111ed916103e891610c3e9160059081106111d357fe5b60086006815481106114f357fe5b906000526020600020015481101580156115255750600960058154811061151657fe5b90600052602060002001548111155b1561157157611545336111ed612710610c3e600a6006815481106111d357fe5b600454600b8054611228926001600160a01b0316916111ed9161271091610c3e9160069081106111d357fe5b600860078154811061157f57fe5b90600052602060002001548111156115d8576115ac336111ed612710610c3e600a6007815481106111d357fe5b600454600b80546115d8926001600160a01b0316916111ed9161271091610c3e9160079081106111d357fe5b600383015482546115f39164e8d4a5100091610c3e91612579565b6001830155604080518581529051869133917ff279e6a1f5e320cca91135676d9cb6e44ca8a08c0b88342bcdb1144f6511b5689181900360200190a3504360038201555b505060016002555050565b3360009081526001602052604090205460ff168061166f575033611664611ceb565b6001600160a01b0316145b61167857600080fd5b6006548151146116b95760405162461bcd60e51b8152600401808060200182810382526027815260200180612d7c6027913960400191505060405180910390fd5b8051610f76906006906020840190612cf5565b6116d46126f7565b6001600160a01b03166116e5611ceb565b6001600160a01b03161461172e576040805162461bcd60e51b81526020600482018190526024820152600080516020612e1c833981519152604482015290519081900360640190fd5b6001600160a01b03811633141561174457600080fd5b6001600160a01b038116600081815260016020526040808220805460ff19169055517f0fafd0343e6c6f6985727574866da48938c918559eb9521cf9cc0d317ea0f7b49190a250565b6000600f828154811061179c57fe5b90600052602060002090600402019050806002015443116117bd5750611903565b8054604080516370a0823160e01b815230600482015290516000926001600160a01b0316916370a08231916024808301926020929190829003018186803b15801561180757600080fd5b505afa15801561181b573d6000803e3d6000fd5b505050506040513d602081101561183157600080fd5b5051905080611847575043600290910155611903565b600061185c8360020154438560010154611fe2565b600354604080516340c10f1960e01b81523060048201526024810184905290519293506001600160a01b03909116916340c10f199160448082019260009290919082900301818387803b1580156118b257600080fd5b505af11580156118c6573d6000803e3d6000fd5b505050506118f46118e983610c3e64e8d4a510008561257990919063ffffffff16565b6003850154906125d9565b60038401555050436002909101555b50565b60028054141561195d576040805162461bcd60e51b815260206004820152601f60248201527f5265656e7472616e637947756172643a207265656e7472616e742063616c6c00604482015290519081900360640190fd5b600280819055506000600f828154811061197357fe5b6000918252602080832085845260108252604080852033865290925290832080546004909302909101935091906119b290606490610c3e90604b612579565b905060006119d36064610c3e6019866000015461257990919063ffffffff16565b6000808555600185015584549091506119f6906001600160a01b03163384612980565b6004548454611a12916001600160a01b03918216911683612980565b604080518381529051869133917fbb757047c2b5f3974fe26b7c10f732e7bce710b0952a71082702781e62ae05959181900360200190a350506001600255505050565b60005b8151811015610f7657611a7d828281518110611a7057fe5b6020026020010151611fae565b600101611a58565b60088181548110610edb57fe5b600f5460005b81811015610f7657611aa98161178d565b600101611a98565b611ab96126f7565b6001600160a01b0316611aca611ceb565b6001600160a01b031614611b13576040805162461bcd60e51b81526020600482018190526024820152600080516020612e1c833981519152604482015290519081900360640190fd5b8015611b2157611b21611a92565b611b5e82611b58600f8681548110611b3557fe5b90600052602060002090600402016001015460135461263390919063ffffffff16565b906125d9565b60138190555081600f8481548110611b7257fe5b906000526020600020906004020160010181905550505050565b611b946126f7565b6001600160a01b0316611ba5611ceb565b6001600160a01b031614611bee576040805162461bcd60e51b81526020600482018190526024820152600080516020612e1c833981519152604482015290519081900360640190fd5b600080546040516001600160a01b03909116907f8be0079c531659141344cd1fd0a4f28419497f9722a3daafe3b4186f6b6457e0908390a3600080546001600160a01b0319169055565b3360009081526001602052604090205460ff1680611c65575033611c5a611ceb565b6001600160a01b0316145b611c6e57600080fd5b6001600160a01b038116611cc9576040805162461bcd60e51b815260206004820152601960248201527f4d617374657220486570613a205a65726f206164647265737300000000000000604482015290519081900360640190fd5b600480546001600160a01b0319166001600160a01b0392909216919091179055565b6000546001600160a01b031690565b600080600d54841015611d11576000915050611df5565b60005b600754811015611df157600060078281548110611d2d57fe5b600091825260209091200154600654909150611d4a906001612633565b821115611d5d5760009350505050611df5565b808511611da3576000611d8c60068481548110611d7657fe5b600091825260209091200154610c38888a612633565b9050611d9884826125d9565b945050505050611df5565b80861015611de8576000611dd360068481548110611dbd57fe5b600091825260209091200154610c38848a612633565b91965086919050611de484826125d9565b9350505b50600101611d14565b5090505b92915050565b6001600160a01b031660009081526011602052604090205490565b6010602090815260009283526040808420909152908252902080546001820154600283015460038401546004850154600590950154939492939192909186565b600e5481565b60055481565b600c5481565b600080600f8481548110611e7857fe5b600091825260208083208784526010825260408085206001600160a01b03898116875290845281862060049586029093016003810154815484516370a0823160e01b81523098810198909852935191985093969395939492909116926370a08231926024808301939192829003018186803b158015611ef657600080fd5b505afa158015611f0a573d6000803e3d6000fd5b505050506040513d6020811015611f2057600080fd5b5051600285015490915043118015611f385750600081115b15611f75576000611f528560020154438760010154611fe2565b9050611f71611f6a83610c3e8464e8d4a51000612579565b84906125d9565b9250505b611fa38360010154611f9d64e8d4a51000610c3e86886000015461257990919063ffffffff16565b90612633565b979650505050505050565b611fb78161178d565b611903816126fb565b60016020526000908152604090205460ff1681565b600b8181548110610edb57fe5b600080611fef8585611cfa565b90506000612012601354610c3e86610c386005548761257990919063ffffffff16565b9050600061210a600360009054906101000a90046001600160a01b03166001600160a01b03166318160ddd6040518163ffffffff1660e01b815260040160206040518083038186803b15801561206757600080fd5b505afa15801561207b573d6000803e3d6000fd5b505050506040513d602081101561209157600080fd5b505160035460408051631aa93a7560e11b815290516001600160a01b039092169163355274ea91600480820192602092909190829003018186803b1580156120d857600080fd5b505afa1580156120ec573d6000803e3d6000fd5b505050506040513d602081101561210257600080fd5b505190612633565b90508181101561211c57809350612120565b8193505b5050509392505050565b60098181548110610edb57fe5b60126020526000908152604090205460ff1681565b6121546126f7565b6001600160a01b0316612165611ceb565b6001600160a01b0316146121ae576040805162461bcd60e51b81526020600482018190526024820152600080516020612e1c833981519152604482015290519081900360640190fd5b6001600160a01b0381166000818152600160208190526040808320805460ff1916909217909155517fdd10d14f6ac19e913d4edbb11fd30661531e2ccd0d23f571e9b224f001f0dd069190a250565b600a8181548110610edb57fe5b6004546001600160a01b031681565b60116020526000908152604090205481565b600280541415612282576040805162461bcd60e51b815260206004820152601f60248201527f5265656e7472616e637947756172643a207265656e7472616e742063616c6c00604482015290519081900360640190fd5b60028055806122c25760405162461bcd60e51b8152600401808060200182810382526032815260200180612dc96032913960400191505060405180910390fd5b6000600f83815481106122d157fe5b6000918252602080832086845260108252604080852033865283528085206011909352909320546004909202909201925061230c90846125d9565b336000908152601160205260409020556123258461178d565b61232e846126fb565b8154612345906001600160a01b03163330866129d2565b8054612352574360028201555b805461235e90846125d9565b808255600383015461237b9164e8d4a5100091610c3e9190612579565b6001820155604080518481529051859133917f90890809c654f11d6e72a28fa60149770a0d11ec6c92319d6ceb2bb0a4ea1a159181900360200190a360048101546123c7574360048201555b436005909101555050600160025550565b3360009081526001602052604090205460ff16806124055750336123fa611ceb565b6001600160a01b0316145b61240e57600080fd5b6003546040805163f2fde38b60e01b81526001600160a01b0384811660048301529151919092169163f2fde38b91602480830192600092919082900301818387803b15801561245c57600080fd5b505af1158015612470573d6000803e3d6000fd5b5050505050565b61247f6126f7565b6001600160a01b0316612490611ceb565b6001600160a01b0316146124d9576040805162461bcd60e51b81526020600482018190526024820152600080516020612e1c833981519152604482015290519081900360640190fd5b6001600160a01b03811661251e5760405162461bcd60e51b8152600401808060200182810382526026815260200180612d566026913960400191505060405180910390fd5b600080546040516001600160a01b03808516939216917f8be0079c531659141344cd1fd0a4f28419497f9722a3daafe3b4186f6b6457e091a3600080546001600160a01b0319166001600160a01b0392909216919091179055565b60008261258857506000611df5565b8282028284828161259557fe5b04146125d25760405162461bcd60e51b8152600401808060200182810382526021815260200180612dfb6021913960400191505060405180910390fd5b9392505050565b6000828201838110156125d2576040805162461bcd60e51b815260206004820152601b60248201527f536166654d6174683a206164646974696f6e206f766572666c6f770000000000604482015290519081900360640190fd5b60008282111561268a576040805162461bcd60e51b815260206004820152601e60248201527f536166654d6174683a207375627472616374696f6e206f766572666c6f770000604482015290519081900360640190fd5b50900390565b60008082116126e6576040805162461bcd60e51b815260206004820152601a60248201527f536166654d6174683a206469766973696f6e206279207a65726f000000000000604482015290519081900360640190fd5b8183816126ef57fe5b049392505050565b3390565b6000600f828154811061270a57fe5b6000918252602080832085845260108252604080852033865290925292208054600490920290920192501561297b5760006127678260010154611f9d64e8d4a51000610c3e8760030154876000015461257990919063ffffffff16565b600354604080516370a0823160e01b815230600482015290519293506000926001600160a01b03909216916370a0823191602480820192602092909190829003018186803b1580156127b857600080fd5b505afa1580156127cc573d6000803e3d6000fd5b505050506040513d60208110156127e257600080fd5b50519050808211156127f2578091505b8115612958576003546040805163a9059cbb60e01b81523360048201526024810185905290516001600160a01b039092169163a9059cbb916044808201926020929091908290030181600087803b15801561284c57600080fd5b505af1158015612860573d6000803e3d6000fd5b505050506040513d602081101561287657600080fd5b5050600c54600284015460009110612911576128a26064610c3e600e548661257990919063ffffffff16565b6003546040805163282d3fdf60e01b81523360048201526024810184905290519293506001600160a01b039091169163282d3fdf9160448082019260009290919082900301818387803b1580156128f857600080fd5b505af115801561290c573d6000803e3d6000fd5b505050505b43600285015560408051848152602081018390528151889233927fb848bb3f208d3e99f7d61ea4e6e9a7bcb30e7118440e5e45d0cea5d7bfe9606a929081900390910190a3505b600384015483546129739164e8d4a5100091610c3e91612579565b600184015550505b505050565b604080516001600160a01b038416602482015260448082018490528251808303909101815260649091019091526020810180516001600160e01b031663a9059cbb60e01b17905261297b908490612a32565b604080516001600160a01b0380861660248301528416604482015260648082018490528251808303909101815260849091019091526020810180516001600160e01b03166323b872dd60e01b179052612a2c908590612a32565b50505050565b6060612a87826040518060400160405280602081526020017f5361666545524332303a206c6f772d6c6576656c2063616c6c206661696c6564815250856001600160a01b0316612ae39092919063ffffffff16565b80519091501561297b57808060200190516020811015612aa657600080fd5b505161297b5760405162461bcd60e51b815260040180806020018281038252602a815260200180612e84602a913960400191505060405180910390fd5b6060612af28484600085612afa565b949350505050565b606082471015612b3b5760405162461bcd60e51b8152600401808060200182810382526026815260200180612da36026913960400191505060405180910390fd5b612b4485612c4b565b612b95576040805162461bcd60e51b815260206004820152601d60248201527f416464726573733a2063616c6c20746f206e6f6e2d636f6e7472616374000000604482015290519081900360640190fd5b60006060866001600160a01b031685876040518082805190602001908083835b60208310612bd45780518252601f199092019160209182019101612bb5565b6001836020036101000a03801982511681845116808217855250505050505090500191505060006040518083038185875af1925050503d8060008114612c36576040519150601f19603f3d011682016040523d82523d6000602084013e612c3b565b606091505b5091509150611fa3828286612c51565b3b151590565b60608315612c605750816125d2565b825115612c705782518084602001fd5b8160405162461bcd60e51b81526004018080602001828103825283818151815260200191508051906020019080838360005b83811015612cba578181015183820152602001612ca2565b50505050905090810190601f168015612ce75780820380516001836020036101000a031916815260200191505b509250505060405180910390fd5b828054828255906000526020600020908101928215612d30579160200282015b82811115612d30578251825591602001919060010190612d15565b50612d3c929150612d40565b5090565b5b80821115612d3c5760008155600101612d4156fe4f776e61626c653a206e6577206f776e657220697320746865207a65726f20616464726573734d617374657220486570613a204d756c7469706c69657273206172726179206d69736d61746368416464726573733a20696e73756666696369656e742062616c616e636520666f722063616c6c4d6173746572486570613a3a6465706f7369743a20616d6f756e74206d7573742062652067726561746572207468616e2030536166654d6174683a206d756c7469706c69636174696f6e206f766572666c6f774f776e61626c653a2063616c6c6572206973206e6f7420746865206f776e65724d617374657220486570613a2048616c76696e67206172726179206d69736d617463684d6173746572486570613a3a6e6f6e4475706c6963617465643a206475706c6963617465645361666545524332303a204552433230206f7065726174696f6e20646964206e6f7420737563636565644d617374657220486570613a2043616e206f6e6c7920726564756365206c6f636b2076616c7565a2646970667358221220c5605e8067094eb8d9ed7ce1c15be92e5b283e89a51dee8805b6ba79d229203c64736f6c634300060c0033a66cc928b5edb82af9bd49922954155ab7b0942694bea4ce44661d9a8736c688536166654d6174683a206d756c7469706c69636174696f6e206f766572666c6f77",
  "devdoc": {
    "kind": "dev",
    "methods": {
      "owner()": {
        "details": "Returns the address of the current owner."
      },
      "renounceOwnership()": {
        "details": "Leaves the contract without owner. It will not be possible to call `onlyOwner` functions anymore. Can only be called by the current owner. NOTE: Renouncing ownership will leave the contract without an owner, thereby removing any functionality that is only available to the owner."
      },
      "transferOwnership(address)": {
        "details": "Transfers ownership of the contract to a new account (`newOwner`). Can only be called by the current owner."
      }
    },
    "version": 1
  },
  "userdoc": {
    "kind": "user",
    "methods": {},
    "version": 1
  },
  "storageLayout": {
    "storage": [
      {
        "astId": 7,
        "contract": "contracts/MasterHepa.sol:MasterHepa",
        "label": "_owner",
        "offset": 0,
        "slot": "0",
        "type": "t_address"
      },
      {
        "astId": 2118,
        "contract": "contracts/MasterHepa.sol:MasterHepa",
        "label": "authorized",
        "offset": 0,
        "slot": "1",
        "type": "t_mapping(t_address,t_bool)"
      },
      {
        "astId": 2080,
        "contract": "contracts/MasterHepa.sol:MasterHepa",
        "label": "_status",
        "offset": 0,
        "slot": "2",
        "type": "t_uint256"
      },
      {
        "astId": 2678,
        "contract": "contracts/MasterHepa.sol:MasterHepa",
        "label": "govToken",
        "offset": 0,
        "slot": "3",
        "type": "t_contract(HepaToken)2632"
      },
      {
        "astId": 2680,
        "contract": "contracts/MasterHepa.sol:MasterHepa",
        "label": "devaddr",
        "offset": 0,
        "slot": "4",
        "type": "t_address"
      },
      {
        "astId": 2682,
        "contract": "contracts/MasterHepa.sol:MasterHepa",
        "label": "REWARD_PER_BLOCK",
        "offset": 0,
        "slot": "5",
        "type": "t_uint256"
      },
      {
        "astId": 2685,
        "contract": "contracts/MasterHepa.sol:MasterHepa",
        "label": "REWARD_MULTIPLIER",
        "offset": 0,
        "slot": "6",
        "type": "t_array(t_uint256)dyn_storage"
      },
      {
        "astId": 2688,
        "contract": "contracts/MasterHepa.sol:MasterHepa",
        "label": "HALVING_AT_BLOCK",
        "offset": 0,
        "slot": "7",
        "type": "t_array(t_uint256)dyn_storage"
      },
      {
        "astId": 2691,
        "contract": "contracts/MasterHepa.sol:MasterHepa",
        "label": "blockDeltaStartStage",
        "offset": 0,
        "slot": "8",
        "type": "t_array(t_uint256)dyn_storage"
      },
      {
        "astId": 2694,
        "contract": "contracts/MasterHepa.sol:MasterHepa",
        "label": "blockDeltaEndStage",
        "offset": 0,
        "slot": "9",
        "type": "t_array(t_uint256)dyn_storage"
      },
      {
        "astId": 2697,
        "contract": "contracts/MasterHepa.sol:MasterHepa",
        "label": "userFeeStage",
        "offset": 0,
        "slot": "10",
        "type": "t_array(t_uint256)dyn_storage"
      },
      {
        "astId": 2700,
        "contract": "contracts/MasterHepa.sol:MasterHepa",
        "label": "devFeeStage",
        "offset": 0,
        "slot": "11",
        "type": "t_array(t_uint256)dyn_storage"
      },
      {
        "astId": 2702,
        "contract": "contracts/MasterHepa.sol:MasterHepa",
        "label": "FINISH_BONUS_AT_BLOCK",
        "offset": 0,
        "slot": "12",
        "type": "t_uint256"
      },
      {
        "astId": 2704,
        "contract": "contracts/MasterHepa.sol:MasterHepa",
        "label": "START_BLOCK",
        "offset": 0,
        "slot": "13",
        "type": "t_uint256"
      },
      {
        "astId": 2706,
        "contract": "contracts/MasterHepa.sol:MasterHepa",
        "label": "PERCENT_LOCK_BONUS_REWARD",
        "offset": 0,
        "slot": "14",
        "type": "t_uint256"
      },
      {
        "astId": 2709,
        "contract": "contracts/MasterHepa.sol:MasterHepa",
        "label": "poolInfo",
        "offset": 0,
        "slot": "15",
        "type": "t_array(t_struct(PoolInfo)2676_storage)dyn_storage"
      },
      {
        "astId": 2715,
        "contract": "contracts/MasterHepa.sol:MasterHepa",
        "label": "userInfo",
        "offset": 0,
        "slot": "16",
        "type": "t_mapping(t_uint256,t_mapping(t_address,t_struct(UserInfo)2667_storage))"
      },
      {
        "astId": 2719,
        "contract": "contracts/MasterHepa.sol:MasterHepa",
        "label": "userGlobalInfo",
        "offset": 0,
        "slot": "17",
        "type": "t_mapping(t_address,t_uint256)"
      },
      {
        "astId": 2723,
        "contract": "contracts/MasterHepa.sol:MasterHepa",
        "label": "poolExistence",
        "offset": 0,
        "slot": "18",
        "type": "t_mapping(t_contract(IERC20)1045,t_bool)"
      },
      {
        "astId": 2725,
        "contract": "contracts/MasterHepa.sol:MasterHepa",
        "label": "totalAllocPoint",
        "offset": 0,
        "slot": "19",
        "type": "t_uint256"
      }
    ],
    "types": {
      "t_address": {
        "encoding": "inplace",
        "label": "address",
        "numberOfBytes": "20"
      },
      "t_array(t_struct(PoolInfo)2676_storage)dyn_storage": {
        "base": "t_struct(PoolInfo)2676_storage",
        "encoding": "dynamic_array",
        "label": "struct MasterHepa.PoolInfo[]",
        "numberOfBytes": "32"
      },
      "t_array(t_uint256)dyn_storage": {
        "base": "t_uint256",
        "encoding": "dynamic_array",
        "label": "uint256[]",
        "numberOfBytes": "32"
      },
      "t_bool": {
        "encoding": "inplace",
        "label": "bool",
        "numberOfBytes": "1"
      },
      "t_contract(HepaToken)2632": {
        "encoding": "inplace",
        "label": "contract HepaToken",
        "numberOfBytes": "20"
      },
      "t_contract(IERC20)1045": {
        "encoding": "inplace",
        "label": "contract IERC20",
        "numberOfBytes": "20"
      },
      "t_mapping(t_address,t_bool)": {
        "encoding": "mapping",
        "key": "t_address",
        "label": "mapping(address => bool)",
        "numberOfBytes": "32",
        "value": "t_bool"
      },
      "t_mapping(t_address,t_struct(UserInfo)2667_storage)": {
        "encoding": "mapping",
        "key": "t_address",
        "label": "mapping(address => struct MasterHepa.UserInfo)",
        "numberOfBytes": "32",
        "value": "t_struct(UserInfo)2667_storage"
      },
      "t_mapping(t_address,t_uint256)": {
        "encoding": "mapping",
        "key": "t_address",
        "label": "mapping(address => uint256)",
        "numberOfBytes": "32",
        "value": "t_uint256"
      },
      "t_mapping(t_contract(IERC20)1045,t_bool)": {
        "encoding": "mapping",
        "key": "t_contract(IERC20)1045",
        "label": "mapping(contract IERC20 => bool)",
        "numberOfBytes": "32",
        "value": "t_bool"
      },
      "t_mapping(t_uint256,t_mapping(t_address,t_struct(UserInfo)2667_storage))": {
        "encoding": "mapping",
        "key": "t_uint256",
        "label": "mapping(uint256 => mapping(address => struct MasterHepa.UserInfo))",
        "numberOfBytes": "32",
        "value": "t_mapping(t_address,t_struct(UserInfo)2667_storage)"
      },
      "t_struct(PoolInfo)2676_storage": {
        "encoding": "inplace",
        "label": "struct MasterHepa.PoolInfo",
        "members": [
          {
            "astId": 2669,
            "contract": "contracts/MasterHepa.sol:MasterHepa",
            "label": "lpToken",
            "offset": 0,
            "slot": "0",
            "type": "t_contract(IERC20)1045"
          },
          {
            "astId": 2671,
            "contract": "contracts/MasterHepa.sol:MasterHepa",
            "label": "allocPoint",
            "offset": 0,
            "slot": "1",
            "type": "t_uint256"
          },
          {
            "astId": 2673,
            "contract": "contracts/MasterHepa.sol:MasterHepa",
            "label": "lastRewardBlock",
            "offset": 0,
            "slot": "2",
            "type": "t_uint256"
          },
          {
            "astId": 2675,
            "contract": "contracts/MasterHepa.sol:MasterHepa",
            "label": "accGovTokenPerShare",
            "offset": 0,
            "slot": "3",
            "type": "t_uint256"
          }
        ],
        "numberOfBytes": "128"
      },
      "t_struct(UserInfo)2667_storage": {
        "encoding": "inplace",
        "label": "struct MasterHepa.UserInfo",
        "members": [
          {
            "astId": 2656,
            "contract": "contracts/MasterHepa.sol:MasterHepa",
            "label": "amount",
            "offset": 0,
            "slot": "0",
            "type": "t_uint256"
          },
          {
            "astId": 2658,
            "contract": "contracts/MasterHepa.sol:MasterHepa",
            "label": "rewardDebt",
            "offset": 0,
            "slot": "1",
            "type": "t_uint256"
          },
          {
            "astId": 2660,
            "contract": "contracts/MasterHepa.sol:MasterHepa",
            "label": "rewardDebtAtBlock",
            "offset": 0,
            "slot": "2",
            "type": "t_uint256"
          },
          {
            "astId": 2662,
            "contract": "contracts/MasterHepa.sol:MasterHepa",
            "label": "lastWithdrawBlock",
            "offset": 0,
            "slot": "3",
            "type": "t_uint256"
          },
          {
            "astId": 2664,
            "contract": "contracts/MasterHepa.sol:MasterHepa",
            "label": "firstDepositBlock",
            "offset": 0,
            "slot": "4",
            "type": "t_uint256"
          },
          {
            "astId": 2666,
            "contract": "contracts/MasterHepa.sol:MasterHepa",
            "label": "lastDepositBlock",
            "offset": 0,
            "slot": "5",
            "type": "t_uint256"
          }
        ],
        "numberOfBytes": "192"
      },
      "t_uint256": {
        "encoding": "inplace",
        "label": "uint256",
        "numberOfBytes": "32"
      }
    }
  }
}